:020000040800F2
:10000000008002208D530008F34A0008014B0008CD
:10001000074B00080D4B0008134B000800000000C0
:10002000000000000000000000000000194B000864
:10003000274B000800000000354B0008434B000828
:10004000DD530008DD530008DD530008DD530008D0
:10005000DD530008DD530008DD530008DD530008C0
:10006000DD530008DD530008DD530008DD530008B0
:10007000DD530008DD530008DD530008DD530008A0
:10008000DD530008DD530008DD530008DD53000890
:10009000DD530008DD530008DD530008814C0008E3
:1000A000DD530008DD530008DD530008DD53000870
:1000B000DD530008DD53000800000000DD53000898
:1000C000DD530008DD530008DD530008DD53000850
:1000D000DD530008514B0008DD530008DD530008D4
:1000E000394C0008DD53000800000000000000004B
:1000F0000000000000000000000000000000000000
:1001000000000000DD53000800000000DD5300087F
:10011000DD53000800000000DD530008000000006F
:10012000DD530008DD530008DD530008DD530008EF
:10013000DD530008DD530008DD5300080000000017
:10014000DD530008DD530008DD530008DD530008CF
:10015000DD530008DD530008DD530008DD530008BF
:10016000DD530008DD530008DD53000800000000E7
:1001700000000000DD530008000000000000000047
:10018000DD530008DD530008DD530008DD5300088F
:04019000DD53000833
:1001A00010B5054C237833B9044B13B10448AFF3B1
:1001B00000800123237010BD7400002000000000A7
:1001C000F062000808B5034B1BB103490348AFF3C5
:1001D000008008BD0000000078000020F0620008E8
:1001E00001F0FF01102A2BDB10F0070F08D010F8E8
:1001F000013B013A8B422DD010F0070F42B3F6D1EC
:10020000F0B441EA012141EA014122F007047FF004
:1002100000070023F0E80256083C85EA010586EA5B
:10022000010685FA47F5A3FA87F586FA47F6A5FA97
:1002300087F68EB9EED1F0BC01F0FF0102F00702A3
:1002400032B110F8013B013A83EA010313B1F8D14E
:100250000020704701387047002D06BF354603382F
:10026000073815F0010F07D1013015F4807F02BF68
:10027000013015F4C03F0130F0BC0138704700BFB9
:1002800081F0004102E000BF83F0004330B54FEA47
:1002900041044FEA430594EA050F08BF90EA020FB4
:1002A0001FBF54EA000C55EA020C7FEA645C7FEA47
:1002B000655C00F0E2804FEA5454D4EB5555B8BF6A
:1002C0006D420CDD2C4480EA020281EA030382EADB
:1002D000000083EA010180EA020281EA0303362D6D
:1002E00088BF30BD11F0004F4FEA01314FF4801C40
:1002F0004CEA113102D0404261EB410113F0004F52
:100300004FEA03334CEA133302D0524263EB430308
:1003100094EA050F00F0A780A4F10104D5F1200EA6
:100320000DDB02FA0EFC22FA05F2801841F1000101
:1003300003FA0EF2801843FA05F359410EE0A5F1D5
:1003400020050EF1200E012A03FA0EFC28BF4CF006
:10035000020C43FA05F3C01851EBE37101F00045BC
:1003600007D54FF0000EDCF1000C7EEB00006EEBC9
:100370000101B1F5801F1BD3B1F5001F0CD3490853
:100380005FEA30004FEA3C0C04F101044FEA4452AA
:1003900012F5800F80F09A80BCF1004F08BF5FEA31
:1003A000500C50F1000041EB045141EA050130BD11
:1003B0005FEA4C0C404141EB010111F4801FA4F1B4
:1003C0000104E9D191F0000F04BF01460020B1FA09
:1003D00081F308BF2033A3F10B03B3F120020CDA41
:1003E0000C3208DD02F1140CC2F10C0201FA0CF01F
:1003F00021FA02F10CE002F11402D8BFC2F1200C84
:1004000001FA02F120FA0CFCDCBF41EA0C01904039
:10041000E41AA2BF01EB0451294330BD6FEA040482
:100420001F3C1CDA0C340EDC04F11404C4F120026D
:1004300020FA04F001FA02F340EA030021FA04F37F
:1004400045EA030130BDC4F10C04C4F1200220FAD6
:1004500002F001FA04F340EA0300294630BD21FA14
:1004600004F0294630BD94F0000F83F4801306BFDA
:1004700081F480110134013D4EE77FEA645C18BFCE
:100480007FEA655C29D094EA050F08BF90EA020F65
:1004900005D054EA000C04BF1946104630BD91EA5D
:1004A000030F1EBF0021002030BD5FEA545C05D160
:1004B0004000494128BF41F0004130BD14F580049F
:1004C0003CBF01F5801130BD01F0004545F0FE4113
:1004D00041F470014FF0000030BD7FEA645C1ABF48
:1004E000194610467FEA655C1CBF0B46024650EA7F
:1004F000013406BF52EA033591EA030F41F40021AB
:1005000030BD00BF90F0000F04BF0021704730B530
:100510004FF4806404F132044FF000054FF0000105
:1005200050E700BF90F0000F04BF0021704730B5C6
:100530004FF4806404F1320410F0004548BF40429B
:100540004FF000013EE700BF42004FEAE2014FEAF0
:1005500031014FEA02701FBF12F07F4393F07F4FCB
:1005600081F06051704792F0000F14BF93F07F4FFD
:10057000704730B54FF4607401F0004521F0004140
:1005800020E700BF50EA010208BF704730B54FF0C6
:1005900000050AE050EA010208BF704730B511F0CB
:1005A000004502D5404261EB41014FF4806404F103
:1005B00032045FEA915C3FF4DCAE4FF003025FEA85
:1005C000DC0C18BF03325FEADC0C18BF033202EB0D
:1005D000DC02C2F1200300FA03FC20FA02F001FA67
:1005E00003FE40EA0E0021FA02F11444C1E600BF06
:1005F00070B54FF0FF0C4CF4E06C1CEA11541DBFB9
:100600001CEA135594EA0C0F95EA0C0F00F0DEF883
:100610002C4481EA030621EA4C5123EA4C5350EA68
:10062000013518BF52EA033541F4801143F48013B9
:1006300038D0A0FB02CE4FF00005E1FB02E506F04A
:100640000042E0FB03E54FF00006E1FB03569CF09F
:10065000000F18BF4EF0010EA4F1FF04B6F5007FA5
:1006600064F5407404D25FEA4E0E6D4146EB060617
:1006700042EAC62141EA55514FEAC52040EA5E50A0
:100680004FEACE2EB4F1FD0C88BFBCF5E06F1ED84A
:10069000BEF1004F08BF5FEA500E50F1000041EB81
:1006A000045170BD06F0004646EA010140EA02002E
:1006B00081EA0301B4EB5C04C2BFD4EB0C0541EA50
:1006C000045170BD41F480114FF0000E013C00F365
:1006D000AB8014F1360FDEBF002001F0004170BD89
:1006E000C4F10004203C35DA0C341BDC04F11404A2
:1006F000C4F1200500FA05F320FA04F001FA05F22E
:1007000040EA020001F0004221F0004110EBD370FA
:1007100021FA04F642EB06015EEA430E08BF20EA26
:10072000D37070BDC4F10C04C4F1200500FA04F3C9
:1007300020FA05F001FA04F240EA020001F000415B
:1007400010EBD37041F100015EEA430E08BF20EACE
:10075000D37070BDC4F1200500FA05F24EEA020E16
:1007600020FA04F301FA05F243EA020321FA04F045
:1007700001F0004121FA04F220EA020000EBD370FC
:100780005EEA430E08BF20EAD37070BD94F0000FFC
:100790000FD101F00046400041EB010111F4801F30
:1007A00008BF013CF7D041EA060195F0000F18BFE1
:1007B000704703F00046520043EB030313F4801F1D
:1007C00008BF013DF7D043EA0603704794EA0C0FD7
:1007D0000CEA135518BF95EA0C0F0CD050EA4106ED
:1007E00018BF52EA4306D1D181EA030101F000416A
:1007F0004FF0000070BD50EA410606BF1046194692
:1008000052EA430619D094EA0C0F02D150EA01369D
:1008100013D195EA0C0F05D152EA03361CBF1046DE
:1008200019460AD181EA030101F0004141F0FE417D
:1008300041F470014FF0000070BD41F0FE4141F401
:10084000780170BD70B54FF0FF0C4CF4E06C1CEA01
:1008500011541DBF1CEA135594EA0C0F95EA0C0FB6
:1008600000F0A7F8A4EB050481EA030E52EA033571
:100870004FEA013100F088804FEA03334FF0805592
:1008800045EA131343EA12634FEA022245EA1115BF
:1008900045EA10654FEA00260EF000419D4208BF70
:1008A000964244F1FD0404F5407402D25B084FEA1D
:1008B0003202B61A65EB03055B084FEA32024FF4C9
:1008C00080104FF4002CB6EB020E75EB030E22BF26
:1008D000B61A754640EA0C005B084FEA3202B6EBE6
:1008E000020E75EB030E22BFB61A754640EA5C0095
:1008F0005B084FEA3202B6EB020E75EB030E22BF25
:10090000B61A754640EA9C005B084FEA3202B6EB25
:10091000020E75EB030E22BFB61A754640EADC00E4
:1009200055EA060E18D04FEA051545EA16754FEA46
:1009300006164FEAC30343EA52734FEAC2025FEA64
:100940001C1CC0D111F4801F0BD141EA00014FF0F3
:1009500000004FF0004CB6E711F4801F04BF0143C4
:100960000020B4F1FD0C88BFBCF5E06F3FF6AFAEE0
:10097000B5EB030C04BFB6EB020C5FEA500C50F170
:10098000000041EB045170BD0EF0004E4EEA1131F3
:1009900014EB5C04C2BFD4EB0C0541EA045170BDFA
:1009A00041F480114FF0000E013C90E645EA060E3E
:1009B0008DE60CEA135594EA0C0F08BF95EA0C0F6C
:1009C0003FF43BAF94EA0C0F0AD150EA01347FF4B4
:1009D00034AF95EA0C0F7FF425AF104619462CE78B
:1009E00095EA0C0F06D152EA03353FF4FDAE1046EE
:1009F000194622E750EA410618BF52EA43067FF43F
:100A0000C5AE50EA41047FF40DAF52EA43057FF4CE
:100A1000EBAE12E74FEA4102B2F1E04324BFB3F577
:100A2000001CDCF1FE5C0DD901F0004C4FEAC00265
:100A30004CEA5070B2F1004F40EB830008BF20F049
:100A40000100704711F0804F21D113F13872BCBF03
:100A500001F00040704741F480114FEA5252C2F158
:100A60001802C2F1200C10FA0CF320FA02F018BFA1
:100A700040F001004FEAC1234FEAD32303FA0CFCF4
:100A800040EA0C0023FA02F34FEA4303CCE77FEA83
:100A9000625307D150EA01331EBF4FF0FE4040F4CD
:100AA0004000704701F0004040F0FE4040F400007C
:100AB000704700BF80B483B000AF78600549054B34
:100AC0001A687B6813430B6000BF0C37BD465DF8A6
:100AD000047B70470004014080B483B000AF7860AD
:100AE0000549054B1A6A7B6813430B6200BF0C373C
:100AF000BD465DF8047B70470004014080B483B0BC
:100B000000AF78600649064B1A687B68DB431340E8
:100B10000B6000BF0C37BD465DF8047B704700BF1B
:100B20000004014080B483B000AF78600649064BF2
:100B30001A6A7B68DB4313400B6200BF0C37BD466B
:100B40005DF8047B704700BF0004014080B483B0AF
:100B500000AF78600549054B5A687B6813434B60CA
:100B600000BF0C37BD465DF8047B704700040140B0
:100B700080B483B000AF78600549054B5A6A7B6842
:100B800013434B6200BF0C37BD465DF8047B7047D2
:100B90000004014080B483B000AF78600649064B82
:100BA0005A687B68DB4313404B6000BF0C37BD467F
:100BB0005DF8047B704700BF0004014080B483B03F
:100BC00000AF78600649064B5A6A7B68DB431340E6
:100BD0004B6200BF0C37BD465DF8047B704700BF19
:100BE0000004014080B483B000AF78600549054B34
:100BF0009A687B6813438B6000BF0C37BD465DF875
:100C0000047B70470004014080B483B000AF78607B
:100C10000549054B9A6A7B6813438B6200BF0C370A
:100C2000BD465DF8047B70470004014080B483B08A
:100C300000AF78600649064B9A687B68DB43134037
:100C40008B6000BF0C37BD465DF8047B704700BF6A
:100C50000004014080B483B000AF78600649064BC1
:100C60009A6A7B68DB4313408B6200BF0C37BD463A
:100C70005DF8047B704700BF0004014080B483B07E
:100C800000AF78600549054BDA687B681343CB6099
:100C900000BF0C37BD465DF8047B7047000401407F
:100CA00080B483B000AF78600549054BDA6A7B6891
:100CB0001343CB6200BF0C37BD465DF8047B704721
:100CC0000004014080B483B000AF78600649064B51
:100CD000DA687B68DB431340CB6000BF0C37BD464E
:100CE0005DF8047B704700BF0004014080B483B00E
:100CF00000AF78600649064BDA6A7B68DB43134035
:100D0000CB6200BF0C37BD465DF8047B704700BF67
:100D10000004014080B584B000AF78600123FB730C
:100D20007B681B7A002B00F0C1807B681B68002B5E
:100D30005BD07B685B7A012B0ED0022B17D0002B87
:100D400020D17B681B681846FFF724FF7B681B686F
:100D50001846FFF7AFFE18E07B681B681846FFF7E0
:100D6000CDFE7B681B681846FFF7F0FE0DE07B6840
:100D70001B681846FFF79EFE7B681B681846FFF746
:100D8000E5FE02E00023FB7300BF7B689B7A002B2B
:100D90002BD07B689B7A022B0ED0032B17D0012B14
:100DA00020D17B681B681846FFF78CFF7B681B68A7
:100DB0001846FFF717FF18E07B681B681846FFF717
:100DC00035FF7B681B681846FFF758FF0DE07B680E
:100DD0001B681846FFF706FF7B681B681846FFF77D
:100DE0004DFF02E00023FB7300BF7B685B68002BB4
:100DF00070D07B685B7A012B0ED0022B17D0002BB2
:100E000020D17B685B681846FFF7D8FE7B685B687B
:100E10001846FFF761FE18E07B685B681846FFF72D
:100E200081FE7B685B681846FFF7A2FE0DE07B68D9
:100E30005B681846FFF750FE7B685B681846FFF753
:100E400097FE02E00023FB7300BF7B689B7A002BB8
:100E500040D07B689B7A022B0ED0032B17D0012B3E
:100E600020D17B685B681846FFF740FF7B685B68B2
:100E70001846FFF7C9FE2DE07B685B681846FFF750
:100E8000E9FE7B685B681846FFF70AFF22E07B6893
:100E90005B681846FFF7B8FE7B685B681846FFF78B
:100EA000FFFE17E00023FB7300BF13E07B681B68A5
:100EB0001846FFF723FE7B681B681846FFF76AFE9B
:100EC0007B685B681846FFF72DFE7B685B681846F9
:100ED000FFF774FEFB7B18461037BD4680BD80B41B
:100EE00089B000AFF860B9607A60FB681A68BB68C7
:100EF0007B617B6993FAA3F33B613B69B3FA83F3AC
:100F00005B00032101FA03F3DB431A40BB68FB617A
:100F1000FB6993FAA3F3BB61BB69B3FA83F35B008C
:100F2000796801FA03F31A43FB681A6000BF24379B
:100F3000BD465DF8047B704780B485B000AFF860B3
:100F4000B9607A60FB685A68BB68DB431A40BB68CB
:100F5000796801FB03F31A43FB685A6000BF14373A
:100F6000BD465DF8047B704780B489B000AFF8607F
:100F7000B9607A60FB689A68BB687B617B6993FAA9
:100F8000A3F33B613B69B3FA83F35B00032101FAEE
:100F900003F3DB431A40BB68FB61FB6993FAA3F3DD
:100FA000BB61BB69B3FA83F35B00796801FA03F3B1
:100FB0001A43FB689A6000BF2437BD465DF8047B86
:100FC000704780B489B000AFF860B9607A60FB68A0
:100FD000DA68BB687B617B6993FAA3F33B613B6989
:100FE000B3FA83F35B00032101FA03F3DB431A40F6
:100FF000BB68FB61FB6993FAA3F3BB61BB69B3FAFE
:1010000083F35B00796801FA03F31A43FB68DA6043
:1010100000BF2437BD465DF8047B704780B489B0BB
:1010200000AFF860B9607A60FB681A6ABB687B61E0
:101030007B6993FAA3F33B613B69B3FA83F39B00AB
:101040000F2101FA03F3DB431A40BB68FB61FB6924
:1010500093FAA3F3BB61BB69B3FA83F39B0079688E
:1010600001FA03F31A43FB681A6200BF2437BD4636
:101070005DF8047B704780B489B000AFF860B96058
:101080007A60FB685A6ABB681B0A7B617B6993FACA
:10109000A3F33B613B69B3FA83F39B000F2101FA91
:1010A00003F3DB431A40BB681B0AFB61FB6993FA3D
:1010B000A3F3BB61BB69B3FA83F39B00796801FAC0
:1010C00003F31A43FB685A6200BF2437BD465DF83C
:1010D000047B704780B588B000AF7860396000232A
:1010E000FB610023BB613B681B687B617B6993FAF2
:1010F000A3F33B613B69B3FA83F3FB6148E03B68D0
:101100001A680121FB6901FA03F31340BB61BB6953
:10111000002B3AD03B685B681A46B9697868FFF7DC
:10112000DEFE3B685B68012B03D03B685B68022BEB
:1011300006D13B689B681A46B9697868FFF714FFC7
:101140003B681B691A46B9697868FFF73AFF3B6844
:101150005B68022B19D1BB69FB60FB6893FAA3F3B0
:10116000BB60BB68B3FA83F3072B07D83B685B69A6
:101170001A46B9697868FFF751FF06E03B685B697A
:101180001A46B9697868FFF776FFFB690133FB619E
:101190003B681A68FB6922FA03F3002BAFD13B6866
:1011A0005B68012B03D03B685B68022B07D13B686F
:1011B00019683B68DB681A467868FFF7BDFE0123B3
:1011C00018462037BD4680BD80B483B000AF78603C
:1011D0007B681B6843F001027B681A6000BF0C3714
:1011E000BD465DF8047B704780B483B000AF786083
:1011F0007B681B6823F001027B681A6000BF0C3714
:10120000BD465DF8047B704780B485B000AFF860E0
:10121000B9607A60FB681B6823F4F8527B68190296
:10122000BB680B431A43FB681A6000BF1437BD4606
:101230005DF8047B704780B485B000AFF860B9609A
:101240007A60FB689B6823F4FF6323F00703B968A7
:101250007A680A431A43FB689A6000BF1437BD4698
:101260005DF8047B704780B483B000AF78607B6822
:101270009B6843F400427B689A6000BF0C37BD4610
:101280005DF8047B704780B483B000AF78607B6802
:101290009B6823F400427B689A6000BF0C37BD4610
:1012A0005DF8047B704780B483B000AF786039602C
:1012B0007B683A681A6100BF0C37BD465DF8047B55
:1012C000704780B483B000AF786039607B681B687A
:1012D00023F440123B681A437B681A6000BF0C3746
:1012E000BD465DF8047B704780B483B000AF786082
:1012F00039607B685B6823F400423B681A437B6873
:101300005A6000BF0C37BD465DF8047B704780B55E
:1013100082B000AF786039607868FFF765FF3B689E
:1013200099683B68DB681A467868FFF76DFF3B6891
:101330005B6819467868FFF7B6FF7868FFF744FFE7
:101340007868FFF7A0FF3B6819693B689B691A46FC
:101350007868FFF770FF3B681B69002B02D0786844
:10136000FFF781FF3B681B6819467868FFF7A9FF04
:101370003B685B6919467868FFF7B6FF012318469A
:101380000837BD4680BD000080B400AF074B1B6826
:1013900003F48063B3F5806F0CBF01230023DBB23D
:1013A0001846BD465DF8047B704700BF0010024040
:1013B00080B400AF074BD3F8903003F00203022B48
:1013C0000CBF01230023DBB21846BD465DF8047B49
:1013D000704700BF0010024080B400AF064B1B688E
:1013E00003F00803082B0CBF01230023DBB21846CF
:1013F000BD465DF8047B70470010024080B400AF2A
:10140000044B1B6803F0F0031846BD465DF8047BEF
:10141000704700BF0010024080B400AF044BD3F807
:10142000943003F470631846BD465DF8047B704742
:101430000010024080B400AF044B9B6803F00C0323
:101440001846BD465DF8047B704700BF001002409F
:1014500080B400AF044B9B6803F0F0031846BD4610
:101460005DF8047B704700BF0010024080B400AFFD
:10147000044B9B6803F4E0631846BD465DF8047BAB
:10148000704700BF0010024080B400AF044B9B685F
:1014900003F460531846BD465DF8047B704700BFF7
:1014A0000010024080B483B000AF7860064BD3F8E0
:1014B00088207B681A407B681B04134318460C374E
:1014C000BD465DF8047B70470010024080B483B0D5
:1014D00000AF7860064BD3F888207B681A407B68A1
:1014E0001B04134318460C37BD465DF8047B704758
:1014F0000010024080B400AF044BDB6803F003032C
:101500001846BD465DF8047B704700BF00100240DE
:1015100080B400AF044BDB681B0A03F07F0318465E
:10152000BD465DF8047B70470010024080B400AFF8
:10153000044BDB6803F0C0631846BD465DF8047BCE
:10154000704700BF0010024080B400AF044BDB685E
:1015500003F070031846BD465DF8047B704700BF7A
:101560000010024080B584B000AF78600023FB60BB
:101570007B68032B2ED17868FFF794FF03464F4A10
:10158000934209D0B3F1031F0ED04D4A934214D1B8
:1015900000F0E8F8F8608BE0FFF7F6FE0346002B5A
:1015A0007BD0484BFB6078E0FFF702FF0346002B3F
:1015B00075D04FF40043FB6071E000F0D3F80346B0
:1015C000184600F05FF90346184600F085F9F86008
:1015D00000BF6DE07B680C2B2ED17868FFF762FFAF
:1015E0000346394A934209D0B3F10C1F0ED0374A53
:1015F000934214D100F0B6F8F86059E0FFF7C4FE4A
:101600000346002B4DD02F4BFB604AE0FFF7D0FE86
:101610000346002B47D04FF40043FB6043E000F04B
:10162000A1F80346184600F02DF90346184600F0CD
:101630003FF9F86000BF3BE07B68302B38D1786819
:10164000FFF730FF0346224A934209D0B3F1301F1F
:101650000ED0204A934214D100F084F8F86027E0BD
:10166000FFF792FE0346002B1FD0164BFB601CE0D9
:10167000FFF79EFE0346002B19D04FF40043FB609A
:1016800015E000F06FF80346184600F0FBF803463B
:10169000184600F00DF9F8600AE000BF08E000BF4E
:1016A00006E000BF04E000BF02E000BF00E000BFB2
:1016B000FB6818461037BD4680BD00BF020003001E
:1016C000010003000024F40008000C0004000C00DA
:1016D000200030001000300080B584B000AF78608A
:1016E0000023FB607B68C02B30D17868FFF7EEFEEB
:1016F0000346194A934209D0B3F1C01F0ED0174ACE
:10170000934214D100F02EF8F8601FE0FFF73CFE82
:101710000346002B17D0124BFB6014E0FFF748FE86
:101720000346002B11D04FF40043FB600DE000F0A6
:1017300019F80346184600F0A5F80346184600F0CD
:10174000B7F8F86002E000BF00E000BFFB68184691
:101750001037BD4680BD00BF8000C0004000C00003
:101760000024F40080B582B000AF00237B60FFF757
:1017700061FE03460C2B51D801A252F823F000BFA2
:10178000B51700081D1800081D1800081D180008CE
:10179000091800081D1800081D1800081D18000869
:1017A0000F1800081D1800081D1800081D18000853
:1017B00015180008FFF710FE0346002B11D1FFF7A4
:1017C0000BFE0346002B04D0FFF718FE03461B0A4E
:1017D00003E0FFF721FE03461B0A284A52F8233094
:1017E00010E0FFF7F9FD0346002B04D0FFF706FEDB
:1017F00003461B0903E0FFF70FFE03461B091F4AC0
:1018000052F823307B6033E01D4B7B6030E01C4B93
:101810007B602DE000F074F8786029E0FFF7DCFDD4
:101820000346002B11D1FFF7D7FD0346002B04D050
:10183000FFF7E4FD03461B0A03E0FFF7EDFD034657
:101840001B0A0E4A52F8233010E0FFF7C5FD03468D
:10185000002B04D0FFF7D2FD03461B0903E0FFF77E
:10186000DBFD03461B09054A52F823307B6000BFAD
:101870007B6818460837BD4680BD00BF506600082B
:101880000024F40080B582B000AF7860FFF7E0FD7F
:1018900003461B0903F00F03044AD35C1A467B6816
:1018A000D34018460837BD4680BD00BF38660008E3
:1018B00080B582B000AF7860FFF7D8FD03461B0A01
:1018C000044AD35C1A467B68D34018460837BD46A5
:1018D00080BD00BF4866000880B582B000AF786068
:1018E000FFF7D2FD0346DB0A044AD35C1A467B6845
:1018F000D34018460837BD4680BD00BF4866000883
:1019000090B583B000AF00237B6000233B60FFF7FE
:10191000F1FD38603B68022B2DD0032B2ED0012B1C
:101920002FD1FFF759FD0346002B11D1FFF754FDCE
:101930000346002B04D0FFF761FD03461B0A03E0BA
:10194000FFF76AFD03461B0A2F4A52F8233010E0C6
:10195000FFF742FD0346002B04D0FFF74FFD03467F
:101960001B0903E0FFF758FD03461B09264A52F8FE
:1019700023307B602FE0254B7B602CE0234B7B608A
:1019800029E0FFF729FD0346002B11D1FFF724FDC5
:101990000346002B04D0FFF731FD03461B0A03E08A
:1019A000FFF73AFD03461B0A174A52F8233010E0AE
:1019B000FFF712FD0346002B04D0FFF71FFD03467F
:1019C0001B0903E0FFF728FD03461B090E4A52F8E6
:1019D00023307B6000BFFFF7B7FD03461B090133CF
:1019E0007A68B2FBF3F4FFF793FD034603FB04F4BC
:1019F000FFF79CFD03465B0E01335B00B4FBF3F382
:101A000018460C37BD4690BD506600080024F4000F
:101A100080B483B000AF78607B681B6803F040033C
:101A2000402B01D1012300E0002318460C37BD46AE
:101A30005DF8047B704780B483B000AF7860396094
:101A40003B689BB21A467B681A6100BF0C37BD46E3
:101A50005DF8047B704780B584B000AF7860396072
:101A60000023FB737868FFF7D3FF0346002B3BD1BD
:101A70007B681B6823F47F4323F0BF033A68116837
:101A80003A68526811433A68D26811433A68126959
:101A900011433A68526911433A68926911433A68AE
:101AA000D26911433A68126A0A431A437B681A6082
:101AB0007B685B6823F4706323F004033A689168E1
:101AC0003A685269120C0A431A437B685A603B68B1
:101AD0001B6AB3F5005F05D13B685B6A19467868FD
:101AE000FFF7A9FF0123FB73FB7B18461037BD46A8
:101AF00080BD80B483B000AF786039607B683A689D
:101B00009A6200BF0C37BD465DF8047B704780B415
:101B100083B000AF786039607B683A68DA6200BFF2
:101B20000C37BD465DF8047B704780B483B000AFCE
:101B3000786039607B683A681A6300BF0C37BD462D
:101B40005DF8047B704780B483B000AF7860396083
:101B50007B683A685A6300BF0C37BD465DF8047B6A
:101B6000704780B483B000AF786039607B683A68B2
:101B70009A6300BF0C37BD465DF8047B704780B4A4
:101B800083B000AF786039607B683A68DA6300BF81
:101B90000C37BD465DF8047B704780B483B000AF5E
:101BA000786039607B683A681A6400BF0C37BD46BC
:101BB0005DF8047B704780B483B000AF7860396013
:101BC0007B683A689A6500BF0C37BD465DF8047BB8
:101BD000704780B483B000AF786039607B683A6842
:101BE000DA6500BF0C37BD465DF8047B704780B4F2
:101BF00083B000AF78607B685B6943F001027B686B
:101C00005A6100BF0C37BD465DF8047B704780B455
:101C100083B000AF78607B6800221A807B68002266
:101C20005A607B684FF0FF329A607B680022DA606E
:101C30007B6800221A7400BF0C37BD465DF8047B38
:101C40007047000080B584B000AF786039607B6871
:101C50001B68FB607B682B4A934207D07B68B3F11B
:101C6000804F03D07B68284A934206D1FB6823F05B
:101C700070023B685B681343FB607B68214A9342B8
:101C80000FD07B68B3F1804F0BD07B681E4A934224
:101C900007D07B681D4A934203D07B681C4A93425D
:101CA00006D1FB6823F440723B68DB681343FB609A
:101CB0007B68FA681A603B689B6819467868FFF78A
:101CC00026FF3B681B8819467868FFF712FF7B6880
:101CD0000C4A934207D07B680C4A934203D07B683E
:101CE0000B4A934205D13B681B7C19467868FFF785
:101CF0001CFF7868FFF77BFF012318461037BD46AD
:101D000080BD00BF002C01400004004000400140A5
:101D10000044014080B483B000AF78607B6800224B
:101D20001A607B6800225A607B6800229A607B6898
:101D30000022DA607B6800221A617B6800225A6107
:101D40007B6800229A617B680022DA6100BF0C3751
:101D5000BD465DF8047B704780B586B000AFF86083
:101D6000B9607A600023FB75BB68B3F5807F1FD034
:101D7000B3F5807F04D8012B0CD0102B11D033E0A9
:101D8000B3F5803F22D0B3F5801F26D0B3F5805F36
:101D900015D029E07968F86800F02CF80346FB7547
:101DA00022E07968F86800F099F80346FB751BE0BB
:101DB0007968F86800F00AF90346FB7514E0796861
:101DC000F86800F07BF90346FB750DE07968F86868
:101DD00000F0D4F90346FB7506E07968F86800F076
:101DE00025FA0346FB7500BFFB7D18461837BD4634
:101DF00080BD000080B586B000AF786039607B6838
:101E00001B6A23F001027B681A627B681B6A7B6194
:101E10007B685B683B617B689B69FB60FB6823F0C8
:101E20000303FB60FB6823F4803323F070033A68FC
:101E300012681343FB607B6923F002023B681B6955
:101E400013437B617B6923F001023B685B681343AA
:101E50007B617B681E4A934207D07B681D4A934290
:101E600003D07B681C4A93421ED17B6923F0080291
:101E70003B685B699B0013437B617B6923F0040231
:101E80003B689B689B0013437B613B6923F4807232
:101E90003B689B6913433B613B6923F400723B68D9
:101EA000DB695B0013433B617B683A695A607B687E
:101EB000FA689A613B68DB6819467868FFF743FE69
:101EC0007B687A691A62012318461837BD4680BDBF
:101ED000002C0140004001400044014080B586B024
:101EE00000AF786039607B681B6A23F010027B6862
:101EF0001A627B681B6A7B617B685B683B617B68FD
:101F00009B69FB60FB6823F44073FB60FB6823F074
:101F1000807323F4E0433A68126812021343FB60B3
:101F20007B6923F020023B681B691B0113437B6123
:101F30007B6923F010023B685B681B0113437B61E4
:101F40007B681F4A934207D07B681E4A934203D0A6
:101F50007B681D4A93421FD17B6923F080023B6856
:101F60005B699B0113437B617B6923F040023B6803
:101F70009B689B0113437B613B6923F480623B6850
:101F80009B699B0013433B613B6923F400623B6800
:101F9000DB69DB0013433B617B683A695A607B680D
:101FA000FA689A613B68DB6819467868FFF7D9FDE3
:101FB0007B687A691A62012318461837BD4680BDCE
:101FC000002C0140004001400044014080B586B033
:101FD00000AF786039607B681B6A23F480727B688D
:101FE0001A627B681B6A7B617B685B683B617B680C
:101FF000DB69FB60FB6823F00303FB60FB6823F4F1
:10200000803323F070033A6812681343FB607B69E6
:1020100023F400723B681B691B0213437B617B69DD
:1020200023F480723B685B681B0213437B617B680F
:102030001F4A934207D07B681E4A934203D07B68B5
:102040001D4A93421FD17B6923F400623B685B69A0
:102050009B0213437B617B6923F480623B689B682E
:102060009B0213437B613B6923F480523B689B696D
:102070001B0113433B613B6923F400523B68DB695E
:102080005B0113433B617B683A695A607B68FA687D
:10209000DA613B68DB6819467868FFF770FD7B689A
:1020A0007A691A62012318461837BD4680BD00BF01
:1020B000002C0140004001400044014080B586B042
:1020C00000AF786039607B681B6A23F480527B68BC
:1020D0001A627B681B6A3B617B685B687B617B681B
:1020E000DB69FB60FB6823F44073FB60FB6823F053
:1020F000807323F4E0433A68126812021343FB60D2
:102100003B6923F400523B681B691B0313433B618B
:102110003B6923F480523B685B681B0313433B61BC
:102120007B68134A934207D07B68124A934203D0DC
:102130007B68114A934207D17B6923F480423B6854
:102140009B699B0113437B617B687A695A607B685A
:10215000FA68DA613B68DB6819467868FFF71DFDAD
:102160007B683A691A62012318461837BD4680BD5C
:10217000002C0140004001400044014080B584B083
:1021800000AF786039607B681B6A23F480327B681B
:102190001A627B681B6AFB607B685B6DBB60BB6817
:1021A00023F4803323F070033A6812681343BB6052
:1021B000FB6823F400323B681B691B041343FB607C
:1021C000FB6823F480323B685B681B041343FB60AD
:1021D0007B68134A934207D07B68124A934203D02C
:1021E0007B68114A934209D17B685B6823F4803293
:1021F0003B689B691B021A437B685A607B68BA681C
:102200005A653B68DB6819467868FFF7D4FC7B6841
:10221000FA681A62012318461037BD4680BD00BF18
:10222000002C0140004001400044014080B584B0D2
:1022300000AF786039607B681B6A23F480127B688A
:102240001A627B681B6AFB607B685B6DBB60BB6866
:1022500023F0807323F4E0433A68126812021343B8
:10226000BB60FB6823F400123B681B691B0513432A
:10227000FB60FB6823F480123B685B681B0513431B
:10228000FB607B68124A934207D07B68114A9342F5
:1022900003D07B68104A934209D17B685B6823F4C2
:1022A00080223B689B699B021A437B685A607B686B
:1022B000BA685A653B68DB6819467868FFF789FC9D
:1022C0007B68FA681A62012318461037BD4680BD44
:1022D000002C0140004001400044014080B483B024
:1022E00000AF78607B681B6803F00103012B0CBF13
:1022F00001230023DBB218460C37BD465DF8047B92
:10230000704780B483B000AF786039607B685B68E9
:1023100023F440523B681A437B685A6000BF0C3775
:10232000BD465DF8047B704780B483B000AF786031
:1023300039607B689B6823F440723B681A437B6872
:102340009A6000BF0C37BD465DF8047B7047B0B49F
:1023500085B000AFF860B9607A603B60002500246A
:102360007B68B3F5004F14D1BB685A003B685B082B
:102370001A443B68B2FBF3F39BB21D464FF6F07470
:102380002C406B089BB203F007031C43FB68DC6026
:102390000AE03B685A08BB681A443B68B2FBF3F397
:1023A0009BB21A46FB68DA6000BF1437BD46B0BC6A
:1023B0007047000080B584B000AF786039600023BA
:1023C000FB730023BB607868FFF788FF0346002B90
:1023D00051D17B681A682A4B13403A6851683A68B1
:1023E000D26811433A68126911433A6892690A4304
:1023F0001A437B681A603B689B6819467868FFF748
:1024000080FF3B685B6919467868FFF78DFF7B6842
:102410001C4A934204D10320FFF7A4F8B86019E0E6
:102420007B68194A934204D10C20FFF79BF8B860EF
:1024300010E07B68154A934204D13020FFF792F8F0
:10244000B86007E07B68124A934203D1C020FFF7CF
:1024500043F9B860BB68002B0DD03B681B68002BAC
:1024600009D00123FB733B689A693B681B68B96814
:102470007868FFF76CFFFB7B18461037BD4680BDC0
:10248000F369FFEF0038014000440040004800407D
:10249000004C004080B483B000AF786039600949D7
:1024A0007A683B68B2FBF3F3013B4B60054B0022BB
:1024B0009A60044B05221A6000BF0C37BD465DF8D8
:1024C000047B704710E000E080B582B000AF786018
:1024D0004FF47A717868FFF7DDFF00BF0837BD461B
:1024E00080BD000080B485B000AF78600E4B1B68E3
:1024F000FB60FB687B68B3F1FF3F0CD07B68013366
:102500007B6008E0084B1B6803F48033002B02D08B
:102510007B68013B7B607B68002BF3D100BF1437E5
:10252000BD465DF8047B704710E000E080B483B0E6
:1025300000AF7860044A7B68136000BF0C37BD466B
:102540005DF8047B704700BF0C00002080B485B0AC
:1025500000AF78607B6803F00703FB600C4BDB681F
:10256000BB60BA684FF6FF031340BB60FB681A02FA
:10257000BB68134343F0BF6343F40033BB60044ABA
:10258000BB68D36000BF1437BD465DF8047B70475D
:1025900000ED00E080B400AF044BDB681B0A03F0E1
:1025A00007031846BD465DF8047B704700ED00E068
:1025B00080B483B000AF0346FB71094997F9073037
:1025C0005B09FA7902F01F02012000FA02F241F8D9
:1025D000232000BF0C37BD465DF8047B704700BF69
:1025E00000E100E080B483B000AF03463960FB71C6
:1025F00097F90730002B0BDA0D49FB7903F00F0335
:10260000043B3A68D2B21201D2B20B441A7609E006
:10261000084997F907303A68D2B21201D2B20B4496
:1026200083F8002300BF0C37BD465DF8047B70477C
:1026300000ED00E000E100E080B489B000AFF86098
:10264000B9607A60FB6803F00703FB61FB69C3F1C3
:102650000703042B28BF0423BB61FB690433062B4B
:1026600002D9FB69033B00E000237B610122BB69C7
:1026700002FA03F35A1EBB681A407B699A40012193
:102680007B6901FA03F3591E7B680B40134318461C
:102690002437BD465DF8047B7047000090B484B0D9
:1026A00000AF78603960114C3B68DBB20F493A6883
:1026B000D2B2023251F822103A68120CD2431140C1
:1026C0003A68120CFA60FA6892FAA2F2BA60BA6832
:1026D000B2FA82F2786800FA02F20A43023344F84E
:1026E000232000BF1037BD4690BC7047000001405A
:1026F00080B483B000AF78600649064B1B6823F0B6
:1027000007027B6813430B6000BF0C37BD465DF8C2
:10271000047B70470020024080B400AF044B1B686C
:1027200003F007031846BD465DF8047B704700BF01
:102730000020024080B483B000AF78607B68042B37
:1027400006D1094A084B1B6843F00403136005E0F7
:10275000054A054B1B6823F00403136000BF0C37C8
:10276000BD465DF8047B704710E000E080B400AF28
:10277000054A054B1B6843F48023136000BFBD4628
:102780005DF8047B704700BF0010024080B400AFCA
:10279000054A054B1B6843F48033136000BFBD46F8
:1027A0005DF8047B704700BF0010024080B400AFAA
:1027B000074B1B6803F40033B3F5003F0CBF012344
:1027C0000023DBB21846BD465DF8047B704700BFAE
:1027D0000010024080B400AF064A064BD3F8943094
:1027E00043F00103C2F8943000BFBD465DF8047B9E
:1027F000704700BF0010024080B400AF074BD3F811
:10280000943003F00203022B0CBF01230023DBB240
:102810001846BD465DF8047B704700BF00100240BB
:1028200080B483B000AF78600649064B9B6823F004
:1028300003027B6813438B6000BF0C37BD465DF815
:10284000047B70470010024080B400AF044B9B68CB
:1028500003F00C031846BD465DF8047B704700BFCB
:102860000010024080B483B000AF78600649064B88
:102870009B6823F0F0027B6813438B6000BF0C372A
:10288000BD465DF8047B70470010024080B483B001
:1028900000AF78600649064B9B6823F4E0627B68D2
:1028A00013438B6000BF0C37BD465DF8047B704757
:1028B0000010024080B483B000AF78600649064B38
:1028C0009B6823F460527B6813438B6000BF0C3716
:1028D000BD465DF8047B70470010024080B483B0B1
:1028E00000AF78600949094BD3F888207B681B0C3E
:1028F000DB431A407B689BB21343C1F8883000BFAA
:102900000C37BD465DF8047B704700BF00100240E5
:1029100080B485B000AF78607B681A0E0E4B13440C
:10292000FB60FB681A687B681B0CDBB2032101FAB1
:1029300003F3DB431A407B68D9B27B681B0CDBB224
:1029400001FA03F31A43FB681A6000BF1437BD464F
:102950005DF8047B704700BF8810024080B400AF70
:10296000054A054B1B6843F08073136000BFBD46EA
:102970005DF8047B704700BF0010024080B400AFD8
:10298000074B1B6803F00073B3F1007F0CBF0123FA
:102990000023DBB21846BD465DF8047B704700BFDC
:1029A0000010024080B485B000AFF860B9607A6072
:1029B0003B600A48094BDA68094B1340F968BA686A
:1029C00011437A68120211433A680A431343C36001
:1029D00000BF1437BD465DF8047B7047001002400D
:1029E0008C80FFF980B400AF054A054BDB6843F0EB
:1029F0008073D36000BFBD465DF8047B704700BFA5
:102A00000010024080B483B000AF78600649064BE6
:102A10001B6823F4C0627B6813430B6000BF0C3754
:102A2000BD465DF8047B70470070004080B483B001
:102A300000AF78607B681B6843F001027B681A6016
:102A400000BF0C37BD465DF8047B704780B483B08F
:102A500000AF78607B681B6823F400327B681A60E3
:102A600000BF0C37BD465DF8047B704780B483B06F
:102A700000AF78607B681B6823F400227B681A60D3
:102A800000BF0C37BD465DF8047B704780B485B04D
:102A900000AFF860B9607A60FB68DB6823F4FF631D
:102AA00023F00603B9687A680A431A43FB68DA60C0
:102AB00000BF1437BD465DF8047B704780B483B017
:102AC00000AF78607B68DB6823F400427B68DA60E3
:102AD00000BF0C37BD465DF8047B704780B483B0FF
:102AE00000AF78607B685B6843F000727B685A6077
:102AF00000BF0C37BD465DF8047B704780B485B0DD
:102B000000AF78600849084BDA6C7B681343CB64EC
:102B1000054BDA6C7B681340FB60FB6800BF143721
:102B2000BD465DF8047B70470010024080B485B05C
:102B300000AF78600849084B9A6D7B6813438B653A
:102B4000054B9A6D7B681340FB60FB6800BF143730
:102B5000BD465DF8047B70470010024080B485B02C
:102B600000AF78600849084B1A6E7B6813430B6608
:102B7000054B1A6E7B681340FB60FB6800BF14377F
:102B8000BD465DF8047B70470010024080B483B0FE
:102B900000AF78600649064B1A687B68DB43134038
:102BA0000B6000BF0C37BD465DF8047B704700BF6B
:102BB0000004014080B483B000AF78607B681B687C
:102BC00043F040027B681A6000BF0C37BD465DF8D9
:102BD000047B704780B483B000AF786039607B6855
:102BE0005B6823F010023B681A437B685A6000BFA1
:102BF0000C37BD465DF8047B704780B483B000AFEE
:102C0000786039607B685B6823F480523B681A43C4
:102C10007B685A6000BF0C37BD465DF8047B704787
:102C200080B483B000AF78607B685B6843F00802D3
:102C30007B685A6000BF0C37BD465DF8047B704767
:102C400080B489B000AFF860B9607A60FB681A6838
:102C5000BB687B617B6993FAA3F33B613B69B3FA81
:102C600083F35B00032101FA03F3DB431A40BB68E3
:102C7000FB61FB6993FAA3F3BB61BB69B3FA83F30E
:102C80005B00796801FA03F31A43FB681A6000BF1E
:102C90002437BD465DF8047B704780B489B000AF2F
:102CA000F860B9607A60FB68DA68BB687B617B6951
:102CB00093FAA3F33B613B69B3FA83F35B0003210F
:102CC00001FA03F3DB431A40BB68FB61FB6993FA2B
:102CD000A3F3BB61BB69B3FA83F35B00796801FAC4
:102CE00003F31A43FB68DA6000BF2437BD465DF882
:102CF000047B704780B483B000AF786039607B6834
:102D00003A689A6100BF0C37BD465DF8047B704796
:102D100080B483B000AF786039607B683A689A62AB
:102D200000BF0C37BD465DF8047B704780B483B0AC
:102D300000AF78607B681B6843F001027B681A6013
:102D400000BF0C37BD465DF8047B7047B0B483B05C
:102D500000AF786039603B68012B28D03B68042BBA
:102D600023D03B68102B1ED03B68402B19D03B680A
:102D7000B3F5807F13D03B68B3F5806F0DD03B680F
:102D8000B3F5805F07D03B68B3F5803F01D10723DF
:102D90000EE008230CE006230AE0052308E00423E4
:102DA00006E0032304E0022302E0012300E0002305
:102DB0001D467B6818331A462946094B5B5C134451
:102DC0001C4622682946074B5B5C194608238B404A
:102DD0001343236000BF0C37BD46B0BC704700BF33
:102DE000206600082C66000880B483B000AF7860CD
:102DF00039607B689B6823F4A03323F007033A68AB
:102E00001A437B689A6000BF0C37BD465DF8047BAF
:102E1000704780B483B000AF78607B681B6843F074
:102E200001027B681A6000BF0C37BD465DF8047B69
:102E3000704780B483B000AF786039607B685B68AE
:102E400023F400423B681A437B685A6000BF0C378A
:102E5000BD465DF8047B704780B483B000AF7860F6
:102E60007B685B6823F490427B685A607B689B6850
:102E700023F02A027B689A6000BF0C37BD465DF8DC
:102E8000047B704780B483B000AF78607B681B68B8
:102E900043F020027B681A6000BF0C37BD465DF826
:102EA000047B704780B500AF0120FFF757FE4FF05D
:102EB0008050FFF73BFE0320FFF748FBFFF76AFB5C
:102EC0000346002200211846FFF7B6FB03461946C9
:102ED0006FF00B00FFF786FBFFF75CFB0346002259
:102EE00000211846FFF7A8FB034619466FF00A00B9
:102EF000FFF778FBFFF74EFB034600220021184640
:102F0000FFF79AFB034619466FF00900FFF76AFBCB
:102F1000FFF740FB0346002200211846FFF78CFB19
:102F2000034619466FF00400FFF75CFBFFF732FB26
:102F30000346002200211846FFF77EFB0346194690
:102F40006FF00300FFF74EFBFFF724FB0346002260
:102F500000211846FFF770FB034619466FF0010089
:102F6000FFF740FB00BF80BD80B500AF0420FFF736
:102F7000BFFBFFF7D1FB0346042B03D046212D48AE
:102F800000F0D2FB4FF40070FFF73CFDFFF7EEFBC3
:102F9000FFF7FCFB00BFFFF709FC0346012BFAD14A
:102FA000FFF718FC00BFFFF727FC0346012BFAD1FF
:102FB00000230A2200210320FFF7F4FCFFF7CEFCD8
:102FC000FFF710FD00BFFFF7D9FC0346012BFAD134
:102FD0000320FFF725FC00BFFFF736FC03460C2B50
:102FE000FAD10020FFF73EFC0020FFF74FFC002045
:102FF000FFF760FC1048FFF767FA0420FFF79AFB21
:103000000D48FFF793FA0D48FFF768FC0C48FFF7EF
:103010007FFCFFF7BFFA034600220F211846FFF797
:103020000BFB034619464FF0FF30FFF7DBFA00BFFA
:1030300080BD00BF0863000800B4C40401000300A1
:1030400001000C0080B586B000AF0420FFF756FDEC
:103050004FF4E0533B6001237B600023BB600023FF
:10306000FB6001233B613B4619460648FEF732F8F8
:103070004FF4E0510348FFF73DFE00BF1837BD464F
:1030800080BD00BF0008004880B586B000AF0120B9
:10309000FFF734FD0420FFF731FD0220FFF72EFD7E
:1030A0000820FFF72BFD38233B6001237B600023C2
:1030B000BB600023FB6001233B613B4619464FF098
:1030C0009040FEF707F838214FF09040FFF712FECE
:1030D00003233B6000237B6000233B613B46194692
:1030E0004448FDF7F7FF05233B6000237B60002386
:1030F0003B613B4619464FF09040FDF7EBFF4FF424
:1031000040733B6001237B600023BB600023FB60B6
:1031100001233B613B4619463648FDF7DBFF4FF480
:1031200080733B6001237B600023BB600023FB6056
:1031300001233B613B4619464FF09040FDF7CAFF23
:103140004FF440712B48FFF7E3FD4FF480714FF0CF
:103150009040FFF7CFFD40F607433B6001237B60C3
:103160000023BB600023FB6000233B613B46194604
:103170002148FDF7AFFF40F607411F48FFF7C8FDA4
:1031800004233B6000237B6000233B613B461946E0
:103190004FF09040FDF79EFF04233B6000237B60CF
:1031A00001233B613B4619461448FDF793FF4FF45A
:1031B00080433B6001237B600223BB600123FB60F3
:1031C00000233B613B4619460B48FDF783FF8023F4
:1031D0003B6001237B600223BB600023FB60002374
:1031E0003B613B4619460348FDF774FF00BF1837A3
:1031F000BD4680BD0008004800040048000C00489F
:1032000080B586B000AF04233B6001237B600223BE
:10321000BB600023FB6002233B613B461946054827
:10322000FDF758FF04210348FFF772FD00BF183770
:10323000BD4680BD000C004880B58EB000AF4FF495
:103240008040FFF78BFC0120FFF758FC4FF4C06370
:103250007B600223BB600323FB6000233B610023F0
:103260007B610723BB613B1D19464FF09040FDF782
:1032700031FF214BFB614FF480533B6200237B62A3
:103280000023BB620C23FB6200233B634FF400432B
:103290007B6307F11C0319461848FFF78BF84FF4BE
:1032A00000411648FFF7C5FD1448FFF7D5FD134848
:1032B000FFF7AFFD4FF4C0537B600123BB600223D7
:1032C000FB6000233B6101237B613B1D19464FF0EE
:1032D0009040FDF7FFFE4FF400614FF09040FFF784
:1032E00017FD4FF480514FF09040FFF711FD00BFE4
:1032F0003837BD4680BD00BF809698000038014039
:1033000080B590B000AF4FF48040FFF70FFC042071
:10331000FFF7F4FB0220FFF7F1FB0C233B600223D5
:103320007B600323BB600023FB6000233B6105231C
:103330007B613B4619462248FDF7CCFE4FF44053D3
:103340003B6002237B600323BB600023FB60002300
:103350003B6105237B613B4619461A48FDF7BAFEDF
:103360000023BB614FF48273FB614FF4E0633B6267
:1033700000237B620123BB624FF48023FB620023A6
:103380003B6300237B630023BB630723FB6307F1DD
:10339000180319460C48FEF75EFB00210A48FFF7A8
:1033A00019FC4FF480510848FFF727FC0648FFF747
:1033B00037FC0548FFF7FEFB00BF4037BD4680BD28
:1033C00000080048000400480038004080B58EB076
:1033D00000AF4FF40010FFF7A9FB0220FFF78EFBB0
:1033E000C0237B600223BB600323FB6001233B619E
:1033F00001237B610423BB613B1D19461748FDF780
:1034000069FE1748FFF76AFB1548FFF757FB14489A
:10341000FFF72CFB1248FFF719FB0023FB61114B50
:103420003B6200237B620023BB620023FB6200231C
:103430003B6300237B6307F11C0319460848FDF733
:1034400066FF002200210648FFF720FB0448FFF733
:10345000EDFA00BF3837BD4680BD00BF000400480C
:1034600000540040EC9C901080B596B000AF03462D
:10347000FB710120FFF742FBFB79002B52D10223A5
:10348000FB6002233B6100237B610023BB610023BF
:10349000FB6101233B6207F10C0319464FF090409A
:1034A000FDF718FE0120FFF741FB07F14403184622
:1034B000FEF7ADFB0023A7F844300023BB644FF2B6
:1034C0006103FB6400233B6507F1440319464FF099
:1034D0008040FEF7B7FB00214FF08040FFF784FCEF
:1034E00010214FF08040FFF731FC07F1240318460C
:1034F000FEF710FC60237B620123BB620023FB62AA
:1035000047F630033B6300237B6307F124031A462D
:1035100010214FF08040FEF71FFC4FF08040FFF776
:1035200005FC4FE0FB79012B4CD14023FB600223CB
:103530003B6100237B610023BB610023FB6102230D
:103540003B6207F10C0319464FF09040FDF7C2FDB6
:103550000220FFF7EBFA07F144031846FEF757FB8A
:103560000023A7F844300023BB644FF26103FB64DF
:1035700000233B6507F1440319461448FEF762FB3C
:1035800000211248FFF730FC01211048FFF7DEFB55
:1035900007F124031846FEF7BDFB60237B6201237D
:1035A000BB620023FB6247F630033B6300237B636F
:1035B00007F124031A4601210448FEF7CDFB034816
:1035C000FFF7B4FB00BF5837BD4680BD0004004084
:1035D00080B584B000AFFEF7DDFF03460022012175
:1035E0001846FFF729F8034619462520FEF7FAFF8B
:1035F0004748FFF747FC2520FEF7DAFF4549012041
:10360000FFF74CF84FF400437B600023BB600123BD
:103610003B7300237B730223BB733B1D1846FDF7EE
:1036200079FB00224FF400413B48FFF736FB0022B4
:103630004FF400413848FFF703FBFEF7ABFF0346AA
:10364000002202211846FEF7F7FF034619462820FC
:10365000FEF7C8FF2820FEF7ABFF4FF40040FFF74E
:1036600095FA2E490220FFF719F820237B600023EA
:10367000BB6001233B7300237B730123BB733B1DA2
:103680001846FDF747FB002220212548FFF705FBE0
:10369000002220212248FFF7D3FA22490120FEF719
:1036A000FDFF4FF480737B600023BB6001233B73FD
:1036B00000237B730223BB733B1D1846FDF72AFBD7
:1036C00000224FF480711448FFF7E7FA00224FF40C
:1036D00080711148FFF7B4FAFEF75CFF0346002241
:1036E00003211846FEF7A8FF034619461720FEF7E8
:1036F00079FF1720FEF75CFF2020FFF747FA4FF411
:103700008070FFF743FA00BF1037BD4680BD00BF91
:1037100000380140030000F0000400480100F00000
:103720000008004802000F0080B582B000AF78604A
:1037300039603A687968034801F076FE00BF0837BF
:10374000BD4680BD2063000880B483B000AF7860C0
:1037500039607B683A689A6100BF0C37BD465DF8F6
:10376000047B704780B483B000AF786039607B68B9
:103770003A689A6200BF0C37BD465DF8047B70471B
:1037800080B483B000AF78607B681B6843F00102AF
:103790007B681A6000BF0C37BD465DF8047B70473C
:1037A00080B483B000AF78607B681B6823F00102AF
:1037B0007B681A6000BF0C37BD465DF8047B70471C
:1037C00080B483B000AF786039607B683A685A6231
:1037D00000BF0C37BD465DF8047B704780B483B0F2
:1037E00000AF786039607B683A68DA6200BF0C37F6
:1037F000BD465DF8047B704780B483B000AF78604D
:1038000039607B683A685A6300BF0C37BD465DF883
:10381000047B704780B483B000AF786039607B6808
:103820003A689A6300BF0C37BD465DF8047B704769
:1038300080B586B000AF03460A46FB711346BB71E4
:10384000FA7913469B0013445B007B617B690A2B6A
:1038500003D140F214533B611FE07B6940F2F54213
:10386000934202D9534B3B6117E07A69524BA3FB59
:1038700002131B09322101FB03F3D31A002B07D1DA
:103880007B6905337B617B69642202FB03F303E000
:103890007B69642202FB03F33B61484B1A683B6976
:1038A000B2FBF3F3FB60BB79002B1CD14FF08040DF
:1038B000FFF776FF00214FF08040FFF781FFFB68A4
:1038C000013B19464FF08040FFF788FFFB685B081B
:1038D000013B19464FF08040FFF79CFF4FF08040BE
:1038E000FFF74EFF20E0BB79012B17D13448FFF7DB
:1038F00057FF00213248FFF763FFFB68013B194681
:103900002F48FFF76BFFFB685B08013B19462C480B
:10391000FFF772FF2A48FFF733FF05E03D212948F2
:10392000FFF702FF002340E07B690A2B10D14FF420
:1039300080712548FFF716FF4FF400712248FFF70A
:1039400011FFF9793B697A69204801F06DFD2BE0A0
:103950007B69132B14D97B69B3F5A57F10D24FF483
:1039600080711948FFF7F0FE4FF400711648FFF719
:10397000F9FEF9793B697A69154801F055FD13E0C4
:103980007B69B3F5A57F0FD34FF480710E48FFF725
:10399000DBFE4FF400710C48FFF7D6FEF9793B6966
:1039A0007A690C4801F040FD012318461837BD46DE
:1039B00080BD00BFD0FB01001F85EB510C00002033
:1039C00000040040506300080008004868630008D5
:1039D000A4630008E063000880B584B000AF03462C
:1039E000FB710023FB81FB79032B54D801A252F811
:1039F00023F000BF053A0008293A00084D3A0008B4
:103A0000713A000808214FF09040FFF79DFE102109
:103A10004FF09040FFF798FE20214FF09040FFF7C5
:103A200093FE0123FB813CE008214FF09040FFF71B
:103A300099FE10214FF09040FFF786FE20214FF0B5
:103A40009040FFF781FE0A23FB812AE008214FF016
:103A50009040FFF779FE10214FF09040FFF782FE73
:103A600020214FF09040FFF76FFE6423FB8118E0A8
:103A700008214FF09040FFF767FE10214FF0904073
:103A8000FFF762FE20214FF09040FFF76BFE4FF4EE
:103A90007A73FB8105E081210748FFF745FE00238B
:103AA00005E0FB891946054801F0BEFC01231846D4
:103AB0001037BD4680BD00BF506300081C6400087D
:103AC00080B584B000AF0346FB710023FB81FB7916
:103AD0000B2B00F2938101A252F823F00D3B00085A
:103AE0004B3B0008893B0008C73B0008053C000829
:103AF000433C0008813C0008BF3C0008FD3C000836
:103B00003D3D00087D3D0008BD3D00080121C44841
:103B1000FFF728FE0221C248FFF716FE0421C04825
:103B2000FFF720FE4FF48061BD48FFF71BFE4FF406
:103B30000061BB48FFF716FE4FF480714FF09040D4
:103B4000FFF710FE0123FB815FE10121B448FFF77D
:103B5000FBFD0221B248FFF7F7FD0421B048FFF753
:103B600001FE4FF48061AE48FFF7FCFD4FF40061A9
:103B7000AB48FFF7F7FD4FF480714FF09040FFF72F
:103B8000F1FD0223FB8140E10121A548FFF7EAFD99
:103B90000221A348FFF7E6FD0421A148FFF7D4FD69
:103BA0004FF480619E48FFF7DDFD4FF400619C48B3
:103BB000FFF7D8FD4FF480714FF09040FFF7D2FD32
:103BC0000423FB8121E101219548FFF7BDFD02217E
:103BD0009348FFF7C7FD04219148FFF7B5FD4FF467
:103BE00080618F48FFF7BEFD4FF400618C48FFF7FE
:103BF000B9FD4FF480714FF09040FFF7B3FD0823FB
:103C0000FB8102E101218648FFF7ACFD02218448D7
:103C1000FFF79AFD04218248FFF796FD4FF480617B
:103C20007F48FFF79FFD4FF400617D48FFF79AFD45
:103C30004FF480714FF09040FFF794FD1023FB810B
:103C4000E3E001217648FFF77FFD02217448FFF78A
:103C50007BFD04217248FFF777FD4FF480617048C7
:103C6000FFF780FD4FF400616D48FFF77BFD4FF4D7
:103C700080714FF09040FFF775FD2023FB81C4E079
:103C800001216748FFF76EFD02216548FFF76AFDD5
:103C900004216348FFF766FD4FF480616048FFF739
:103CA00053FD4FF400615E48FFF75CFD4FF48071F7
:103CB0004FF09040FFF756FD4023FB81A5E0012126
:103CC0005748FFF741FD02215548FFF74BFD0421FE
:103CD0005348FFF747FD4FF480615148FFF734FD2B
:103CE0004FF400614E48FFF73DFD4FF480714FF0F7
:103CF0009040FFF737FD8023FB8186E00121484893
:103D0000FFF730FD02214648FFF71EFD042144481D
:103D1000FFF728FD4FF480614148FFF715FD4FF490
:103D200000613F48FFF71EFD4FF480714FF0904057
:103D3000FFF718FD4FF48073FB8166E001213848DE
:103D4000FFF710FD02213648FFF7FEFC042134483E
:103D5000FFF708FD4FF480613148FFF7F5FC4FF4A1
:103D600000612F48FFF7FEFC4FF480714FF0904048
:103D7000FFF7EAFC4FF40073FB8146E0012128487D
:103D8000FFF7F0FC02212648FFF7DEFC042124485F
:103D9000FFF7E8FC4FF480612148FFF7D5FC4FF4B2
:103DA00000611F48FFF7DEFC4FF480714FF0904038
:103DB000FFF7CAFC4FF48063FB8126E0012118481D
:103DC000FFF7D0FC02211648FFF7BEFC042114487F
:103DD000FFF7C8FC4FF480611148FFF7B5FC4FF4C2
:103DE00000610F48FFF7BEFC4FF480714FF0904028
:103DF000FFF7AAFC4FF40063FB8106E04FF48371E8
:103E00000848FFF791FC002305E0FB8919460648A6
:103E100001F00AFB012318461037BD4680BD00BFE4
:103E200000040048506300082864000880B584B08E
:103E300000AF03460A46FB711346BB71FB7903F0E2
:103E40000703FB73FB79DB08BB73454801F060FB9C
:103E5000FB7B072B4AD801A252F823F07D3E0008D5
:103E60008B3E0008993E0008A73E0008B53E0008BA
:103E7000C33E0008D13E0008DF3E00080020FFF7E7
:103E8000ABFD0020FFF71CFE37E00120FFF7A4FD8B
:103E90000020FFF715FE30E00120FFF79DFD012017
:103EA000FFF70EFE29E00120FFF796FD0220FFF745
:103EB00007FE22E00220FFF78FFD0020FFF700FE43
:103EC0001BE00220FFF788FD0120FFF7F9FD14E059
:103ED0000220FFF781FD0220FFF7F2FD0DE0032035
:103EE000FFF77AFD0B20FFF7EBFD06E040F24F11E4
:103EF0001C48FFF719FC00232EE0BB7B032B23D8C3
:103F000001A252F823F000BF193F0008253F000826
:103F1000313F00083D3F0008BB7919460120FFF7FB
:103F200087FC18E0BB7919461E20FFF781FC12E0E0
:103F3000BB7919464620FFF77BFC0CE0BB7919469C
:103F40000220FFF775FC06E04FF4B3710548FFF758
:103F5000EBFB002300E0012318461037BD4680BD6F
:103F6000346400085063000880B483B000AF786008
:103F70007B689B6903F00103012B0CBF0123002325
:103F8000DBB218460C37BD465DF8047B704780B441
:103F900083B000AF78607B689B6903F00403042B57
:103FA0000CBF01230023DBB218460C37BD465DF879
:103FB000047B704780B483B000AF78607B689B69F6
:103FC00003F02003202B0CBF01230023DBB2184693
:103FD0000C37BD465DF8047B704780B483B000AFFA
:103FE00078607B689B6903F04003402B0CBF012382
:103FF0000023DBB218460C37BD465DF8047B7047E2
:1040000080B483B000AF78607B689B6903F40043A1
:10401000B3F5004F0CBF01230023DBB218460C3769
:10402000BD465DF8047B704780B483B000AF786014
:104030007B68DB6943F020027B68DA6100BF0C37E4
:10404000BD465DF8047B704780B485B000AFF86072
:10405000B9607A603B60FB685A68FB695B0D03F4EA
:1040600080610B4B0B43DB431A40B9687B681943F3
:104070003B681B041943BB691943FB690B431A4393
:10408000FB685A6000BF1437BD465DF8047B70477B
:10409000FF7BFF0380B483B000AF78607B685B6A0E
:1040A000DBB218460C37BD465DF8047B704780B420
:1040B00083B000AF78600B46FB70FA787B689A6239
:1040C00000BF0C37BD465DF8047B704780B586B0F5
:1040D00002AF786039603B685B003B6000BF786886
:1040E000FFF78EFF0346012BF9D0284B01930023E5
:1040F00000930123002239687868FFF7A5FF00BF0D
:104100007868FFF731FF0346002BF9D0002178686B
:10411000FFF7CDFF00BF7868FFF726FF0346002BAF
:10412000F9D000BF7868FFF758FF0346002BF9D09D
:10413000174B01934FF0007300930123002239685D
:104140007868FFF781FF00BF7868FFF733FF034609
:10415000002BF9D000BF7868FFF719FF0346002B4A
:10416000F9D07868FFF796FF034603F01F03FB734F
:104170007868FFF759FFFB7B1946064801F054F9B0
:10418000FB7B18461037BD4680BD00BF0020008075
:10419000002400806464000880B483B000AF7860BD
:1041A00039607B681A693B681A403B689A420CBFC9
:1041B00001230023DBB218460C37BD465DF8047BB3
:1041C000704780B483B000AF786039607B683A682C
:1041D0009A6100BF0C37BD465DF8047B704780B420
:1041E00083B000AF786039607B683A689A6200BF3C
:1041F0000C37BD465DF8047B704780B483B000AFD8
:10420000786039607B685A693B685A407B685A61BC
:1042100000BF0C37BD465DF8047B7047B0B586B073
:1042200002AF0023FB810023BB60FEF73BFEFEF7DD
:104230009BFEAF4801F06CF9AE4801F069F9FEF75A
:1042400001FFFEF721FFFEF7F7FFFFF759F8FFF731
:10425000BDF80020FFF708F9FFF7BAF9A64801F00A
:1042600057F94FF48041A548FFF7ABFF8021A448E0
:10427000FFF7B5FFA34B1B6800221A70A14B1B6808
:1042800000225A709F4B1B6800229A709D4B1B683E
:104290000022DA709C4B1B6800221A719A4B1B6833
:1042A00000225A71984B1B6800229A71964B1B682A
:1042B0000022DA71954B1B6800225A72944801F073
:1042C00027F94FF480618E48FFF77BFF4FF40061C0
:1042D0008B48FFF776FF8D4B1C6820218D48FFF738
:1042E000F5FE0346237004218B48FFF755FF034674
:1042F000002B0BD1854B1B681B7800211846FFF75C
:1043000095FD824B1B6801221A7001E0FEF778FFD1
:104310007E4B1B687D4A12681278D20052B242F07E
:10432000010252B2D2B25A70784B1B680122DA7184
:104330004FF480517248FFF752FF744B1B681B7A91
:10434000802B08D1714B1B6800221A724FF48051E8
:104350006B48FFF752FF6D4B1B689B78022B40F0B8
:10436000F080684B1B681B78012B40F0EA80654B9E
:104370001B6800221A700023BB6000233B71674852
:1043800000F074F9B860BB68B3F1FF3F08D10023B7
:10439000FB810023BB605D4B1B680522DA718BE05B
:1043A0005A4B1B685B7A002B09D1584B1B68194686
:1043B000B1EE040AB86800F0EBF90346FB81012175
:1043C0004F48FFF7E9FE0346012B15D102214C4867
:1043D000FFF7E2FE0346002B0ED104214FF0904080
:1043E000FFF7DAFE0346002B06D104233B71474B4F
:1043F0001B681522DA7136E001214148FFF7CCFE37
:104400000346002B15D102213D48FFF7C5FE0346A8
:10441000012B0ED104214FF09040FFF7BDFE034663
:10442000002B06D102233B71384B1B681522DA7131
:1044300019E004214FF09040FFF7AEFE0346012B38
:1044400004D0324B1B685B79012B0AD106233B71E8
:104450002E4B1B681522DA712C4B1B6800225A71F7
:1044600001E001233B71274B1B685B78012B23D0B4
:1044700000BF244B1B689B78012BFAD0214B1B6893
:1044800000229A70214B1B681522DA711D4B1B68A4
:10449000DB78082B0ED14FF480611948FFF79FFE9F
:1044A0001A4B1B681D22DA71164B1B680022DA704A
:1044B0000023FB8100233B713B795AB2134B1B68ED
:1044C0001B78DB005BB213435BB2DBB23B710F4B7B
:1044D0001B685B7A002B23D100237B71B7F90E3068
:1044E0001B121BB2DBB2BB71FB89DBB2FB7122E09A
:1044F0007C640008A0640008C86400080004004848
:1045000000080048080000200400002000000020EF
:10451000EC64000800540040000C004800380040E3
:10452000BB681B14DBB27B71BB681B12DBB2BB71B7
:10453000BB68DBB2FB711D4B1B681A7A0132D2B229
:104540001A721B4B1B689B79012B7FF4F6AE184B3C
:104550001B6800229A71164B1B6800221A71144BBB
:104560001B68DB79012B09D1114B1B680022DA7122
:104570003B1D1049184600F043FDDEE60C4B1B685E
:104580000A4A11680C4A10680A4A019200220092F5
:104590001A68002515465B6800241C4603460A4637
:1045A0002846214600F0A2FDC7E600BF000000201B
:1045B00004000020003801400800002080B483B0CF
:1045C00000AF78607B689B6803F00103012B01D189
:1045D000012300E0002318460C37BD465DF8047B3C
:1045E000704780B483B000AF78607B689B6803F04D
:1045F0000203022B01D1012300E0002318460C37EF
:10460000BD465DF8047B704780B483B000AF78602E
:104610007B689B6803F08003802B01D1012300E0BD
:10462000002318460C37BD465DF8047B704780B404
:1046300083B000AF78607B68DB68DBB218460C376C
:10464000BD465DF8047B704780B485B000AF7860EC
:104650000B46FB707B680C33FB60FB68FA781A70C2
:1046600000BF1437BD465DF8047B704790B587B036
:1046700000AF786000237B610023FB6007F1080333
:1046800000210A461A800A469A7000BF7868FFF730
:10469000BBFF0346012BF9D00023FB7450E000233D
:1046A0007B610BE07B6901337B617B69324A93421A
:1046B00004D123213148FFF737F853E03048FFF7A2
:1046C00090FF0346002BEDD0AA217868FFF7BCFFCE
:1046D00000237B610BE07B6901337B617B69264AA8
:1046E000934204D12F212548FFF71EF83AE02448D1
:1046F000FFF78AFF0346012BEDD000237B610BE01F
:104700007B6901337B617B691B4A934204D1382169
:104710001A48FFF709F825E07868FFF74FFF0346CE
:10472000002BEDD0FC7C7868FFF781FF03461A462A
:1047300007F11803234403F8102CFB7C0133FB74AE
:10474000FB7C022BABD93B7A1A047B7A1B02134306
:10475000BA7A1343FB60FB6819460A4800F064FE0E
:10476000FB6804E0084800F0D3FE4FF0FF33184622
:104770001C37BD4690BD00BF40420F000C650008CD
:10478000003800402065000848650008000000006F
:10479000B0B58AB000AFF86087ED020A79600023F7
:1047A0007B844FF00003FB614FF000037B62FB68EA
:1047B00003F40003002B09D0FB68C3F31603FB606E
:1047C000FB686FEA43236FEA5323FB607B681B7926
:1047D0000A2B03D1FB685B00FB6006E07B681B795A
:1047E0000B2B02D1FB689B00FB60FB68B3F5000F4D
:1047F00005DB714BFB607B6801225A7108E0FB68A6
:1048000013F5000F04DA6D4BFB607B6801225A71CF
:10481000FB6807EE903AF8EEE77A17EE900AFBF79E
:1048200093FE4FF00002664BFCF70CF803460C4673
:1048300025461C46B868FBF787FE02460B46204615
:104840002946FBF7D5FE03460C4618462146FCF7E1
:10485000E1F80346FB61F869FBF776FE4FF00002D2
:10486000584BFBF7C5FE03460C4625461C46B86868
:10487000FBF76AFE02460B4620462946FBF7E2FF9D
:1048800003460C4618462146FCF7C4F803467B62F3
:10489000D7ED097AF5EEC07AF1EE10FA19D5D7ED19
:1048A000097A9FED497AF4EEC77AF1EE10FA29DD24
:1048B000786AFBF749FE3EA3D3E90023FBF7E4FC4B
:1048C00003460C4618462146FCF7A4F803467B62D3
:1048D00018E0D7ED097A9FED3D7AF4EEC77AF1EE54
:1048E00010FA0FD5786AFBF72FFE31A3D3E9002326
:1048F000FBF7CCFC03460C4618462146FCF78AF829
:1049000003467B62D7ED097AFDEEE77AC7ED007AC0
:104910003B887B84D7ED077AFDEEE77AC7ED007A16
:104920003B887B83B7F91A3007EE903AF8EEE77AC6
:1049300097ED077A77EE677A9FED257A67EE877AAB
:10494000C7ED057AB7F91A30002B06DBD7ED057AEB
:10495000F5EEC07AF1EE10FA17D57B8B5B429BB275
:104960007B83D7ED057AF1EE677AC7ED057A7B8B0D
:104970001946D7ED057AFCEEE77AB7F9223017EE43
:10498000902A144800F050FD0CE07B8B1946D7EDBF
:10499000057AFCEEE77AB7F9223017EE902A0E4836
:1049A00000F042FDB7F9223018462837BD46B0BDA9
:1049B0009A9999999999E13FFFFF7F00000080FF44
:1049C000000070410000F040000000C700FEFF46FC
:1049D0000024744964650008A465000880B483B0AD
:1049E00000AF786039607B683A689A6100BF0C3725
:1049F000BD465DF8047B704780B483B000AF78603B
:104A000039607B683A689A6200BF0C37BD465DF832
:104A1000047B704780B483B000AF78600549054BD4
:104A20001A687B6813430B6000BF0C37BD465DF806
:104A3000047B70470004014080B483B000AF78600D
:104A40000649064B1A687B68DB4313400B6000BFC6
:104A50000C37BD465DF8047B704700BF0004014081
:104A600080B483B000AF7860074B5A697B681A4006
:104A70007B689A420CBF01230023DBB218460C3737
:104A8000BD465DF8047B70470004014080B483B0EC
:104A900000AF7860044A7B68536100BF0C37BD46A5
:104AA0005DF8047B704700BF0004014080B483B010
:104AB00000AF78607B68DB6903F02003202B0CBF1C
:104AC00001230023DBB218460C37BD465DF8047B9A
:104AD000704780B483B000AF78607B689B8C9BB2DA
:104AE000C3F308039BB218460C37BD465DF8047B40
:104AF000704780B400AF00BFBD465DF8047B7047CF
:104B000080B400AFFEE780B400AFFEE780B400AF32
:104B1000FEE780B400AFFEE780B400AF00BFBD4643
:104B20005DF8047B704780B400AF00BFBD465DF800
:104B3000047B704780B400AF00BFBD465DF8047BC6
:104B4000704780B400AF00BFBD465DF8047B70477E
:104B500080B582B000AF0023FB8000237B71334817
:104B6000FFF7A4FF0346002B5BD03048FFF7B1FFEF
:104B70000346FB80FB8803F48073002B31D0FB8855
:104B80007B712B4B1B685B787A799A4208D1294B51
:104B90001B680122DA71274B1B6801229A7140E0E1
:104BA0007B79002B07D07B79DB08DAB2204B1B68BE
:104BB0001B789A4235D11F4B1B689B79012B03D17F
:104BC0001C4B1B6800229A711A4B1B687A791A7069
:104BD000184B1B6801221A71164B1B6801225A716F
:104BE0001FE0144B1B685B79012B1AD1114B1B681A
:104BF000104A12681279F988C9B299540D4B1B6892
:104C00001A790132D2B21A710A4B1B681B79042B34
:104C100007D1084B1B6801229A71064B1B680022C2
:104C20005A7100BF0837BD4680BD00BF0038014043
:104C3000000000200400002080B500AF4FF40040C9
:104C4000FFF70EFF0346002B16D04FF40040FFF78E
:104C50001DFF0A4B1B6801221A70084B1B680022BB
:104C60005A70064B1B6800229A702020FFF7D2FE74
:104C70004FF48070FFF7CEFE00BF80BD080000201B
:104C800080B500AF2020FFF7EBFE0346002B15D0C8
:104C90002020FFF7FBFE1F4B1B6801225A702020CB
:104CA000FFF7CAFE4FF48070FFF7C6FE194B1B6872
:104CB0000022DA70174B1B6800229A704FF4807044
:104CC000FFF7CEFE0346002B21D04FF48070FFF794
:104CD000DDFE104B1B6801229A704FF48070FFF7C5
:104CE000ABFE2020FFF7A8FE80210B48FFF776FEE1
:104CF000084B1B68074A1268D2780132D2B2DA70C8
:104D000000BF00BF00BF80210348FFF775FE00BF52
:104D100080BD00BF080000200008004880B483B0B8
:104D200000AF78604FF06043D3F8803E03F001039A
:104D3000002B13D04FF06043D3F8003E03F0010383
:104D4000002B0BD000E000BF4FF060431B68002B2E
:104D5000F9D04FF060437A68D2B21A707B68184677
:104D60000C37BD465DF8047B704780B586B000AF58
:104D7000F860B9607A6000237B6100237B6109E001
:104D8000BB685A1CBA601B781846FFF7C7FF7B69DF
:104D900001337B617A697B689A42F1DB7B68184654
:104DA0001837BD4680BD000080B485B000AF786084
:104DB0000B4B1B68002B02D1094B0A4A1A60084BA7
:104DC0001B68FB60064B1A687B681344044A136037
:104DD000FB6818461437BD465DF8047B704700BF7A
:104DE00090000020B800002080B483B000AF78604D
:104DF000054B58221A604FF0FF3318460C37BD465A
:104E00005DF8047B704700BFB400002080B483B01D
:104E100000AF78603960054B58221A604FF0FF33BD
:104E200018460C37BD465DF8047B7047B40000207F
:104E300080B483B000AF7860044B58221A6000231E
:104E400018460C37BD465DF8047B7047B40000205F
:104E500080B485B000AFF860B9607A60054B582225
:104E60001A604FF0FF3318461437BD465DF8047BD7
:104E7000704700BFB400002080B485B000AFF86078
:104E8000B9607A60054B58221A604FF0FF3318461C
:104E90001437BD465DF8047B704700BFB4000020A6
:104EA00080B400AF174A174BD3F8883043F470032F
:104EB000C2F88830144A144B1B6843F00103136096
:104EC000114B00229A60104A0F4B1B6823F0A85325
:104ED00023F4102313600C4B4FF48052DA600A4A1B
:104EE000094B1B6823F480231360074B00229A614F
:104EF000044B4FF000629A6000BFBD465DF8047B32
:104F0000704700BF00ED00E00010024080B483B0A5
:104F100000AF786039607B683A689A6100BF0C37EF
:104F2000BD465DF8047B704780B483B000AF786005
:104F300039607B683A689A6200BF0C37BD465DF8FD
:104F4000047B704780B483B000AF78607B68DB6916
:104F500003F04003402B0CBF01230023DBB21846B3
:104F60000C37BD465DF8047B704780B483B000AF5A
:104F700078607B68DB6903F08003802B0CBF012322
:104F80000023DBB218460C37BD465DF8047B704742
:104F900080B483B000AF78600B467B807B88C3F31E
:104FA00008039AB27B681A8500BF0C37BD465DF8CE
:104FB000047B704780B483B000AF78600549054B2F
:104FC0001A687B6813430B6000BF0C37BD465DF861
:104FD000047B70470004014080B483B000AF786068
:104FE0000649064B1A687B68DB4313400B6000BF21
:104FF0000C37BD465DF8047B704700BF00040140DC
:1050000080B584B000AF786039600023FB604FF456
:1050100080514FF09040FFF779FF00BF0023FB72F3
:1050200030E00023FB600BE0FB680133FB60FB68B2
:105030002B4A934204D128212A48FEF775FB41E010
:105040003868FFF792FF0346002BEDD0FB7A002B68
:105050000CD1FB7A7A6813441B789BB243F48073BB
:105060009BB219463868FFF793FF08E0FB7A7A682D
:1050700013441B789BB219463868FFF789FFFB7A07
:105080000133FB72FB7A032BCBD90023FB600BE0CF
:10509000FB680133FB60FB68114A934204D13A215B
:1050A0001048FEF741FB0DE03868FFF74BFF034661
:1050B000002BEDD04FF480514FF09040FFF734FFBC
:1050C000012309E0084800F0AFF94FF480514FF098
:1050D0009040FFF729FF002318461037BD4680BDDA
:1050E00040420F00E4650008F865000890B587B0FD
:1050F00000AF07F1080484E803007A603B60FF23F7
:10510000BB750023FB753B7A3B740023BB74002303
:10511000FB743B7A03F00703BB75BB7D002B6ED19C
:105120007B7AFF2B12D17B6802229A707B68002267
:105130001A724FF480519348FFF7F6FE3B68002245
:105140001A704FF40040FFF735FF55E07B7A002BD3
:105150001FD17B6800229A704FF40040FFF73CFF9C
:105160002020FFF739FF4FF48070FFF735FF3B68D1
:1051700000221A703B6800225A703B6800229A7025
:105180003B680022DA704FF480517E48FFF7CCFE76
:1051900032E07B7A012B2CD17B6801229A704FF48C
:1051A0000040FFF719FF2020FFF716FF4FF4807033
:1051B000FFF712FF3B6800221A703B6800225A700A
:1051C0003B6800229A703B680022DA704FF48051ED
:1051D0006C48FFF7A9FE4FF480416B48FFF7A4FE2F
:1051E0000120FDF77FF94FF480416748FFF78EFEFD
:1051F00002E07B680222DA710023FB75B5E0BB7D1B
:10520000022B24D17B7A802B05D17B68DB787B74E1
:105210000123FB75A9E07B7A03F00303DBB2184698
:10522000FEF7DAFB03467B757B7D012B08D17B7A89
:1052300003F00303DAB27B68DA7001237B7403E0C6
:1052400000237B74FF23FB740123FB758DE0BB7D82
:10525000032B24D17B7A802B05D17B681B797B744F
:105260000123FB7581E07B7A03F00F03DBB2184664
:10527000FEF726FC03467B757B7D012B08D17B7AEC
:1052800003F00F03DAB27B681A7101237B7403E029
:1052900000237B74FF23FB740123FB7565E0BB7D5A
:1052A000042B27D17B7A802B05D17B689B797B747B
:1052B0000123FB7559E07B7A03F07F03DBB297F89B
:1052C000282011461846FEF7B3FA03467B757B7D0E
:1052D000012B08D17B7A03F07F03DAB27B689A71E5
:1052E00001237B7403E000237B74FF23FB74012301
:1052F000FB753AE0BB7D052B08D17B68DB797B74BD
:105300007B680122DA710123FB752EE0BB7D072B40
:1053100025D17B7A432B02D0832B0FD025E0FB7A5B
:10532000002B03D17B6800225A7202E07B680122C5
:105330005A7201237B740123FB7516E001237B74F1
:105340000023BB747B685B7A002B02D10023FB74C3
:1053500001E01823FB740123FB7500BF05E0002367
:105360007B74FF23FB740123FB75FB7D012B05D1AF
:1053700007F11003F96A1846FFF742FE00BF1C3719
:10538000BD4690BD0008004800040048DFF834D056
:10539000002103E00C4B5B58435004310B480C4B8D
:1053A00042189A42F6D30B4A02E0002342F8043B2B
:1053B000094B9A42F9D3FFF773FD00F011F8FEF79D
:1053C0002DFFFEE70080022020670008000000207B
:1053D0007400002074000020B8000020FEE70000E8
:1053E00070B50D4E0D4CA41BA4100025A54209D18B
:1053F0000B4E0C4C00F07CFFA41BA4100025A54212
:1054000005D170BD56F8253098470135EEE756F8BE
:10541000253098470135F2E718670008186700083B
:10542000186700081C6700080FB40A4B13B51C6806
:1054300024B1A36913B9204600F024FA05AB049AFD
:10544000A1680193204600F0E9FB02B0BDE81040DE
:1054500004B070471000002070B50E46054618B124
:1054600083690BB900F00EFAAB69AC6813B9284632
:1054700000F008FA234B9C4217D16C68A3891B07E4
:105480001DD52369DBB1013EA36816F8011F013B5E
:10549000A360E9B9002B2EDA22460A21284600F043
:1054A0003FF8013011D00A2070BD174B9C4201D14A
:1054B000AC68E3E7154B9C4208BFEC68DEE7214689
:1054C000284600F07FF80028DDD04FF0FF3070BD97
:1054D000002B04DAA269934206DB0A2904D0236870
:1054E0005A1C22601970CFE72246284600F018F8AF
:1054F0000130C9D1E9E723680A205A1C22601870DC
:1055000070BD00BFA0660008C06600088066000885
:10551000024B01461868FFF79FBF00BF1000002034
:10552000F8B50E461446054618B183690BB900F06C
:10553000A9F9214B9C422AD16C68A369A360A38975
:105540001A072ED5236963B323692068C01A6369DB
:10555000F6B29842374604DB2146284600F028F987
:1055600028BBA368013BA36023685A1C22601E70FD
:1055700063690130984204D0A389DB0719D50A2E4C
:1055800017D12146284600F013F990B10FE00B4BDC
:105590009C4201D1AC68D0E7094B9C4208BFEC6843
:1055A000CBE72146284600F00DF80028CCD04FF07C
:1055B000FF373846F8BD00BFA0660008C066000887
:1055C00080660008324B70B51D6806460C4625B152
:1055D000AB6913B9284600F055F92E4B9C420FD108
:1055E0006C68B4F90C309AB215072CD4D00611D4DB
:1055F0000922326043F04003A3814FF0FF3070BDB9
:10560000254B9C4201D1AC68EBE7244B9C4208BF80
:10561000EC68E6E7510712D5616B41B104F1440330
:10562000994202D0304600F023FA00236363A38935
:1056300023F02403A3810023636023692360A389EB
:1056400043F00803A38123694BB9A38903F42073B2
:10565000B3F5007F03D02146304600F0C1F9A2899E
:1056600012F001030CD00023A36063695B42A361C5
:10567000236953B9B4F90C3013F08000BAD170BD6E
:10568000920758BF6369A360F2E70020F7E700BF05
:1056900010000020A0660008C066000880660008B0
:1056A0008A892DE9F041054610070C465AD44B680B
:1056B000002B05DC0B6C002B02DC0020BDE8F08128
:1056C000E66A002EF9D0002312F480522F682B6076
:1056D00033D0606DA3895A0705D56368C01A636B20
:1056E0000BB1236CC01A00230246E66A216A2846E1
:1056F000B047431CA38906D129681D294BD82B4AE2
:10570000CA40D60747D500226260D90422692260C8
:1057100004D5421C01D12B6803B96065616B2F6011
:105720000029CAD004F14403994202D0284600F06F
:105730009FF900206063BDE8F081216A01232846BB
:10574000B047411CC6D12B68002BC3D01D2B01D004
:10575000162B01D12F60B0E7A38943F04003A3814A
:10576000BDE8F0810F69002FA7D093070E6808BF2E
:105770004B690F6018BF0023A6EB07088B60B8F1D8
:10578000000F9ADD43463A46216AA66A2846B0478A
:10579000002807DCA38943F04003A3814FF0FF30CA
:1057A000BDE8F0810744A8EB0008E8E701004020CD
:1057B00038B50B6905460C46DBB118B183690BB9E6
:1057C00000F060F80C4B9C4209D16C68B4F90C30C5
:1057D0007BB121462846BDE83840FFF761BF074B43
:1057E0009C4201D1AC68F1E7054B9C4208BFEC68D4
:1057F000ECE7002038BD00BFA0660008C0660008C6
:1058000080660008014900F0A9B800BFB157000840
:10581000002310B5044603604360836081814366C2
:10582000C281036143618361194608225C3000F044
:1058300017F9054B6362054BA362054BE362054B09
:105840002462236310BD00BF95610008B7610008A2
:10585000EF6100081362000870B54A1E68255543C1
:105860000E4605F1740100F051F9044640B10021E3
:1058700080E842000C30A06005F1680200F0F0F80A
:10588000204670BD836910B5044633BB8364C3648E
:105890000365124B124A1B688262984204BF0123BF
:1058A000836100F01FF86060204600F01BF8A060E4
:1058B000204600F017F80022E06004216068FFF73E
:1058C000A7FF01220921A068FFF7A2FF02221221EF
:1058D000E068FFF79DFF0123A36110BDE0660008AB
:1058E00005580008F8B51C4B1E68B369074613B984
:1058F0003046FFF7C7FF4836B4687368013B03D5ED
:10590000336833B13668F7E7B4F90C506DB16834D9
:10591000F4E704213846FFF79FFF30600028F1D1FB
:105920000C233B6004462046F8BD4FF6FF73E3812D
:105930000123A38165662560A560656025616561B9
:10594000A5610822294604F15C0000F089F865632E
:10595000A563A564E564E6E7E06600082DE9F84381
:105960008046894600F14804002614B93046BDE857
:10597000F883A5686768013F01D52468F5E7AB891E
:10598000012B07D9B5F90E30013303D02946404623
:10599000C84706436835EEE770B50E46B1F90E10FC
:1059A000002990B014461D4607DA00232B60B38906
:1059B0001A0610D44FF480630EE001AA00F050FCE8
:1059C0000028F2DB029A02F47042A2F500535A4218
:1059D0005A412A60EEE740230020236010B070BDDA
:1059E0008B8973B59D0706460C4607D504F147031E
:1059F000236023610123636102B070BD01AB6A467D
:105A0000FFF7CAFF00990546304600F07FF848B915
:105A1000B4F90C309A05EFD423F0030343F00203EA
:105A2000A381E3E70D4BB362A389206043F08003B9
:105A3000A381009B6361019B20615BB1B4F90E10EF
:105A4000304600F01FFC28B1A38923F0030343F084
:105A50000103A381A3891D43A581CDE70558000853
:105A600002440346934200D1704703F8011BF9E753
:105A700038B50546002945D051F8043C0C1F002BD1
:105A8000B8BFE41800F020FC1F4A1368104633B971
:105A9000636014602846BDE8384000F016BCA3429D
:105AA0000CD921686218934204BF1A685B6863606E
:105AB00004BF521822600460ECE713465A680AB12A
:105AC000A242FAD919685818A0420BD120680144A3
:105AD000581882421960DDD1106852685A6001443A
