:020000040800F2
:100000000080022075540008AB4B0008B94B000873
:10001000BF4B0008C54B0008CB4B00080000000098
:10002000000000000000000000000000D14B0008AC
:10003000DF4B000800000000ED4B0008FB4B000800
:10004000C5540008C5540008C5540008C55400082C
:10005000C5540008C5540008C5540008C55400081C
:10006000C5540008C5540008C5540008C55400080C
:10007000C5540008C5540008C5540008C5540008FC
:10008000C5540008C5540008C5540008C5540008EC
:10009000C5540008C5540008C5540008394D00086F
:1000A000C5540008C5540008C5540008C5540008CC
:1000B000C5540008C554000800000000C5540008DD
:1000C000C5540008C5540008C5540008C5540008AC
:1000D000C5540008094C0008C5540008C554000860
:1000E000F14C0008C55400080000000000000000AA
:1000F0000000000000000000000000000000000000
:1001000000000000C554000800000000C5540008AD
:10011000C554000800000000C5540008000000009D
:10012000C5540008C5540008C5540008C55400084B
:10013000C5540008C5540008C5540008000000005C
:10014000C5540008C5540008C5540008C55400082B
:10015000C5540008C5540008C5540008C55400081B
:10016000C5540008C5540008C5540008000000002C
:1001700000000000C554000800000000000000005E
:10018000C5540008C5540008C5540008C5540008EB
:04019000C55400084A
:1001A00010B5054C237833B9044B13B10448AFF3B1
:1001B00000800123237010BD7400002000000000A7
:1001C000D863000808B5034B1BB103490348AFF3DC
:1001D000008008BD0000000078000020D8630008FF
:1001E00001F0FF01102A2BDB10F0070F08D010F8E8
:1001F000013B013A8B422DD010F0070F42B3F6D1EC
:10020000F0B441EA012141EA014122F007047FF004
:1002100000070023F0E80256083C85EA010586EA5B
:10022000010685FA47F5A3FA87F586FA47F6A5FA97
:1002300087F68EB9EED1F0BC01F0FF0102F00702A3
:1002400032B110F8013B013A83EA010313B1F8D14E
:100250000020704701387047002D06BF354603382F
:10026000073815F0010F07D1013015F4807F02BF68
:10027000013015F4C03F0130F0BC0138704700BFB9
:1002800081F0004102E000BF83F0004330B54FEA47
:1002900041044FEA430594EA050F08BF90EA020FB4
:1002A0001FBF54EA000C55EA020C7FEA645C7FEA47
:1002B000655C00F0E2804FEA5454D4EB5555B8BF6A
:1002C0006D420CDD2C4480EA020281EA030382EADB
:1002D000000083EA010180EA020281EA0303362D6D
:1002E00088BF30BD11F0004F4FEA01314FF4801C40
:1002F0004CEA113102D0404261EB410113F0004F52
:100300004FEA03334CEA133302D0524263EB430308
:1003100094EA050F00F0A780A4F10104D5F1200EA6
:100320000DDB02FA0EFC22FA05F2801841F1000101
:1003300003FA0EF2801843FA05F359410EE0A5F1D5
:1003400020050EF1200E012A03FA0EFC28BF4CF006
:10035000020C43FA05F3C01851EBE37101F00045BC
:1003600007D54FF0000EDCF1000C7EEB00006EEBC9
:100370000101B1F5801F1BD3B1F5001F0CD3490853
:100380005FEA30004FEA3C0C04F101044FEA4452AA
:1003900012F5800F80F09A80BCF1004F08BF5FEA31
:1003A000500C50F1000041EB045141EA050130BD11
:1003B0005FEA4C0C404141EB010111F4801FA4F1B4
:1003C0000104E9D191F0000F04BF01460020B1FA09
:1003D00081F308BF2033A3F10B03B3F120020CDA41
:1003E0000C3208DD02F1140CC2F10C0201FA0CF01F
:1003F00021FA02F10CE002F11402D8BFC2F1200C84
:1004000001FA02F120FA0CFCDCBF41EA0C01904039
:10041000E41AA2BF01EB0451294330BD6FEA040482
:100420001F3C1CDA0C340EDC04F11404C4F120026D
:1004300020FA04F001FA02F340EA030021FA04F37F
:1004400045EA030130BDC4F10C04C4F1200220FAD6
:1004500002F001FA04F340EA0300294630BD21FA14
:1004600004F0294630BD94F0000F83F4801306BFDA
:1004700081F480110134013D4EE77FEA645C18BFCE
:100480007FEA655C29D094EA050F08BF90EA020F65
:1004900005D054EA000C04BF1946104630BD91EA5D
:1004A000030F1EBF0021002030BD5FEA545C05D160
:1004B0004000494128BF41F0004130BD14F580049F
:1004C0003CBF01F5801130BD01F0004545F0FE4113
:1004D00041F470014FF0000030BD7FEA645C1ABF48
:1004E000194610467FEA655C1CBF0B46024650EA7F
:1004F000013406BF52EA033591EA030F41F40021AB
:1005000030BD00BF90F0000F04BF0021704730B530
:100510004FF4806404F132044FF000054FF0000105
:1005200050E700BF90F0000F04BF0021704730B5C6
:100530004FF4806404F1320410F0004548BF40429B
:100540004FF000013EE700BF42004FEAE2014FEAF0
:1005500031014FEA02701FBF12F07F4393F07F4FCB
:1005600081F06051704792F0000F14BF93F07F4FFD
:10057000704730B54FF4607401F0004521F0004140
:1005800020E700BF50EA010208BF704730B54FF0C6
:1005900000050AE050EA010208BF704730B511F0CB
:1005A000004502D5404261EB41014FF4806404F103
:1005B00032045FEA915C3FF4DCAE4FF003025FEA85
:1005C000DC0C18BF03325FEADC0C18BF033202EB0D
:1005D000DC02C2F1200300FA03FC20FA02F001FA67
:1005E00003FE40EA0E0021FA02F11444C1E600BF06
:1005F00070B54FF0FF0C4CF4E06C1CEA11541DBFB9
:100600001CEA135594EA0C0F95EA0C0F00F0DEF883
:100610002C4481EA030621EA4C5123EA4C5350EA68
:10062000013518BF52EA033541F4801143F48013B9
:1006300038D0A0FB02CE4FF00005E1FB02E506F04A
:100640000042E0FB03E54FF00006E1FB03569CF09F
:10065000000F18BF4EF0010EA4F1FF04B6F5007FA5
:1006600064F5407404D25FEA4E0E6D4146EB060617
:1006700042EAC62141EA55514FEAC52040EA5E50A0
:100680004FEACE2EB4F1FD0C88BFBCF5E06F1ED84A
:10069000BEF1004F08BF5FEA500E50F1000041EB81
:1006A000045170BD06F0004646EA010140EA02002E
:1006B00081EA0301B4EB5C04C2BFD4EB0C0541EA50
:1006C000045170BD41F480114FF0000E013C00F365
:1006D000AB8014F1360FDEBF002001F0004170BD89
:1006E000C4F10004203C35DA0C341BDC04F11404A2
:1006F000C4F1200500FA05F320FA04F001FA05F22E
:1007000040EA020001F0004221F0004110EBD370FA
:1007100021FA04F642EB06015EEA430E08BF20EA26
:10072000D37070BDC4F10C04C4F1200500FA04F3C9
:1007300020FA05F001FA04F240EA020001F000415B
:1007400010EBD37041F100015EEA430E08BF20EACE
:10075000D37070BDC4F1200500FA05F24EEA020E16
:1007600020FA04F301FA05F243EA020321FA04F045
:1007700001F0004121FA04F220EA020000EBD370FC
:100780005EEA430E08BF20EAD37070BD94F0000FFC
:100790000FD101F00046400041EB010111F4801F30
:1007A00008BF013CF7D041EA060195F0000F18BFE1
:1007B000704703F00046520043EB030313F4801F1D
:1007C00008BF013DF7D043EA0603704794EA0C0FD7
:1007D0000CEA135518BF95EA0C0F0CD050EA4106ED
:1007E00018BF52EA4306D1D181EA030101F000416A
:1007F0004FF0000070BD50EA410606BF1046194692
:1008000052EA430619D094EA0C0F02D150EA01369D
:1008100013D195EA0C0F05D152EA03361CBF1046DE
:1008200019460AD181EA030101F0004141F0FE417D
:1008300041F470014FF0000070BD41F0FE4141F401
:10084000780170BD70B54FF0FF0C4CF4E06C1CEA01
:1008500011541DBF1CEA135594EA0C0F95EA0C0FB6
:1008600000F0A7F8A4EB050481EA030E52EA033571
:100870004FEA013100F088804FEA03334FF0805592
:1008800045EA131343EA12634FEA022245EA1115BF
:1008900045EA10654FEA00260EF000419D4208BF70
:1008A000964244F1FD0404F5407402D25B084FEA1D
:1008B0003202B61A65EB03055B084FEA32024FF4C9
:1008C00080104FF4002CB6EB020E75EB030E22BF26
:1008D000B61A754640EA0C005B084FEA3202B6EBE6
:1008E000020E75EB030E22BFB61A754640EA5C0095
:1008F0005B084FEA3202B6EB020E75EB030E22BF25
:10090000B61A754640EA9C005B084FEA3202B6EB25
:10091000020E75EB030E22BFB61A754640EADC00E4
:1009200055EA060E18D04FEA051545EA16754FEA46
:1009300006164FEAC30343EA52734FEAC2025FEA64
:100940001C1CC0D111F4801F0BD141EA00014FF0F3
:1009500000004FF0004CB6E711F4801F04BF0143C4
:100960000020B4F1FD0C88BFBCF5E06F3FF6AFAEE0
:10097000B5EB030C04BFB6EB020C5FEA500C50F170
:10098000000041EB045170BD0EF0004E4EEA1131F3
:1009900014EB5C04C2BFD4EB0C0541EA045170BDFA
:1009A00041F480114FF0000E013C90E645EA060E3E
:1009B0008DE60CEA135594EA0C0F08BF95EA0C0F6C
:1009C0003FF43BAF94EA0C0F0AD150EA01347FF4B4
:1009D00034AF95EA0C0F7FF425AF104619462CE78B
:1009E00095EA0C0F06D152EA03353FF4FDAE1046EE
:1009F000194622E750EA410618BF52EA43067FF43F
:100A0000C5AE50EA41047FF40DAF52EA43057FF4CE
:100A1000EBAE12E74FEA4102B2F1E04324BFB3F577
:100A2000001CDCF1FE5C0DD901F0004C4FEAC00265
:100A30004CEA5070B2F1004F40EB830008BF20F049
:100A40000100704711F0804F21D113F13872BCBF03
:100A500001F00040704741F480114FEA5252C2F158
:100A60001802C2F1200C10FA0CF320FA02F018BFA1
:100A700040F001004FEAC1234FEAD32303FA0CFCF4
:100A800040EA0C0023FA02F34FEA4303CCE77FEA83
:100A9000625307D150EA01331EBF4FF0FE4040F4CD
:100AA0004000704701F0004040F0FE4040F400007C
:100AB000704700BF80B483B000AF78600549054B34
:100AC0001A687B6813430B6000BF0C37BD465DF8A6
:100AD000047B70470004014080B483B000AF7860AD
:100AE0000549054B1A6A7B6813430B6200BF0C373C
:100AF000BD465DF8047B70470004014080B483B0BC
:100B000000AF78600649064B1A687B68DB431340E8
:100B10000B6000BF0C37BD465DF8047B704700BF1B
:100B20000004014080B483B000AF78600649064BF2
:100B30001A6A7B68DB4313400B6200BF0C37BD466B
:100B40005DF8047B704700BF0004014080B483B0AF
:100B500000AF78600549054B5A687B6813434B60CA
:100B600000BF0C37BD465DF8047B704700040140B0
:100B700080B483B000AF78600549054B5A6A7B6842
:100B800013434B6200BF0C37BD465DF8047B7047D2
:100B90000004014080B483B000AF78600649064B82
:100BA0005A687B68DB4313404B6000BF0C37BD467F
:100BB0005DF8047B704700BF0004014080B483B03F
:100BC00000AF78600649064B5A6A7B68DB431340E6
:100BD0004B6200BF0C37BD465DF8047B704700BF19
:100BE0000004014080B483B000AF78600549054B34
:100BF0009A687B6813438B6000BF0C37BD465DF875
:100C0000047B70470004014080B483B000AF78607B
:100C10000549054B9A6A7B6813438B6200BF0C370A
:100C2000BD465DF8047B70470004014080B483B08A
:100C300000AF78600649064B9A687B68DB43134037
:100C40008B6000BF0C37BD465DF8047B704700BF6A
:100C50000004014080B483B000AF78600649064BC1
:100C60009A6A7B68DB4313408B6200BF0C37BD463A
:100C70005DF8047B704700BF0004014080B483B07E
:100C800000AF78600549054BDA687B681343CB6099
:100C900000BF0C37BD465DF8047B7047000401407F
:100CA00080B483B000AF78600549054BDA6A7B6891
:100CB0001343CB6200BF0C37BD465DF8047B704721
:100CC0000004014080B483B000AF78600649064B51
:100CD000DA687B68DB431340CB6000BF0C37BD464E
:100CE0005DF8047B704700BF0004014080B483B00E
:100CF00000AF78600649064BDA6A7B68DB43134035
:100D0000CB6200BF0C37BD465DF8047B704700BF67
:100D10000004014080B584B000AF78600123FB730C
:100D20007B681B7A002B00F0C1807B681B68002B5E
:100D30005BD07B685B7A012B0ED0022B17D0002B87
:100D400020D17B681B681846FFF724FF7B681B686F
:100D50001846FFF7AFFE18E07B681B681846FFF7E0
:100D6000CDFE7B681B681846FFF7F0FE0DE07B6840
:100D70001B681846FFF79EFE7B681B681846FFF746
:100D8000E5FE02E00023FB7300BF7B689B7A002B2B
:100D90002BD07B689B7A022B0ED0032B17D0012B14
:100DA00020D17B681B681846FFF78CFF7B681B68A7
:100DB0001846FFF717FF18E07B681B681846FFF717
:100DC00035FF7B681B681846FFF758FF0DE07B680E
:100DD0001B681846FFF706FF7B681B681846FFF77D
:100DE0004DFF02E00023FB7300BF7B685B68002BB4
:100DF00070D07B685B7A012B0ED0022B17D0002BB2
:100E000020D17B685B681846FFF7D8FE7B685B687B
:100E10001846FFF761FE18E07B685B681846FFF72D
:100E200081FE7B685B681846FFF7A2FE0DE07B68D9
:100E30005B681846FFF750FE7B685B681846FFF753
:100E400097FE02E00023FB7300BF7B689B7A002BB8
:100E500040D07B689B7A022B0ED0032B17D0012B3E
:100E600020D17B685B681846FFF740FF7B685B68B2
:100E70001846FFF7C9FE2DE07B685B681846FFF750
:100E8000E9FE7B685B681846FFF70AFF22E07B6893
:100E90005B681846FFF7B8FE7B685B681846FFF78B
:100EA000FFFE17E00023FB7300BF13E07B681B68A5
:100EB0001846FFF723FE7B681B681846FFF76AFE9B
:100EC0007B685B681846FFF72DFE7B685B681846F9
:100ED000FFF774FEFB7B18461037BD4680BD80B41B
:100EE00089B000AFF860B9607A60FB681A68BB68C7
:100EF0007B617B6993FAA3F33B613B69B3FA83F3AC
:100F00005B00032101FA03F3DB431A40BB68FB617A
:100F1000FB6993FAA3F3BB61BB69B3FA83F35B008C
:100F2000796801FA03F31A43FB681A6000BF24379B
:100F3000BD465DF8047B704780B485B000AFF860B3
:100F4000B9607A60FB685A68BB68DB431A40BB68CB
:100F5000796801FB03F31A43FB685A6000BF14373A
:100F6000BD465DF8047B704780B489B000AFF8607F
:100F7000B9607A60FB689A68BB687B617B6993FAA9
:100F8000A3F33B613B69B3FA83F35B00032101FAEE
:100F900003F3DB431A40BB68FB61FB6993FAA3F3DD
:100FA000BB61BB69B3FA83F35B00796801FA03F3B1
:100FB0001A43FB689A6000BF2437BD465DF8047B86
:100FC000704780B489B000AFF860B9607A60FB68A0
:100FD000DA68BB687B617B6993FAA3F33B613B6989
:100FE000B3FA83F35B00032101FA03F3DB431A40F6
:100FF000BB68FB61FB6993FAA3F3BB61BB69B3FAFE
:1010000083F35B00796801FA03F31A43FB68DA6043
:1010100000BF2437BD465DF8047B704780B489B0BB
:1010200000AFF860B9607A60FB681A6ABB687B61E0
:101030007B6993FAA3F33B613B69B3FA83F39B00AB
:101040000F2101FA03F3DB431A40BB68FB61FB6924
:1010500093FAA3F3BB61BB69B3FA83F39B0079688E
:1010600001FA03F31A43FB681A6200BF2437BD4636
:101070005DF8047B704780B489B000AFF860B96058
:101080007A60FB685A6ABB681B0A7B617B6993FACA
:10109000A3F33B613B69B3FA83F39B000F2101FA91
:1010A00003F3DB431A40BB681B0AFB61FB6993FA3D
:1010B000A3F3BB61BB69B3FA83F39B00796801FAC0
:1010C00003F31A43FB685A6200BF2437BD465DF83C
:1010D000047B704780B588B000AF7860396000232A
:1010E000FB610023BB613B681B687B617B6993FAF2
:1010F000A3F33B613B69B3FA83F3FB6148E03B68D0
:101100001A680121FB6901FA03F31340BB61BB6953
:10111000002B3AD03B685B681A46B9697868FFF7DC
:10112000DEFE3B685B68012B03D03B685B68022BEB
:1011300006D13B689B681A46B9697868FFF714FFC7
:101140003B681B691A46B9697868FFF73AFF3B6844
:101150005B68022B19D1BB69FB60FB6893FAA3F3B0
:10116000BB60BB68B3FA83F3072B07D83B685B69A6
:101170001A46B9697868FFF751FF06E03B685B697A
:101180001A46B9697868FFF776FFFB690133FB619E
:101190003B681A68FB6922FA03F3002BAFD13B6866
:1011A0005B68012B03D03B685B68022B07D13B686F
:1011B00019683B68DB681A467868FFF7BDFE0123B3
:1011C00018462037BD4680BD80B483B000AF78603C
:1011D0007B681B6843F001027B681A6000BF0C3714
:1011E000BD465DF8047B704780B483B000AF786083
:1011F0007B681B6823F001027B681A6000BF0C3714
:10120000BD465DF8047B704780B485B000AFF860E0
:10121000B9607A60FB681B6823F4F8527B68190296
:10122000BB680B431A43FB681A6000BF1437BD4606
:101230005DF8047B704780B485B000AFF860B9609A
:101240007A60FB689B6823F4FF6323F00703B968A7
:101250007A680A431A43FB689A6000BF1437BD4698
:101260005DF8047B704780B483B000AF78607B6822
:101270009B6843F400427B689A6000BF0C37BD4610
:101280005DF8047B704780B483B000AF78607B6802
:101290009B6823F400427B689A6000BF0C37BD4610
:1012A0005DF8047B704780B483B000AF786039602C
:1012B0007B683A681A6100BF0C37BD465DF8047B55
:1012C000704780B483B000AF786039607B681B687A
:1012D00023F440123B681A437B681A6000BF0C3746
:1012E000BD465DF8047B704780B483B000AF786082
:1012F00039607B685B6823F400423B681A437B6873
:101300005A6000BF0C37BD465DF8047B704780B55E
:1013100082B000AF786039607868FFF765FF3B689E
:1013200099683B68DB681A467868FFF76DFF3B6891
:101330005B6819467868FFF7B6FF7868FFF744FFE7
:101340007868FFF7A0FF3B6819693B689B691A46FC
:101350007868FFF770FF3B681B69002B02D0786844
:10136000FFF781FF3B681B6819467868FFF7A9FF04
:101370003B685B6919467868FFF7B6FF012318469A
:101380000837BD4680BD000080B400AF074B1B6826
:1013900003F48063B3F5806F0CBF01230023DBB23D
:1013A0001846BD465DF8047B704700BF0010024040
:1013B00080B400AF074BD3F8903003F00203022B48
:1013C0000CBF01230023DBB21846BD465DF8047B49
:1013D000704700BF0010024080B400AF064B1B688E
:1013E00003F00803082B0CBF01230023DBB21846CF
:1013F000BD465DF8047B70470010024080B400AF2A
:10140000044B1B6803F0F0031846BD465DF8047BEF
:10141000704700BF0010024080B400AF044BD3F807
:10142000943003F470631846BD465DF8047B704742
:101430000010024080B400AF044B9B6803F00C0323
:101440001846BD465DF8047B704700BF001002409F
:1014500080B400AF044B9B6803F0F0031846BD4610
:101460005DF8047B704700BF0010024080B400AFFD
:10147000044B9B6803F4E0631846BD465DF8047BAB
:10148000704700BF0010024080B400AF044B9B685F
:1014900003F460531846BD465DF8047B704700BFF7
:1014A0000010024080B483B000AF7860064BD3F8E0
:1014B00088207B681A407B681B04134318460C374E
:1014C000BD465DF8047B70470010024080B483B0D5
:1014D00000AF7860064BD3F888207B681A407B68A1
:1014E0001B04134318460C37BD465DF8047B704758
:1014F0000010024080B400AF044BDB6803F003032C
:101500001846BD465DF8047B704700BF00100240DE
:1015100080B400AF044BDB681B0A03F07F0318465E
:10152000BD465DF8047B70470010024080B400AFF8
:10153000044BDB6803F0C0631846BD465DF8047BCE
:10154000704700BF0010024080B400AF044BDB685E
:1015500003F070031846BD465DF8047B704700BF7A
:101560000010024080B584B000AF78600023FB60BB
:101570007B68032B2ED17868FFF794FF03464F4A10
:10158000934209D0B3F1031F0ED04D4A934214D1B8
:1015900000F0E8F8F8608BE0FFF7F6FE0346002B5A
:1015A0007BD0484BFB6078E0FFF702FF0346002B3F
:1015B00075D04FF40043FB6071E000F0D3F80346B0
:1015C000184600F05FF90346184600F085F9F86008
:1015D00000BF6DE07B680C2B2ED17868FFF762FFAF
:1015E0000346394A934209D0B3F10C1F0ED0374A53
:1015F000934214D100F0B6F8F86059E0FFF7C4FE4A
:101600000346002B4DD02F4BFB604AE0FFF7D0FE86
:101610000346002B47D04FF40043FB6043E000F04B
:10162000A1F80346184600F02DF90346184600F0CD
:101630003FF9F86000BF3BE07B68302B38D1786819
:10164000FFF730FF0346224A934209D0B3F1301F1F
:101650000ED0204A934214D100F084F8F86027E0BD
:10166000FFF792FE0346002B1FD0164BFB601CE0D9
:10167000FFF79EFE0346002B19D04FF40043FB609A
:1016800015E000F06FF80346184600F0FBF803463B
:10169000184600F00DF9F8600AE000BF08E000BF4E
:1016A00006E000BF04E000BF02E000BF00E000BFB2
:1016B000FB6818461037BD4680BD00BF020003001E
:1016C000010003000024F40008000C0004000C00DA
:1016D000200030001000300080B584B000AF78608A
:1016E0000023FB607B68C02B30D17868FFF7EEFEEB
:1016F0000346194A934209D0B3F1C01F0ED0174ACE
:10170000934214D100F02EF8F8601FE0FFF73CFE82
:101710000346002B17D0124BFB6014E0FFF748FE86
:101720000346002B11D04FF40043FB600DE000F0A6
:1017300019F80346184600F0A5F80346184600F0CD
:10174000B7F8F86002E000BF00E000BFFB68184691
:101750001037BD4680BD00BF8000C0004000C00003
:101760000024F40080B582B000AF00237B60FFF757
:1017700061FE03460C2B51D801A252F823F000BFA2
:10178000B51700081D1800081D1800081D180008CE
:10179000091800081D1800081D1800081D18000869
:1017A0000F1800081D1800081D1800081D18000853
:1017B00015180008FFF710FE0346002B11D1FFF7A4
:1017C0000BFE0346002B04D0FFF718FE03461B0A4E
:1017D00003E0FFF721FE03461B0A284A52F8233094
:1017E00010E0FFF7F9FD0346002B04D0FFF706FEDB
:1017F00003461B0903E0FFF70FFE03461B091F4AC0
:1018000052F823307B6033E01D4B7B6030E01C4B93
:101810007B602DE000F074F8786029E0FFF7DCFDD4
:101820000346002B11D1FFF7D7FD0346002B04D050
:10183000FFF7E4FD03461B0A03E0FFF7EDFD034657
:101840001B0A0E4A52F8233010E0FFF7C5FD03468D
:10185000002B04D0FFF7D2FD03461B0903E0FFF77E
:10186000DBFD03461B09054A52F823307B6000BFAD
:101870007B6818460837BD4680BD00BF4865000834
:101880000024F40080B582B000AF7860FFF7E0FD7F
:1018900003461B0903F00F03044AD35C1A467B6816
:1018A000D34018460837BD4680BD00BF30650008EC
:1018B00080B582B000AF7860FFF7D8FD03461B0A01
:1018C000044AD35C1A467B68D34018460837BD46A5
:1018D00080BD00BF4065000880B582B000AF786071
:1018E000FFF7D2FD0346DB0A044AD35C1A467B6845
:1018F000D34018460837BD4680BD00BF406500088C
:1019000090B583B000AF00237B6000233B60FFF7FE
:10191000F1FD38603B68022B2DD0032B2ED0012B1C
:101920002FD1FFF759FD0346002B11D1FFF754FDCE
:101930000346002B04D0FFF761FD03461B0A03E0BA
:10194000FFF76AFD03461B0A2F4A52F8233010E0C6
:10195000FFF742FD0346002B04D0FFF74FFD03467F
:101960001B0903E0FFF758FD03461B09264A52F8FE
:1019700023307B602FE0254B7B602CE0234B7B608A
:1019800029E0FFF729FD0346002B11D1FFF724FDC5
:101990000346002B04D0FFF731FD03461B0A03E08A
:1019A000FFF73AFD03461B0A174A52F8233010E0AE
:1019B000FFF712FD0346002B04D0FFF71FFD03467F
:1019C0001B0903E0FFF728FD03461B090E4A52F8E6
:1019D00023307B6000BFFFF7B7FD03461B090133CF
:1019E0007A68B2FBF3F4FFF793FD034603FB04F4BC
:1019F000FFF79CFD03465B0E01335B00B4FBF3F382
:101A000018460C37BD4690BD486500080024F40018
:101A100080B483B000AF78607B681B6803F040033C
:101A2000402B01D1012300E0002318460C37BD46AE
:101A30005DF8047B704780B483B000AF7860396094
:101A40003B689BB21A467B681A6100BF0C37BD46E3
:101A50005DF8047B704780B584B000AF7860396072
:101A60000023FB737868FFF7D3FF0346002B3BD1BD
:101A70007B681B6823F47F4323F0BF033A68116837
:101A80003A68526811433A68D26811433A68126959
:101A900011433A68526911433A68926911433A68AE
:101AA000D26911433A68126A0A431A437B681A6082
:101AB0007B685B6823F4706323F004033A689168E1
:101AC0003A685269120C0A431A437B685A603B68B1
:101AD0001B6AB3F5005F05D13B685B6A19467868FD
:101AE000FFF7A9FF0123FB73FB7B18461037BD46A8
:101AF00080BD80B483B000AF786039607B683A689D
:101B00009A6200BF0C37BD465DF8047B704780B415
:101B100083B000AF786039607B683A68DA6200BFF2
:101B20000C37BD465DF8047B704780B483B000AFCE
:101B3000786039607B683A681A6300BF0C37BD462D
:101B40005DF8047B704780B483B000AF7860396083
:101B50007B683A685A6300BF0C37BD465DF8047B6A
:101B6000704780B483B000AF786039607B683A68B2
:101B70009A6300BF0C37BD465DF8047B704780B4A4
:101B800083B000AF786039607B683A68DA6300BF81
:101B90000C37BD465DF8047B704780B483B000AF5E
:101BA000786039607B683A681A6400BF0C37BD46BC
:101BB0005DF8047B704780B483B000AF7860396013
:101BC0007B683A689A6500BF0C37BD465DF8047BB8
:101BD000704780B483B000AF786039607B683A6842
:101BE000DA6500BF0C37BD465DF8047B704780B4F2
:101BF00083B000AF78607B685B6943F001027B686B
:101C00005A6100BF0C37BD465DF8047B704780B455
:101C100083B000AF78607B6800221A807B68002266
:101C20005A607B684FF0FF329A607B680022DA606E
:101C30007B6800221A7400BF0C37BD465DF8047B38
:101C40007047000080B584B000AF786039607B6871
:101C50001B68FB607B682B4A934207D07B68B3F11B
:101C6000804F03D07B68284A934206D1FB6823F05B
:101C700070023B685B681343FB607B68214A9342B8
:101C80000FD07B68B3F1804F0BD07B681E4A934224
:101C900007D07B681D4A934203D07B681C4A93425D
:101CA00006D1FB6823F440723B68DB681343FB609A
:101CB0007B68FA681A603B689B6819467868FFF78A
:101CC00026FF3B681B8819467868FFF712FF7B6880
:101CD0000C4A934207D07B680C4A934203D07B683E
:101CE0000B4A934205D13B681B7C19467868FFF785
:101CF0001CFF7868FFF77BFF012318461037BD46AD
:101D000080BD00BF002C01400004004000400140A5
:101D10000044014080B483B000AF78607B6800224B
:101D20001A607B6800225A607B6800229A607B6898
:101D30000022DA607B6800221A617B6800225A6107
:101D40007B6800229A617B680022DA6100BF0C3751
:101D5000BD465DF8047B704780B586B000AFF86083
:101D6000B9607A600023FB75BB68B3F5807F1FD034
:101D7000B3F5807F04D8012B0CD0102B11D033E0A9
:101D8000B3F5803F22D0B3F5801F26D0B3F5805F36
:101D900015D029E07968F86800F02CF80346FB7547
:101DA00022E07968F86800F099F80346FB751BE0BB
:101DB0007968F86800F00AF90346FB7514E0796861
:101DC000F86800F07BF90346FB750DE07968F86868
:101DD00000F0D4F90346FB7506E07968F86800F076
:101DE00025FA0346FB7500BFFB7D18461837BD4634
:101DF00080BD000080B586B000AF786039607B6838
:101E00001B6A23F001027B681A627B681B6A7B6194
:101E10007B685B683B617B689B69FB60FB6823F0C8
:101E20000303FB60FB6823F4803323F070033A68FC
:101E300012681343FB607B6923F002023B681B6955
:101E400013437B617B6923F001023B685B681343AA
:101E50007B617B681E4A934207D07B681D4A934290
:101E600003D07B681C4A93421ED17B6923F0080291
:101E70003B685B699B0013437B617B6923F0040231
:101E80003B689B689B0013437B613B6923F4807232
:101E90003B689B6913433B613B6923F400723B68D9
:101EA000DB695B0013433B617B683A695A607B687E
:101EB000FA689A613B68DB6819467868FFF743FE69
:101EC0007B687A691A62012318461837BD4680BDBF
:101ED000002C0140004001400044014080B586B024
:101EE00000AF786039607B681B6A23F010027B6862
:101EF0001A627B681B6A7B617B685B683B617B68FD
:101F00009B69FB60FB6823F44073FB60FB6823F074
:101F1000807323F4E0433A68126812021343FB60B3
:101F20007B6923F020023B681B691B0113437B6123
:101F30007B6923F010023B685B681B0113437B61E4
:101F40007B681F4A934207D07B681E4A934203D0A6
:101F50007B681D4A93421FD17B6923F080023B6856
:101F60005B699B0113437B617B6923F040023B6803
:101F70009B689B0113437B613B6923F480623B6850
:101F80009B699B0013433B613B6923F400623B6800
:101F9000DB69DB0013433B617B683A695A607B680D
:101FA000FA689A613B68DB6819467868FFF7D9FDE3
:101FB0007B687A691A62012318461837BD4680BDCE
:101FC000002C0140004001400044014080B586B033
:101FD00000AF786039607B681B6A23F480727B688D
:101FE0001A627B681B6A7B617B685B683B617B680C
:101FF000DB69FB60FB6823F00303FB60FB6823F4F1
:10200000803323F070033A6812681343FB607B69E6
:1020100023F400723B681B691B0213437B617B69DD
:1020200023F480723B685B681B0213437B617B680F
:102030001F4A934207D07B681E4A934203D07B68B5
:102040001D4A93421FD17B6923F400623B685B69A0
:102050009B0213437B617B6923F480623B689B682E
:102060009B0213437B613B6923F480523B689B696D
:102070001B0113433B613B6923F400523B68DB695E
:102080005B0113433B617B683A695A607B68FA687D
:10209000DA613B68DB6819467868FFF770FD7B689A
:1020A0007A691A62012318461837BD4680BD00BF01
:1020B000002C0140004001400044014080B586B042
:1020C00000AF786039607B681B6A23F480527B68BC
:1020D0001A627B681B6A3B617B685B687B617B681B
:1020E000DB69FB60FB6823F44073FB60FB6823F053
:1020F000807323F4E0433A68126812021343FB60D2
:102100003B6923F400523B681B691B0313433B618B
:102110003B6923F480523B685B681B0313433B61BC
:102120007B68134A934207D07B68124A934203D0DC
:102130007B68114A934207D17B6923F480423B6854
:102140009B699B0113437B617B687A695A607B685A
:10215000FA68DA613B68DB6819467868FFF71DFDAD
:102160007B683A691A62012318461837BD4680BD5C
:10217000002C0140004001400044014080B584B083
:1021800000AF786039607B681B6A23F480327B681B
:102190001A627B681B6AFB607B685B6DBB60BB6817
:1021A00023F4803323F070033A6812681343BB6052
:1021B000FB6823F400323B681B691B041343FB607C
:1021C000FB6823F480323B685B681B041343FB60AD
:1021D0007B68134A934207D07B68124A934203D02C
:1021E0007B68114A934209D17B685B6823F4803293
:1021F0003B689B691B021A437B685A607B68BA681C
:102200005A653B68DB6819467868FFF7D4FC7B6841
:10221000FA681A62012318461037BD4680BD00BF18
:10222000002C0140004001400044014080B584B0D2
:1022300000AF786039607B681B6A23F480127B688A
:102240001A627B681B6AFB607B685B6DBB60BB6866
:1022500023F0807323F4E0433A68126812021343B8
:10226000BB60FB6823F400123B681B691B0513432A
:10227000FB60FB6823F480123B685B681B0513431B
:10228000FB607B68124A934207D07B68114A9342F5
:1022900003D07B68104A934209D17B685B6823F4C2
:1022A00080223B689B699B021A437B685A607B686B
:1022B000BA685A653B68DB6819467868FFF789FC9D
:1022C0007B68FA681A62012318461037BD4680BD44
:1022D000002C0140004001400044014080B483B024
:1022E00000AF78607B681B6803F00103012B0CBF13
:1022F00001230023DBB218460C37BD465DF8047B92
:10230000704780B483B000AF786039607B685B68E9
:1023100023F440523B681A437B685A6000BF0C3775
:10232000BD465DF8047B704780B483B000AF786031
:1023300039607B689B6823F440723B681A437B6872
:102340009A6000BF0C37BD465DF8047B7047B0B49F
:1023500085B000AFF860B9607A603B60002500246A
:102360007B68B3F5004F14D1BB685A003B685B082B
:102370001A443B68B2FBF3F39BB21D464FF6F07470
:102380002C406B089BB203F007031C43FB68DC6026
:102390000AE03B685A08BB681A443B68B2FBF3F397
:1023A0009BB21A46FB68DA6000BF1437BD46B0BC6A
:1023B0007047000080B584B000AF786039600023BA
:1023C000FB730023BB607868FFF788FF0346002B90
:1023D00051D17B681A682A4B13403A6851683A68B1
:1023E000D26811433A68126911433A6892690A4304
:1023F0001A437B681A603B689B6819467868FFF748
:1024000080FF3B685B6919467868FFF78DFF7B6842
:102410001C4A934204D10320FFF7A4F8B86019E0E6
:102420007B68194A934204D10C20FFF79BF8B860EF
:1024300010E07B68154A934204D13020FFF792F8F0
:10244000B86007E07B68124A934203D1C020FFF7CF
:1024500043F9B860BB68002B0DD03B681B68002BAC
:1024600009D00123FB733B689A693B681B68B96814
:102470007868FFF76CFFFB7B18461037BD4680BDC0
:10248000F369FFEF0038014000440040004800407D
:10249000004C004080B483B000AF786039600949D7
:1024A0007A683B68B2FBF3F3013B4B60054B0022BB
:1024B0009A60044B05221A6000BF0C37BD465DF8D8
:1024C000047B704710E000E080B582B000AF786018
:1024D0004FF47A717868FFF7DDFF00BF0837BD461B
:1024E00080BD000080B485B000AF78600E4B1B68E3
:1024F000FB60FB687B68B3F1FF3F0CD07B68013366
:102500007B6008E0084B1B6803F48033002B02D08B
:102510007B68013B7B607B68002BF3D100BF1437E5
:10252000BD465DF8047B704710E000E080B483B0E6
:1025300000AF7860044A7B68136000BF0C37BD466B
:102540005DF8047B704700BF0C00002080B485B0AC
:1025500000AF78607B6803F00703FB600C4BDB681F
:10256000BB60BA684FF6FF031340BB60FB681A02FA
:10257000BB68134343F0BF6343F40033BB60044ABA
:10258000BB68D36000BF1437BD465DF8047B70475D
:1025900000ED00E080B400AF044BDB681B0A03F0E1
:1025A00007031846BD465DF8047B704700ED00E068
:1025B00080B483B000AF0346FB71094997F9073037
:1025C0005B09FA7902F01F02012000FA02F241F8D9
:1025D000232000BF0C37BD465DF8047B704700BF69
:1025E00000E100E080B483B000AF03463960FB71C6
:1025F00097F90730002B0BDA0D49FB7903F00F0335
:10260000043B3A68D2B21201D2B20B441A7609E006
:10261000084997F907303A68D2B21201D2B20B4496
:1026200083F8002300BF0C37BD465DF8047B70477C
:1026300000ED00E000E100E080B489B000AFF86098
:10264000B9607A60FB6803F00703FB61FB69C3F1C3
:102650000703042B28BF0423BB61FB690433062B4B
:1026600002D9FB69033B00E000237B610122BB69C7
:1026700002FA03F35A1EBB681A407B699A40012193
:102680007B6901FA03F3591E7B680B40134318461C
:102690002437BD465DF8047B7047000090B484B0D9
:1026A00000AF78603960114C3B68DBB20F493A6883
:1026B000D2B2023251F822103A68120CD2431140C1
:1026C0003A68120CFA60FA6892FAA2F2BA60BA6832
:1026D000B2FA82F2786800FA02F20A43023344F84E
:1026E000232000BF1037BD4690BC7047000001405A
:1026F00080B483B000AF78600649064B1B6823F0B6
:1027000007027B6813430B6000BF0C37BD465DF8C2
:10271000047B70470020024080B400AF044B1B686C
:1027200003F007031846BD465DF8047B704700BF01
:102730000020024080B483B000AF78607B68042B37
:1027400006D1094A084B1B6843F00403136005E0F7
:10275000054A054B1B6823F00403136000BF0C37C8
:10276000BD465DF8047B704710E000E080B400AF28
:10277000054A054B1B6843F48023136000BFBD4628
:102780005DF8047B704700BF0010024080B400AFCA
:10279000054A054B1B6843F48033136000BFBD46F8
:1027A0005DF8047B704700BF0010024080B400AFAA
:1027B000074B1B6803F40033B3F5003F0CBF012344
:1027C0000023DBB21846BD465DF8047B704700BFAE
:1027D0000010024080B400AF064A064BD3F8943094
:1027E00043F00103C2F8943000BFBD465DF8047B9E
:1027F000704700BF0010024080B400AF074BD3F811
:10280000943003F00203022B0CBF01230023DBB240
:102810001846BD465DF8047B704700BF00100240BB
:1028200080B483B000AF78600649064B9B6823F004
:1028300003027B6813438B6000BF0C37BD465DF815
:10284000047B70470010024080B400AF044B9B68CB
:1028500003F00C031846BD465DF8047B704700BFCB
:102860000010024080B483B000AF78600649064B88
:102870009B6823F0F0027B6813438B6000BF0C372A
:10288000BD465DF8047B70470010024080B483B001
:1028900000AF78600649064B9B6823F4E0627B68D2
:1028A00013438B6000BF0C37BD465DF8047B704757
:1028B0000010024080B483B000AF78600649064B38
:1028C0009B6823F460527B6813438B6000BF0C3716
:1028D000BD465DF8047B70470010024080B483B0B1
:1028E00000AF78600949094BD3F888207B681B0C3E
:1028F000DB431A407B689BB21343C1F8883000BFAA
:102900000C37BD465DF8047B704700BF00100240E5
:1029100080B485B000AF78607B681A0E0E4B13440C
:10292000FB60FB681A687B681B0CDBB2032101FAB1
:1029300003F3DB431A407B68D9B27B681B0CDBB224
:1029400001FA03F31A43FB681A6000BF1437BD464F
:102950005DF8047B704700BF8810024080B400AF70
:10296000054A054B1B6843F08073136000BFBD46EA
:102970005DF8047B704700BF0010024080B400AFD8
:10298000074B1B6803F00073B3F1007F0CBF0123FA
:102990000023DBB21846BD465DF8047B704700BFDC
:1029A0000010024080B485B000AFF860B9607A6072
:1029B0003B600A48094BDA68094B1340F968BA686A
:1029C00011437A68120211433A680A431343C36001
:1029D00000BF1437BD465DF8047B7047001002400D
:1029E0008C80FFF980B400AF054A054BDB6843F0EB
:1029F0008073D36000BFBD465DF8047B704700BFA5
:102A00000010024080B483B000AF78600649064BE6
:102A10001B6823F4C0627B6813430B6000BF0C3754
:102A2000BD465DF8047B70470070004080B483B001
:102A300000AF78607B681B6843F001027B681A6016
:102A400000BF0C37BD465DF8047B704780B483B08F
:102A500000AF78607B681B6823F400327B681A60E3
:102A600000BF0C37BD465DF8047B704780B483B06F
:102A700000AF78607B681B6823F400227B681A60D3
:102A800000BF0C37BD465DF8047B704780B485B04D
:102A900000AFF860B9607A60FB68DB6823F4FF631D
:102AA00023F00603B9687A680A431A43FB68DA60C0
:102AB00000BF1437BD465DF8047B704780B483B017
:102AC00000AF78607B68DB6823F400427B68DA60E3
:102AD00000BF0C37BD465DF8047B704780B483B0FF
:102AE00000AF78607B685B6843F000727B685A6077
:102AF00000BF0C37BD465DF8047B704780B483B0DF
:102B000000AF7860044B4CF6CC421A6000BF0C3723
:102B1000BD465DF8047B70470030004080B483B050
:102B200000AF7860044B4AF6AA221A6000BF0C3747
:102B3000BD465DF8047B70470030004080B483B030
:102B400000AF7860044B45F255521A6000BF0C3755
:102B5000BD465DF8047B70470030004080B483B010
:102B600000AF786039603B6803F007027B685A6009
:102B700000BF0C37BD465DF8047B704780B483B05E
:102B800000AF786039603B68C3F30B027B689A60E2
:102B900000BF0C37BD465DF8047B704780B483B03E
:102BA00000AF786039603B68C3F30B027B681A6141
:102BB00000BF0C37BD465DF8047B704780B483B01E
:102BC00000AF78607B68DB6803F00703002B0CBF65
:102BD00001230023DBB218460C37BD465DF8047BA9
:102BE0007047000080B485B000AF78600849084B9A
:102BF000DA6C7B681343CB64054BDA6C7B6813405B
:102C0000FB60FB6800BF1437BD465DF8047B70476E
:102C10000010024080B485B000AF78600849084BCE
:102C20009A6D7B6813438B65054B9A6D7B681340E7
:102C3000FB60FB6800BF1437BD465DF8047B70473E
:102C40000010024080B485B000AF78600849084B9E
:102C50001A6E7B6813430B66054B1A6E7B68134034
:102C6000FB60FB6800BF1437BD465DF8047B70470E
:102C70000010024080B483B000AF78600649064B74
:102C80001A687B68DB4313400B6000BF0C37BD46FE
:102C90005DF8047B704700BF0004014080B483B03E
:102CA00000AF78607B681B6843F040027B681A6065
:102CB00000BF0C37BD465DF8047B704780B483B01D
:102CC00000AF786039607B685B6823F010023B6876
:102CD0001A437B685A6000BF0C37BD465DF8047B21
:102CE000704780B483B000AF786039607B685B6800
:102CF00023F480523B681A437B685A6000BF0C374C
:102D0000BD465DF8047B704780B483B000AF786047
:102D10007B685B6843F008027B685A6000BF0C3731
:102D2000BD465DF8047B704780B489B000AFF860A1
:102D3000B9607A60FB681A68BB687B617B6993FA4B
:102D4000A3F33B613B69B3FA83F35B00032101FA10
:102D500003F3DB431A40BB68FB61FB6993FAA3F3FF
:102D6000BB61BB69B3FA83F35B00796801FA03F3D3
:102D70001A43FB681A6000BF2437BD465DF8047B28
:102D8000704780B489B000AFF860B9607A60FB68C2
:102D9000DA68BB687B617B6993FAA3F33B613B69AB
:102DA000B3FA83F35B00032101FA03F3DB431A4018
:102DB000BB68FB61FB6993FAA3F3BB61BB69B3FA20
:102DC00083F35B00796801FA03F31A43FB68DA6066
:102DD00000BF2437BD465DF8047B704780B483B0E4
:102DE00000AF786039607B683A689A6100BF0C3741
:102DF000BD465DF8047B704780B483B000AF786057
:102E000039607B683A689A6200BF0C37BD465DF84E
:102E1000047B704780B483B000AF78607B681B6828
:102E200043F001027B681A6000BF0C37BD465DF8B5
:102E3000047B7047B0B483B000AF786039603B6802
:102E4000012B28D03B68042B23D03B68102B1ED0CD
:102E50003B68402B19D03B68B3F5807F13D03B68AB
:102E6000B3F5806F0DD03B68B3F5805F07D03B684A
:102E7000B3F5803F01D107230EE008230CE00623C1
:102E80000AE0052308E0042306E0032304E002230C
:102E900002E0012300E000231D467B6818331A4638
:102EA0002946094B5B5C13441C4622682946074BA4
:102EB0005B5C194608238B401343236000BF0C372B
:102EC000BD46B0BC704700BF186500082465000807
:102ED00080B483B000AF786039607B689B6823F46E
:102EE000A03323F007033A681A437B689A6000BF57
:102EF0000C37BD465DF8047B704780B483B000AFEB
:102F000078607B681B6843F001027B681A6000BF31
:102F10000C37BD465DF8047B704780B483B000AFCA
:102F2000786039607B685B6823F400423B681A4331
:102F30007B685A6000BF0C37BD465DF8047B704764
:102F400080B483B000AF78607B689B6823F48052C4
:102F50007B689A6000BF0C37BD465DF8047B704704
:102F600080B483B000AF78607B685B6823F49042E4
:102F70007B685A607B689B6823F02A027B689A60B2
:102F800000BF0C37BD465DF8047B704780B483B04A
:102F900000AF78607B681B6843F020027B681A6092
:102FA00000BF0C37BD465DF8047B704780B500AFAD
:102FB0000120FFF747FE4FF08050FFF72BFE032064
:102FC000FFF7C4FAFFF7E6FA03460022002118468D
:102FD000FFF732FB034619466FF00B00FFF702FBC9
:102FE000FFF7D8FA0346002200211846FFF724FB1A
:102FF000034619466FF00A00FFF7F4FAFFF7CAFA22
:103000000346002200211846FFF716FB0346194627
:103010006FF00900FFF7E6FAFFF7BCFA034600225B
:1030200000211846FFF708FB034619466FF004001D
:10303000FFF7D8FAFFF7AEFA034600220021184640
:10304000FFF7FAFA034619466FF00300FFF7CAFAD2
:10305000FFF7A0FA0346002200211846FFF7ECFA1A
:10306000034619466FF00100FFF7BCFA00BF80BDB0
:1030700080B500AF0420FFF73BFBFFF74DFB034695
:10308000042B03D046212D4800F00CFC4FF40070B7
:10309000FFF7B8FCFFF76AFBFFF778FB00BFFFF70D
:1030A00085FB0346012BFAD1FFF794FB00BFFFF726
:1030B000A3FB0346012BFAD100230A22002103209F
:1030C000FFF770FCFFF74AFCFFF78CFC00BFFFF72F
:1030D00055FC0346012BFAD10320FFF7A1FB00BFEB
:1030E000FFF7B2FB03460C2BFAD10020FFF7BAFB27
:1030F0000020FFF7CBFB0020FFF7DCFB1048FFF7B9
:10310000E3F90420FFF716FB0D48FFF70FFA0D480F
:10311000FFF7E4FB0C48FFF7FBFBFFF73BFA034626
:1031200000220F211846FFF787FA034619464FF091
:10313000FF30FFF757FA00BF80BD00BFF063000803
:1031400000B4C4040100030001000C0080B586B087
:1031500000AF0420FFF746FD4FF4E0533B6001232E
:103160007B600023BB600023FB6001233B613B4687
:1031700019460648FDF7AEFF4FF4E0510348FFF74C
:103180002DFE00BF1837BD4680BD00BF00080048B7
:1031900080B586B000AF0120FFF724FD0420FFF7C3
:1031A00021FD0220FFF71EFD0820FFF71BFD38233D
:1031B0003B6001237B600023BB600023FB60012395
:1031C0003B613B4619464FF09040FDF783FF3821A5
:1031D0004FF09040FFF702FE03233B6000237B602B
:1031E00000233B613B4619464E48FDF773FF05231C
:1031F0003B6000237B6000233B613B4619464FF058
:103200009040FDF767FF4FF440733B6001237B6004
:103210000023BB600023FB6001233B613B46194652
:103220004048FDF757FF4FF480733B6001237B60FC
:103230000023BB600023FB6001233B613B46194632
:103240004FF09040FDF746FF4FF440713548FFF7CF
:10325000D3FD4FF480714FF09040FFF7BFFD40F673
:1032600007433B6001237B600023BB600023FB60BE
:1032700000233B613B4619462B48FDF72BFF40F6E8
:1032800007412948FFF7B8FD04233B6000237B601A
:1032900000233B613B4619464FF09040FDF71AFF73
:1032A00004233B6000237B6001233B613B461946BE
:1032B0001E48FDF70FFF4FF480433B6001237B6006
:1032C0000123BB600123FB6000233B613B461946A1
:1032D0001548FDF7FFFE80233B6001237B6002233E
:1032E000BB600023FB6000233B613B4619460D4851
:1032F000FDF7F0FE10233B6001237B600123BB60E0
:103300000023FB6000233B613B4619460548FDF75F
:10331000E1FE10210348FFF76FFD00BF1837BD46DF
:1033200080BD00BF0008004800040048000C0048B1
:1033300080B586B000AF04233B6001237B6002238D
:10334000BB600023FB6002233B613B4619460548F6
:10335000FDF7C0FE04210348FFF74EFD00BF1837FC
:10336000BD4680BD000C004880B58EB000AF4FF464
:103370008040FFF767FC0120FFF734FC4FF4C06387
:103380007B600223BB600323FB6000233B610023BF
:103390007B610723BB613B1D19464FF09040FDF751
:1033A00099FE224BFB614FF480533B6200237B620A
:1033B0000023BB620C23FB6200233B634FF40043FA
:1033C0007B6307F11C0319461948FEF7F3FF4FF41E
:1033D00000411748FFF7A1FD1548FFF7B1FD14485C
:1033E000FFF7BEFD1248FFF788FD4FF4C0537B6026
:1033F0000123BB600223FB6000233B6101237B614F
:103400003B1D19464FF09040FDF764FE4FF40061FC
:103410004FF09040FFF7F0FC4FF480514FF0904098
:10342000FFF7EAFC00BF3837BD4680BD80969800A4
:103430000038014080B590B000AF4FF48040FFF7F6
:10344000E9FB0420FFF7CEFB0220FFF7CBFB0C23A8
:103450003B6002237B600223BB600023FB600023F0
:103460003B6105237B613B4619462248FDF732FE4E
:103470004FF440533B6002237B600223BB60002378
:10348000FB6000233B6105237B613B4619461A48DC
:10349000FDF720FE0023BB614FF48273FB614FF404
:1034A000E0633B6200237B620123BB624FF4802315
:1034B000FB6200233B6300237B630023BB63072382
:1034C000FB6307F1180319460C48FEF7C4FA002104
:1034D0000A48FFF7F3FB4FF480510848FFF701FC5F
:1034E0000648FFF711FC0548FFF7D8FB00BF40373F
:1034F000BD4680BD00080048000400480038004078
:1035000080B58EB000AF4FF40010FFF783FB0220B0
:10351000FFF768FBC0237B600223BB600223FB60D4
:1035200001233B6101237B610423BB613B1D1946E1
:103530001748FDF7CFFD1748FFF7D0FA1548FFF7FA
:10354000BDFA1448FFF792FA1248FFF77FFA0023FA
:10355000FB61114B3B6200237B620023BB620023B3
:10356000FB6200233B6300237B6307F11C031946C6
:103570000848FDF7CCFE002200210648FFF786FA36
:103580000448FFF753FA00BF3837BD4680BD00BF7F
:103590000004004800540040EC9C901080B596B0A8
:1035A00000AF0346FB710120FFF71CFBFB79002BEA
:1035B00052D10223FB6002233B6100237B61002385
:1035C000BB610023FB6101233B6207F10C03194639
:1035D0004FF09040FDF77EFD0120FFF71BFB07F148
:1035E00044031846FEF713FB0023A7F844300023DA
:1035F000BB644FF26103FB6400233B6507F14403A6
:1036000019464FF08040FEF71DFB00214FF080402F
:10361000FFF75EFC10214FF08040FFF70BFC07F135
:1036200024031846FEF776FB60237B620123BB620E
:103630000023FB6247F630033B6300237B6307F103
:1036400024031A4610214FF08040FEF785FB4FF00F
:103650008040FFF7DFFB4FE0FB79012B4CD140238B
:10366000FB6002233B6100237B610023BB610023DD
:10367000FB6102233B6207F10C0319464FF09040B7
:10368000FDF728FD0220FFF7C5FA07F144031846AD
:10369000FEF7BDFA0023A7F844300023BB644FF2C5
:1036A0006103FB6400233B6507F14403194614489A
:1036B000FEF7C8FA00211248FFF70AFC0121104862
:1036C000FFF7B8FB07F124031846FEF723FB60233E
:1036D0007B620123BB620023FB6247F630033B633E
:1036E00000237B6307F124031A4601210448FEF7F7
:1036F00033FB0348FFF78EFB00BF5837BD4680BD44
:103700000004004080B584B000AFFEF743FF0346DD
:10371000002201211846FEF78FFF03461946252097
:10372000FEF760FF4748FFF731FC2520FEF740FF1A
:1037300045490120FEF7B2FF4FF400437B600023B0
:10374000BB6001233B7300237B730223BB733B1DD0
:103750001846FDF7DFFA00224FF400413B48FFF71F
:1037600010FB00224FF400413848FFF7DDFAFEF766
:1037700011FF0346002202211846FEF75DFF0346B3
:1037800019462820FEF72EFF2820FEF711FF4FF4E0
:103790000040FFF76FFA2E490220FEF77FFF20233B
:1037A0007B600023BB6001233B7300237B730123F9
:1037B000BB733B1D1846FDF7ADFA002220212548BA
:1037C000FFF7DFFA002220212248FFF7ADFA224955
:1037D0000120FEF763FF4FF480737B600023BB6022
:1037E00001233B7300237B730223BB733B1D1846ED
:1037F000FDF790FA00224FF480711448FFF7C1FAE8
:1038000000224FF480711148FFF78EFAFEF7C2FED6
:103810000346002203211846FEF70EFF0346194611
:103820001720FEF7DFFE1720FEF7C2FE2020FFF76D
:1038300021FA4FF48070FFF71DFA00BF1037BD4624
:1038400080BD00BF00380140030000F000040048C4
:103850000100F0000008004802000F0080B500AF32
:103860000F48FFF74BF90E48FFF768F903210C48A2
:10387000FFF774F940F6FF710948FFF78FF940F63A
:10388000FF710748FFF77AF900BF0548FFF796F97F
:103890000346012BF9D10248FFF740F900BF80BD74
:1038A0000030004080B582B000AF786039603A687F
:1038B0007968034801F02CFE00BF0837BD4680BD83
:1038C0000864000880B483B000AF786039607B681A
:1038D0003A689A6100BF0C37BD465DF8047B7047BB
:1038E00080B483B000AF786039607B683A689A62D0
:1038F00000BF0C37BD465DF8047B704780B483B0D1
:1039000000AF78607B681B6843F001027B681A6037
:1039100000BF0C37BD465DF8047B704780B483B0B0
:1039200000AF78607B681B6823F001027B681A6037
:1039300000BF0C37BD465DF8047B704780B483B090
:1039400000AF786039607B683A685A6200BF0C3714
:10395000BD465DF8047B704780B483B000AF7860EB
:1039600039607B683A68DA6200BF0C37BD465DF8A3
:10397000047B704780B483B000AF786039607B68A7
:103980003A685A6300BF0C37BD465DF8047B704748
:1039900080B483B000AF786039607B683A689A631E
:1039A00000BF0C37BD465DF8047B704780B586B01C
:1039B00000AF03460A46FB711346BB71FA79134602
:1039C0009B0013445B007B617B690A2B03D140F2AF
:1039D00014533B6126E07B69B3F52F7F02D14E4B38
:1039E0003B611FE07B6940F2F542934202D94B4BA9
:1039F0003B6117E07A694A4BA3FB02131B09322192
:103A000001FB03F3D31A002B07D17B6905337B61DC
:103A10007B69642202FB03F303E07B69642202FBFF
:103A200003F33B613F4B1A683B69B2FBF3F3FB6066
:103A3000BB79002B1CD14FF08040FFF76FFF0021B6
:103A40004FF08040FFF77AFFFB68013B19464FF0CB
:103A50008040FFF781FFFB685B08013B19464FF090
:103A60008040FFF795FF4FF08040FFF747FF20E0D1
:103A7000BB79012B17D12C48FFF750FF00212A48B2
:103A8000FFF75CFFFB68013B19462748FFF764FF1F
:103A9000FB685B08013B19462348FFF76BFF224890
:103AA000FFF72CFF05E040212048FFF7FBFE002335
:103AB0002EE07B690A2B0AD14FF480711C48FFF776
:103AC0000FFF4FF400711A48FFF70AFF1FE07B69F0
:103AD000132B0ED97B69B3F5A57F0AD24FF4807101
:103AE0001348FFF7EFFE4FF400711148FFF7F8FE9F
:103AF0000DE07B69B3F5A57F09D34FF480710C48C5
:103B0000FFF7E0FE4FF400710948FFF7DBFE0123E9
:103B100018461837BD4680BD18F00100D0FB0100E3
:103B20001F85EB510C0000200004004038640008A1
:103B30000008004880B584B000AF0346FB71002345
:103B4000FB81FB79032B54D801A252F823F000BF6C
:103B5000613B0008853B0008A93B0008CD3B0008FD
:103B600008214FF09040FFF7ADFE10214FF090403C
:103B7000FFF7A8FE20214FF09040FFF7A3FE01239E
:103B8000FB813CE008214FF09040FFF7A9FE102197
:103B90004FF09040FFF796FE20214FF09040FFF746
:103BA00091FE0A23FB812AE008214FF09040FFF7A5
:103BB00089FE10214FF09040FFF792FE20214FF038
:103BC0009040FFF77FFE6423FB8118E008214FF04F
:103BD0009040FFF777FE10214FF09040FFF772FE04
:103BE00020214FF09040FFF77BFE4FF47A73FB816A
:103BF00005E084210448FFF755FE002300E001237F
:103C000018461037BD4680BD3864000880B584B0C2
:103C100000AF0346FB710023FB81FB790B2B00F205
:103C2000938101A252F823F0593C0008973C000808
:103C3000D53C0008133D0008513D00088F3D0008A9
:103C4000CD3D00080B3E0008493E0008893E0008B3
:103C5000C93E0008093F00080121C148FFF740FEA6
:103C60000221BF48FFF72EFE0421BD48FFF738FEB2
:103C70004FF48061BA48FFF733FE4FF40061B84853
:103C8000FFF72EFE4FF480714FF09040FFF728FEB3
:103C90000123FB815FE10121B148FFF713FE0221FF
:103CA000AF48FFF70FFE0421AD48FFF719FE4FF4B0
:103CB0008061AB48FFF714FE4FF40061A848FFF79E
:103CC0000FFE4FF480714FF09040FFF709FE022382
:103CD000FB8140E10121A248FFF702FE0221A0483A
:103CE000FFF7FEFD04219E48FFF7ECFD4FF48061D5
:103CF0009B48FFF7F5FD4FF400619948FFF7F0FD91
:103D00004FF480714FF09040FFF7EAFD0423FB81F0
:103D100021E101219248FFF7D5FD02219048FFF7EC
:103D2000DFFD04218E48FFF7CDFD4FF480618C4804
:103D3000FFF7D6FD4FF400618948FFF7D1FD4FF43E
:103D400080714FF09040FFF7CBFD0823FB8102E12B
:103D500001218348FFF7C4FD02218148FFF7B2FD2E
:103D600004217F48FFF7AEFD4FF480617C48FFF7E8
:103D7000B7FD4FF400617A48FFF7B2FD4FF4807150
:103D80004FF09040FFF7ACFD1023FB81E3E00121F1
:103D90007348FFF797FD02217148FFF793FD042157
:103DA0006F48FFF78FFD4FF480616D48FFF798FD76
:103DB0004FF400616A48FFF793FD4FF480714FF0B4
:103DC0009040FFF78DFD2023FB81C4E00121644872
:103DD000FFF786FD02216248FFF782FD042160485B
:103DE000FFF77EFD4FF480615D48FFF76BFD4FF4F8
:103DF00000615B48FFF774FD4FF480714FF0904015
:103E0000FFF76EFD4023FB81A5E001215448FFF739
:103E100059FD02215248FFF763FD04215048FFF786
:103E20005FFD4FF480614E48FFF74CFD4FF4006199
:103E30004B48FFF755FD4FF480714FF09040FFF76E
:103E40004FFD8023FB8186E001214548FFF748FDB7
:103E500002214348FFF736FD04214148FFF740FDAA
:103E60004FF480613E48FFF72DFD4FF400613C4860
:103E7000FFF736FD4FF480714FF09040FFF730FDB3
:103E80004FF48073FB8166E001213548FFF728FD80
:103E900002213348FFF724FD04213148FFF720FDBC
:103EA0004FF480612E48FFF70DFD4FF400612C4860
:103EB000FFF716FD4FF480714FF09040FFF702FDC1
:103EC0004FF40073FB8146E001212548FFF7FAFC1F
:103ED00002212348FFF704FD04212148FFF700FDDC
:103EE0004FF480611E48FFF7EDFC4FF400611C4861
:103EF000FFF7F6FC4FF480714FF09040FFF7E2FCC3
:103F00004FF48063FB8126E001211548FFF7E8FCB0
:103F100002211348FFF7D6FC04211148FFF7E0FC0B
:103F20004FF480610E48FFF7CDFC4FF400610C4860
:103F3000FFF7D6FC4FF480714FF09040FFF7C2FCC2
:103F40004FF40063FB8106E04FF485710548FFF7ED
:103F5000A9FC002300E0012318461037BD4680BDB0
:103F6000000400483864000880B584B000AF034600
:103F70000A46FB711346BB71FB7903F00703FB7321
:103F8000FB79DB08BB73FB7B072B4BD801A252F8F4
:103F900023F000BFB53F0008C33F0008D13F000831
:103FA000DF3F0008ED3F0008FB3F00080940000824
:103FB000174000080020FFF7BDFD0020FFF726FE98
:103FC00037E00120FFF7B6FD0020FFF71FFE30E0CD
:103FD0000120FFF7AFFD0120FFF718FE29E00120C7
:103FE000FFF7A8FD0220FFF711FE22E00220FFF7F5
:103FF000A1FD0020FFF70AFE1BE00220FFF79AFD5B
:104000000120FFF703FE14E00220FFF793FD0220DA
:10401000FFF7FCFD0DE00320FFF78CFD0B20FFF701
:10402000F5FD06E040F253111B48FFF73BFC00236F
:104030002EE0BB7B032B23D801A252F823F000BF54
:10404000514000085D4000086940000875400008C4
:10405000BB7919460120FFF7A9FC18E0BB79194686
:104060001E20FFF7A3FC12E0BB7919464620FFF79C
:104070009DFC0CE0BB7919460220FFF797FC06E097
:104080004FF4B5710448FFF70DFC002300E0012355
:1040900018461037BD4680BD3864000880B483B030
:1040A00000AF78607B689B6903F00103012B0CBFB4
:1040B00001230023DBB218460C37BD465DF8047BB4
:1040C000704780B483B000AF78607B689B6903F071
:1040D0000403042B0CBF01230023DBB218460C376A
:1040E000BD465DF8047B704780B483B000AF786054
:1040F0007B689B6903F02003202B0CBF0123002366
:10410000DBB218460C37BD465DF8047B704780B4BF
:1041100083B000AF78607B689B6903F04003402B5D
:104120000CBF01230023DBB218460C37BD465DF8F7
:10413000047B704780B483B000AF78607B689B6974
:1041400003F40043B3F5004F0CBF01230023DBB29F
:1041500018460C37BD465DF8047B704780B483B0C9
:1041600000AF78607B68DB6943F020027B68DA612E
:1041700000BF0C37BD465DF8047B704780B485B046
:1041800000AFF860B9607A603B60FB685A68FB6911
:104190005B0D03F480610B4B0B43DB431A40B968A2
:1041A0007B6819433B681B041943BB691943FB69CE
:1041B0000B431A43FB685A6000BF1437BD465DF8D5
:1041C000047B7047FF7BFF0380B483B000AF78604F
:1041D0007B685B6ADBB218460C37BD465DF8047B32
:1041E000704780B483B000AF78600B46FB70FA78FC
:1041F0007B689A6200BF0C37BD465DF8047B704750
:1042000080B586B002AF786039603B685B003B6088
:1042100000BF7868FFF78EFF0346012BF9D0254BCE
:104220000193002300930123002239687868FFF787
:10423000A5FF00BF7868FFF731FF0346002BF9D0D8
:1042400000217868FFF7CDFF00BF7868FFF726FFF1
:104250000346002BF9D000BF7868FFF758FF0346EC
:10426000002BF9D0144B01934FF0007300930123FE
:10427000002239687868FFF781FF00BF7868FFF790
:1042800033FF0346002BF9D000BF7868FFF719FF12
:104290000346002BF9D07868FFF796FF034603F03A
:1042A0001F03FB737868FFF759FFFB7B1846103735
:1042B000BD4680BD002000800024008080B483B013
:1042C00000AF7860044B4AF6AA221A6000BF0C3790
:1042D000BD465DF8047B70470030004080B483B079
:1042E00000AF786039607B681A693B681A403B68A8
:1042F0009A420CBF01230023DBB218460C37BD469F
:104300005DF8047B704780B483B000AF786039609B
:104310007B683A689A6100BF0C37BD465DF8047B44
:10432000704780B483B000AF786039607B683A68CA
:104330009A6200BF0C37BD465DF8047B704780B4BD
:1043400083B000AF786039607B685A693B685A4037
:104350007B685A6100BF0C37BD465DF8047B70472F
:10436000B0B586B002AF0023FB810023BB60FEF72F
:104370001DFEFEF77DFE9C4801F03EF99B4801F0D2
:104380003BF9FEF7E3FEFEF703FFFEF7EDFFFFF755
:1043900051F8FFF7B5F80020FFF700F9FFF7B2F981
:1043A000FFF75CFA924801F027F94FF480419148F9
:1043B000FFF7A9FF80219048FFF7B3FF8F4B1B68E1
:1043C00000221A708D4B1B6800225A708B4B1B68A1
:1043D00000229A70894B1B680022DA70884B1B6898
:1043E00000221A71864B1B6800225A71844B1B688D
:1043F00000229A71824B1B680022DA710021012091
:10440000FFF7D4FA0020FFF795FB0020FFF7FEFB33
:104410007C4B1B6801229A717A4B1B680022DA7070
:10442000784B1B6800221A71764B1B6800225A7267
:10443000754801F0E1F87548FFF740FF4FF48061DF
:104440006D48FFF760FF4FF400616B48FFF75BFFBB
:104450006C4B1C6820216E48FFF7D2FE0346237088
:1044600004216C48FFF73AFF0346002B0BD1654B44
:104470001B681B7800211846FFF776FD614B1B680F
:1044800001221A7001E0FEF753FF5E4B1B685D4A84
:1044900012681278D20052B242F0010252B2D2B285
:1044A0005A70584B1B680122DA714FF48051524800
:1044B000FFF737FF5548FFF701FF524B1B681B7A88
:1044C000802B08D14F4B1B6800221A724FF4805189
:1044D0004948FFF734FF4B4B1B689B78022B40F099
:1044E000FD80464B1B681B78012B40F0F780434B47
:1044F0001B6800221A700023BB6000233B714648F2
:1045000000F08AF9B860BB68B3F1FF3F08D100231F
:10451000FB810023BB603B4B1B680522DA71B0E0D6
:104520003A48FFF7CBFE374B1B685B7A002B09D16B
:10453000344B1B681946B1EE040AB86800F0F0F974
:104540000346FB8101212C48FFF7C8FE0346012BDF
:1045500015D102212848FFF7C1FE0346002B0ED1DA
:1045600004214FF09040FFF7B9FE0346002B06D11F
:1045700004233B71234B1B681522DA7150E00121A3
:104580001D48FFF7ABFE0346002B15D102211A4848
:10459000FFF7A4FE0346012B0ED104214FF09040FB
:1045A000FFF79CFE0346002B06D102233B71154BFF
:1045B0001B681522DA7133E004214FF09040FFF7B9
:1045C0008DFE0346012B04D00E4B1B685B79012B3B
:1045D00024D106233B710B4B1B681522DA71094B62
:1045E0001B6800225A711BE05064000874640008C4
:1045F0009C640008000400480008004808000020EF
:104600000400002000000020C064000800300040CA
:1046100000540040000C00480038004001233B716A
:104620004A4B1B685B78012B2BD0B4214848FFF71D
:1046300039F900BF454B1B689B78012BFAD0434BDF
:104640001B6800229A70434B1B681522DA713F4B9E
:104650001B68DB78082B12D1BC213D48FFF722F9FB
:104660004FF480613C48FFF75CFE3A4B1B681D220B
:10467000DA71364B1B680022DA700023FB810023BD
:104680003B713B795AB2334B1B681B78DB005BB242
:1046900013435BB2DBB23B712E4B1B685B7A002B82
:1046A0000BD100237B71B7F90E301B121BB2DBB2AA
:1046B000BB71FB89DBB2FB710AE0BB681B14DBB288
:1046C0007B71BB681B12DBB2BB71BB68DBB2FB71D9
:1046D000204B1B681A7A0132D2B21A721F4B1B6828
:1046E0009B79012B7FF4E6AE1C4B1B6800229A716C
:1046F0001A4B1B6800221A711948FFF7DFFD174B90
:104700001B68DB79012B09D1144B1B680022DA717D
:104710003B1D1449184600F0CFFCCBE60F4B1B683D
:104720000C4A1168094A10680E4A01920022009250
:104730001A68002515465B6800241C4603460A4695
:104740002846214600F046FDB4E600BF08000020E0
:10475000E064000800000020000800480400002079
:10476000003000400038014080B483B000AF786072
:104770007B689B6803F00103012B01D1012300E05A
:10478000002318460C37BD465DF8047B704780B4A3
:1047900083B000AF78607B689B6803F00203022B54
:1047A00001D1012300E0002318460C37BD465DF817
:1047B000047B704780B483B000AF78607B689B68EF
:1047C00003F08003802B01D1012300E00023184671
:1047D0000C37BD465DF8047B704780B483B000AFF2
:1047E00078607B68DB68DBB218460C37BD465DF845
:1047F000047B704780B485B000AF78600B46FB70D7
:104800007B680C33FB60FB68FA781A7000BF1437C2
:10481000BD465DF8047B704790B587B000AF786007
:1048200000237B610023FB6007F1080300210A4697
:104830001A800A469A7000BF7868FFF7BBFF0346EC
:10484000012BF9D00023FB7450E000237B610BE0C7
:104850007B6901337B617B692E4A934204D123211A
:104860002D48FFF71FF84EE02C48FFF790FF034656
:10487000002BEDD0AA217868FFF7BCFF00237B61F5
:104880000BE07B6901337B617B69224A934204D14F
:104890002F212148FFF706F835E02048FFF78AFF6F
:1048A0000346012BEDD000237B610BE07B690133D4
:1048B0007B617B69174A934204D138211648FEF781
:1048C000F1FF20E07868FFF74FFF0346002BEDD0A3
:1048D000FC7C7868FFF781FF03461A4607F118034E
:1048E000234403F8102CFB7C0133FB74FB7C022B6C
:1048F000ABD93B7A1A047B7A1B021343BA7A13436F
:10490000FB60FB6801E04FF0FF3318461C37BD46E3
:1049100090BD00BF40420F00F06400080038004026
:1049200090B587B000AFF86087ED020A7960002388
:104930007B824FF000037B61FB6803F40003002BD4
:1049400009D0FB68C3F31603FB60FB686FEA4323DF
:104950006FEA5323FB60FB68494A934203D0FB682C
:1049600013F5000F02D17B6801225A71FB6807EE34
:10497000903AF8EEE77A17EE900AFBF7E5FD3CA3D4
:10498000D3E90023FBF75EFF03460C461846214699
:10499000FCF740F803467B617B681B79092B07D045
:1049A0007B681B790A2B03D07B681B790B2B15D1F5
:1049B000FB6807EE903AF8EEE77A17EE900AFBF7FD
:1049C000C3FD2DA3D3E90023FBF73CFF03460C46B0
:1049D00018462146FCF71EF803467B6197ED057AE1
:1049E000DFED286AC7EE267AC7ED057AD7ED057A9E
:1049F0009FED257AF4EEC77AF1EE10FA05DD7B68BB
:104A000001225A71214B7B6121E0D7ED057AF5EE49
:104A1000C07AF1EE10FA1AD5D7ED057AF1EE677A81
:104A2000C7ED057AD7ED057A9FED197AF4EEC77ACE
:104A3000F1EE10FA05DD7B6801225A714FF08E43CA
:104A40007B61D7ED057AF1EE677AC7ED057AD7ED90
:104A5000057AFDEEE77AC7ED007A3B887B82B7F9ED
:104A6000123018461C37BD4690BD00BFAFF3008022
:104A7000FCA9F1D24D62EC3FF2D24D621058F33FE7
:104A8000FFFF7F000000804300FEFF4600FEFF4660
:104A90000000004780B483B000AF786039607B6865
:104AA0003A689A6100BF0C37BD465DF8047B7047D9
:104AB00080B483B000AF786039607B683A689A62EE
:104AC00000BF0C37BD465DF8047B704780B483B0EF
:104AD00000AF78600549054B1A687B6813430B608B
:104AE00000BF0C37BD465DF8047B704700040140F1
:104AF00080B483B000AF78600649064B1A687B68C3
:104B0000DB4313400B6000BF0C37BD465DF8047BF0
:104B1000704700BF0004014080B483B000AF7860EC
:104B2000074B5A697B681A407B689A420CBF012385
:104B30000023DBB218460C37BD465DF8047B704796
:104B40000004014080B483B000AF7860044A7B6801
:104B5000536100BF0C37BD465DF8047B704700BF52
:104B60000004014080B483B000AF78607B68DB69EB
:104B700003F02003202B0CBF01230023DBB21846D7
:104B80000C37BD465DF8047B704780B483B000AF3E
:104B900078607B689B8C9BB2C3F308039BB218467A
:104BA0000C37BD465DF8047B704780B400AF00BF92
:104BB000BD465DF8047B704780B400AFFEE780B46B
:104BC00000AFFEE780B400AFFEE780B400AFFEE7C1
:104BD00080B400AF00BFBD465DF8047B704780B471
:104BE00000AF00BFBD465DF8047B704780B400AFE6
:104BF00000BFBD465DF8047B704780B400AF00BFC6
:104C0000BD465DF8047B704780B582B000AF0023DD
:104C1000FB8000237B713348FFF7A4FF0346002B82
:104C20005BD03048FFF7B1FF0346FB80FB8803F4FD
:104C30008073002B31D0FB887B712B4B1B685B781A
:104C40007A799A4208D1294B1B680122DA71274BE5
:104C50001B6801229A7140E07B79002B07D07B7999
:104C6000DB08DAB2204B1B681B789A4235D11F4B08
:104C70001B689B79012B03D11C4B1B6800229A7186
:104C80001A4B1B687A791A70184B1B6801221A712B
:104C9000164B1B6801225A711FE0144B1B685B798D
:104CA000012B1AD1114B1B68104A12681279F9882E
:104CB000C9B299540D4B1B681A790132D2B21A71DC
:104CC0000A4B1B681B79042B07D1084B1B68012278
:104CD0009A71064B1B6800225A7100BF0837BD4607
:104CE00080BD00BF0038014000000020040000200B
:104CF00080B500AF4FF40040FFF70EFF0346002BD6
:104D000016D04FF40040FFF71DFF0A4B1B6801222D
:104D10001A70084B1B6800225A70064B1B68002251
:104D20009A702020FFF7D2FE4FF48070FFF7CEFE7E
:104D300000BF80BD0800002080B500AF2020FFF735
:104D4000EBFE0346002B15D02020FFF7FBFE1F4B88
:104D50001B6801225A702020FFF7CAFE4FF48070B2
:104D6000FFF7C6FE194B1B680022DA70174B1B6851
:104D700000229A704FF48070FFF7CEFE0346002B9E
:104D800021D04FF48070FFF7DDFE104B1B6801222D
:104D90009A704FF48070FFF7ABFE2020FFF7A8FE5B
:104DA00080210B48FFF776FE084B1B68074A126804
:104DB000D2780132D2B2DA7000BF00BF00BF8021CA
:104DC0000348FFF775FE00BF80BD00BF080000204C
:104DD0000008004880B483B000AF78604FF06043B3
:104DE000D3F8803E03F00103002B13D04FF0604353
:104DF000D3F8003E03F00103002B0BD000E000BF0E
:104E00004FF060431B68002BF9D04FF060437A6885
:104E1000D2B21A707B6818460C37BD465DF8047B29
:104E2000704780B586B000AFF860B9607A60002343
:104E30007B6100237B6109E0BB685A1CBA601B7868
:104E40001846FFF7C7FF7B6901337B617A697B688E
:104E50009A42F1DB7B6818461837BD4680BD0000DA
:104E600080B485B000AF78600B4B1B68002B02D17B
:104E7000094B0A4A1A60084B1B68FB60064B1A680C
:104E80007B681344044A1360FB6818461437BD4618
:104E90005DF8047B704700BF90000020B800002040
:104EA00080B483B000AF7860054B58221A604FF091
:104EB000FF3318460C37BD465DF8047B704700BFD2
:104EC000B400002080B483B000AF78603960054B37
:104ED00058221A604FF0FF3318460C37BD465DF874
:104EE000047B7047B400002080B483B000AF7860CA
:104EF000044B58221A60002318460C37BD465DF853
:104F0000047B7047B400002080B485B000AFF86027
:104F1000B9607A60054B58221A604FF0FF3318468B
:104F20001437BD465DF8047B704700BFB400002015
:104F300080B485B000AFF860B9607A60054B582244
:104F40001A604FF0FF3318461437BD465DF8047BF6
:104F5000704700BFB400002080B400AF174A174B61
:104F6000D3F8883043F47003C2F88830144A144BE5
:104F70001B6843F001031360114B00229A60104A32
:104F80000F4B1B6823F0A85323F4102313600C4B22
:104F90004FF48052DA600A4A094B1B6823F48023DD
:104FA0001360074B00229A61044B4FF000629A6035
:104FB00000BFBD465DF8047B704700BF00ED00E018
:104FC0000010024080B483B000AF786039607B6825
:104FD0003A689A6100BF0C37BD465DF8047B7047A4
:104FE00080B483B000AF786039607B683A689A62B9
:104FF00000BF0C37BD465DF8047B704780B483B0BA
:1050000000AF78607B68DB6903F04003402B0CBF86
:1050100001230023DBB218460C37BD465DF8047B44
:10502000704780B483B000AF78607B68DB6903F0C1
:105030008003802B0CBF01230023DBB218460C3702
:10504000BD465DF8047B704780B483B000AF7860E4
:105050000B467B807B88C3F308039AB27B681A8572
:1050600000BF0C37BD465DF8047B704780B483B049
:1050700000AF78600549054B1A687B6813430B60E5
:1050800000BF0C37BD465DF8047B7047000401404B
:1050900080B483B000AF78600649064B1A687B681D
:1050A000DB4313400B6000BF0C37BD465DF8047B4B
:1050B000704700BF0004014080B584B000AF786045
:1050C00039600023FB604FF480514FF09040FFF7B0
:1050D00079FF00BF00BF00BF00BF00BF00BF0023BB
:1050E000FB600CE0FB680133FB60FB6849F6404263
:1050F000934204D12A213648FEF7D4FB5CE038689D
:10510000FFF78FFF0346002BECD00023FB7231E04A
:105110000023FB600CE0FB680133FB60FB6849F691
:105120004042934204D135212948FEF7BBFB43E0BE
:105130003868FFF763FF0346002BECD0FB7A002BA7
:105140000CD1FB7A7A6813441B789BB243F48073CA
:105150009BB219463868FFF777FF08E0FB7A7A6858
:1051600013441B789BB219463868FFF76DFFFB7A32
:105170000133FB72FB7A032BCAD90023FB600CE0DE
:10518000FB680133FB60FB6849F64042934204D15F
:1051900047210F48FEF786FB0EE03868FFF72EFF29
:1051A0000346002BECD000BF4FF480514FF09040ED
:1051B000FFF716FF012306E04FF480514FF09040B7
:1051C000FFF70EFF002318461037BD4680BD00BF15
:1051D0000465000890B587B000AF07F1080484E8C3
:1051E00003007A603B60FF23BB750023FB753B7AAD
:1051F0003B740023BB740023FB743B7A03F007036A
:10520000BB75BB7D002B6ED17B7AFF2B12D17B68E7
:1052100002229A707B6800221A724FF480519348E0
:10522000FFF7DEFE3B6800221A704FF40040FFF7E4
:105230001DFF55E07B7A002B1FD17B6800229A70FE
:105240004FF40040FFF724FF2020FFF721FF4FF429
:105250008070FFF71DFF3B6800221A703B68002238
:105260005A703B6800229A703B680022DA704FF453
:1052700080517E48FFF7B4FE32E07B7A012B2CD1BF
:105280007B6801229A704FF40040FFF701FF202055
:10529000FFF7FEFE4FF48070FFF7FAFE3B68002236
:1052A0001A703B6800225A703B6800229A703B6873
:1052B0000022DA704FF480516C48FFF791FE4FF4F2
:1052C00080416B48FFF78CFE0120FDF70BF94FF48E
:1052D00080416748FFF776FE02E07B680222DA71C0
:1052E0000023FB75B5E0BB7D022B24D17B7A802B9C
:1052F00005D17B68DB787B740123FB75A9E07B7AA1
:1053000003F00303DBB21846FEF714FC03467B757B
:105310007B7D012B08D17B7A03F00303DAB27B6833
:10532000DA7001237B7403E000237B74FF23FB749A
:105330000123FB758DE0BB7D032B24D17B7A802B71
:1053400005D17B681B797B740123FB7581E07B7A37
:1053500003F00F03DBB21846FEF758FC03467B75DB
:105360007B7D012B08D17B7A03F00F03DAB27B68D7
:105370001A7101237B7403E000237B74FF23FB7409
:105380000123FB7565E0BB7D042B27D17B7A802B45
:1053900005D17B689B797B740123FB7559E07B7A8F
:1053A00003F07F03DBB297F8282011461846FEF77A
:1053B000FDFA03467B757B7D012B08D17B7A03F0D8
:1053C0007F03DAB27B689A7101237B7403E00023C8
:1053D0007B74FF23FB740123FB753AE0BB7D052B37
:1053E00008D17B68DB797B747B680122DA71012349
:1053F000FB752EE0BB7D072B25D17B7A432B02D09A
:10540000832B0FD025E0FB7A002B03D17B68002291
:105410005A7202E07B6801225A7201237B740123D5
:10542000FB7516E001237B740023BB747B685B7AF9
:10543000002B02D10023FB7401E01823FB7401232D
:10544000FB7500BF05E000237B74FF23FB74012381
:10545000FB75FB7D012B05D107F11003F96A184696
:10546000FFF72AFE00BF1C37BD4690BD000800486C
:1054700000040048DFF834D0002103E00C4B5B58F7
:10548000435004310B480C4B42189A42F6D30B4A56
:1054900002E0002342F8043B094B9A42F9D3FFF79C
:1054A0005BFD00F011F8FEF75BFFFEE700800220D5
:1054B000186600080000002074000020740000201E
:1054C000B8000020FEE7000070B50D4E0D4CA41B87
:1054D000A4100025A54209D10B4E0C4C00F07CFF16
:1054E000A41BA4100025A54205D170BD56F8253097
:1054F00098470135EEE756F8253098470135F2E731
:10550000106600081066000810660008146600089F
:105510000FB40A4B13B51C6824B1A36913B9204614
:1055200000F024FA05AB049AA1680193204600F02C
:10553000E9FB02B0BDE8104004B070471000002045
:1055400070B50E46054618B183690BB900F00EFA26
:10555000AB69AC6813B9284600F008FA234B9C42AB
:1055600017D16C68A3891B071DD52369DBB1013EE8
:10557000A36816F8011F013BA360E9B9002B2EDADE
:1055800022460A21284600F03FF8013011D00A20B7
:1055900070BD174B9C4201D1AC68E3E7154B9C42B0
:1055A00008BFEC68DEE72146284600F07FF80028B7
:1055B000DDD04FF0FF3070BD002B04DAA2699342BA
:1055C00006DB0A2904D023685A1C22601970CFE731
:1055D0002246284600F018F80130C9D1E9E72368CF
:1055E0000A205A1C2260187070BD00BF9865000820
:1055F000B865000878650008024B01461868FFF797
:105600009FBF00BF10000020F8B50E4614460546A7
:1056100018B183690BB900F0A9F9214B9C422AD13A
:105620006C68A369A360A3891A072ED5236963B3A5
:1056300023692068C01A6369F6B29842374604DBD2
:105640002146284600F028F928BBA368013BA36047
:1056500023685A1C22601E7063690130984204D08E
:10566000A389DB0719D50A2E17D12146284600F059
:1056700013F990B10FE00B4B9C4201D1AC68D0E71D
:10568000094B9C4208BFEC68CBE72146284600F056
:105690000DF80028CCD04FF0FF373846F8BD00BFDA
:1056A00098650008B865000878650008324B70B549
:1056B0001D6806460C4625B1AB6913B9284600F0B3
:1056C00055F92E4B9C420FD16C68B4F90C309AB24C
:1056D00015072CD4D00611D40922326043F04003C0
:1056E000A3814FF0FF3070BD254B9C4201D1AC68C7
:1056F000EBE7244B9C4208BFEC68E6E7510712D564
:10570000616B41B104F14403994202D0304600F08C
:1057100023FA00236363A38923F02403A3810023D6
:10572000636023692360A38943F00803A38123698D
:105730004BB9A38903F42073B3F5007F03D021464E
:10574000304600F0C1F9A28912F001030CD0002309
:10575000A36063695B42A361236953B9B4F90C3058
:1057600013F08000BAD170BD920758BF6369A3607F
:10577000F2E70020F7E700BF10000020986500085E
:10578000B8650008786500088A892DE9F04105466A
:1057900010070C465AD44B68002B05DC0B6C002B11
:1057A00002DC0020BDE8F081E66A002EF9D000237B
:1057B00012F480522F682B6033D0606DA3895A0792
:1057C00005D56368C01A636B0BB1236CC01A002344
:1057D0000246E66A216A2846B047431CA38906D1DF
:1057E00029681D294BD82B4ACA40D60747D5002225
:1057F0006260D9042269226004D5421C01D12B6861
:1058000003B96065616B2F600029CAD004F14403BD
:10581000994202D0284600F09FF900206063BDE85D
:10582000F081216A01232846B047411CC6D12B686C
:10583000002BC3D01D2B01D0162B01D12F60B0E758
:10584000A38943F04003A381BDE8F0810F69002FD5
:10585000A7D093070E6808BF4B690F6018BF0023DD
:10586000A6EB07088B60B8F1000F9ADD43463A4675
:10587000216AA66A2846B047002807DCA38943F0BE
:105880004003A3814FF0FF30BDE8F0810744A8EB4F
:105890000008E8E70100402038B50B6905460C46D2
:1058A000DBB118B183690BB900F060F80C4B9C4276
:1058B00009D16C68B4F90C307BB121462846BDE8AB
:1058C0003840FFF761BF074B9C4201D1AC68F1E75C
:1058D000054B9C4208BFEC68ECE7002038BD00BFD8
:1058E00098650008B865000878650008014900F06F
:1058F000A9B800BF99580008002310B504460360FA
:105900004360836081814366C28103614361836137
:10591000194608225C3000F017F9054B6362054B0D
:10592000A362054BE362054B2462236310BD00BFF5
:105930007D6200089F620008D7620008FB620008D1
:1059400070B54A1E682555430E4605F1740100F0F6
:1059500051F9044640B1002180E842000C30A060BB
:1059600005F1680200F0F0F8204670BD836910B5BB
:10597000044633BB8364C3640365124B124A1B683D
:105980008262984204BF0123836100F01FF86060C7
:10599000204600F01BF8A060204600F017F8002217
:1059A000E06004216068FFF7A7FF01220921A068D9
:1059B000FFF7A2FF02221221E068FFF79DFF0123FB
:1059C000A36110BDD8650008ED580008F8B51C4B60
:1059D0001E68B369074613B93046FFF7C7FF48365C
:1059E000B4687368013B03D5336833B13668F7E7B1
:1059F000B4F90C506DB16834F4E704213846FFF770
:105A00009FFF30600028F1D10C233B600446204604
:105A1000F8BD4FF6FF73E3810123A381656625601E
:105A2000A560656025616561A5610822294604F1CC
:105A30005C0000F089F86563A563A564E564E6E7AA
:105A4000D86500082DE9F8438046894600F14804EE
:105A5000002614B93046BDE8F883A5686768013FA1
:105A600001D52468F5E7AB89012B07D9B5F90E30CC
:105A7000013303D029464046C84706436835EEE760
:105A800070B50E46B1F90E10002990B014461D46AF
:105A900007DA00232B60B3891A0610D44FF4806311
:105AA0000EE001AA00F050FC0028F2DB029A02F49A
:105AB0007042A2F500535A425A412A60EEE7402351
:105AC0000020236010B070BD8B8973B59D0706461A
:105AD0000C4607D504F1470323602361012363616A
