:020000040800F2
:1000000000800220D92C00085F2A00086D2A000811
:10001000732A0008792A00087F2A000800000000DF
:10002000000000000000000000000000852A000819
:10003000932A000800000000A12A0008AF2A000847
:10004000292D0008292D0008292D0008292D000838
:10005000292D0008292D0008292D0008292D000828
:10006000292D0008292D0008292D0008292D000818
:10007000292D0008292D0008292D0008292D000808
:10008000292D0008292D0008292D0008292D0008F8
:10009000292D0008292D0008292D0008292D0008E8
:1000A000292D0008292D0008292D0008292D0008D8
:1000B000292D0008292D000800000000292D000826
:1000C000292D0008292D0008292D0008292D0008B8
:1000D000292D0008BD2A0008292D0008292D000817
:1000E000292D0008292D0008000000000000000054
:1000F0000000000000000000000000000000000000
:1001000000000000292D000800000000292D000833
:10011000292D000800000000292D00080000000023
:10012000292D0008292D0008292D0008292D000857
:10013000292D0008292D0008292D000800000000A5
:10014000292D0008292D0008292D0008292D000837
:10015000292D0008292D0008292D0008292D000827
:10016000292D0008292D0008292D00080000000075
:1001700000000000292D0008000000000000000021
:10018000292D0008292D0008292D0008292D0008F7
:04019000292D00080D
:1001A00010B5054C237833B9044B13B10448AFF3B1
:1001B00000800123237010BD6800002000000000B3
:1001C0003C3C000808B5034B1BB103490348AFF39F
:1001D000008008BD000000006C0000203C3C0008CE
:1001E00001F0FF01102A2BDB10F0070F08D010F8E8
:1001F000013B013A8B422DD010F0070F42B3F6D1EC
:10020000F0B441EA012141EA014122F007047FF004
:1002100000070023F0E80256083C85EA010586EA5B
:10022000010685FA47F5A3FA87F586FA47F6A5FA97
:1002300087F68EB9EED1F0BC01F0FF0102F00702A3
:1002400032B110F8013B013A83EA010313B1F8D14E
:100250000020704701387047002D06BF354603382F
:10026000073815F0010F07D1013015F4807F02BF68
:10027000013015F4C03F0130F0BC0138704700BFB9
:1002800080B489B000AFF860B9607A60FB681A6822
:10029000BB687B617B6993FAA3F33B613B69B3FA6B
:1002A00083F35B00032101FA03F3DB431A40BB68CD
:1002B000FB61FB6993FAA3F3BB61BB69B3FA83F3F8
:1002C0005B00796801FA03F31A43FB681A6000BF08
:1002D0002437BD465DF8047B704780B485B000AF1D
:1002E000F860B9607A60FB685A68BB68DB431A4003
:1002F000BB68796801FB03F31A43FB685A6000BFCF
:100300001437BD465DF8047B704780B489B000AFF8
:10031000F860B9607A60FB689A68BB687B617B694A
:1003200093FAA3F33B613B69B3FA83F35B000321C8
:1003300001FA03F3DB431A40BB68FB61FB6993FAE4
:10034000A3F3BB61BB69B3FA83F35B00796801FA7D
:1003500003F31A43FB689A6000BF2437BD465DF87B
:10036000047B704780B489B000AFF860B9607A60F0
:10037000FB68DA68BB687B617B6993FAA3F33B6136
:100380003B69B3FA83F35B00032101FA03F3DB4318
:100390001A40BB68FB61FB6993FAA3F3BB61BB69BD
:1003A000B3FA83F35B00796801FA03F31A43FB683D
:1003B000DA6000BF2437BD465DF8047B704780B427
:1003C00089B000AFF860B9607A60FB681A6ABB68F0
:1003D0007B617B6993FAA3F33B613B69B3FA83F3D7
:1003E0009B000F2101FA03F3DB431A40BB68FB615A
:1003F000FB6993FAA3F3BB61BB69B3FA83F39B0078
:10040000796801FA03F31A43FB681A6200BF2437C4
:10041000BD465DF8047B704780B489B000AFF860DA
:10042000B9607A60FB685A6ABB681B0A7B617B69AA
:1004300093FAA3F33B613B69B3FA83F39B000F216B
:1004400001FA03F3DB431A40BB681B0AFB61FB693B
:1004500093FAA3F3BB61BB69B3FA83F39B0079689A
:1004600001FA03F31A43FB685A6200BF2437BD4602
:100470005DF8047B704780B588B000AF7860396064
:100480000023FB610023BB613B681B687B617B69C8
:1004900093FAA3F33B613B69B3FA83F3FB6148E052
:1004A0003B681A680121FB6901FA03F31340BB6141
:1004B000BB69002B3AD03B685B681A46B96978681B
:1004C000FFF7DEFE3B685B68012B03D03B685B688F
:1004D000022B06D13B689B681A46B9697868FFF71A
:1004E00014FF3B681B691A46B9697868FFF73AFF41
:1004F0003B685B68022B19D1BB69FB60FB6893FA10
:10050000A3F3BB60BB68B3FA83F3072B07D83B6840
:100510005B691A46B9697868FFF751FF06E03B68E6
:100520005B691A46B9697868FFF776FFFB690133A2
:10053000FB613B681A68FB6922FA03F3002BAFD119
:100540003B685B68012B03D03B685B68022B07D1DB
:100550003B6819683B68DB681A467868FFF7BDFEA0
:10056000012318462037BD4680BD80B483B000AF5C
:1005700078607B681B6843F001027B681A6000BFEB
:100580000C37BD465DF8047B704780B483B000AF84
:1005900078607B681B6823F001027B681A6000BFEB
:1005A0000C37BD465DF8047B704780B485B000AF62
:1005B000F860B9607A60FB681B6823F4F8527B68C6
:1005C0001902BB680B431A43FB681A6000BF14375B
:1005D000BD465DF8047B704780B485B000AFF8601D
:1005E000B9607A60FB689B6823F4FF6323F007031C
:1005F000B9687A680A431A43FB689A6000BF1437E7
:10060000BD465DF8047B704780B483B000AF78606E
:100610007B689B6843F400427B689A6000BF0C379C
:10062000BD465DF8047B704780B483B000AF78604E
:100630007B689B6823F400427B689A6000BF0C379C
:10064000BD465DF8047B704780B483B000AF78602E
:1006500039607B683A681A6100BF0C37BD465DF8A7
:10066000047B704780B483B000AF786039607B68EA
:100670001B6823F440123B681A437B681A6000BF72
:100680000C37BD465DF8047B704780B483B000AF83
:10069000786039607B685B6823F400423B681A43EA
:1006A0007B685A6000BF0C37BD465DF8047B70471D
:1006B00080B582B000AF786039607868FFF765FF79
:1006C0003B6899683B68DB681A467868FFF76DFFFE
:1006D0003B685B6819467868FFF7B6FF7868FFF7F4
:1006E00044FF7868FFF7A0FF3B6819693B689B6986
:1006F0001A467868FFF770FF3B681B69002B02D031
:100700007868FFF781FF3B681B6819467868FFF738
:10071000A9FF3B685B6919467868FFF7B6FF0123BC
:1007200018460837BD4680BD80B400AF074B1B6834
:1007300003F48063B3F5806F0CBF01230023DBB2A9
:100740001846BD465DF8047B704700BF00100240AC
:1007500080B400AF074BD3F8903003F00203022BB4
:100760000CBF01230023DBB21846BD465DF8047BB5
:10077000704700BF0010024080B400AF064B1B68FA
:1007800003F00803082B0CBF01230023DBB218463B
:10079000BD465DF8047B70470010024080B400AF96
:1007A000044B1B6803F0F0031846BD465DF8047B5C
:1007B000704700BF0010024080B400AF044BD3F874
:1007C000943003F470631846BD465DF8047B7047AF
:1007D0000010024080B400AF044B9B6803F00C0390
:1007E0001846BD465DF8047B704700BF001002400C
:1007F00080B400AF044B9B6803F0F0031846BD467D
:100800005DF8047B704700BF0010024080B400AF69
:10081000044B9B6803F4E0631846BD465DF8047B17
:10082000704700BF0010024080B400AF044B9B68CB
:1008300003F460531846BD465DF8047B704700BF63
:100840000010024080B483B000AF7860064BD3F84C
:1008500088207B681A407B681B04134318460C37BA
:10086000BD465DF8047B70470010024080B483B041
:1008700000AF7860064BD3F888207B681A407B680D
:100880001B04134318460C37BD465DF8047B7047C4
:100890000010024080B400AF044BDB6803F0030398
:1008A0001846BD465DF8047B704700BF001002404B
:1008B00080B400AF044BDB681B0A03F07F031846CB
:1008C000BD465DF8047B70470010024080B400AF65
:1008D000044BDB6803F0C0631846BD465DF8047B3B
:1008E000704700BF0010024080B400AF044BDB68CB
:1008F00003F070031846BD465DF8047B704700BFE7
:100900000010024080B584B000AF78600023FB6027
:100910007B68032B2ED17868FFF794FF03464F4A7C
:10092000934209D0B3F1031F0ED04D4A934214D124
:1009300000F0E8F8F8608BE0FFF7F6FE0346002BC6
:100940007BD0484BFB6078E0FFF702FF0346002BAB
:1009500075D04FF40043FB6071E000F0D3F803461C
:10096000184600F05FF90346184600F085F9F86074
:1009700000BF6DE07B680C2B2ED17868FFF762FF1B
:100980000346394A934209D0B3F10C1F0ED0374ABF
:10099000934214D100F0B6F8F86059E0FFF7C4FEB6
:1009A0000346002B4DD02F4BFB604AE0FFF7D0FEF3
:1009B0000346002B47D04FF40043FB6043E000F0B8
:1009C000A1F80346184600F02DF90346184600F03A
:1009D0003FF9F86000BF3BE07B68302B38D1786886
:1009E000FFF730FF0346224A934209D0B3F1301F8C
:1009F0000ED0204A934214D100F084F8F86027E02A
:100A0000FFF792FE0346002B1FD0164BFB601CE045
:100A1000FFF79EFE0346002B19D04FF40043FB6006
:100A200015E000F06FF80346184600F0FBF80346A7
:100A3000184600F00DF9F8600AE000BF08E000BFBA
:100A400006E000BF04E000BF02E000BF00E000BF1E
:100A5000FB6818461037BD4680BD00BF020003008A
:100A6000010003000024F40008000C0004000C0046
:100A7000200030001000300080B584B000AF7860F6
:100A80000023FB607B68C02B30D17868FFF7EEFE57
:100A90000346194A934209D0B3F1C01F0ED0174A3A
:100AA000934214D100F02EF8F8601FE0FFF73CFEEF
:100AB0000346002B17D0124BFB6014E0FFF748FEF3
:100AC0000346002B11D04FF40043FB600DE000F013
:100AD00019F80346184600F0A5F80346184600F03A
:100AE000B7F8F86002E000BF00E000BFFB681846FE
:100AF0001037BD4680BD00BF8000C0004000C00070
:100B00000024F40080B582B000AF00237B60FFF7C3
:100B100061FE03460C2B51D801A252F823F000BF0E
:100B2000550B0008BD0B0008BD0B0008BD0B0008ED
:100B3000A90B0008BD0B0008BD0B0008BD0B000889
:100B4000AF0B0008BD0B0008BD0B0008BD0B000873
:100B5000B50B0008FFF710FE0346002B11D1FFF77D
:100B60000BFE0346002B04D0FFF718FE03461B0ABA
:100B700003E0FFF721FE03461B0A284A52F8233000
:100B800010E0FFF7F9FD0346002B04D0FFF706FE47
:100B900003461B0903E0FFF70FFE03461B091F4A2C
:100BA00052F823307B6033E01D4B7B6030E01C4B00
:100BB0007B602DE000F074F8786029E0FFF7DCFD41
:100BC0000346002B11D1FFF7D7FD0346002B04D0BD
:100BD000FFF7E4FD03461B0A03E0FFF7EDFD0346C4
:100BE0001B0A0E4A52F8233010E0FFF7C5FD0346FA
:100BF000002B04D0FFF7D2FD03461B0903E0FFF7EB
:100C0000DBFD03461B09054A52F823307B6000BF19
:100C10007B6818460837BD4680BD00BF643D0008AC
:100C20000024F40080B582B000AF7860FFF7E0FDEB
:100C300003461B0903F00F03044AD35C1A467B6882
:100C4000D34018460837BD4680BD00BF4C3D000864
:100C500080B582B000AF7860FFF7D8FD03461B0A6D
:100C6000044AD35C1A467B68D34018460837BD4611
:100C700080BD00BF5C3D000880B582B000AF7860E9
:100C8000FFF7D2FD0346DB0A044AD35C1A467B68B1
:100C9000D34018460837BD4680BD00BF5C3D000804
:100CA00090B583B000AF00237B6000233B60FFF76B
:100CB000F1FD38603B68022B2DD0032B2ED0012B89
:100CC0002FD1FFF759FD0346002B11D1FFF754FD3B
:100CD0000346002B04D0FFF761FD03461B0A03E027
:100CE000FFF76AFD03461B0A2F4A52F8233010E033
:100CF000FFF742FD0346002B04D0FFF74FFD0346EC
:100D00001B0903E0FFF758FD03461B09264A52F86A
:100D100023307B602FE0254B7B602CE0234B7B60F6
:100D200029E0FFF729FD0346002B11D1FFF724FD31
:100D30000346002B04D0FFF731FD03461B0A03E0F6
:100D4000FFF73AFD03461B0A174A52F8233010E01A
:100D5000FFF712FD0346002B04D0FFF71FFD0346EB
:100D60001B0903E0FFF728FD03461B090E4A52F852
:100D700023307B6000BFFFF7B7FD03461B0901333B
:100D80007A68B2FBF3F4FFF793FD034603FB04F428
:100D9000FFF79CFD03465B0E01335B00B4FBF3F3EE
:100DA00018460C37BD4690BD643D00080024F40091
:100DB00080B483B000AF78607B681B6803F04003A9
:100DC000402B01D1012300E0002318460C37BD461B
:100DD0005DF8047B704780B483B000AF7860396001
:100DE0003B689BB21A467B681A6100BF0C37BD4650
:100DF0005DF8047B704780B584B000AF78603960DF
:100E00000023FB737868FFF7D3FF0346002B3BD129
:100E10007B681B6823F47F4323F0BF033A681168A3
:100E20003A68526811433A68D26811433A681269C5
:100E300011433A68526911433A68926911433A681A
:100E4000D26911433A68126A0A431A437B681A60EE
:100E50007B685B6823F4706323F004033A6891684D
:100E60003A685269120C0A431A437B685A603B681D
:100E70001B6AB3F5005F05D13B685B6A1946786869
:100E8000FFF7A9FF0123FB73FB7B18461037BD4614
:100E900080BD80B483B000AF786039607B683A6809
:100EA0009A6200BF0C37BD465DF8047B704780B482
:100EB00083B000AF786039607B683A68DA6200BF5F
:100EC0000C37BD465DF8047B704780B483B000AF3B
:100ED000786039607B683A681A6300BF0C37BD469A
:100EE0005DF8047B704780B483B000AF78603960F0
:100EF0007B683A685A6300BF0C37BD465DF8047BD7
:100F0000704780B483B000AF786039607B683A681E
:100F10009A6300BF0C37BD465DF8047B704780B410
:100F200083B000AF786039607B683A68DA6300BFED
:100F30000C37BD465DF8047B704780B483B000AFCA
:100F4000786039607B683A681A6400BF0C37BD4628
:100F50005DF8047B704780B483B000AF786039607F
:100F60007B683A689A6500BF0C37BD465DF8047B24
:100F7000704780B483B000AF786039607B683A68AE
:100F8000DA6500BF0C37BD465DF8047B704780B45E
:100F900083B000AF78607B685B6943F001027B68D7
:100FA0005A6100BF0C37BD465DF8047B704780B4C2
:100FB00083B000AF78607B6800221A807B680022D3
:100FC0005A607B684FF0FF329A607B680022DA60DB
:100FD0007B6800221A7400BF0C37BD465DF8047BA5
:100FE0007047000080B584B000AF786039607B68DE
:100FF0001B68FB607B682B4A934207D07B68B3F188
:10100000804F03D07B68284A934206D1FB6823F0C7
:1010100070023B685B681343FB607B68214A934224
:101020000FD07B68B3F1804F0BD07B681E4A934290
:1010300007D07B681D4A934203D07B681C4A9342C9
:1010400006D1FB6823F440723B68DB681343FB6006
:101050007B68FA681A603B689B6819467868FFF7F6
:1010600026FF3B681B8819467868FFF712FF7B68EC
:101070000C4A934207D07B680C4A934203D07B68AA
:101080000B4A934205D13B681B7C19467868FFF7F1
:101090001CFF7868FFF77BFF012318461037BD4619
:1010A00080BD00BF002C0140000400400040014012
:1010B0000044014080B483B000AF78607B680022B8
:1010C0001A607B6800225A607B6800229A607B6805
:1010D0000022DA607B6800221A617B6800225A6174
:1010E0007B6800229A617B680022DA6100BF0C37BE
:1010F000BD465DF8047B704780B586B000AFF860F0
:10110000B9607A600023FB75BB68B3F5807F1FD0A0
:10111000B3F5807F04D8012B0CD0102B11D033E015
:10112000B3F5803F22D0B3F5801F26D0B3F5805FA2
:1011300015D029E07968F86800F02CF80346FB75B3
:1011400022E07968F86800F099F80346FB751BE027
:101150007968F86800F00AF90346FB7514E07968CD
:10116000F86800F07BF90346FB750DE07968F868D4
:1011700000F0D4F90346FB7506E07968F86800F0E2
:1011800025FA0346FB7500BFFB7D18461837BD46A0
:1011900080BD000080B586B000AF786039607B68A4
:1011A0001B6A23F001027B681A627B681B6A7B6101
:1011B0007B685B683B617B689B69FB60FB6823F035
:1011C0000303FB60FB6823F4803323F070033A6869
:1011D00012681343FB607B6923F002023B681B69C2
:1011E00013437B617B6923F001023B685B68134317
:1011F0007B617B681E4A934207D07B681D4A9342FD
:1012000003D07B681C4A93421ED17B6923F00802FD
:101210003B685B699B0013437B617B6923F004029D
:101220003B689B689B0013437B613B6923F480729E
:101230003B689B6913433B613B6923F400723B6845
:10124000DB695B0013433B617B683A695A607B68EA
:10125000FA689A613B68DB6819467868FFF743FED5
:101260007B687A691A62012318461837BD4680BD2B
:10127000002C0140004001400044014080B586B090
:1012800000AF786039607B681B6A23F010027B68CE
:101290001A627B681B6A7B617B685B683B617B6869
:1012A0009B69FB60FB6823F44073FB60FB6823F0E1
:1012B000807323F4E0433A68126812021343FB6020
:1012C0007B6923F020023B681B691B0113437B6190
:1012D0007B6923F010023B685B681B0113437B6151
:1012E0007B681F4A934207D07B681E4A934203D013
:1012F0007B681D4A93421FD17B6923F080023B68C3
:101300005B699B0113437B617B6923F040023B686F
:101310009B689B0113437B613B6923F480623B68BC
:101320009B699B0013433B613B6923F400623B686C
:10133000DB69DB0013433B617B683A695A607B6879
:10134000FA689A613B68DB6819467868FFF7D9FD4F
:101350007B687A691A62012318461837BD4680BD3A
:10136000002C0140004001400044014080B586B09F
:1013700000AF786039607B681B6A23F480727B68F9
:101380001A627B681B6A7B617B685B683B617B6878
:10139000DB69FB60FB6823F00303FB60FB6823F45D
:1013A000803323F070033A6812681343FB607B6953
:1013B00023F400723B681B691B0213437B617B694A
:1013C00023F480723B685B681B0213437B617B687C
:1013D0001F4A934207D07B681E4A934203D07B6822
:1013E0001D4A93421FD17B6923F400623B685B690D
:1013F0009B0213437B617B6923F480623B689B689B
:101400009B0213437B613B6923F480523B689B69D9
:101410001B0113433B613B6923F400523B68DB69CA
:101420005B0113433B617B683A695A607B68FA68E9
:10143000DA613B68DB6819467868FFF770FD7B6806
:101440007A691A62012318461837BD4680BD00BF6D
:10145000002C0140004001400044014080B586B0AE
:1014600000AF786039607B681B6A23F480527B6828
:101470001A627B681B6A3B617B685B687B617B6887
:10148000DB69FB60FB6823F44073FB60FB6823F0BF
:10149000807323F4E0433A68126812021343FB603E
:1014A0003B6923F400523B681B691B0313433B61F8
:1014B0003B6923F480523B685B681B0313433B6129
:1014C0007B68134A934207D07B68124A934203D049
:1014D0007B68114A934207D17B6923F480423B68C1
:1014E0009B699B0113437B617B687A695A607B68C7
:1014F000FA68DA613B68DB6819467868FFF71DFD1A
:101500007B683A691A62012318461837BD4680BDC8
:10151000002C0140004001400044014080B584B0EF
:1015200000AF786039607B681B6A23F480327B6887
:101530001A627B681B6AFB607B685B6DBB60BB6883
:1015400023F4803323F070033A6812681343BB60BE
:10155000FB6823F400323B681B691B041343FB60E8
:10156000FB6823F480323B685B681B041343FB6019
:101570007B68134A934207D07B68124A934203D098
:101580007B68114A934209D17B685B6823F48032FF
:101590003B689B691B021A437B685A607B68BA6888
:1015A0005A653B68DB6819467868FFF7D4FC7B68AE
:1015B000FA681A62012318461037BD4680BD00BF85
:1015C000002C0140004001400044014080B584B03F
:1015D00000AF786039607B681B6A23F480127B68F7
:1015E0001A627B681B6AFB607B685B6DBB60BB68D3
:1015F00023F0807323F4E0433A6812681202134325
:10160000BB60FB6823F400123B681B691B05134396
:10161000FB60FB6823F480123B685B681B05134387
:10162000FB607B68124A934207D07B68114A934261
:1016300003D07B68104A934209D17B685B6823F42E
:1016400080223B689B699B021A437B685A607B68D7
:10165000BA685A653B68DB6819467868FFF789FC09
:101660007B68FA681A62012318461037BD4680BDB0
:10167000002C0140004001400044014080B483B090
:1016800000AF78607B681B6803F00103012B0CBF7F
:1016900001230023DBB218460C37BD465DF8047BFE
:1016A000704780B483B000AF786039607B685B6856
:1016B00023F440523B681A437B685A6000BF0C37E2
:1016C000BD465DF8047B704780B483B000AF78609E
:1016D00039607B689B6823F440723B681A437B68DF
:1016E0009A6000BF0C37BD465DF8047B7047B0B40C
:1016F00085B000AFF860B9607A603B6000250024D7
:101700007B68B3F5004F14D1BB685A003B685B0897
:101710001A443B68B2FBF3F39BB21D464FF6F074DC
:101720002C406B089BB203F007031C43FB68DC6092
:101730000AE03B685A08BB681A443B68B2FBF3F303
:101740009BB21A46FB68DA6000BF1437BD46B0BCD6
:101750007047000080B584B000AF78603960002326
:10176000FB730023BB607868FFF788FF0346002BFC
:1017700051D17B681A682A4B13403A6851683A681D
:10178000D26811433A68126911433A6892690A4370
:101790001A437B681A603B689B6819467868FFF7B4
:1017A00080FF3B685B6919467868FFF78DFF7B68AF
:1017B0001C4A934204D10320FFF7A4F8B86019E053
:1017C0007B68194A934204D10C20FFF79BF8B8605C
:1017D00010E07B68154A934204D13020FFF792F85D
:1017E000B86007E07B68124A934203D1C020FFF73C
:1017F00043F9B860BB68002B0DD03B681B68002B19
:1018000009D00123FB733B689A693B681B68B96880
:101810007868FFF76CFFFB7B18461037BD4680BD2C
:10182000F369FFEF003801400044004000480040E9
:10183000004C004080B483B000AF78603960094943
:101840007A683B68B2FBF3F3013B4B60054B002227
:101850009A60044B05221A6000BF0C37BD465DF844
:10186000047B704710E000E080B582B000AF786084
:101870004FF47A717868FFF7DDFF00BF0837BD4687
:1018800080BD000080B483B000AF7860044A7B68FC
:10189000136000BF0C37BD465DF8047B704700BF86
:1018A0000000002080B483B000AF786039607B68AE
:1018B0003A689A6100BF0C37BD465DF8047B7047FB
:1018C00080B483B000AF786039607B683A689A6210
:1018D00000BF0C37BD465DF8047B704780B483B011
:1018E00000AF78607B681B6843F001027B681A6078
:1018F00000BF0C37BD465DF8047B704780B483B0F1
:1019000000AF78607B681B6823F001027B681A6077
:1019100000BF0C37BD465DF8047B704780B483B0D0
:1019200000AF786039607B683A685A6200BF0C3754
:10193000BD465DF8047B704780B483B000AF78602B
:1019400039607B683A68DA6200BF0C37BD465DF8E3
:10195000047B704780B483B000AF786039607B68E7
:101960003A685A6300BF0C37BD465DF8047B704788
:1019700080B483B000AF786039607B683A689A635E
:1019800000BF0C37BD465DF8047B704780B586B05C
:1019900000AF03460A46FB711346BB71FA79134642
:1019A0009B0013445B007B617B690A2B03D140F2EF
:1019B00014533B611FE07B6940F2F542934202D928
:1019C0004C4B3B6117E07A694B4BA3FB02131B099D
:1019D000322101FB03F3D31A002B07D17B690533B6
:1019E0007B617B69642202FB03F303E07B69642271
:1019F00002FB03F33B61414B1A683B69B2FBF3F313
:101A0000FB60BB79002B1CD14FF08040FFF776FFC5
:101A100000214FF08040FFF781FFFB68013B194632
:101A20004FF08040FFF788FFFB685B08013B1946D9
:101A30004FF08040FFF79CFF4FF08040FFF74EFFD4
:101A40001CE0BB79012B17D12D48FFF757FF002170
:101A50002B48FFF763FFFB68013B19462848FFF757
:101A60006BFFFB685B08013B19462548FFF772FFD7
:101A70002348FFF733FF01E0002337E07B690A2B9F
:101A800002D07B69142B0AD14FF480711D48FFF7F7
:101A900017FF4FF400711B48FFF712FF1FE07B692F
:101AA000142B0ED97B69B3F5A57F0AD24FF4807150
:101AB0001448FFF7F7FE4FF400711248FFF700FFDC
:101AC0000DE07B69B3F5A57F09D34FF480710D4814
:101AD000FFF7F6FE4FF400710A48FFF7E3FEF979CD
:101AE0003B697A69084801F045F90123184618371F
:101AF000BD4680BDD0FB01001F85EB5100000020DA
:101B00000004004000080048543C000880B485B040
:101B100000AF78607B6803F00703FB600C4BDB6869
:101B2000BB60BA684FF6FF031340BB60FB681A0244
:101B3000BB68134343F0BF6343F40033BB60044A04
:101B4000BB68D36000BF1437BD465DF8047B7047A7
:101B500000ED00E080B400AF044BDB681B0A03F02B
:101B600007031846BD465DF8047B704700ED00E0B2
:101B700080B483B000AF03463960FB7197F907303A
:101B8000002B0BDA0D49FB7903F00F03043B3A6895
:101B9000D2B21201D2B20B441A7609E0084997F981
:101BA00007303A68D2B21201D2B20B4483F8002354
:101BB00000BF0C37BD465DF8047B704700ED00E0C8
:101BC00000E100E080B489B000AFF860B9607A60ED
:101BD000FB6803F00703FB61FB69C3F10703042BF8
:101BE00028BF0423BB61FB690433062B02D9FB69C0
:101BF000033B00E000237B610122BB6902FA03F38F
:101C00005A1EBB681A407B699A4001217B6901FA20
:101C100003F3591E7B680B40134318462437BD4617
:101C20005DF8047B7047000080B483B000AF78603B
:101C30000649064B1B6823F007027B6813430B60C1
:101C400000BF0C37BD465DF8047B704700200240A2
:101C500080B400AF044B1B6803F007031846BD4671
:101C60005DF8047B704700BF0020024080B483B061
:101C700000AF78607B68042B06D1094A084B1B68CB
:101C800043F00403136005E0054A054B1B6823F08D
:101C90000403136000BF0C37BD465DF8047B70473A
:101CA00010E000E080B400AF054A054B1B6843F428
:101CB0008073136000BFBD465DF8047B704700BFB2
:101CC0000010024080B400AF074B1B6803F4806330
:101CD000B3F5806F0CBF01230023DBB21846BD466D
:101CE0005DF8047B704700BF0010024080B400AF75
:101CF000064A064BD3F8943043F00103C2F89430FF
:101D000000BFBD465DF8047B704700BF0010024075
:101D100080B400AF074BD3F8943003F00203022BDA
:101D20000CBF01230023DBB21846BD465DF8047BDF
:101D3000704700BF0010024080B483B000AF7860ED
:101D40000649064B9B6823F003027B6813438B60B4
:101D500000BF0C37BD465DF8047B704700100240A1
:101D600080B400AF044B9B6803F00C031846BD46DB
:101D70005DF8047B704700BF0010024080B483B060
:101D800000AF78600649064B9B6823F0F0027B6841
:101D900013438B6000BF0C37BD465DF8047B704772
:101DA0000010024080B483B000AF78600649064B53
:101DB0009B6823F4E0627B6813438B6000BF0C37A1
:101DC000BD465DF8047B70470010024080B483B0CC
:101DD00000AF78600649064B9B6823F460527B682D
:101DE00013438B6000BF0C37BD465DF8047B704722
:101DF0000010024080B483B000AF78600949094BFD
:101E0000D3F888207B681B0CDB431A407B689BB2AD
:101E10001343C1F8883000BF0C37BD465DF8047B22
:101E2000704700BF0010024080B485B000AF7860FA
:101E30007B681A0E0E4B1344FB60FB681A687B68C4
:101E40001B0CDBB2032101FA03F3DB431A407B686E
:101E5000D9B27B681B0CDBB201FA03F31A43FB68AF
:101E60001A6000BF1437BD465DF8047B704700BFA1
:101E70008810024080B400AF054A054B1B6843F050
:101E80008073136000BFBD465DF8047B704700BFE0
:101E90000010024080B400AF074B1B6803F00073D2
:101EA000B3F1007F0CBF01230023DBB21846BD460F
:101EB0005DF8047B704700BF0010024080B485B01D
:101EC00000AFF860B9607A603B600A48094BDA6895
:101ED000094B1340F968BA6811437A68120211433A
:101EE0003A680A431343C36000BF1437BD465DF828
:101EF000047B7047001002408C80FFF980B400AF73
:101F0000054A054BDB6843F08073D36000BFBD46D4
:101F10005DF8047B704700BF0010024080B483B0BE
:101F200000AF78600649064B1B6823F4C0627B68EB
:101F300013430B6000BF0C37BD465DF8047B704750
:101F40000070004080B483B000AF78607B681B688D
:101F500023F400327B681A6000BF0C37BD465DF881
:101F6000047B704780B483B000AF78607B681B68E7
:101F700023F400227B681A6000BF0C37BD465DF871
:101F8000047B704780B485B000AFF860B9607A60B8
:101F9000FB68DB6823F4FF6323F00603B9687A6803
:101FA0000A431A43FB68DA6000BF1437BD465DF888
:101FB000047B704780B483B000AF78607B68DB68D7
:101FC00023F400427B68DA6000BF0C37BD465DF841
:101FD000047B704780B483B000AF78607B685B6837
:101FE00043F000727B685A6000BF0C37BD465DF855
:101FF000047B704780B485B000AF78600849084B17
:10200000DA6C7B681343CB64054BDA6C7B68134056
:10201000FB60FB6800BF1437BD465DF8047B70476A
:102020000010024080B485B000AF78600849084BCA
:102030009A6D7B6813438B65054B9A6D7B681340E3
:10204000FB60FB6800BF1437BD465DF8047B70473A
:102050000010024080B485B000AF78600849084B9A
:102060001A6E7B6813430B66054B1A6E7B68134030
:10207000FB60FB6800BF1437BD465DF8047B70470A
:102080000010024080B483B000AF78607B681B68AA
:1020900043F040027B681A6000BF0C37BD465DF814
:1020A000047B704780B483B000AF78607B681B68A6
:1020B00023F040027B681A6000BF0C37BD465DF814
:1020C000047B704780B483B000AF786039607B6870
:1020D0005B6823F010023B681A437B685A6000BFBC
:1020E0000C37BD465DF8047B704780B483B000AF09
:1020F00078607B685B6843F008027B685A6000BFC9
:102100000C37BD465DF8047B704780B483B000AFE8
:10211000786039607B683A689A6100BF0C37BD46C9
:102120005DF8047B704780B483B000AF786039609D
:102130007B683A689A6200BF0C37BD465DF8047B45
:10214000704780B483B000AF78607B681B6843F051
:1021500001027B681A6000BF0C37BD465DF8047B46
:1021600070470000B0B483B000AF786039603B685E
:10217000012B28D03B68042B23D03B68102B1ED0AA
:102180003B68402B19D03B68B3F5807F13D03B6888
:10219000B3F5806F0DD03B68B3F5805F07D03B6827
:1021A000B3F5803F01D107230EE008230CE006239E
:1021B0000AE0052308E0042306E0032304E00223E9
:1021C00002E0012300E000231D467B6818331A4615
:1021D0002946094B5B5C13441C4622682946074B81
:1021E0005B5C194608238B401343236000BF0C3708
:1021F000BD46B0BC704700BF343D0008403D0008FC
:1022000080B483B000AF786039607B689B6823F44A
:10221000A03323F007033A681A437B689A6000BF33
:102220000C37BD465DF8047B704780B483B000AFC7
:1022300078607B681B6843F001027B681A6000BF0E
:102240000C37BD465DF8047B704780B483B000AFA7
:10225000786039607B685B6823F400423B681A430E
:102260007B685A6000BF0C37BD465DF8047B704741
:1022700080B483B000AF78607B685B6823F49042E1
:102280007B685A607B689B6823F02A027B689A60AF
:1022900000BF0C37BD465DF8047B704780B500AFCA
:1022A0000120FFF7D7FE4FF08050FFF7BBFE032061
:1022B000FFF72CFCFFF74EFC0346002200211846D6
:1022C000FFF780FC034619466FF00B00FFF750FC48
:1022D000FFF740FC0346002200211846FFF772FC7E
:1022E000034619466FF00A00FFF742FCFFF732FC85
:1022F0000346002200211846FFF764FC03461946F6
:102300006FF00900FFF734FCFFF724FC03460022BE
:1023100000211846FFF756FC034619466FF00400EB
:10232000FFF726FCFFF716FC0346002200211846A3
:10233000FFF748FC034619466FF00300FFF718FC4F
:10234000FFF708FC0346002200211846FFF73AFC7D
:10235000034619466FF00100FFF70AFC00BF80BD7D
:1023600080B500AF0420FFF75FFCFFF771FC034668
:10237000042B03D046212C4800F0DEFA4FF4007005
:10238000FFF7CCFDFFF78EFC00BFFFF79BFC034679
:10239000012BFAD1FFF7AAFC00BFFFF7B9FC0346F7
:1023A000012BFAD100230A2200210220FFF786FD2B
:1023B000FFF760FDFFF7A2FD00BFFFF76BFD0346CF
:1023C000012BFAD10320FFF7B7FC00BFFFF7C8FCD1
:1023D00003460C2BFAD10020FFF7D0FC0020FFF7BA
:1023E000E1FC0020FFF7F2FC1048FFF73DFA042063
:1023F000FFF73CFC0D48FFF745FA0D48FFF7FAFCE4
:102400000C48FFF711FDFFF7A5FB034600220F2143
:102410001846FFF7D7FB034619464FF0FF30FFF78A
:10242000A7FB00BF80BD00BF7C3C000800B4C40413
:102430000100030001000C0080B586B000AF04204D
:10244000FFF7D8FD4FF4E0533B6001237B6000238E
:10245000BB600023FB6001233B613B4619460648F5
:10246000FEF709F84FF4E0510348FFF74EFE00BFB6
:102470001837BD4680BD00BF0008004880B586B053
:1024800000AF0120FFF7B6FD0420FFF7B3FD0220E7
:10249000FFF7B0FD38233B6001237B600023BB6066
:1024A0000023FB6001233B613B4619464FF09040FF
:1024B000FDF7E1FF38214FF09040FFF726FE0323A0
:1024C0003B6000237B6000233B613B461946364856
:1024D000FDF7D1FF01233B6000237B6000233B61BC
:1024E0003B4619464FF09040FDF7C5FF4FF440734F
:1024F0003B6001237B600023BB600023FB60012362
:102500003B613B4619462848FDF7B5FF4FF4807301
:102510003B6001237B600023BB600023FB60012341
:102520003B613B4619464FF09040FDF7A4FF4FF446
:1025300040711D48FFF7F7FD4FF480714FF0904058
:10254000FFF7E3FD40F607433B6001237B60002378
:10255000BB600023FB6000233B613B4619461348E8
:10256000FDF789FF40F607411048FFF7DCFD042323
:102570003B6000237B6000233B613B4619464FF0E4
:102580009040FDF778FF4FF400533B6000237B60E1
:1025900000233B613B4619460348FDF76CFF00BF33
:1025A0001837BD4680BD00BF000800480004004841
:1025B00080B58EB000AF4FF48040FFF74BFD012097
:1025C000FFF718FD4FF4C0637B600223BB60032359
:1025D000FB6000233B6100237B610723BB613B1D44
:1025E00019464FF09040FDF746FF204BFB614FF43A
:1025F00080533B6200237B620023BB620C23FB629F
:1026000000233B6300237B6307F11C031946184832
:10261000FFF7A0F84FF400411548FFF716FE1448E5
:10262000FFF726FE1248FFF700FE4FF4C0537B6011
:102630000123BB600023FB6000233B6101237B611E
:102640003B1D19464FF09040FDF715FF4FF4006118
:102650004FF09040FFF767FD4FF480514FF09040EE
:10266000FFF753FD00BF3837BD4680BD404B4C00DF
:102670000038014080B590B000AF2D48FFF712FD43
:102680004FF48040FFF7CEFC0420FFF7B3FC02209C
:10269000FFF7B0FC0C233B6002237B600323BB608D
:1026A0000023FB6000233B6105237B613B46194609
:1026B0002048FDF7E0FE4FF440533B6002237B606F
:1026C0000323BB600023FB6000233B6105237B6188
:1026D0003B4619461848FDF7CEFE0023BB614FF478
:1026E0008273FB614FF4E0633B6200237B62002353
:1026F000BB624FF48023FB6230233B6300237B6388
:102700000023BB630023FB6307F118031946084845
:10271000FEF771FB00210648FFF7D4FC0448FFF7E1
:10272000E4FC0348FFF7AEFC00BF4037BD4680BD68
:1027300000380040000800480004004880B58EB012
:1027400000AF4FF40010FFF76DFC0220FFF752FCC2
:10275000C0237B600223BB600323FB6001233B613A
:1027600001237B610423BB613B1D19461548FDF71E
:1027700082FE1548FFF72EFC1348FFF71BFC12489A
:10278000FFF7F0FB1048FFF7DDFB0023FB610F4B69
:102790003B6200237B620023BB620023FB620023B9
:1027A0003B6300237B6307F11C0319460648FDF7D2
:1027B0007FFF002200210448FFF7E4FB00BF383709
:1027C000BD4680BD000400480054004091297000BF
:1027D00080B596B000AF0346FB710120FFF70AFCFD
:1027E000FB79002B52D10223FB6002233B610023C3
:1027F0007B610023BB610023FB6101233B6207F186
:102800000C0319464FF09040FDF735FE0120FFF70D
:1028100009FC07F144031846FEF7C9FB0023A7F89B
:1028200044300023BB644FF26103FB6400233B652B
:1028300007F1440319464FF08040FEF7D3FB002117
:102840004FF08040FFF7DCFC10214FF08040FFF795
:1028500089FC07F124031846FEF72CFC60237B62F9
:102860000123BB620023FB6247F630033B63002376
:102870007B6307F124031A4610214FF08040FEF7D6
:102880003BFC4FF08040FFF75CFC4FE0FB79012BF5
:102890004CD14023FB6002233B6100237B6100237A
:1028A000BB610023FB6102233B6207F10C03194665
:1028B0004FF09040FDF7DFFD0220FFF7B3FB07F17B
:1028C00044031846FEF773FB0023A7F844300023A7
:1028D000BB644FF26103FB6400233B6507F14403D3
:1028E00019461448FEF77EFB00211248FFF788FCCA
:1028F00001211048FFF736FC07F124031846FEF7C4
:10290000D9FB60237B620123BB620023FB6247F695
:1029100030033B6300237B6307F124031A46012144
:102920000448FEF7E9FB0348FFF70BFC00BF5837EC
:10293000BD4680BD0004004080B582B000AF786025
:1029400039603A687968034800F014FA00BF083724
:10295000BD4680BD943C000880B483B000AF786071
:1029600039607B681A693B681A403B689A420CBF21
:1029700001230023DBB218460C37BD465DF8047B0B
:102980007047000080B582B000AF0023FB710123C7
:10299000BB71FFF783FCFFF7E3FC1B4800F05EFA16
:1029A0001A4800F05BFAFFF747FDFFF767FDFFF7F6
:1029B000FFFDFFF75FFEFFF7C1FE0020FFF708FFF6
:1029C000134800F04BFA4FF400511248FFF7C4FFD0
:1029D0000346BB71BB79002BF5D100BF4FF400510A
:1029E0000C48FFF7B9FF0346002BF7D0FB79013302
:1029F000FB71FB7900211846FEF7C8FFFB79822B9B
:102A0000E1D10023FB71DEE7C43C0008E83C00088C
:102A1000103D00080008004880B483B000AF786023
:102A20007B68DB6903F02003202B0CBF012300230C
:102A3000DBB218460C37BD465DF8047B704780B4A6
:102A400083B000AF78607B689B8C9BB2C3F30803B4
:102A50009BB218460C37BD465DF8047B704780B4C6
:102A600000AF00BFBD465DF8047B704780B400AF87
:102A7000FEE780B400AFFEE780B400AFFEE780B4AD
:102A800000AFFEE780B400AF00BFBD465DF8047B39
:102A9000704780B400AF00BFBD465DF8047B70474F
:102AA00080B400AF00BFBD465DF8047B704780B4C2
:102AB00000AF00BFBD465DF8047B704780B582B0B3
:102AC00000AF0023FB800748FFF7A6FF0346002B5B
:102AD00004D00448FFF7B3FF0346FB8000BF08376C
:102AE000BD4680BD0038014080B483B000AF78603F
:102AF0004FF06043D3F8803E03F00103002B13D066
:102B00004FF06043D3F8003E03F00103002B0BD0DD
:102B100000E000BF4FF060431B68002BF9D04FF07E
:102B200060437A68D2B21A707B6818460C37BD468B
:102B30005DF8047B704780B586B000AFF860B9607F
:102B40007A6000237B6100237B6109E0BB685A1C2B
:102B5000BA601B781846FFF7C7FF7B6901337B61BA
:102B60007A697B689A42F1DB7B6818461837BD4664
:102B700080BD000080B485B000AF78600B4B1B684F
:102B8000002B02D1094B0A4A1A60084B1B68FB60F4
:102B9000064B1A687B681344044A1360FB681846A6
:102BA0001437BD465DF8047B704700BF84000020E9
:102BB0009400002080B483B000AF7860054B5822A9
:102BC0001A604FF0FF3318460C37BD465DF8047BA2
:102BD000704700BF9000002080B483B000AF7860E1
:102BE0003960054B58221A604FF0FF3318460C37F6
:102BF000BD465DF8047B70479000002080B483B030
:102C000000AF7860044B58221A60002318460C3736
:102C1000BD465DF8047B70479000002080B485B00D
:102C200000AFF860B9607A60054B58221A604FF027
:102C3000FF3318461437BD465DF8047B704700BF6C
:102C40009000002080B485B000AFF860B9607A6071
:102C5000054B58221A604FF0FF3318461437BD4613
:102C60005DF8047B704700BF9000002080B400AF87
:102C7000174A174BD3F8883043F47003C2F88830F2
:102C8000144A144B1B6843F001031360114B0022DC
:102C90009A60104A0F4B1B6823F0A85323F41023AB
:102CA00013600C4B4FF48052DA600A4A094B1B68E0
:102CB00023F480231360074B00229A61044B4FF0EA
:102CC00000629A6000BFBD465DF8047B704700BF9C
:102CD00000ED00E000100240DFF834D0002103E0F6
:102CE0000C4B5B58435004310B480C4B42189A4232
:102CF000F6D30B4A02E0002342F8043B094B9A4208
:102D0000F9D3FFF7B3FF00F011F8FFF73BFEFEE742
:102D100000800220343E00080000002068000020EF
:102D20006800002094000020FEE7000070B50D4E02
:102D30000D4CA41BA4100025A54209D10B4E0C4C30
:102D400000F07CFFA41BA4100025A54205D170BD96
:102D500056F8253098470135EEE756F82530984764
:102D60000135F2E72C3E00082C3E00082C3E0008FE
:102D7000303E00080FB40A4B13B51C6824B1A36998
:102D800013B9204600F024FA05AB049AA168019318
:102D9000204600F0E9FB02B0BDE8104004B07047E7
:102DA0000400002070B50E46054618B183690BB9C2
:102DB00000F00EFAAB69AC6813B9284600F008FAC7
:102DC000234B9C4217D16C68A3891B071DD523692F
:102DD000DBB1013EA36816F8011F013BA360E9B90E
:102DE000002B2EDA22460A21284600F03FF8013057
:102DF00011D00A2070BD174B9C4201D1AC68E3E7AB
:102E0000154B9C4208BFEC68DEE72146284600F0DF
:102E10007FF80028DDD04FF0FF3070BD002B04DAC2
:102E2000A269934206DB0A2904D023685A1C226057
:102E30001970CFE72246284600F018F80130C9D1B2
:102E4000E9E723680A205A1C2260187070BD00BF91
:102E5000B43D0008D43D0008943D0008024B0146F3
:102E60001868FFF79FBF00BF04000020F8B50E46AA
:102E70001446054618B183690BB900F0A9F9214B36
:102E80009C422AD16C68A369A360A3891A072ED536
:102E9000236963B323692068C01A6369F6B2984254
:102EA000374604DB2146284600F028F928BBA368F2
:102EB000013BA36023685A1C22601E7063690130C5
:102EC000984204D0A389DB0719D50A2E17D12146D1
:102ED000284600F013F990B10FE00B4B9C4201D152
:102EE000AC68D0E7094B9C4208BFEC68CBE72146B1
:102EF000284600F00DF80028CCD04FF0FF373846B8
:102F0000F8BD00BFB43D0008D43D0008943D000862
:102F1000324B70B51D6806460C4625B1AB6913B936
:102F2000284600F055F92E4B9C420FD16C68B4F93D
:102F30000C309AB215072CD4D00611D40922326075
:102F400043F04003A3814FF0FF3070BD254B9C42FE
:102F500001D1AC68EBE7244B9C4208BFEC68E6E784
:102F6000510712D5616B41B104F14403994202D07B
:102F7000304600F023FA00236363A38923F024037F
:102F8000A3810023636023692360A38943F00803BE
:102F9000A38123694BB9A38903F42073B3F5007FA0
:102FA00003D02146304600F0C1F9A28912F0010396
:102FB0000CD00023A36063695B42A361236953B90A
:102FC000B4F90C3013F08000BAD170BD920758BF2D
:102FD0006369A360F2E70020F7E700BF0400002068
:102FE000B43D0008D43D0008943D00088A892DE9CD
:102FF000F041054610070C465AD44B68002B05DCFF
:103000000B6C002B02DC0020BDE8F081E66A002E8C
:10301000F9D0002312F480522F682B6033D0606DFA
:10302000A3895A0705D56368C01A636B0BB1236C7B
:10303000C01A00230246E66A216A2846B047431CAC
:10304000A38906D129681D294BD82B4ACA40D60727
:1030500047D500226260D9042269226004D5421C4F
:1030600001D12B6803B96065616B2F600029CAD05C
:1030700004F14403994202D0284600F09FF9002051
:103080006063BDE8F081216A01232846B047411CF6
:10309000C6D12B68002BC3D01D2B01D0162B01D11C
:1030A0002F60B0E7A38943F04003A381BDE8F0811E
:1030B0000F69002FA7D093070E6808BF4B690F60F8
:1030C00018BF0023A6EB07088B60B8F1000F9ADD4C
:1030D00043463A46216AA66A2846B047002807DCDC
:1030E000A38943F04003A3814FF0FF30BDE8F08196
:1030F0000744A8EB0008E8E70100402038B50B6959
:1031000005460C46DBB118B183690BB900F060F8D5
:103110000C4B9C4209D16C68B4F90C307BB1214650
:103120002846BDE83840FFF761BF074B9C4201D1FC
:10313000AC68F1E7054B9C4208BFEC68ECE7002067
:1031400038BD00BFB43D0008D43D0008943D0008E0
:10315000014900F0A9B800BFFD300008002310B5F8
:10316000044603604360836081814366C2810361DA
:1031700043618361194608225C3000F017F9054B62
:103180006362054BA362054BE362054B2462236334
:1031900010BD00BFE13A0008033B00083B3B0008BC
:1031A0005F3B000870B54A1E682555430E4605F181
:1031B000740100F051F9044640B1002180E842005A
:1031C0000C30A06005F1680200F0F0F8204670BDF8
:1031D000836910B5044633BB8364C3640365124B33
:1031E000124A1B688262984204BF0123836100F087
:1031F0001FF86060204600F01BF8A060204600F039
:1032000017F80022E06004216068FFF7A7FF0122A1
:103210000921A068FFF7A2FF02221221E068FFF750
:103220009DFF0123A36110BDF43D0008513100084A
:10323000F8B51C4B1E68B369074613B93046FFF753
:10324000C7FF4836B4687368013B03D5336833B1B0
:103250003668F7E7B4F90C506DB16834F4E704212F
:103260003846FFF79FFF30600028F1D10C233B6008
:1032700004462046F8BD4FF6FF73E3810123A38186
:1032800065662560A560656025616561A5610822A8
:10329000294604F15C0000F089F86563A563A56424
:1032A000E564E6E7F43D00082DE9F84380468946E9
:1032B00000F14804002614B93046BDE8F883A5683B
:1032C0006768013F01D52468F5E7AB89012B07D971
:1032D000B5F90E30013303D029464046C8470643AE
:1032E0006835EEE770B50E46B1F90E10002990B0C2
:1032F00014461D4607DA00232B60B3891A0610D442
:103300004FF480630EE001AA00F050FC0028F2DBCD
:10331000029A02F47042A2F500535A425A412A60BE
:10332000EEE740230020236010B070BD8B8973B599
:103330009D0706460C4607D504F147032360236129
:103340000123636102B070BD01AB6A46FFF7CAFF9B
:1033500000990546304600F07FF848B9B4F90C30C2
:103360009A05EFD423F0030343F00203A381E3E7BC
:103370000D4BB362A389206043F08003A381009BBF
:103380006361019B20615BB1B4F90E10304600F01F
:103390001FFC28B1A38923F0030343F00103A38199
:1033A000A3891D43A581CDE751310008024403469E
:1033B000934200D1704703F8011BF9E738B5054681
:1033C000002945D051F8043C0C1F002BB8BFE4186D
:1033D00000F020FC1F4A1368104633B96360146084
:1033E0002846BDE8384000F016BCA3420CD921683D
:1033F0006218934204BF1A685B68636004BF521886
:1034000022600460ECE713465A680AB1A242FAD976
:1034100019685818A0420BD12068014458188242FC
:103420001960DDD1106852685A6001441960D7E70D
:1034300002D90C232B60D3E7206821188A4204BFED
:1034400011685268626004BF091821605C60C7E7B8
:1034500038BD00BF8800002070B5CD1C25F00305E5
:1034600008350C2D38BF0C25002D064601DBA9427E
:1034700003D90C233360002070BD00F0CBFB234A3E
:103480001468214691B9224C23681BB9304600F0DC
:1034900017FB20602946304600F012FB431C26D162
:1034A0000C233360304600F0B6FBE4E70B685B1B8F
:1034B0001AD40B2B0FD90B60CD50CC18304600F02E
:1034C000AAFB04F10B00231D20F00700C31A1BD038
:1034D0005A42E25070BD8C420DBF63684B68636016
:1034E000136018BF0C46E9E70C464968CAE7C41CDC
:1034F00024F00304A04205D0211A304600F0E0FA7F
:103500000130CDD02560D9E770BD00BF8800002014
:103510008C0000209368013B002B10B4936009DA03
:103520009469A34202DBCBB20A2B03D15DF8044BB2
:10353000FFF79CBC1368581C10601970C8B25DF886
:10354000044B7047F8B506460F461446D518AC42F2
:1035500001D1002007E03A4614F8011B3046FFF77E
:10356000D9FF431CF3D1F8BD2DE9F04F9DB00C46B7
:1035700017460393064618B183690BB9FFF728FE77
:103580007C4B9C4257D17468A38918075DD5236989
:10359000002B5AD00023099320238DF829303023A3
:1035A0008DF82A304FF0010BB846454615F8013B1F
:1035B000002B55D1B8EB070A0BD053463A462146AB
:1035C0003046FFF7BFFF013000F0C480099B534431
:1035D000099398F80030002B00F0BC8000234FF0D6
:1035E000FF3204930793059206938DF853301A9394
:1035F000052229786048FCF7F3FD05F10108049BDA
:10360000002831D1D90644BF20228DF853201A0753
:1036100044BF2B228DF853202A782A2A2CD0079ACF
:1036200000210A20A846013598F80030303B092BCC
:103630006DD971B326E0514B9C4201D1B468A3E728
:103640004F4B9C4208BFF4689EE721463046FFF787
:103650005FFC00289ED04FF0FF301DB0BDE8F08F1A
:10366000252BA7D0A846A0E7434A801A0BFA00F002
:10367000184304904546BBE7039A111D1268039155
:10368000002A01DB079204E0524243F00203079252
:10369000049398F800302E2B10D198F801302A2B83
:1036A00008F1010137D1039B1A1D1B680392002BFF
:1036B000B8BF4FF0FF3308F102080593314D98F879
:1036C000001003222846FCF78BFD40B14023401B2D
:1036D00003FA00F0049B0343049308F1010898F8EF
:1036E000001029488DF82810062208F10107FCF780
:1036F00077FD002834D0254B03BB039B073323F011
:10370000070308330393099B4B4409934CE700FBE1
:103710000232012186E70023059318460A258846D0
:10372000013198F80020303A092A03D9002BC5D07E
:103730000590C3E705FB00200123F0E703AB0093EE
:103740002246134B04A93046AFF30080B0F1FF3F8F
:103750008146D8D1A3895B063FF57DAF09987CE708
:1037600003AB009322460A4B04A9304600F088F8C8
:10377000ECE700BFB43D0008F83D0008D43D000868
:10378000943D0008FE3D0008023E000800000000D5
:10379000453500082DE9F04791461F468A680B69B8
:1037A000DDF820809342B8BF1346C9F8003091F885
:1037B000432006460C4612B10133C9F80030236895
:1037C000990642BFD9F800300233C9F800302568A5
:1037D00015F0060507D104F1190AE368D9F80020AD
:1037E0009B1A9D4229DB94F843302268003318BFAE
:1037F000012392062ED404F1430239463046C047D5
:10380000013021D02368E568D9F8002003F00603D1
:10381000042B08BFAD1AA36822690CBF25EAE57521
:1038200000259342C4BF9B1AED184FF000091A34CB
:103830004D451BD10020BDE8F08701235246394693
:103840003046C047013003D14FF0FF30BDE8F0876C
:103850000135C2E7E1185A1C302081F843002244A8
:1038600094F8451082F843100233C4E7012322463E
:1038700039463046C0470130E6D009F10109D7E7A3
:103880002DE9F04317460A7E85B06E2A9846064613
:103890000C460C9B01F1430E00F0BC801AD8632A41
:1038A0002ED00AD8002A00F0C880582A00F08A805A
:1038B00004F1420584F842202AE0642A01D0692AF2
:1038C000F6D121681A6811F0800F23D0111D1960FC
:1038D000136827E0732A00F0B48008D86F2A2AD032
:1038E000702AE5D10A6842F020020A6003E0752AD6
:1038F00021D0782ADCD1782284F845206E4964E012
:103900001A6801F14205111D1960136884F84230EC
:103910000123A3E011F0400F02F104011960D7D098
:10392000B2F90030002B03DA2D225B4284F84320E9
:1039300062490A2217E02068196810F0800F03D04E
:10394000081D18600B6806E010F0400F01F104003C
:103950001860F7D00B8859496F2A14BF0A22082231
:10396000002084F843006568A560002DC0F29C80AB
:10397000206820F004002060002B3FD1002D40F093
:1039800095807546082A0BD12368DA0708D5236984
:1039900062689A42DEBF302305F8013C05F1FF352D
:1039A000AEEB05032361CDF800803B4603AA214618
:1039B0003046FFF7EFFE013055D14FF0FF3005B034
:1039C000BDE8F08381F845203C492268186812F070
:1039D000800F00F104051D6001D0036802E0550668
:1039E000FBD50388D00744BF42F0200222601BB9F8
:1039F000226822F0200222601022B1E77546B3FB54
:103A0000F2F002FB1033CB5C05F8013D03460028C1
:103A1000F5D1B7E708681A68496910F0800F04D03B
:103A2000101D18601368196007E010F0400F02F1D4
:103A3000040018601368F6D01980002323617546CE
:103A4000B1E71A68111D19601568626800212846DF
:103A5000FCF7C6FB08B1401B60606368236100236C
:103A600084F843309FE723692A4639463046C047E9
:103A70000130A2D023689B0707D5002504F119095E
:103A8000E368039A9B1A9D4205DBE068039B98421A
:103A9000B8BF184693E701234A4639463046C04727
:103AA00001308AD00135EBE7002BA7D10B7884F8E1
:103AB000423004F1420565E71A3E0008093E00085D
:103AC00038B5064C0023054608462360FFF752F838
:103AD000431C02D1236803B12B6038BD9000002045
:103AE00010B50C46B1F90E1000F096F80028ABBFE7
:103AF000636DA3891B1823F48053ACBF6365A38156
:103B000010BD2DE9F0411F468B89DB0505460C46AB
:103B1000164605D502230022B1F90E1000F068F810
:103B2000A389B4F90E1023F48053A38132463B4697
:103B30002846BDE8F04100F017B810B50C46B1F9C1
:103B40000E1000F055F8431CA38915BF606523F4DF
:103B5000805343F48053A38118BFA38110BDB1F9F2
:103B60000E1000F013B8000038B5074C05460846A3
:103B70001146002222601A46FEF7DDFF431C02D1E7
:103B8000236803B12B6038BD9000002038B5064C87
:103B90000023054608462360FFF70CF8431C02D1BA
:103BA000236803B12B6038BD9000002038B5074C66
:103BB00000230546084611462360FFF70DF8431C15
:103BC00002D1236803B12B6038BD00BF90000020F4
:103BD00038B5064C0023054608462360FFF70EF86B
:103BE000431C02D1236803B12B6038BD9000002034
:103BF00038B5074C054608461146002222601A4691
:103C0000FFF70CF8431C02D1236803B12B6038BDC9
:103C1000900000207047704738B5074C05460846AD
:103C20001146002222601A46FFF70CF8431C02D10D
:103C3000236803B12B6038BD90000020F8B500BFA9
:103C4000F8BC08BC9E467047F8B500BFF8BC08BC7D
:043C50009E467047D5
:103C5400506172616D5F76616C75653D25642046C7
:103C64006375743D256C75204669636C6B3D256CEA
:103C740075200D0A000000002E2E2F5372632F535F
:103C8400657475705065726970682E630000000079
:103C940057726F6E6720706172616D6574657273BF
:103CA4002076616C75653A2066696C652025732001
:103CB4006F6E206C696E652025640D0A000000009B
:103CC40048656C6C6F2068756D616E2E20492061AB
:103CD4006D20416E616C6F67206D6F64756C652E2D
:103CE4000D00000053746172742073657475702044
:103CF4007065726970686572792053544D33324C23
:103D04003435322E2E2E2E2E0D00000046696E699B
:103D14007368207365747570207065726970686566
:103D240072792E205375636365737321200D00002F
:103D3400000000000404043C3C00000000000800F3
:103D4400000008000800000000000000000000005F
:103D5400010203040607080900000000010203042D
:103D6400A0860100400D0300801A060000350C00F7
:103D740040420F0080841E0000093D0000127A00BA
:103D84000024F40000366E010048E801006CDC02F7
:103D9400000000000000000000000000000000001F
:103DA400000000000000000000000000000000000F
:103DB40000000000000000000000000000000000FF
:103DC40000000000000000000000000000000000EF
:103DD40000000000000000000000000000000000DF
:103DE40000000000000000000000000000000000CF
:103DF40008000020232D302B2000686C4C006566E1
:103E04006745464700303132333435363738394127
:103E1400424344454600303132333435363738393D
:083E2400616263646566000041
:043E2C00C5010008C4
:043E3000A1010008E4
:103E340000093D000800002000000000B43D000817
:103E4400D43D0008943D000800000000000000007C
:103E5400000000000000000000000000000000005E
:103E6400000000000000000000000000000000004E
:103E7400000000000000000000000000000000003E
:103E8400000000000000000000000000000000002E
:083E9400000000000000000026
:0400000508002CD9EA
:00000001FF
