:020000040800F2
:1000000000800220D11B0008ED0A0008EF0A00085A
:10001000F10A0008F30A0008F50A000800000000D1
:10002000000000000000000000000000F70A0008C7
:10003000F90A000800000000FB0A0008FD0A000899
:10004000211C0008211C0008211C0008211C00089C
:10005000211C0008211C0008211C0008211C00088C
:10006000211C0008211C0008211C0008211C00087C
:10007000211C0008211C0008211C0008211C00086C
:10008000211C0008211C0008211C0008211C00085C
:10009000211C0008211C0008211C0008211C00084C
:1000A000211C0008211C0008211C0008211C00083C
:1000B000211C0008211C000800000000211C000871
:1000C000211C0008211C0008211C0008211C00081C
:1000D000211C0008010B0008211C0008211C00083D
:1000E000211C0008211C0008000000000000000086
:1000F0000000000000000000000000000000000000
:1001000000000000211C000800000000211C000865
:10011000211C000800000000211C00080000000055
:10012000211C0008211C0008211C0008211C0008BB
:10013000211C0008211C0008211C000800000000F0
:10014000211C0008211C0008211C0008211C00089B
:10015000211C0008211C0008211C0008211C00088B
:10016000211C0008211C0008211C000800000000C0
:1001700000000000211C000800000000000000003A
:10018000211C0008211C0008211C0008211C00085B
:04019000211C000826
:1001A00010B5054C237833B9044B13B10448AFF3B1
:1001B00000800123237010BD7000002000000000AB
:1001C0000C2B000808B5034B1BB103490348AFF3E0
:1001D000008008BD00000000740000200C2B000807
:1001E00001F0FF01102A2BDB10F0070F08D010F8E8
:1001F000013B013A8B422DD010F0070F42B3F6D1EC
:10020000F0B441EA012141EA014122F007047FF004
:1002100000070023F0E80256083C85EA010586EA5B
:10022000010685FA47F5A3FA87F586FA47F6A5FA97
:1002300087F68EB9EED1F0BC01F0FF0102F00702A3
:1002400032B110F8013B013A83EA010313B1F8D14E
:100250000020704701387047002D06BF354603382F
:10026000073815F0010F07D1013015F4807F02BF68
:10027000013015F4C03F0130F0BC0138704700BFB9
:1002800070B500F051F800F039FB1F4801F06AFD2D
:100290001E4801F067FD00F07BF800F09BF800F0CD
:1002A00033F900F093F900F0FFF9002000F052FA62
:1002B00000F0F0FA164801F055FD164C4FF480633B
:1002C000A362154D2E682021144800F0C5FB307044
:1002D0002A681378DB0043F0010353704FF4006386
:1002E000A3624FF48053A3620D4B1B6913F0040FFC
:1002F00004D00C4B4FF4D5721A85FEE72B68002111
:10030000187800F085FEF4E7242B0008482B00083D
:10031000702B000800080048000000200054004036
:10032000000C00480038014082B0164B1A6E42F0B3
:1003300001021A661A6E02F001020192019A9A6D88
:1003400042F080529A659B6D03F080530093009BAE
:100350000D4BD96821F4E0610904090C0B4A0A43EA
:10036000DA60DA6800221A76D9685A76D9689A76FD
:10037000D968DA77D96883F82020D96883F82220F1
:1003800002B070470010024000ED00E00003FA05E3
:1003900030B589B00D4BDA6C42F00402DA64DB6CE4
:1003A00003F004030193019B4FF4E05502950123F0
:1003B00003930022049205920693054C02A920465D
:1003C00000F09EFEA56109B030BD00BF00100240E4
:1003D000000800482DE9F0438BB0474BDA6C42F03F
:1003E0000102DA64DA6C02F001020392039ADA6C19
:1003F00042F00402DA64DA6C02F004020292029A19
:10040000DA6C42F00202DA64DA6C02F00202019263
:10041000019ADA6C42F00802DA64DB6C03F008033C
:100420000093009B38270497012505950024069426
:100430000794089504A94FF0904000F061FE4FF03A
:100440009046B76103230493059408942B4F04A9A5
:10045000384600F055FE04950594089404A93046EA
:1004600000F04EFE4FF44079CDF8109005950694BB
:100470000794089504A9384600F042FE4FF48078AE
:10048000CDF81080059506940794089504A9304688
:1004900000F036FEC7F82890C6F8188040F60749E5
:1004A000CDF810900595069407940894DFF85480D1
:1004B00004A9404600F024FEC8F828904FF0040834
:1004C000CDF810800594089404A9304600F018FE79
:1004D000CDF810800594089504A9094800F010FE95
:1004E0004FF4005304930594089404A9384600F08F
:1004F00007FE0BB0BDE8F083001002400008004882
:10050000000C00480004004870B590B02C4B1A6EE7
:1005100042F480421A661A6E02F480420292029AF3
:10052000DA6C42F00102DA64DB6C03F00103019340
:10053000019B4FF4C06303930223049303230593A9
:100540000025069507950723089303A94FF09040CF
:1005500000F0D6FD1B4B09934FF480560A960B957D
:100560000C950C230D930E950F95174C09A9204659
:1005700001F08AFA636843F400436360636823F41C
:1005800090436360A36823F02A03A360236843F0C9
:10059000010323604FF4C053039301230493059593
:1005A0000695079303A94FF0904000F0A9FD4FF086
:1005B00090434FF400629A629E6110B070BD00BF1C
:1005C00000100240404B4C00003801402DE9F04142
:1005D00094B0314D2B6823F040032B602F4B9A6D64
:1005E00042F480429A659A6D02F480420392039A23
:1005F000DA6C42F00402DA64DA6C02F0040202926D
:10060000029ADA6C42F00202DA64DB6C03F0020355
:100610000193019B0C2304934FF00208CDF8148042
:10062000032706970024079408940526099604A931
:100630001B4800F065FD4FF440530493CDF814803F
:10064000069707940894099604A9164800F058FDE7
:100650000A944FF482730B934FF4E0630C930D9460
:100660000E944FF480230F931094119412941394CA
:100670000AA9284600F0F8FF6B6823F010036B60AE
:100680006B6843F008036B602B6843F040032B60FA
:1006900014B0BDE8F08100BF0038004000100240F7
:1006A000000800480004004810B590B0254B9A6D32
:1006B00042F400129A659A6D02F400120292029AB4
:1006C000DA6C42F00202DA64DB6C03F0020301939D
:1006D000019BC02303930223049303230593012367
:1006E000069307930423089303A9174800F008FD15
:1006F000164C636843F000736360E36823F40043BF
:10070000E360236823F400232360236823F4003389
:100710002360002309930E4A0A920B930C930D93C6
:100720000E930F9309A9204600F083FDE36823F49C
:10073000FF6323F00603E360236843F001032360B3
:1007400010B010BD001002400004004800540040EA
:10075000EC9C901070B596B04C4BDA6C42F00102F4
:10076000DA64DB6C03F001030093009B18B10128ED
:1007700046D016B070BD0223039304930024059461
:10078000069407940126089603A94FF0904000F0C4
:10079000B7FC3E4B9A6D32439A659B6D3340019393
:1007A000019B11A801F0F0F8ADF8444012944FF20B
:1007B00061031393149411A94FF0804001F0EEF8F7
:1007C0004FF08045AB6823F4A03323F00703AB6000
:1007D000AB6943F40063AB6109A801F01FF9602322
:1007E00009930A960B9447F630030C930D9409AACB
:1007F0001021284601F01CF92B6833432B60B8E721
:10080000402303930223049300250595069507953D
:10081000089303A94FF0904000F072FC1B4B9A6DB7
:1008200042F002029A659B6D03F002030293029B61
:1008300011A801F0A9F8ADF8445012954FF26103E8
:1008400013931495124C11A9204601F0A7F8A36840
:1008500023F4A03323F00703A360A36943F0080344
:10086000A36109A801F0DAF86023099301210A9134
:100870000B9547F630030C930D9509AA204601F01D
:10088000D7F8236843F00103236072E700100240A9
:1008900000040040114BDA68C2F30222C2F10703E0
:1008A000042B28BF04231946131D062B14D9033A21
:1008B0004FF0FF338B40DB4303F0010393401B01F8
:1008C000DBB2074A82F8253306490B6843F0200360
:1008D0000B602023536070470022E9E700ED00E041
:1008E00000E100E00038014008B50A460146024830
:1008F00001F0C4F908BD00BFA82B000838B54D4A67
:10090000136823F0070343F004031360136803F034
:100910000703042B40F08680474A136823F4C06322
:1009200043F400731360454B1A6842F480221A6046
:100930001A6842F480321A60404B1B6813F4003F7F
:10094000FAD03E4AD2F8943043F00103C2F8943012
:100950003A4BD3F8943013F0020FF9D0374AD168EC
:10096000374B0B4043F4206343F00303D360136819
:1009700043F080731360D36843F08073D3602F4BD0
:100980001B6813F0007FFAD02C4A936843F00303EE
:1009900093602A4B9B6803F00C030C2BF9D1274C76
:1009A000A36823F0F003A360A36823F4E063A360CB
:1009B000A36823F46053A360224D284601F0CEF8CB
:1009C000214A136843F004031360284601F0D6F867
:1009D000D4F8883023F0030343F00103C4F88830CF
:1009E0001A4A136823F4405343F480531360184B9E
:1009F000DA68C2F30222C2F10703042B28BF0423E2
:100A00001946131D062B12D9033A4FF0FF338B40C2
:100A1000DB4303F00F0393401B01DBB20C4A82F867
:100A2000233038BD46210B48FFF75EFF74E70022F4
:100A3000EBE700BF002002400070004000100240C1
:100A40008C80FFF900B4C40410E000E0881002407C
:100A500000ED00E0942B000810B54900836913F401
:100A6000004FFBD1436823F07F7323F45F3323F4FB
:100A70007F7323F0030341F0004242F490321343AA
:100A80004360836913F0010FFBD000238362836905
:100A900013F0010FFBD0836913F0400FFBD04368C4
:100AA00023F07F7323F45F3323F47F7323F0030376
:100AB00041F0024141F4923119434160836913F0DE
:100AC000200FFBD0836913F0040FFBD0446A04F0BD
:100AD0001F04C36943F02003C3612146024801F0AB
:100AE000CDF8204610BD00BFD82B00087047FEE7A8
:100AF000FEE7FEE7FEE7704770477047704700006B
:100B00001D4BDB6913F0200F25D01B4B9B8C9BB238
:100B1000C3F3080213F4807F18D0D3B2174A1268C7
:100B2000517899420CD01BB11278B2EBD30F12D18D
:100B3000134A11680B70136801221A715A717047B9
:100B40000F4B1B680122DA719A7170470C4B1B68BE
:100B50005979012900D0704719795A54084B1A68FD
:100B600013790133DBB21371042BF4D10123937198
:100B700000235371EFE700BF003801400000002060
:100B8000040000200023934223DA10B40CE000BFDD
:100B90004FF0604109680029F9D04FF060410870BA
:100BA00001332146934210DA4C1C08784FF0604123
:100BB000D1F8801E11F0010FF2D04FF06041D1F852
:100BC000001E11F0010FEBD0E2E710465DF8044B78
:100BD00070471046704700000346064A126822B16B
:100BE000044A1068034413607047024A02491160C6
:100BF000F6E700BF8C000020A8000020024B58221E
:100C00001A604FF0FF307047A4000020024B5822BA
:100C10001A604FF0FF307047A4000020024B5822AA
:100C20001A600020704700BFA4000020024B582229
:100C30001A604FF0FF307047A4000020024B58228A
:100C40001A604FF0FF307047A400002038B500EB69
:100C5000800253001A460A2B14D040F2F544A342F6
:100C600036D83C4CA4FB03542409322505FB14342C
:100C700024B95A1D642303FB02F305E0642404FB3A
:100C800003F301E040F21453334C2468B4FBF3F453
:100C900001BB4FF080410D6825F001050D60002576
:100CA0004D62651ECD626408013C8C630C6844F0A3
:100CB00001040C600A2A26D0142A24D0A2F11501BE
:100CC000B1F59A7F2CD9B2F5A57F36D2012026E066
:100CD000224BD9E7012910D121490D6825F00105E2
:100CE0000D6000254D62651ECD626408013C4C63B9
:100CF0000C6844F001040C60DCE73B211948FFF765
:100D0000F3FD00200BE018494FF480748C624FF41F
:100D100000748C620146154800F0B0FF012038BD18
:100D200011494FF480748C614FF400748C62014659
:100D30000F4800F0A3FF0120F1E70B494FF4807446
:100D40008C624FF400748C6101460A4800F096FFF3
:100D50000120E4E71F85EB5108000020D0FB0100D3
:100D600000040040382C0008000800484C2C000803
:100D7000882C0008C42C000808B5032830D8DFE808
:100D800000F002101A244FF0904308229A611022BA
:100D90009A6120229A610121144800F06FFF01201E
:100DA00008BD4FF0904308229A6210229A612022D7
:100DB0009A610A21F0E74FF0904308229A611022CD
:100DC0009A6220229A616421E6E74FF0904308225C
:100DD0009A6110229A6120229A624FF47A71DBE7BD
:100DE0007F210348FFF780FD0020D9E7202C000871
:100DF000382C000808B50B2800F2FD80DFE810F061
:100E00000C002300360049005D0071008500990048
:100E1000AD00C000D500E8007A4B012199620222A2
:100E20009A6204229A624FF480629A624FF40062DE
:100E30009A624FF090434FF480729A61724800F0CA
:100E40001DFF012008BD6F4B01229A6102219962AA
:100E500004229A624FF480629A624FF400629A62AE
:100E60004FF090434FF480729A61E7E7654B01229F
:100E70009A6202229A61042199624FF480629A6216
:100E80004FF400629A624FF090434FF480729A617F
:100E9000D4E75C4B01229A6102229A6104229A6291
:100EA0004FF480629A624FF400629A624FF090436E
:100EB0004FF480729A610821C0E7524B01229A6276
:100EC00002229A6204229A614FF480629A624FF47D
:100ED00000629A624FF090434FF480729A61102141
:100EE000ACE7484B01229A6102229A6204229A617D
:100EF0004FF480629A624FF400629A624FF090431E
:100F00004FF480729A61202198E73E4B01229A6249
:100F100002229A6104229A614FF480629A624FF42D
:100F200000629A624FF090434FF480729A614021C0
:100F300084E7344B01229A6102229A6104229A6169
:100F40004FF480629A624FF400629A624FF09043CD
:100F50004FF480729A61802170E72A4B01229A62D5
:100F600002229A6204229A624FF480629A614FF4DC
:100F700000629A624FF480714FF0904399615DE78F
:100F8000204B01229A6102229A6204229A624FF453
:100F900080629A614FF400629A624FF090434FF47E
:100FA00080729A614FF4007148E7164B01229A62F1
:100FB00002229A6104229A624FF4806199614FF48F
:100FC00000629A624FF090434FF480729A6135E765
:100FD0000C4B01229A6202229A6104229A624FF417
:100FE00080629A614FF4006199624FF090434FF430
:100FF00080729A6222E74FF482710448FFF774FC12
:1010000000201FE7000400482C2C0008382C0008A2
:1010100070B50E4600F00705C408374800F0A2FE80
:10102000072D42D8DFE805F00410171E252C333AAF
:101030000020FFF7A1FE0020FFF7DCFE032C53D8B1
:10104000DFE804F03A40464C0120FFF795FE00200F
:10105000FFF7D0FEF2E70120FFF78EFE0120FFF739
:10106000C9FEEBE70120FFF787FE0220FFF7C2FE73
:10107000E4E70220FFF780FE0020FFF7BBFEDDE77C
:101080000220FFF779FE0120FFF7B4FED6E7022029
:10109000FFF772FE0220FFF7ADFECFE70320FFF758
:1010A0006BFE0B20FFF7A6FEC8E740F24D11134878
:1010B000FFF71AFC002004E031460120FFF7C6FDCF
:1010C000012070BD31461E20FFF7C0FD0120F8E76A
:1010D00031464620FFF7BAFD0120F2E73146642091
:1010E000FFF7B4FD0120ECE74FF4B2710348FFF7BE
:1010F000FBFB0020E5E700BFF02B0008382C0008C0
:10110000F0B40A6892FAA2F2B2FA82F218E00E691A
:10111000C46893FAA3F5B5FA85F56D00032707FABD
:1011200005F524EA050493FAA3F5B5FA85F56D00F3
:1011300006FA05F52C43C4604C68022C36D0013207
:101140000B6833FA02F464D0012494402340F6D0B3
:101150004E68046893FAA3F5B5FA85F56D00032788
:1011600007FA05F524EA050493FAA3F5B5FA85F51F
:101170006D0006FA05F52C4304604C68013C012C17
:10118000C5D88E68846893FAA3F5B5FA85F56D0025
:1011900007FA05F524EA050493FAA3F5B5FA85F5EF
:1011A0006D0006FA05F52C438460B0E793FAA3F4CA
:1011B000B4FA84F4072C15D84D69046A93FAA3F69F
:1011C000B6FA86F6B6000F2707FA06F624EA0604F2
:1011D00093FAA3F3B3FA83F39B0005FA03F32343D3
:1011E0000362ACE74C69456A1B0A93FAA3F6B6FAA8
:1011F00086F6B6000F2707FA06F625EA060593FAE3
:10120000A3F3B3FA83F39B0004FA03F32B43436283
:1012100095E74A68013A012A02D90120F0BC7047DB
:10122000C968426822EA030201FB03F313434360E7
:10123000F3E710B4036823F0010303608A68CC6805
:10124000036823F4F85342EA0422134303604B6813
:101250000361036843F001030360836823F40043E0
:1012600083600A698C69836823F4FF6323F00703B2
:101270002243134383600B691BB1836843F400432B
:1012800083600B68026822F44012134303604B69C9
:10129000426822F400421343436001205DF8044B8E
:1012A00070470000034B9B68C3F30313024AD35CEF
:1012B000D840704700100240002D0008034B9B6887
:1012C000C3F30223024AD35CD840704700100240A7
:1012D000102D0008034B9B68C3F3C223024AD35C62
:1012E000D840704700100240102D0008394BDB68D1
:1012F00003F00303012B16D0002B3FD0364A354BA9
:10130000D868C0F302100130B2FBF0F2D868C0F325
:10131000062000FB02F0DB68C3F3416301335B008E
:10132000B0FBF3F070472B4B1B6813F0080F11D183
:10133000284B1B6813F0080F06D0264B1B680023B0
:10134000264A52F82320DAE7224BD3F89430C3F32D
:101350000323F5E71F4B1B6813F0080F07D01D4B45
:101360001B68C3F303131D4A52F82320C7E7194B28
:10137000D3F894301B0903F0F003F4E7154B1B6816
:1013800013F0080F11D1134B1B6813F0080F06D090
:10139000104B1B680023114A52F82320AFE70D4B76
:1013A000D3F89430C3F30323F5E70A4B1B6813F01B
:1013B000080F07D0074B1B68C3F30313074A52F803
:1013C00023209CE7034BD3F894301B0903F0F00370
:1013D000F4E700BF001002400024F400182D0008BC
:1013E00008B5354B9B6803F00C030C2B36D8DFE8AF
:1013F00003F0073535356035353560353535320024
:101400002D4B1B6813F0080F11D12B4B1B6813F0E9
:10141000080F06D0284B1B680023284A52F82300E7
:1014200048E0254BD3F89430C3F30323F5E7224B70
:101430001B6813F0080F07D01F4B1B68C3F303137F
:101440001E4A52F8230035E01B4BD3F894301B0999
:1014500003F0F003F4E7FFF749FF2BE0164B1B689E
:1014600013F0080F11D1144B1B6813F0080F06D0AE
:10147000114B1B680023114A52F823001AE00E4B4F
:10148000D3F89430C3F30323F5E70B4B1B6813F039
:10149000080F07D0084B1B68C3F30313074A52F821
:1014A000230007E0044BD3F894301B0903F0F0034A
:1014B000F4E7034808BD00BF00100240182D0008E3
:1014C0000024F40008B5032805D00C282BD03028C0
:1014D00051D0002008BD434BD3F88830034043EA85
:1014E0000040414B98420FD0B0F1031F13D0013B95
:1014F000984206D0FFF774FFFFF7D4FEFFF7EAFE2D
:10150000E8E7FFF76DFFE5E7364B1B6813F4806FE4
:1015100059D10020DEE7334BD3F8903013F0020F9F
:1015200053D10020D6E72F4BD3F88830034043EA4D
:1015300000402E4B98420FD0B0F10C1F13D0043B4B
:10154000984206D0FFF74CFFFFF7ACFEFFF7B6FE60
:10155000C0E7FFF745FFBDE7224B1B6813F4806F20
:1015600036D10020B6E71F4BD3F8903013F0020FAE
:1015700030D10020AEE71B4BD3F88830034043EA5C
:1015800000401B4B98420FD0B0F1301F13D0103BDE
:10159000984206D0FFF724FFFFF784FEFFF78EFE88
:1015A00098E7FFF71DFF95E70E4B1B6813F4806F5C
:1015B00013D100208EE70B4BD3F8903013F0020FBD
:1015C0000DD1002086E70B4884E74FF4004081E707
:1015D00008487FE74FF400407CE706487AE74FF47D
:1015E000004077E7001002400200030008000C00F2
:1015F000200030000024F400C02801D000207047F3
:1016000008B5164BD3F88830034043EA0040144B2A
:1016100098420FD0B0F1C01F13D0403B984206D083
:10162000FFF7DEFEFFF73EFEFFF748FE01E0FFF7A3
:10163000D7FE08BD094B1B6813F4806F09D1002049
:10164000F7E7064BD3F8903013F0020F03D10020D8
:10165000EFE70448EDE74FF40040EAE700100240EE
:101660008000C0000024F400036813F0400F2CD168
:1016700010B4026822F47F4222F0BF020B684C686B
:101680002343CC6823430C6923434C6923438C696F
:101690002343CC6923430C6A234313430360436809
:1016A00023F4706323F004038A68CC8A2243134333
:1016B00043600B6AB3F5005F03D001205DF8044B73
:1016C00070478B8C03610120F8E700207047000011
:1016D00030B4036A23F001030362036A4268846939
:1016E00024F4803424F073040D682C4323F00203A7
:1016F0000D692B4323F001034D682B43124DA84283
:1017000007D005F5A055A84203D005F58065A8428D
:1017100012D123F008034D6943EA850323F0040343
:101720008D6843EA850322F480728D692A4322F48E
:101730000072CD6942EA450242608461CA68426330
:101740000362012030BC7047002C014030B4036AB2
:1017500023F010030362036A4268846924F08074F2
:1017600024F4E6440D6844EA052423F020030D69BF
:1017700043EA051323F010034D6843EA0513134DA4
:10178000A84207D005F5A055A84203D005F580650D
:10179000A84213D123F080034D6943EA851323F057
:1017A00040038D6843EA851322F480628D6942EA22
:1017B000850222F40062CD6942EAC502426084617A
:1017C000CA6882630362012030BC7047002C01406C
:1017D00030B4036A23F480730362036A4268C46905
:1017E00024F4803424F073040D682C4323F4007334
:1017F0000D6943EA052323F480734D6843EA05230A
:10180000134DA84207D005F5A055A84203D005F511
:101810008065A84213D123F400634D6943EA852310
:1018200023F480638D6843EA852322F480528D6916
:1018300042EA051222F40052CD6942EA45124260A2
:10184000C461CA68C2630362012030BC704700BF34
:10185000002C014030B4036A23F480530362036A0E
:101860004468C26922F0807222F4E6420D6842EABE
:10187000052223F400530D6943EA053323F4805312
:101880004D6843EA05330C4DA84207D005F5A05535
:10189000A84203D005F58065A84204D124F4804411
:1018A0008D6944EA85144460C261CA6802640362B7
:1018B000012030BC704700BF002C014030B4036AE7
:1018C00023F480330362036A426D22F4803222F0F3
:1018D00070020C68224323F400330C6943EA04438A
:1018E00023F480334C6843EA04430C4CA04207D0F5
:1018F00004F5A054A04203D004F58064A04206D1B0
:10190000446824F480348D6944EA052444604265C7
:10191000CA6882650362012030BC7047002C014018
:1019200030B4036A23F480130362036A426D22F029
:10193000807222F4E0420C6842EA042223F400138D
:101940000C6943EA045323F480134C6843EA0453BC
:101950000C4CA04207D004F5A054A04203D004F5DB
:101960008064A04206D1446824F480248D6944EA4E
:10197000852444604265CA68C2650362012030BCA8
:10198000704700BF002C01400023038043604FF0EC
:10199000FF328260C36003747047000003681E4A10
:1019A000904206D0B0F1804F03D0A2F5943290421D
:1019B00003D123F070034A681343174A90420ED0B4
:1019C000B0F1804F0BD0A2F59432904207D002F5CF
:1019D0009E32904203D002F58062904203D123F4FC
:1019E0004073CA68134303608B68C3620B888362C9
:1019F000094B984207D003F5A053984203D003F552
:101A00008063984201D10B7C0363436943F0010377
:101A100043610120704700BF002C01400023036098
:101A200043608360C360036143618361C361704746
:101A300008B5B1F5807F17D00AD9B1F5803F1BD02A
:101A4000B1F5801F1CD0B1F5805F11D000200AE0F5
:101A5000012905D01029F9D11146FFF777FE02E0E0
:101A60001146FFF735FE08BD1146FFF7B1FEFAE754
:101A70001146FFF7EFFEF6E71146FFF71FFFF2E70B
:101A80001146FFF74DFFEEE738B5036813F0010F7D
:101A900053D10D46044603682B4A1A404B68C96867
:101AA0000B4329690B43A9690B4313430360AB68DC
:101AB000426822F44052134343606B69826822F407
:101AC000407213438360214B98420AD0204B9842C6
:101AD00019D0204B98421AD01F4B98421BD000209F
:101AE0002CE00320FFF7EEFC48B32A684AB3AB6949
:101AF000B3F5004F13D000EB5203B3FBF2F39BB2EC
:101B0000E36001201AE00C20FFF7DCFCECE730205A
:101B1000FFF7D8FCE8E7C020FFF76EFDE4E75308C5
:101B200003EB4003B3FBF2F34FF6F0721A40C3F33A
:101B300042031343E360012000E0002038BD002091
:101B4000FCE70020FAE700BFF369FFEF003801402F
:101B50000044004000480040004C0040054BA3FBFF
:101B6000003080090138044B586000229A60052239
:101B70001A607047D34D621010E000E0014B18600E
:101B8000704700BF080000200F49D1F8883043F4A7
:101B90007003C1F888300D4B1A6842F001021A60D8
:101BA000002098601A6822F0A85222F410221A60CD
:101BB0004FF48052DA601A6822F480221A60986129
:101BC0004FF000638B60704700ED00E000100240B2
:101BD000DFF834D0002103E00C4B5B584350043154
:101BE0000B480C4B42189A42F6D30B4A02E00023F2
:101BF00042F8043B094B9A42F9D3FFF7C5FF00F0C6
:101C000011F8FEF73DFBFEE700800220E82D0008FA
:101C1000000000207000002070000020A8000020BC
:101C2000FEE7000070B50D4E0D4CA41BA41000255E
:101C3000A54209D10B4E0C4C00F068FFA41BA41068
:101C40000025A54205D170BD56F8253098470135CD
:101C5000EEE756F8253098470135F2E7E02D000809
:101C6000E02D0008E02D0008E42D000802440346A2
:101C7000934200D1704703F8011BF9E70FB40A4BF8
:101C800013B51C6824B1A36913B9204600F022FAE9
:101C900005AB049AA1680193204600F0DBFB02B07B
:101CA000BDE8104004B070470C00002070B50E462F
:101CB000054618B183690BB900F00CFAAB69AC6842
:101CC00013B9284600F006FA234B9C4217D16C68E2
:101CD000A3891B071DD52369DBB1013EA36816F854
:101CE000011F013BA360E9B9002B2EDA22460A212D
:101CF000284600F03FF8013011D00A2011E0174BC0
:101D00009C4201D1AC68E3E7154B9C4208BFEC68EC
:101D1000DEE72146284600F07FF80028DDD04FF0AE
:101D2000FF3070BD002B04DAA2699A4206DC0A2952
:101D300004D023685A1C22601970CFE72246284637
:101D400000F018F80130C9D1E9E723680A205A1CCD
:101D500022601870E5E700BF6C2D00088C2D00088C
:101D60004C2D0008024B01461868FFF79FBF00BFCB
:101D70000C000020F8B50E461446054618B18369DC
:101D80000BB900F0A7F9214B9C422AD16C68A369DA
:101D9000A360A3891A072ED5236963B3236920683A
:101DA000C01A6369F6B28342374604DC21462846EE
:101DB00000F026F928BBA368013BA36023685A1CE6
:101DC00022601E7063690130834204D0A389DB075F
:101DD00019D50A2E17D12146284600F011F990B1E5
:101DE0000FE00B4B9C4201D1AC68D0E7094B9C4201
:101DF00008BFEC68CBE72146284600F00DF8002824
:101E0000CCD04FF0FF373846F8BD00BF6C2D00082E
:101E10008C2D00084C2D0008324B70B51D6806460D
:101E20000C4625B1AB6913B9284600F053F92E4B87
:101E30009C420FD16C68B4F90C309AB215072CD4BF
:101E4000D00611D40922326043F04003A3814FF041
:101E5000FF303EE0254B9C4201D1AC68EBE7244BC0
:101E60009C4208BFEC68E6E7510712D5616B41B1AF
:101E700004F14403994202D0304600F019FA0023DD
:101E80006363A38923F02403A38100236360236990
:101E90002360A38943F00803A38123694BB9A38975
:101EA00003F42073B3F5007F03D02146304600F0E1
:101EB000BFF9A28912F001030CD00023A36063696B
:101EC0005B42A361236953B9B4F90C3013F080006D
:101ED000BAD170BD920758BF6369A360F2E70020D2
:101EE000F7E700BF0C0000206C2D00088C2D0008C7
:101EF0004C2D00088A892DE9F041054610070C4653
:101F000058D44B68002B05DC0B6C002B02DC002046
:101F1000BDE8F081E66A002EF9D0002312F4805269
:101F20002F68216A2B6032D0606DA3895A0705D5CE
:101F30006368C01A636B0BB1236CC01A002302469E
:101F4000E66A216A2846B047431CA38906D129685E
:101F50001D2948D8294ACA40D60744D500226260C4
:101F6000D9042269226004D5421C01D12B6803B92F
:101F70006065616B2F600029C9D004F14403994268
:101F800002D0284600F094F900206063C0E70123E6
:101F90002846B047411CC8D12B68002BC5D01D2B4B
:101FA00001D0162B01D12F60B1E7A38943F0400384
:101FB000A381ADE70F69002FA9D093070E6808BF72
:101FC0004B690F6018BF0023A6EB07088B60B8F1C0
:101FD000000F9CDD43463A46216AA66A2846B04770
:101FE000002806DCA38943F04003A3814FF0FF30B3
:101FF0008EE70744A8EB0008E9E700BF0100402096
:1020000038B50B6905460C46DBB118B183690BB9CD
:1020100000F060F80C4B9C4209D16C68B4F90C30AC
:102020007BB121462846BDE83840FFF763BF074B28
:102030009C4201D1AC68F1E7054B9C4208BFEC68BB
:10204000ECE7002038BD00BF6C2D00088C2D000887
:102050004C2D0008002310B50446C0E9003383600E
:1020600081814366C281C0E9043383611946082235
:102070005C30FFF7FBFD054B6362054BA362054B2C
:10208000E362054B2462236310BD00BFB129000841
:10209000D32900080B2A00082F2A0008014900F064
:1020A00085B800BF0120000870B54A1E6825554359
:1020B0000E4605F1740100F049F9044640B10021D3
:1020C000C0E900160C30A06005F16802FFF7CEFDF4
:1020D000204670BD836910B5044633BBC0E9123396
:1020E0000365124B124A1B688262984204BF0123A7
:1020F000836100F01FF86060204600F01BF8A060CC
:10210000204600F017F80022E06004216068FFF725
:10211000A1FF01220921A068FFF79CFF02221221E2
:10212000E068FFF797FF0123A36110BD482D000869
:102130009D200008F8B51B4B1E68B369074613B90C
:102140003046FFF7C7FF4836D6E90134013B03D5D7
:10215000336833B13668F7E7B4F90C506DB16834C1
:10216000F4E704213846FFF79FFF30600028F1D1E3
:102170000C233B6004462046F8BD0B4B6566C4E962
:102180000055A560C4E90335C4E905550822294670
:1021900004F15C00FFF76AFDC4E90D55C4E912556E
:1021A000E9E700BF482D00080100FFFF2DE9F843D3
:1021B0008046894600F14804002614B93046BDE83F
:1021C000F883D4E90175013F01D52468F5E7AB89AF
:1021D000012B07D9B5F90E30013303D0294640460B
:1021E000C84706436835EEE770B50E46B1F90E10E4
:1021F000002996B014461D4607DA00232B60B389E8
:102200001A0610D44FF480630EE06A4600F036FCE4
:102210000028F2DB019A02F47042A2F500535A4200
:102220005A412A60EEE740230020236016B070BDBB
:102230008B8973B59D0706460C4607D504F1470305
:10224000236023610123636102B070BD01AB6A4664
:10225000FFF7CAFF00990546304600F077F848B905
:10226000B4F90C309A05EFD423F0030343F00203D2
:10227000A381E3E70D4BB362A389206043F08003A1
:10228000A381009B6361019B20615BB1B4F90E10D7
:10229000304600F005FC28B1A38923F0030343F086
:1022A0000103A381A3891D43A581CDE79D200008DB
:1022B00038B50546002945D051F8043C0C1F002BC9
:1022C000B8BFE41800F00EFC1F4A1368104633B97B
:1022D000636014602846BDE8384000F004BCA342A7
:1022E0000CD921686218934204BF1A685B68636066
:1022F00004BF521822600460ECE713465A680AB122
:10230000A242FAD919685818A0420BD1206801449A
:10231000581882421960DDD1106852685A60014431
:102320001960D7E702D90C232B60D3E72068211866
:102330008A4204BF11685268626004BF09182160B4
:102340005C60C7E738BD00BF9000002070B5CD1CB1
:1023500025F0030508350C2D38BF0C25002D064649
:1023600001DBA94203D90C233360002070BD00F0CB
:10237000B9FB214A1468214691B9204C23681BB946
:10238000304600F005FB20602946304600F000FB97
:10239000431C24D10C233360304600F0A4FBE4E757
:1023A0000B685B1B18D40B2B0FD90B60CD50CC18CE
:1023B000304600F098FB04F10B00231D20F00700CD
:1023C000C31AD3D05A42E250D0E78C424B6816BFB2
:1023D000636013600C46EBE70C464968CCE7C41C0D
:1023E00024F00304A04205D0211A304600F0D0FAB0
:1023F0000130CFD02560DBE7900000209400002062
:102400009368013B002B10B4936008DA9469A342EF
:1024100001DB0A2903D15DF8044BFFF7ABBC13685D
:10242000581C1060197008465DF8044B7047F8B5E9
:1024300006460F461446D518AC4201D1002007E0ED
:102440003A4614F8011B3046FFF7DAFF431CF3D17C
:10245000F8BD00002DE9F04F0C469DB017461D4613
:10246000064618B183690BB9FFF734FE7C4B9C42DA
:1024700058D17468A38918075ED52369002B5BD0F7
:102480000023099320238DF8293030238DF82A303A
:1024900003954FF0010BB846454615F8013B0BB1CB
:1024A000252B54D1B8EB070A0BD053463A462146A8
:1024B0003046FFF7BCFF013000F0C280099B534457
:1024C000099398F80030002B00F0BA8000234FF0F9
:1024D000FF32CDE90523049307938DF853301A9307
:1024E000A846052218F8011B5E48FDF779FE049BFB
:1024F00078BBD90644BF20228DF853201A0744BF69
:102500002B228DF853202A782A2A2AD0079AA84607
:1025100000200A25414611F8013B303B092B69D9BF
:1025200060B324E0504B9C4201D1B468A2E74F4B0A
:102530009C4208BFF4689DE721463046FFF76CFCDB
:1025400000289DD04FF0FF301DB0BDE8F08FA846A9
:10255000A2E7444A801A0BFA00F01843049045465B
:10256000BEE7039A111D12680391002A01DB07924E
:1025700004E0524243F002030792049398F80030BB
:102580002E2B0ED198F801302A2B38D1039B1A1D1F
:102590001B680392002BB8BF4FF0FF3308F102080D
:1025A0000593334D98F8001003222846FDF718FED6
:1025B00040B14023401B03FA00F0049B034308F1A1
:1025C0000108049398F800102A488DF82810062274
:1025D00008F10107FDF704FE002837D0264B1BBB8E
:1025E000039B073323F0070308330393099B4B44F2
:1025F000099350E705FB0232012088468AE7002351
:1026000008F10108059319460A25404610F8012BE8
:10261000303A092A03D9002BC3D00591C1E705FB45
:10262000012101238046F0E703AB00932246134BC0
:1026300004A93046AFF30080B0F1FF3F8146D5D109
:10264000A3895B063FF57EAF09987DE703AB009356
:1026500022460A4B04A9304600F088F8ECE700BF98
:102660006C2D0008AC2D00088C2D00084C2D0008A6
:10267000B22D0008B62D0008000000002F2400082D
:102680002DE9F04791461F468A680B69DDF82080E6
:102690009342B8BF1346C9F8003091F8432006466C
:1026A0000C4612B10133C9F800302368990642BFC5
:1026B000D9F800300233C9F80030256815F0060556
:1026C00007D104F1190AE368D9F800209B1AAB423C
:1026D00028DC94F843302268003318BF01239206A7
:1026E0002DD404F1430239463046C047013020D092
:1026F0002368E568D9F8002003F00603042B08BF1F
:10270000AD1AA36822690CBF25EAE575002593423E
:10271000C4BF9B1AED184FF000091A344D451AD169
:10272000002008E00123524639463046C0470130B8
:1027300003D14FF0FF30BDE8F0870135C3E7E11862
:102740005A1C302081F84300224494F8451082F846
:1027500043100233C5E70123224639463046C047BD
:102760000130E6D009F10109D8E700002DE9F04376
:1027700001F1430C0C46097E85B06E2917460646CA
:1027800098460C9A00F0B38022D8632936D00AD834
:10279000002900F0B980582900F0838004F1420537
:1027A00084F8421032E0642901D06929F6D120680A
:1027B0001368050603F104012AD51B681160002B7C
:1027C00003DA2D225B4284F843206F480A2239E065
:1027D000732900F09D8008D86F2920D07029DDD1A1
:1027E000236843F02003236003E0752917D078297C
:1027F000D4D1782384F84530644855E01368191D16
:102800001B68116004F1420584F8423001238CE01A
:102810001B68116010F0400F18BF1BB2CFE71368A0
:102820002568181D1060280601D51B6802E068069F
:10283000FBD51B8854486F2914BF0A2208220021A7
:1028400084F843106568A560002DC0F2958021686A
:1028500021F004012160002B3DD1002D40F08E803D
:102860006546082A0BD12368DB0708D5236962680F
:102870009A42DEBF302305F8013C05F1FF35ACEB91
:1028800005032361CDF800803B4603AA214630466C
:10289000FFF7F6FE01304DD14FF0FF3005B0BDE837
:1028A000F083394884F84510136821681D1D1B68A2
:1028B00015600A060BD5CA0744BF41F0200121600C
:1028C0001BB9226822F0200222601022B7E74D06D1
:1028D00048BF9BB2EFE76546B3FBF2F102FB113351
:1028E000C35C05F8013D0B460029F5D1B9E7136833
:1028F00025686169181D106028061B6801D51960DC
:1029000002E06A06FBD51980002323616546B9E71A
:102910001368191D11601D68626800212846FDF7C3
:102920005FFC08B1401B606063682361002384F88A
:102930004330A7E723692A4639463046C04701306D
:10294000AAD023689B0713D4E068039B9842B8BFC2
:102950001846A3E701234A4639463046C0470130AE
:102960009AD00135E368039A9B1AAB42F2DCEBE79D
:10297000002504F11909F5E7002BACD1037884F8A0
:10298000423004F142056CE7BD2D0008CE2D000851
:1029900038B5064C0023054608462360FEF71CF9AF
:1029A000431C02D1236803B12B6038BDA400002072
:1029B00010B50C46B1F90E1000F096F80028ABBF28
:1029C000636DA3891B1823F48053ACBF6365A38197
:1029D00010BD2DE9F0411F468B89DB0505460C46ED
:1029E000164605D502230022B1F90E1000F068F852
:1029F000A389B4F90E1023F48053A38132463B46D9
:102A00002846BDE8F04100F017B810B50C46B1F902
:102A10000E1000F055F8431CA38915BF606523F420
:102A2000805343F48053A38118BFA38110BDB1F933
:102A30000E1000F013B8000038B5074C05460846E4
:102A40001146002222601A46FEF79CF8431C02D170
:102A5000236803B12B6038BDA400002038B5064CB4
:102A60000023054608462360FEF7C8F8431C02D140
:102A7000236803B12B6038BDA400002038B5074C93
:102A800000230546084611462360FEF7BFF8431CA5
:102A900002D1236803B12B6038BD00BFA400002021
:102AA00038B5064C0023054608462360FEF7B6F805
:102AB000431C02D1236803B12B6038BDA400002061
:102AC00038B5074C054608461146002222601A46D2
:102AD000FEF7ACF8431C02D1236803B12B6038BD6C
:102AE000A40000207047704738B5074C05460846DB
:102AF0001146002222601A46FEF7A0F8431C02D1BC
:102B0000236803B12B6038BDA4000020F8B500BFD6
:102B1000F8BC08BC9E467047F8B500BFF8BC08BCBE
:042B20009E46704716
:102B240048656C6C6F2068756D616E2E204920615C
:102B34006D20416E616C6F67206D6F64756C652EDE
:102B44000D000000537461727420736574757020F5
:102B54007065726970686572792053544D33324CD4
:102B64003435322E2E2E2E2E0D00000046696E694D
:102B74007368207365747570207065726970686518
:102B840072792E205375636365737321200D0000E1
:102B94005372632F53657475705065726970682E33
:102BA4006300000057726F6E6720706172616D651B
:102BB400746572732076616C75653A2066696C651C
:102BC400202573206F6E206C696E652025640D0AC4
:102BD4000000000041646472657373204D6F647576
:102BE4006C653D2564200D0A000000000D0A4D614E
:102BF4006E75616C20636F6E666967757261746966
:102C04006F6E206F662074686520616E616C6F67FB
:102C1400206D6F64756C653A0D0000004B31203DEA
:102C2400202564200D0A00004B32203D202564201D
:102C34000D0A00005372632F636F6E665F615F6DF0
:102C44006F64756C652E6300506172616D5F7661AF
:102C54006C75653D25642020466375743D256C754F
:102C6400487A20204669636C6B3D256C75487A2050
:102C740020465F5341303D3020465F5341313D3063
:102C84000D0A0000506172616D5F76616C75653D7F
:102C940025642020466375743D256C75487A202090
:102CA4004669636C6B3D256C75487A2020465F53FA
:102CB40041303D3120465F5341313D300D0A000023
:102CC400506172616D5F76616C75653D256420208D
:102CD400466375743D256C75487A20204669636C9B
:102CE4006B3D256C75487A2020465F5341303D305A
:102CF40020465F5341313D310D0A000000000000C1
:102D04000000000001020304060708090000000097
:102D140001020304A0860100400D0300801A06008E
:102D240000350C0040420F0080841E0000093D0065
:102D340000127A000024F40000366E010048E80115
:102D4400006CDC0210000020000000000000000005
:102D5400000000000000000000000000000000006F
:102D6400000000000000000000000000000000005F
:102D7400000000000000000000000000000000004F
:102D8400000000000000000000000000000000003F
:102D9400000000000000000000000000000000002F
:102DA4000000000000000000232D302B2000686C80
:102DB4004C0065666745464700303132333435365A
:102DC4003738394142434445460030313233343593
:0C2DD400363738396162636465660000C0
:042DE000C501000821
:042DE400A101000841
:102DE800980000209C00002000093D0010000020F1
:102DF800000000006C2D00088C2D00084C2D0008E8
:102E080000000000000000000000000000000000BA
:102E180000000000000000000000000000000000AA
:102E2800000000000000000000000000000000009A
:102E3800000000000000000000000000000000008A
:102E4800000000000000000000000000000000007A
:0400000508001BD103
:00000001FF
