:020000040800F2
:10000000008002208D2F0008331E0008351E0008D6
:10001000371E0008391E00083B1E000800000000C3
:100020000000000000000000000000003D1E00086D
:100030003F1E000800000000411E0008431E00088B
:10004000DD2F0008DD2F0008DD2F0008DD2F000860
:10005000DD2F0008DD2F0008DD2F0008DD2F000850
:10006000DD2F0008DD2F0008DD2F0008DD2F000840
:10007000DD2F0008DD2F0008DD2F0008DD2F000830
:10008000DD2F0008DD2F0008DD2F0008DD2F000820
:10009000DD2F0008DD2F0008DD2F0008151F0008E8
:1000A000DD2F0008DD2F0008DD2F0008DD2F000800
:1000B000DD2F0008DD2F000800000000DD2F000804
:1000C000DD2F0008DD2F0008DD2F0008DD2F0008E0
:1000D000DD2F0008451E0008DD2F0008DD2F000879
:1000E000D51E0008DD2F0008000000000000000001
:1000F0000000000000000000000000000000000000
:1001000000000000DD2F000800000000DD2F0008C7
:10011000DD2F000800000000DD2F000800000000B7
:10012000DD2F0008DD2F0008DD2F0008DD2F00087F
:10013000DD2F0008DD2F0008DD2F00080000000083
:10014000DD2F0008DD2F0008DD2F0008DD2F00085F
:10015000DD2F0008DD2F0008DD2F0008DD2F00084F
:10016000DD2F0008DD2F0008DD2F00080000000053
:1001700000000000DD2F000800000000000000006B
:10018000DD2F0008DD2F0008DD2F0008DD2F00081F
:04019000DD2F000857
:1001A00010B5054C237833B9044B13B10448AFF3B1
:1001B00000800123237010BD7400002000000000A7
:1001C000C83E000808B5034B1BB103490348AFF311
:1001D000008008BD0000000078000020C83E000834
:1001E00001F0FF01102A2BDB10F0070F08D010F8E8
:1001F000013B013A8B422DD010F0070F42B3F6D1EC
:10020000F0B441EA012141EA014122F007047FF004
:1002100000070023F0E80256083C85EA010586EA5B
:10022000010685FA47F5A3FA87F586FA47F6A5FA97
:1002300087F68EB9EED1F0BC01F0FF0102F00702A3
:1002400032B110F8013B013A83EA010313B1F8D14E
:100250000020704701387047002D06BF354603382F
:10026000073815F0010F07D1013015F4807F02BF68
:10027000013015F4C03F0130F0BC0138704700BFB9
:1002800081F0004102E000BF83F0004330B54FEA47
:1002900041044FEA430594EA050F08BF90EA020FB4
:1002A0001FBF54EA000C55EA020C7FEA645C7FEA47
:1002B000655C00F0E2804FEA5454D4EB5555B8BF6A
:1002C0006D420CDD2C4480EA020281EA030382EADB
:1002D000000083EA010180EA020281EA0303362D6D
:1002E00088BF30BD11F0004F4FEA01314FF4801C40
:1002F0004CEA113102D0404261EB410113F0004F52
:100300004FEA03334CEA133302D0524263EB430308
:1003100094EA050F00F0A780A4F10104D5F1200EA6
:100320000DDB02FA0EFC22FA05F2801841F1000101
:1003300003FA0EF2801843FA05F359410EE0A5F1D5
:1003400020050EF1200E012A03FA0EFC28BF4CF006
:10035000020C43FA05F3C01851EBE37101F00045BC
:1003600007D54FF0000EDCF1000C7EEB00006EEBC9
:100370000101B1F5801F1BD3B1F5001F0CD3490853
:100380005FEA30004FEA3C0C04F101044FEA4452AA
:1003900012F5800F80F09A80BCF1004F08BF5FEA31
:1003A000500C50F1000041EB045141EA050130BD11
:1003B0005FEA4C0C404141EB010111F4801FA4F1B4
:1003C0000104E9D191F0000F04BF01460020B1FA09
:1003D00081F308BF2033A3F10B03B3F120020CDA41
:1003E0000C3208DD02F1140CC2F10C0201FA0CF01F
:1003F00021FA02F10CE002F11402D8BFC2F1200C84
:1004000001FA02F120FA0CFCDCBF41EA0C01904039
:10041000E41AA2BF01EB0451294330BD6FEA040482
:100420001F3C1CDA0C340EDC04F11404C4F120026D
:1004300020FA04F001FA02F340EA030021FA04F37F
:1004400045EA030130BDC4F10C04C4F1200220FAD6
:1004500002F001FA04F340EA0300294630BD21FA14
:1004600004F0294630BD94F0000F83F4801306BFDA
:1004700081F480110134013D4EE77FEA645C18BFCE
:100480007FEA655C29D094EA050F08BF90EA020F65
:1004900005D054EA000C04BF1946104630BD91EA5D
:1004A000030F1EBF0021002030BD5FEA545C05D160
:1004B0004000494128BF41F0004130BD14F580049F
:1004C0003CBF01F5801130BD01F0004545F0FE4113
:1004D00041F470014FF0000030BD7FEA645C1ABF48
:1004E000194610467FEA655C1CBF0B46024650EA7F
:1004F000013406BF52EA033591EA030F41F40021AB
:1005000030BD00BF90F0000F04BF0021704730B530
:100510004FF4806404F132044FF000054FF0000105
:1005200050E700BF90F0000F04BF0021704730B5C6
:100530004FF4806404F1320410F0004548BF40429B
:100540004FF000013EE700BF42004FEAE2014FEAF0
:1005500031014FEA02701FBF12F07F4393F07F4FCB
:1005600081F06051704732F07F4208BF704793F0CE
:100570007F4F04BF41F40021704730B54FF46074E1
:1005800001F0004521F000411CE700BF50EA0102E4
:1005900008BF704730B54FF000050AE050EA01028D
:1005A00008BF704730B511F0004502D5404261EBFD
:1005B00041014FF4806404F132045FEA915C3FF43E
:1005C000D8AE4FF003025FEADC0C18BF03325FEADB
:1005D000DC0C18BF033202EBDC02C2F1200300FA8C
:1005E00003FC20FA02F001FA03FE40EA0E0021FAB1
:1005F00002F11444BDE600BF70B54FF0FF0C4CF49F
:10060000E06C1CEA11541DBF1CEA135594EA0C0F50
:1006100095EA0C0F00F0DEF82C4481EA030621EA8B
:100620004C5123EA4C5350EA013518BF52EA0335C6
:1006300041F4801143F4801338D0A0FB02CE4FF078
:100640000005E1FB02E506F00042E0FB03E54FF0A8
:100650000006E1FB03569CF0000F18BF4EF0010EA0
:10066000A4F1FF04B6F5007F64F5407404D25FEA9C
:100670004E0E6D4146EB060642EAC62141EA55514F
:100680004FEAC52040EA5E504FEACE2EB4F1FD0C91
:1006900088BFBCF5E06F1ED8BEF1004F08BF5FEA0F
:1006A000500E50F1000041EB045170BD06F00046C1
:1006B00046EA010140EA020081EA0301B4EB5C046E
:1006C000C2BFD4EB0C0541EA045170BD41F4801166
:1006D0004FF0000E013C00F3AB8014F1360FDEBF8B
:1006E000002001F0004170BDC4F10004203C35DA67
:1006F0000C341BDC04F11404C4F1200500FA05F3EA
:1007000020FA04F001FA05F240EA020001F000428A
:1007100021F0004110EBD37021FA04F642EB060100
:100720005EEA430E08BF20EAD37070BDC4F10C042A
:10073000C4F1200500FA04F320FA05F001FA04F2EE
:1007400040EA020001F0004110EBD37041F10001DA
:100750005EEA430E08BF20EAD37070BDC4F12005E5
:1007600000FA05F24EEA020E20FA04F301FA05F24D
:1007700043EA020321FA04F001F0004121FA04F2F5
:1007800020EA020000EBD3705EEA430E08BF20EAC5
:10079000D37070BD94F0000F0FD101F000464000FF
:1007A00041EB010111F4801F08BF013CF7D041EA81
:1007B000060195F0000F18BF704703F00046520085
:1007C00043EB030313F4801F08BF013DF7D043EA56
:1007D0000603704794EA0C0F0CEA135518BF95EA0C
:1007E0000C0F0CD050EA410618BF52EA4306D1D193
:1007F00081EA030101F000414FF0000070BD50EAB2
:10080000410606BF1046194652EA430619D094EA3B
:100810000C0F02D150EA013613D195EA0C0F05D125
:1008200052EA03361CBF104619460AD181EA030179
:1008300001F0004141F0FE4141F470014FF0000031
:1008400070BD41F0FE4141F4780170BD70B54FF0CC
:10085000FF0C4CF4E06C1CEA11541DBF1CEA13554C
:1008600094EA0C0F95EA0C0F00F0A7F8A4EB05042E
:1008700081EA030E52EA03354FEA013100F0888025
:100880004FEA03334FF0805545EA131343EA1263EE
:100890004FEA022245EA111545EA10654FEA0026A3
:1008A0000EF000419D4208BF964244F1FD0404F55C
:1008B000407402D25B084FEA3202B61A65EB0305B8
:1008C0005B084FEA32024FF480104FF4002CB6EB75
:1008D000020E75EB030E22BFB61A754640EA0C00F5
:1008E0005B084FEA3202B6EB020E75EB030E22BF35
:1008F000B61A754640EA5C005B084FEA3202B6EB76
:10090000020E75EB030E22BFB61A754640EA9C0034
:100910005B084FEA3202B6EB020E75EB030E22BF04
:10092000B61A754640EADC0055EA060E18D04FEAC2
:10093000051545EA16754FEA06164FEAC30343EA62
:1009400052734FEAC2025FEA1C1CC0D111F4801F2F
:100950000BD141EA00014FF000004FF0004CB6E728
:1009600011F4801F04BF01430020B4F1FD0C88BFC7
:10097000BCF5E06F3FF6AFAEB5EB030C04BFB6EBD2
:10098000020C5FEA500C50F1000041EB045170BDC5
:100990000EF0004E4EEA113114EB5C04C2BFD4EBF2
:1009A0000C0541EA045170BD41F480114FF0000E76
:1009B000013C90E645EA060E8DE60CEA135594EAF2
:1009C0000C0F08BF95EA0C0F3FF43BAF94EA0C0FF5
:1009D0000AD150EA01347FF434AF95EA0C0F7FF46A
:1009E00025AF104619462CE795EA0C0F06D152EABE
:1009F00003353FF4FDAE1046194622E750EA4106A2
:100A000018BF52EA43067FF4C5AE50EA41047FF4B2
:100A10000DAF52EA43057FF4EBAE12E74FEA410215
:100A2000B2F1E04324BFB3F5001CDCF1FE5C0DD94C
:100A300001F0004C4FEAC0024CEA5070B2F1004F96
:100A400040EB830008BF20F00100704711F0804F99
:100A500021D113F13872BCBF01F00040704741F45E
:100A600080114FEA5252C2F11802C2F1200C10FA62
:100A70000CF320FA02F018BF40F001004FEAC12346
:100A80004FEAD32303FA0CFC40EA0C0023FA02F3EA
:100A90004FEA4303CCE77FEA625307D150EA0133C0
:100AA0001EBF4FF0FE4040F44000704701F0004090
:100AB00040F0FE4040F40000704700BF30B585B004
:100AC00000F082F900F0C0FDB04802F029FBB04808
:100AD00002F026FB00F0ACF900F0CCF900F094FA3B
:100AE00000F0FAFA00F062FB002000F0B5FB00F025
:100AF00053FC00F085FDA74802F012FBA64B4FF413
:100B000080429A61A54C8023A362A54A1168002304
:100B10000B7011684B7011688B701268D370A14A0A
:100B20001268137153719371D3719F4D2A68537278
:100B30009E4802F0F5FA9E4B4AF6AA221A604FF43C
:100B40008063A3614FF40063A3612C68202199485E
:100B500001F02EF92070984B1B6913F0040F17D188
:100B60002B680021187800F0D9FF2B6801221A7039
:100B70008D4A11680B78DB0043F001034B7013685A
:100B80000122DA71854B4FF480529A620024D1E041
:100B900000F024FAECE700221A7280494A6982F4D4
:100BA00080524A61D0E07E4B1B681A78012A40F0DF
:100BB000CF8000221A708DF80C20804801F020F8B8
:100BC0000546B0F1FF3F1FD0794B4AF6AA221A60C2
:100BD000754B19684B7AF3B1704B1B6913F0010F19
:100BE0001FD06E4B1B6913F0020F1AD14FF09043C8
:100BF0001B6913F0040F14D104238DF80C306A4BD9
:100C00001B681522DA713CE0674B1B680522DA711C
:100C100000252C463AE0B1EE040A01F051F80446F2
:100C2000DAE75E4B1B6913F0010F12D15B4B1B69B6
:100C300013F0020F0DD04FF090431B6913F0040F17
:100C400007D102238DF80C30574B1B681522DA713F
:100C500017E04FF090431B6913F0040F08D1524B7B
:100C60001B685B79012B03D001238DF80C3008E061
:100C700006238DF80C304C4B1B681522DA710022CC
:100C80005A71474B1B685B78012B19D19DF90C30C9
:100C9000454A1268117843EAC1038DF80C30537A43
:100CA000002B36D18DF80D30C4F307238DF80E30AC
:100CB0008DF80F403C4B1A68137A0133137247E0EA
:100CC000A5213F4800F0B6FC354B1B689A78012AF5
:100CD000FAD000229A70344B1B681522DA71304B1F
:100CE0001B68DB78082B03D000238DF80C30CDE790
:100CF000AD21334800F09EFC284B4FF480629A628D
:100D0000294B1B681D22DA71254B1B680024DC70FF
:100D1000EAE7C5F307438DF80D30C5F307238DF8D7
:100D20000E308DF80F50C5E70023CB71254903A87D
:100D300001F094F91E4B4AF6AA221A601A4B1B685E
:100D40001A7A802A3FF427AF9B78022B3FF42BAF0F
:100D5000144B1B689A79012AECD100229A711A71FE
:100D6000134B4AF6AA221A600E4B1968CB79012B55
:100D7000DAD00B4B1B680C4A126812480190002015
:100D800000900868496801F0C1F9D3E7E03E000827
:100D9000043F00082C3F00080004004800080048F9
:100DA000000000200800002004000020503F000840
:100DB0000030004000540040000C00480038004063
:100DC000703F00080038014082B0164B1A6E42F0A6
:100DD00001021A661A6E02F001020192019A9A6DDE
:100DE00042F080529A659B6D03F080530093009B04
:100DF0000D4BD96821F4E0610904090C0B4A0A4340
:100E0000DA60DA6800221A76D9685A76D9689A7652
:100E1000D968DA77D96883F82020D96883F8222046
:100E200002B070470010024000ED00E00003FA0538
:100E300030B589B00D4BDA6C42F00402DA64DB6C39
:100E400003F004030193019B4FF4E0550295012345
:100E500003930022049205920693054C02A92046B2
:100E600001F016FBA56109B030BD00BF00100240C3
:100E7000000800482DE9F0438BB0544BDA6C42F087
:100E80000102DA64DA6C02F001020392039ADA6C6E
:100E900042F00402DA64DA6C02F004020292029A6E
:100EA000DA6C42F00202DA64DA6C02F002020192B9
:100EB000019ADA6C42F00802DA64DB6C03F0080392
:100EC0000093009B3826049601250595002406947E
:100ED0000794089504A94FF0904001F0D9FA4FF01B
:100EE0009047BE610323049305940894384E04A9E7
:100EF000304601F0CDFA052304930594089404A923
:100F0000384601F0C5FA4FF44079CDF810900595B8
:100F100006940794089504A9304601F0B9FA4FF4F5
:100F20008078CDF81080059506940794089504A95B
:100F3000384601F0ADFAC6F82890C7F8188040F698
:100F40000749CDF810900595069407940894DFF8AA
:100F5000888004A9404601F09BFAC8F828904FF019
:100F60000409CDF810900594089404A9384601F0BE
:100F70008FFACDF810900594089504A9154801F052
:100F800087FA4FF4804304930595069507950894D6
:100F900004A9404601F07CFA8023049305950223BE
:100FA00006930794089404A9304601F071FA1027BB
:100FB000049705950695079408940DEB07013046B4
:100FC00001F066FAB7620BB0BDE8F0830010024092
:100FD00000080048000C00480004004830B587B005
:100FE000042500950123019302230293002203921A
:100FF0000493044C6946204601F04AFAA56207B002
:1010000030BD00BF000C0048F0B591B02F4B1A6EF8
:1010100042F480421A661A6E02F480420292029AE8
:10102000DA6C42F00102DA64DB6C03F00103019335
:10103000019B4FF4C0630393022704970323059396
:101040000025069507950723089303A94FF09040C4
:1010500001F01EFA1E4B09934FF480560A960B9529
:101060000C950C230D930E954FF400430F93194CE0
:1010700009A9204601F0D0FE636843F40043636091
:10108000A36823F48053A360636823F490436360F0
:10109000A36823F02A03A360236843F001032360BD
:1010A0004FF4C053039301230493059706950793C8
:1010B00003A94FF0904001F0EBF94FF090434FF44B
:1010C00000629A629E6211B0F0BD00BF0010024043
:1010D000809698000038014070B594B02F4B9A6DFF
:1010E00042F480429A659A6D02F480420392039A18
:1010F000DA6C42F00402DA64DA6C02F00402029262
:10110000029ADA6C42F00202DA64DB6C03F002034A
:101110000193019B0C230493022505950695002459
:10112000079408940526099604A91D4801F0B0F912
:101130004FF4405304930595069507940894099637
:1011400004A9184801F0A4F90A944FF482730B9390
:101150004FF4E0630C930D9401230E934FF480231E
:101160000F93109411941294072313930E4C0AA911
:10117000204601F041FC636823F01003636063685C
:1011800043F480536360636843F00803636023683B
:1011900043F04003236014B070BD00BF0010024054
:1011A00000080048000400480038004010B590B026
:1011B000254B9A6D42F400129A659A6D02F4001262
:1011C0000292029ADA6C42F00202DA64DB6C03F0FB
:1011D00002030193019BC02303930223049305930D
:1011E0000123069307930423089303A9174801F0EA
:1011F0004FF9174C636843F000736360E36823F4AE
:101200000043E360236823F400232360236823F46E
:1012100000332360002309930E4A0A920B930C9328
:101220000D930E930F9309A9204601F0CAF9E368C4
:1012300023F4FF6323F00603E360236843F0010314
:10124000236010B010BD00BF001002400004004831
:1012500000540040EC9C901070B596B04C4BDA6C8A
:1012600042F00102DA64DB6C03F001030093009B9F
:1012700018B1012846D016B070BD02230393049321
:1012800000240594069407940126089603A94FF0BC
:10129000904001F0FDF83E4B9A6D32439A659B6D8C
:1012A00033400193019B11A801F036FDADF8444095
:1012B00012944FF261031393149411A94FF08040DC
:1012C00001F034FD4FF08045AB6823F4A03323F0E8
:1012D0000703AB60AB6943F40063AB6109A801F09D
:1012E00065FD602309930A960B9447F630030C932F
:1012F0000D9409AA1021284601F062FD2B683343A2
:101300002B60B8E74023039302230493002505953F
:1013100006950795089303A94FF0904001F0B8F89F
:101320001B4B9A6D42F002029A659B6D03F002031B
:101330000293029B11A801F0EFFCADF84450129506
:101340004FF2610313931495124C11A9204601F03A
:10135000EDFCA36823F4A03323F00703A360A36983
:1013600043F00803A36109A801F020FD602309935D
:1013700001210A910B9547F630030C930D9509AAAC
:10138000204601F01DFD236843F00103236072E74E
:1013900000100240000400402DE9F04784B0924B59
:1013A000DA68C2F30222C2F10703042B28BF042328
:1013B0001946131D062B40F21181033A4FF0FF33FB
:1013C0008B40DB4303F0010393401B01DBB2874AF0
:1013D00082F8253386490B6843F020030B602023F5
:1013E00053608448426922F470424FF4704393FA88
:1013F000A3F3B3FA83F3012101FA03F31343436127
:101400004FF400440194002302938DF80C108DF8E2
:101410000D3002238DF80E3001A800F071FF764ADE
:10142000D06894FAA4F3B3FA83F35B00032101FAC2
:1014300003F320EA030394FAA4F0D360106894FA4B
:10144000A4F3B3FA83F35B0001FA03F320EA030386
:1014500094FAA4F41360644BDA68C2F30222C2F176
:101460000703042B28BF04231946131D062B40F243
:10147000B780033A4FF0FF338B40DB4303F00203A6
:1014800093401B01DBB2594A82F828334FF4807431
:10149000546002F1C04202F50C52136823F4004379
:1014A0001360DFF85081D8F80C2022F0F002F0230E
:1014B00093FAA3F3B3FA83F34FF0020909FA03F3A3
:1014C0001343C8F80C304FF0200ACDF804A00026D2
:1014D000029601278DF80C708DF80D608DF80E7056
:1014E00001A800F00DFF454AD1689AFAAAF3B3FAB1
:1014F00083F3BB40032505FA03F321EA03039AFAB9
:10150000AAF1D36011689AFAAAF3B3FA83F3BB4045
:1015100005FA03F321EA03039AFAAAFA1360D8F84A
:10152000102022F00F020F2393FAA3F3B3FA83F3F0
:1015300007FA03F31343C8F81030019402968DF8AC
:101540000C708DF80D608DF80E9001A800F0D8FE9B
:10155000294AD16894FAA4F3B3FA83F3BB4005FA9D
:1015600003F321EA030394FAA4F1D360116894FA17
:10157000A4F3B3FA83F3BB409D4021EA050594FA36
:10158000A4F41560184BDA68C2F30222C2F1070313
:10159000042B28BF04231946131D062B22D9033A16
:1015A0004FF0FF338B40DB4303F0030393401B01F9
:1015B000DBB20E4A82F817334FF40003136003F1D5
:1015C0007E5303F582331A6822F020021A601A68EB
:1015D00022F480721A6004B0BDE8F0870022EDE6C4
:1015E000002247E70022DBE700ED00E000E100E039
:1015F0000038014000000140000400480008004895
:101600000B4B4CF6CC421A6045F255521A6003223D
:101610005A6040F6FF721A619A60054BDB6813F05E
:10162000070FFAD1024B4AF6AA221A60704700BF90
:101630000030004008B50A460146024801F0FCFCB3
:1016400008BD00BF903F000838B54D4A136823F02D
:10165000070343F004031360136803F00703042B2C
:1016600040F08680474A136823F4C06343F4007354
:101670001360454B1A6842F480221A601A6842F4DB
:1016800080321A60404B1B6813F4003FFAD03E4A88
:10169000D2F8943043F00103C2F894303A4BD3F8B7
:1016A000943013F0020FF9D0374AD168374B0B4012
:1016B00043F4206343F00303D360136843F0807363
:1016C0001360D36843F08073D3602F4B1B6813F013
:1016D000007FFAD02C4A936843F0030393602A4BAF
:1016E0009B6803F00C030C2BF9D1274CA36823F063
:1016F000F003A360A36823F4E063A360A36823F46A
:101700006053A360224D284601F0F0FB214A136884
:1017100043F004031360284601F00EFCD4F888302F
:1017200023F0030343F00103C4F888301A4A136816
:1017300023F4405343F480531360184BDA68C2F328
:101740000222C2F10703042B28BF04231946131DEC
:10175000062B12D9033A4FF0FF338B40DB4303F0E3
:101760000F0393401B01DBB20C4A82F8233038BDD3
:1017700046210B48FFF75EFF74E70022EBE700BF4E
:101780000020024000700040001002408C80FFF9F1
:1017900000B4C40410E000E08810024000ED00E056
:1017A0007C3F000810B500EB8000430018460A2B70
:1017B00014D040F2F54293423BD8354AA2FB034293
:1017C0001209322404FB123222B9581D642303FB90
:1017D00000F205E0642202FB03F201E040F2145241
:1017E0002C4B1B68B3FBF2F329BB4FF0804211680E
:1017F00021F00101116000215162591ED1625B0884
:10180000013B9363136843F0010313600A282BD054
:10181000A0F11403B3F59B7F2FD3B0F5A57F35D38B
:101820001D4B4FF480729A614FF400729A6101204F
:101830002BE01A4AD4E7012910D1194A116821F086
:101840000101116000215162591ED1625B08013B08
:101850005363136843F001031360D7E73D21114838
:10186000FFF7E8FE002010E00B4B4FF480729A6205
:101870004FF400729A62012007E0074B4FF4807228
:101880009A614FF400729A62012010BD0120FCE7BA
:101890001F85EB510C00002000080048D0FB010020
:1018A00000040040C03F000808B503282BD8DFE83B
:1018B00000F0020C16204FF0904308229A6110228B
:1018C0009A6120229A61012008BD4FF090430822BE
:1018D0009A6210229A6120229A610120F4E74FF067
:1018E000904308229A6110229A6220229A61012074
:1018F000EAE74FF0904308229A6110229A61202271
:101900009A620120E0E781210248FFF793FE002060
:10191000DAE700BFC03F000808B50B2800F2F280EC
:10192000DFE810F00C001F003200450058006B008B
:101930007E009100A400B700CA00DD00754B0120B5
:10194000986202229A6104229A624FF480629A623B
:101950004FF400629A624FF090434FF480729A62A3
:1019600008BD6C4B0120986102229A6104229A62A0
:101970004FF480629A624FF400629A624FF0904393
:101980004FF480729A62EBE7624B01209862022268
:101990009A6204229A614FF480629A624FF4006264
:1019A0009A624FF090434FF480729A62D8E7594B95
:1019B0000120986102229A6204229A614FF48062A7
:1019C0009A624FF400629A624FF090434FF4807233
:1019D0009A62C5E74F4B0120986202229A61042265
:1019E0009A614FF480629A624FF400629A624FF0FB
:1019F00090434FF480729A62B2E7464B012098619F
:101A000002229A6104229A614FF480629A624FF432
:101A100000629A624FF090434FF480729A629FE79F
:101A20003C4B0120986202229A6204229A624FF48F
:101A300080629A614FF400629A624FF090434FF4D3
:101A400080729A628CE7334B0120986102229A627D
:101A500004229A624FF480629A614FF400629A62A3
:101A60004FF090434FF480729A6279E7294B01203E
:101A7000986202229A6104229A624FF480629A610B
:101A80004FF400629A624FF090434FF480729A6272
:101A900066E7204B0120986202229A6104229A6232
:101AA0004FF480629A614FF400629A624FF0904363
:101AB0004FF480729A6153E7164B0120986202221C
:101AC0009A6104229A624FF480629A614FF4006234
:101AD0009A624FF090434FF480729A6140E70D4B49
:101AE0000120986202229A6104229A624FF4806275
:101AF0009A614FF400629A624FF090434FF4807203
:101B00009A612DE74FF483710348FFF793FD00209E
:101B100026E700BF00040048C03F000838B50D4666
:101B200000F00703C408072B42D8DFE803F00410D5
:101B3000171E252C333A0020FFF7B6FE0020FFF7D2
:101B4000EBFE032C53D8DFE804F03A40464C01206A
:101B5000FFF7AAFE0020FFF7DFFEF2E70120FFF704
:101B6000A3FE0120FFF7D8FEEBE70120FFF79CFE64
:101B70000220FFF7D1FEE4E70220FFF795FE0020E8
:101B8000FFF7CAFEDDE70220FFF78EFE0120FFF718
:101B9000C3FED6E70220FFF787FE0220FFF7BCFE58
:101BA000CFE70320FFF780FE0B20FFF7B5FEC8E765
:101BB00040F24F111148FFF73DFD002004E0294697
:101BC0000120FFF7EFFD012038BD29461E20FFF759
:101BD000E9FD0120F8E729464620FFF7E3FD012053
:101BE000F2E729460220FFF7DDFD0120ECE74FF484
:101BF000B3710248FFF71EFD0020E5E7C03F000873
:101C000000B583B00023ADF804308DF8063083684A
:101C100013F0800FFBD1002129E0AA2303730023D6
:101C2000234A926812F0800F0AD00133214A93426E
:101C3000F6D12F212048FFF7FDFC4FF0FF3033E0B5
:101C40000023826812F0010F0AD10133194A93422E
:101C5000F7D138211848FFF7EDFC4FF0FF3023E0B3
:101C6000C26802AB0B4403F8042C0131C9B202294B
:101C700010D800230E4A926812F0020FCDD1013322
:101C80000C4A9342F6D123210B48FFF7D3FC4FF0C7
:101C9000FF3009E09DF804309DF80500000240EA9D
:101CA00003409DF80630184303B05DF804FB00BF05
:101CB0000038004040420F00D43F00080000000000
:101CC0002DE9F84310EE105A10F4000F03D06FEA1C
:101CD00040206FEA50200C790A2C48D00B2C48D0B9
:101CE000B0F5000F47DB01234B712D4807EE900A3A
:101CF000F8EEE77A17EE900AFEF726FC0022294B51
:101D0000FEF77AFC804689462846FEF71DFC06460B
:101D10000F4602460B4640464946FEF76DFCFEF76D
:101D20007DFEFEF711FC1CA3D3E90023FEF78EFD18
:101D3000FEF774FE07EE900A0A2C23D00B2C24D059
:101D400017EE900AFEF700FC0022174BFEF754FC3A
:101D500032463B46FEF77AFDFEF760FE07EE900A3C
:101D6000FDEEE77A17EE903A18B2BDE8F88340002E
:101D7000B6E78000B4E710F5000FB7DA01234B7126
:101D80000A48B3E777EEA77ADAE7B1EE007A67EEB2
:101D9000877AD5E7AFF300808FC2F5285C8FF63FD6
:101DA000FFFF7F000000703E0000F040000080FF59
:101DB0004900836913F4004FFBD1436823F07F731C
:101DC00023F45F3323F47F7323F0030341F00042D5
:101DD00042F4903213434360836913F0010FFBD048
:101DE00000238362836913F0010FFBD0836913F032
:101DF000400FFBD0436823F07F7323F45F3323F459
:101E00007F7323F0030341F0024141F492311943FF
:101E10004160836913F0200FFBD0836913F0040F36
:101E2000FBD0426AC36943F02003C36102F01F0084
:101E300070477047FEE7FEE7FEE7FEE77047704732
:101E400070477047204BDB6913F0200F2CD01E4BDE
:101E50009B8C9BB2C3F3080213F4807F1FD0D3B2D4
:101E60001A4A12685178994210D01BB11278B2EB1D
:101E7000D30F19D1164A1268917901290CD0137029
:101E8000134B1B6801221A715A717047104B1B6863
:101E90000122DA719A71704700219171EFE70C4BC2
:101EA0001B685979012900D0704719795A54084B99
:101EB0001A6813790133DBB21371042BF4D10123B7
:101EC000937100235371EFE70038014004000020B4
:101ED000080000200D4B5B6913F4004F14D00B4B2E
:101EE0004FF400425A610A4A1168012008701068D4
:101EF00000214170126891701A6842F020021A6045
:101F00001A6842F480721A60704700BF00040140F2
:101F1000000000201C4B5B6913F0200F13D01A4BFC
:101F200020225A61194A116801204870196821F06D
:101F300020011960196821F480711960116800236B
:101F4000CB7012689370104B5B6913F4807F1AD0CA
:101F50000D4B4FF480725A610C4802680121917058
:101F60001A6822F480721A601A6822F020021A603D
:101F7000074A802191610068C3780133C37000BFB4
:101F800000BF00BF916270470004014000000020C4
:101F9000000800480023934223DA10B40CE000BF8D
:101FA0004FF0604109680029F9D04FF06041087096
:101FB00001332146934210DA4C1C08784FF06041FF
:101FC000D1F8801E11F0010FF2D04FF06041D1F82E
:101FD000001E11F0010FEBD0E2E710465DF8044B54
:101FE00070471046704700000346064A126822B147
:101FF000044A1068034413607047024A02491160A2
:10200000F6E700BF90000020B8000020024B5822E5
:102010001A604FF0FF307047B4000020024B582286
:102020001A604FF0FF307047B4000020024B582276
:102030001A600020704700BFB4000020024B5822F5
:102040001A604FF0FF307047B4000020024B582256
:102050001A604FF0FF307047B400002010B54FF009
:1020600090434FF480529A6100BF00BF00BF00BF91
:1020700000BF00BF0023CA6912F0800F09D10133ED
:1020800049F640429342F6D12A211F48FFF7D2FA7F
:1020900016E0002404E0D4B1035D0B850134E4B202
:1020A000032C19D80023CA6912F0400FF3D1013371
:1020B00049F640429342F6D135211348FFF7BAFA68
:1020C0004FF090434FF480529A6200201AE0035D73
:1020D00043F480730B85E1E70023CA6912F0400FD7
:1020E00009D1013349F640429342F6D147210648CF
:1020F000FFF7A0FAE4E700BF4FF090434FF480529F
:102100009A62012010BD00BFE43F000830B585B0E1
:102110006C4684E8030014469DF800208DF80C20DE
:1021200000218DF80E108DF80F1012F0070256D115
:102130009DF80120FF2A05D0B2B1012A2FD0022339
:10214000E37168E00222A2700A46217269494FF4E5
:10215000805088621A7002F1804202F58232136860
:1021600043F40043136056E00021A17002F1804265
:1021700002F58232106820F400401060106820F0F0
:1021800020001060106820F4807010601970597081
:102190009970D970574B4FF480529A623BE00120FE
:1021A000A070554A116821F400411160116821F0B6
:1021B00020011160116821F48071116000221A70F1
:1021C0005A709A70DA704B4B4FF480529A624B4CB3
:1021D0004FF48045A56200F099FEA5611BE0022A3C
:1021E0000ED0032A2CD0042A45D0052A60D0072A15
:1021F00064D000238DF80D30FF238DF80F3006E0FA
:102200009DF80100802808D1E3788DF80D300999F8
:1022100003A8FFF723FF05B030BD00F003052846F3
:10222000FFF742FB012806D000238DF80D30FF2375
:102230008DF80F30EBE7E57001238DF80D30E6E700
:102240009DF80100802803D123798DF80D30DEE759
:1022500000F00F052846FFF75FFB012806D000239A
:102260008DF80D30FF238DF80F30D0E72571012355
:102270008DF80D30CBE79DF80130802B03D1A37989
:102280008DF80D30C3E703F07F059DF82010284638
:10229000FFF788FA012806D000238DF80D30FF23C0
:1022A0008DF80F30B3E7A57101238DF80D30AEE73F
:1022B000E3798DF80D300123E371A8E79DF8013033
:1022C000432B0BD0832BA6D101238DF80D30637ADD
:1022D000002B9CD018238DF80F3098E79DF8033021
:1022E00023B9637201238DF80D3090E701236372E7
:1022F000F8E700BF0008004800040140000400485F
:102300000346027A002A00F0A98010B40268002A6D
:1023100051D0417A012919D019B1022921D00020C8
:1023200009E05A49486820EA02024A601A680868C7
:1023300002430A6001209A7A002A3DD0022A25D061
:10234000032A2ED0012A16D0002035E04F49086814
:1023500020EA02020A601A68486802434A600120C3
:10236000E9E74A49086802430A601A684868024374
:102370004A600120DFE71C68444AD16821EA040171
:10238000D160196894682143916015E01C683F4A48
:10239000916821EA040191601968D4682143D160F1
:1023A0000AE01968394A9468214391601968D46831
:1023B0002143D16000E001205A68CAB1597A01294D
:1023C00019D019B1022920D0002008E02F494C6A09
:1023D00024EA02024A625A680C6A22430A629A7A22
:1023E00032B1022A25D0032A2ED0012A16D000208D
:1023F0005DF8044B704725490C6A24EA02020A6220
:102400005A684C6A22434A62E9E720490C6A22432F
:102410000A625A684C6A22434A62E0E75C681B4AD7
:10242000D16A21EA0401D1625B68916A0B4393622D
:10243000DEE75C68154A916A21EA040191625B68F3
:10244000D16A0B43D362D3E75968104A946A214397
:1024500091625B68D16A0B43D362C9E700680B4A9B
:10246000116821EA000111601868516821EA000131
:1024700051605868116A21EA000111625968536A73
:1024800023EA010353620120704700BF00040140AA
:10249000F0B40A6892FAA2F2B2FA82F218E00E6977
:1024A000C46893FAA3F5B5FA85F56D00032707FA1A
:1024B00005F524EA050493FAA3F5B5FA85F56D0050
:1024C00006FA05F52C43C4604C68022C36D0013264
:1024D0000B6833FA02F464D0012494402340F6D010
:1024E0004E68046893FAA3F5B5FA85F56D000327E5
:1024F00007FA05F524EA050493FAA3F5B5FA85F57C
:102500006D0006FA05F52C4304604C68013C012C73
:10251000C5D88E68846893FAA3F5B5FA85F56D0081
:1025200007FA05F524EA050493FAA3F5B5FA85F54B
:102530006D0006FA05F52C438460B0E793FAA3F426
:10254000B4FA84F4072C15D84D69046A93FAA3F6FB
:10255000B6FA86F6B6000F2707FA06F624EA06044E
:1025600093FAA3F3B3FA83F39B0005FA03F323432F
:102570000362ACE74C69456A1B0A93FAA3F6B6FA04
:1025800086F6B6000F2707FA06F625EA060593FA3F
:10259000A3F3B3FA83F39B0004FA03F32B434362E0
:1025A00095E74A68013A012A02D90120F0BC704738
:1025B000C968426822EA030201FB03F31343436044
:1025C000F3E710B4036823F0010303608A68CC6862
:1025D000036823F4F85342EA0422134303604B6870
:1025E0000361036843F001030360836823F400433D
:1025F00083600A698C69836823F4FF6323F007030F
:102600002243134383600B691BB1836843F4004387
:1026100083600B68026822F44012134303604B6925
:10262000426822F400421343436001205DF8044BEA
:1026300070470000034B9B68C3F30313024AD35C4B
:10264000D840704700100240F43F0008034B9B68DD
:10265000C3F30223024AD35CD84070470010024003
:1026600004400008034B9B68C3F3C223024AD35CB7
:10267000D84070470010024004400008394BDB6826
:1026800003F00303012B16D0002B3FD0364A354B05
:10269000D868C0F302100130B2FBF0F2D868C0F382
:1026A000062000FB02F0DB68C3F3416301335B00EB
:1026B000B0FBF3F070472B4B1B6813F0080F11D1E0
:1026C000284B1B6813F0080F06D0264B1B6800230D
:1026D000264A52F82320DAE7224BD3F89430C3F38A
:1026E0000323F5E71F4B1B6813F0080F07D01D4BA2
:1026F0001B68C3F303131D4A52F82320C7E7194B85
:10270000D3F894301B0903F0F003F4E7154B1B6872
:1027100013F0080F11D1134B1B6813F0080F06D0EC
:10272000104B1B680023114A52F82320AFE70D4BD2
:10273000D3F89430C3F30323F5E70A4B1B6813F077
:10274000080F07D0074B1B68C3F30313074A52F85F
:1027500023209CE7034BD3F894301B0903F0F003CC
:10276000F4E700BF001002400024F4000C40000811
:1027700008B5354B9B6803F00C030C2B36D8DFE80B
:1027800003F0073535356035353560353535320080
:102790002D4B1B6813F0080F11D12B4B1B6813F046
:1027A000080F06D0284B1B680023284A52F8230044
:1027B00048E0254BD3F89430C3F30323F5E7224BCD
:1027C0001B6813F0080F07D01F4B1B68C3F30313DC
:1027D0001E4A52F8230035E01B4BD3F894301B09F6
:1027E00003F0F003F4E7FFF749FF2BE0164B1B68FB
:1027F00013F0080F11D1144B1B6813F0080F06D00B
:10280000114B1B680023114A52F823001AE00E4BAB
:10281000D3F89430C3F30323F5E70B4B1B6813F095
:10282000080F07D0084B1B68C3F30313074A52F87D
:10283000230007E0044BD3F894301B0903F0F003A6
:10284000F4E7034808BD00BF001002400C40000838
:102850000024F40008B5032805D00C282BD030281C
:1028600051D0002008BD434BD3F88830034043EAE1
:102870000040414B98420FD0B0F1031F13D0013BF1
:10288000984206D0FFF774FFFFF7D4FEFFF7EAFE89
:10289000E8E7FFF76DFFE5E7364B1B6813F4806F41
:1028A00059D10020DEE7334BD3F8903013F0020FFC
:1028B00053D10020D6E72F4BD3F88830034043EAAA
:1028C00000402E4B98420FD0B0F10C1F13D0043BA8
:1028D000984206D0FFF74CFFFFF7ACFEFFF7B6FEBD
:1028E000C0E7FFF745FFBDE7224B1B6813F4806F7D
:1028F00036D10020B6E71F4BD3F8903013F0020F0B
:1029000030D10020AEE71B4BD3F88830034043EAB8
:1029100000401B4B98420FD0B0F1301F13D0103B3A
:10292000984206D0FFF724FFFFF784FEFFF78EFEE4
:1029300098E7FFF71DFF95E70E4B1B6813F4806FB8
:1029400013D100208EE70B4BD3F8903013F0020F19
:102950000DD1002086E70B4884E74FF4004081E763
:1029600008487FE74FF400407CE706487AE74FF4D9
:10297000004077E7001002400200030008000C004E
:10298000200030000024F400C02801D0002070474F
:1029900008B5164BD3F88830034043EA0040144B87
:1029A00098420FD0B0F1C01F13D0403B984206D0E0
:1029B000FFF7DEFEFFF73EFEFFF748FE01E0FFF700
:1029C000D7FE08BD094B1B6813F4806F09D10020A6
:1029D000F7E7064BD3F8903013F0020F03D1002035
:1029E000EFE70448EDE74FF40040EAE7001002404B
:1029F0008000C0000024F400036813F0400F2CD1C5
:102A000010B4026822F47F4222F0BF020B684C68C7
:102A10002343CC6823430C6923434C6923438C69CB
:102A20002343CC6923430C6A234313430360436865
:102A300023F4706323F004038A68CC8A224313438F
:102A400043600B6AB3F5005F03D001205DF8044BCF
:102A500070478B8C03610120F8E70020704700006D
:102A600030B4036A23F001030362036A4268846995
:102A700024F4803424F073040D682C4323F0020303
:102A80000D692B4323F001034D682B43124DA842DF
:102A900007D005F5A055A84203D005F58065A842EA
:102AA00012D123F008034D6943EA850323F00403A0
:102AB0008D6843EA850322F480728D692A4322F4EB
:102AC0000072CD6942EA450242608461CA6842638D
:102AD0000362012030BC7047002C014030B4036A0F
:102AE00023F010030362036A4268846924F080744F
:102AF00024F4E6440D6844EA052423F020030D691C
:102B000043EA051323F010034D6843EA0513134D00
:102B1000A84207D005F5A055A84203D005F5806569
:102B2000A84213D123F080034D6943EA851323F0B3
:102B300040038D6843EA851322F480628D6942EA7E
:102B4000850222F40062CD6942EAC50242608461D6
:102B5000CA6882630362012030BC7047002C0140C8
:102B600030B4036A23F480730362036A4268C46961
:102B700024F4803424F073040D682C4323F4007390
:102B80000D6943EA052323F480734D6843EA052366
:102B9000134DA84207D005F5A055A84203D005F56E
:102BA0008065A84213D123F400634D6943EA85236D
:102BB00023F480638D6843EA852322F480528D6973
:102BC00042EA051222F40052CD6942EA45124260FF
:102BD000C461CA68C2630362012030BC704700BF91
:102BE000002C014030B4036A23F480530362036A6B
:102BF0004468C26922F0807222F4E6420D6842EA1B
:102C0000052223F400530D6943EA053323F480536E
:102C10004D6843EA05330C4DA84207D005F5A05591
:102C2000A84203D005F58065A84204D124F480446D
:102C30008D6944EA85144460C261CA680264036213
:102C4000012030BC704700BF002C014030B4036A43
:102C500023F480330362036A426D22F4803222F04F
:102C600070020C68224323F400330C6943EA0443E6
:102C700023F480334C6843EA04430C4CA04207D051
:102C800004F5A054A04203D004F58064A04206D10C
:102C9000446824F480348D6944EA05244460426524
:102CA000CA6882650362012030BC7047002C014075
:102CB00030B4036A23F480130362036A426D22F086
:102CC000807222F4E0420C6842EA042223F40013EA
:102CD0000C6943EA045323F480134C6843EA045319
:102CE0000C4CA04207D004F5A054A04203D004F538
:102CF0008064A04206D1446824F480248D6944EAAB
:102D0000852444604265CA68C2650362012030BC04
:102D1000704700BF002C01400023038043604FF048
:102D2000FF328260C36003747047000003681E4A6C
:102D3000904206D0B0F1804F03D0A2F59432904279
:102D400003D123F070034A681343174A90420ED010
:102D5000B0F1804F0BD0A2F59432904207D002F52B
:102D60009E32904203D002F58062904203D123F458
:102D70004073CA68134303608B68C3620B88836225
:102D8000094B984207D003F5A053984203D003F5AE
:102D90008063984201D10B7C0363436943F00103D4
:102DA00043610120704700BF002C014000230360F5
:102DB00043608360C360036143618361C3617047A3
:102DC00008B5B1F5807F17D00AD9B1F5803F1BD087
:102DD000B1F5801F1CD0B1F5805F11D000200AE052
:102DE000012905D01029F9D11146FFF777FE02E03D
:102DF0001146FFF735FE08BD1146FFF7B1FEFAE7B1
:102E00001146FFF7EFFEF6E71146FFF71FFFF2E767
:102E10001146FFF74DFFEEE738B5036813F0010FD9
:102E200053D10D46044603682B4A1A404B68C968C3
:102E30000B4329690B43A9690B4313430360AB6838
:102E4000426822F44052134343606B69826822F463
:102E5000407213438360214B98420AD0204B984222
:102E600019D0204B98421AD01F4B98421BD00020FB
:102E70002CE00320FFF7EEFC48B32A684AB3AB69A5
:102E8000B3F5004F13D000EB5203B3FBF2F39BB248
:102E9000E36001201AE00C20FFF7DCFCECE73020B7
:102EA000FFF7D8FCE8E7C020FFF76EFDE4E7530822
:102EB00003EB4003B3FBF2F34FF6F0721A40C3F397
:102EC00042031343E360012000E0002038BD0020EE
:102ED000FCE70020FAE700BFF369FFEF003801408C
:102EE0000044004000480040004C0040054BA3FB5C
:102EF000003080090138044B586000229A60052296
:102F00001A607047D34D621010E000E082B0094BA8
:102F10001B680193019BB0F1FF3F00D0013030B13D
:102F2000044B1B6813F4803FF9D00138F7E702B077
:102F3000704700BF10E000E0014B1860704700BF11
:102F40000C0000200F49D1F8883043F47003C1F819
:102F500088300D4B1A6842F001021A600020986018
:102F60001A6822F0A85222F410221A604FF48052FC
:102F7000DA601A6822F480221A6098614FF00063C8
:102F80008B60704700ED00E000100240DFF834D0A5
:102F9000002103E00C4B5B58435004310B480C4BB1
:102FA00042189A42F6D30B4A02E0002342F8043B4F
:102FB000094B9A42F9D3FFF7C5FF00F011F8FDF76E
:102FC0007DFDFEE700800220DC40000800000020BC
:102FD0007400002074000020B8000020FEE700000C
:102FE00070B50D4E0D4CA41BA4100025A54209D1AF
:102FF0000B4E0C4C00F068FFA41BA4100025A5424A
:1030000005D170BD56F8253098470135EEE756F8E2
:10301000253098470135F2E7D4400008D440000835
:10302000D4400008D840000802440346934200D12F
:10303000704703F8011BF9E70FB40A4B13B51C687E
:1030400024B1A36913B9204600F022FA05AB049A13
:10305000A1680193204600F0DBFB02B0BDE8104000
:1030600004B070471000002070B50E46054618B138
:1030700083690BB900F00CFAAB69AC6813B9284648
:1030800000F006FA234B9C4217D16C68A3891B07FA
:103090001DD52369DBB1013EA36816F8011F013B72
:1030A000A360E9B9002B2EDA22460A21284600F057
:1030B0003FF8013011D00A2011E0174B9C4201D19A
:1030C000AC68E3E7154B9C4208BFEC68DEE721469D
:1030D000284600F07FF80028DDD04FF0FF3070BDAB
:1030E000002B04DAA2699A4206DC0A2904D023687C
:1030F0005A1C22601970CFE72246284600F018F8C3
:103100000130C9D1E9E723680A205A1C22601870EF
:10311000E5E700BF6040000880400008404000082C
:10312000024B01461868FFF79FBF00BF1000002048
:10313000F8B50E461446054618B183690BB900F080
:10314000A7F9214B9C422AD16C68A369A360A3898B
:103150001A072ED5236963B323692068C01A6369EF
:10316000F6B28342374604DC2146284600F026F9B1
:1031700028BBA368013BA36023685A1C22601E7011
:1031800063690130834204D0A389DB0719D50A2E75
:1031900017D12146284600F011F990B10FE00B4BF2
:1031A0009C4201D1AC68D0E7094B9C4208BFEC6857
:1031B000CBE72146284600F00DF80028CCD04FF090
:1031C000FF373846F8BD00BF604000088040000867
:1031D00040400008324B70B51D6806460C4625B1CC
:1031E000AB6913B9284600F053F92E4B9C420FD11E
:1031F0006C68B4F90C309AB215072CD4D00611D4EF
:103200000922326043F04003A3814FF0FF303EE0DB
:10321000254B9C4201D1AC68EBE7244B9C4208BF94
:10322000EC68E6E7510712D5616B41B104F1440344
:10323000994202D0304600F019FA00236363A38953
:1032400023F02403A3810023636023692360A389FF
:1032500043F00803A38123694BB9A38903F42073C6
:10326000B3F5007F03D02146304600F0BFF9A289B4
:1032700012F001030CD00023A36063695B42A361D9
:10328000236953B9B4F90C3013F08000BAD170BD82
:10329000920758BF6369A360F2E70020F7E700BF19
:1032A00010000020604000088040000840400008F6
:1032B0008A892DE9F041054610070C4658D44B6821
:1032C000002B05DC0B6C002B02DC0020BDE8F0813C
:1032D000E66A002EF9D0002312F480522F68216A8A
:1032E0002B6032D0606DA3895A0705D56368C01A78
:1032F000636B0BB1236CC01A00230246E66A216A95
:103300002846B047431CA38906D129681D2948D8FF
:10331000294ACA40D60744D500226260D9042269EE
:10332000226004D5421C01D12B6803B96065616B32
:103330002F600029C9D004F14403994202D02846E5
:1033400000F094F900206063C0E701232846B047ED
:10335000411CC8D12B68002BC5D01D2B01D0162BCA
:1033600001D12F60B1E7A38943F04003A381ADE70A
:103370000F69002FA9D093070E6808BF4B690F6033
:1033800018BF0023A6EB07088B60B8F1000F9CDD87
:1033900043463A46216AA66A2846B047002806DC1A
:1033A000A38943F04003A3814FF0FF308EE7074429
:1033B000A8EB0008E9E700BF0100402038B50B6921
:1033C00005460C46DBB118B183690BB900F060F813
:1033D0000C4B9C4209D16C68B4F90C307BB121468E
:1033E0002846BDE83840FFF763BF074B9C4201D138
:1033F000AC68F1E7054B9C4208BFEC68ECE70020A5
:1034000038BD00BF60400008804000084040000810
:10341000002310B50446C0E9003383608181436610
:10342000C281C0E904338361194608225C30FFF78A
:10343000FBFD054B6362054BA362054BE362054B45
:103440002462236310BD00BF6D3D00088F3D00085E
:10345000C73D0008EB3D0008014900F085B800BFFA
:10346000BD33000870B54A1E682555430E4605F168
:10347000740100F049F9044640B10021C0E900168A
:103480000C30A06005F16802FFF7CEFD204670BD4C
:10349000836910B5044633BBC0E912330365124B90
:1034A000124A1B688262984204BF0123836100F0C4
:1034B0001FF86060204600F01BF8A060204600F076
:1034C00017F80022E06004216068FFF7A1FF0122E5
:1034D0000921A068FFF79CFF02221221E068FFF794
:1034E00097FF0123A36110BD3C4000085934000838
:1034F000F8B51B4B1E68B369074613B93046FFF792
:10350000C7FF4836D6E90134013B03D5336833B1F0
:103510003668F7E7B4F90C506DB16834F4E704216C
:103520003846FFF79FFF30600028F1D10C233B6045
:1035300004462046F8BD0B4B6566C4E90055A560FE
:10354000C4E90335C4E905550822294604F15C00A5
:10355000FFF76AFDC4E90D55C4E91255E9E700BF5C
:103560003C4000080100FFFF2DE9F84380468946F2
:1035700000F14804002614B93046BDE8F883D4E9C8
:103580000175013F01D52468F5E7AB89012B07D907
:10359000B5F90E30013303D029464046C8470643EB
:1035A0006835EEE770B50E46B1F90E10002996B0F9
:1035B00014461D4607DA00232B60B3891A0610D47F
:1035C0004FF480630EE06A4600F036FC0028F2DB20
:1035D000019A02F47042A2F500535A425A412A60FD
:1035E000EEE740230020236016B070BD8B8973B5D1
:1035F0009D0706460C4607D504F147032360236167
:103600000123636102B070BD01AB6A46FFF7CAFFD8
:1036100000990546304600F077F848B9B4F90C3007
:103620009A05EFD423F0030343F00203A381E3E7F9
:103630000D4BB362A389206043F08003A381009BFC
:103640006361019B20615BB1B4F90E10304600F05C
:1036500005FC28B1A38923F0030343F00103A381F0
:10366000A3891D43A581CDE75934000838B5054627
:10367000002945D051F8043C0C1F002BB8BFE418BA
:1036800000F00EFC1F4A1368104633B963601460E3
:103690002846BDE8384000F004BCA3420CD921689C
:1036A0006218934204BF1A685B68636004BF5218D3
:1036B00022600460ECE713465A680AB1A242FAD9C4
:1036C00019685818A0420BD120680144581882424A
:1036D0001960DDD1106852685A6001441960D7E75B
:1036E00002D90C232B60D3E7206821188A4204BF3B
:1036F00011685268626004BF091821605C60C7E706
:1037000038BD00BF9400002070B5CD1C25F0030526
:1037100008350C2D38BF0C25002D064601DBA942CB
:1037200003D90C233360002070BD00F0B9FB214A9F
:103730001468214691B9204C23681BB9304600F02B
:1037400005FB20602946304600F000FB431C24D1D5
:103750000C233360304600F0A4FBE4E70B685B1BEE
:1037600018D40B2B0FD90B60CD50CC18304600F07D
:1037700098FB04F10B00231D20F00700C31AD3D0DF
:103780005A42E250D0E78C424B6816BF6360136028
:103790000C46EBE70C464968CCE7C41C24F0030454
:1037A000A04205D0211A304600F0D0FA0130CFD027
:1037B0002560DBE794000020980000209368013B1F
:1037C000002B10B4936008DA9469A34201DB0A2944
:1037D00003D15DF8044BFFF7ABBC1368581C1060B5
:1037E000197008465DF8044B7047F8B506460F4659
:1037F0001446D518AC4201D1002007E03A4614F82F
:10380000011B3046FFF7DAFF431CF3D1F8BD00007F
:103810002DE9F04F0C469DB017461D46064618B1DF
:1038200083690BB9FFF734FE7C4B9C4258D1746816
:10383000A38918075ED52369002B5BD00023099369
:1038400020238DF8293030238DF82A3003954FF04E
:10385000010BB846454615F8013B0BB1252B54D159
:10386000B8EB070A0BD053463A4621463046FFF7DD
:10387000BCFF013000F0C280099B5344099398F8C3
:103880000030002B00F0BA8000234FF0FF32CDE96A
:103890000523049307938DF853301A93A846052205
:1038A00018F8011B5E48FCF79BFC049B78BBD9060B
:1038B00044BF20228DF853201A0744BF2B228DF8D5
:1038C00053202A782A2A2AD0079AA84600200A25B7
:1038D000414611F8013B303B092B69D960B324E024
:1038E000504B9C4201D1B468A2E74F4B9C4208BFA9
:1038F000F4689DE721463046FFF76CFC00289DD018
:103900004FF0FF301DB0BDE8F08FA846A2E7444A53
:10391000801A0BFA00F0184304904546BEE7039A5C
:10392000111D12680391002A01DB079204E0524244
:1039300043F002030792049398F800302E2B0ED127
:1039400098F801302A2B38D1039B1A1D1B6803926B
:10395000002BB8BF4FF0FF3308F102080593334D39
:1039600098F8001003222846FCF73AFC40B14023A7
:10397000401B03FA00F0049B034308F10108049381
:1039800098F800102A488DF82810062208F101073F
:10399000FCF726FC002837D0264B1BBB039B0733C4
:1039A00023F0070308330393099B4B44099350E723
:1039B00005FB0232012088468AE7002308F101084E
:1039C000059319460A25404610F8012B303A092A7A
:1039D00003D9002BC3D00591C1E705FB01210123C9
:1039E0008046F0E703AB00932246134B04A9304610
:1039F000AFF30080B0F1FF3F8146D5D1A3895B06CC
:103A00003FF57EAF09987DE703AB009322460A4B52
:103A100004A9304600F088F8ECE700BF60400008D9
:103A2000A04000088040000840400008A640000870
:103A3000AA40000800000000EB3700082DE9F0471D
:103A400091461F468A680B69DDF820809342B8BF13
:103A50001346C9F8003091F8432006460C4612B1CF
:103A60000133C9F800302368990642BFD9F8003005
:103A70000233C9F80030256815F0060507D104F1B6
:103A8000190AE368D9F800209B1AAB4228DC94F8A5
:103A900043302268003318BF012392062DD404F16D
:103AA000430239463046C047013020D02368E568DC
:103AB000D9F8002003F00603042B08BFAD1AA36851
:103AC00022690CBF25EAE57500259342C4BF9B1A05
:103AD000ED184FF000091A344D451AD1002008E0C6
:103AE0000123524639463046C047013003D14FF0DA
:103AF000FF30BDE8F0870135C3E7E1185A1C3020DC
:103B000081F84300224494F8451082F843100233B0
:103B1000C5E70123224639463046C0470130E6D08A
:103B200009F10109D8E700002DE9F04301F1430C48
:103B30000C46097E85B06E291746064698460C9AB3
:103B400000F0B38022D8632936D00AD8002900F0CB
:103B5000B980582900F0838004F1420584F84210AE
:103B600032E0642901D06929F6D12068136805067E
:103B700003F104012AD51B681160002B03DA2D2202
:103B80005B4284F843206F480A2239E0732900F031
:103B90009D8008D86F2920D07029DDD1236843F09B
:103BA0002003236003E0752917D07829D4D1782326
:103BB00084F84530644855E01368191D1B6811608E
:103BC00004F1420584F8423001238CE01B68116047
:103BD00010F0400F18BF1BB2CFE713682568181DFF
:103BE0001060280601D51B6802E06806FBD51B881B
:103BF00054486F2914BF0A220822002184F8431078
:103C00006568A560002DC0F29580216821F004014F
:103C10002160002B3DD1002D40F08E806546082AA2
:103C20000BD12368DB0708D5236962689A42DEBF9F
:103C3000302305F8013C05F1FF35ACEB05032361AA
:103C4000CDF800803B4603AA21463046FFF7F6FE3A
:103C500001304DD14FF0FF3005B0BDE8F083394859
:103C600084F84510136821681D1D1B6815600A063D
:103C70000BD5CA0744BF41F0200121601BB922685F
:103C800022F0200222601022B7E74D0648BF9BB207
:103C9000EFE76546B3FBF2F102FB1133C35C05F8B5
:103CA000013D0B460029F5D1B9E713682568616924
:103CB000181D106028061B6801D5196002E06A060D
:103CC000FBD51980002323616546B9E71368191DE8
:103CD00011601D68626800212846FCF781FA08B16E
:103CE000401B606063682361002384F84330A7E7CA
:103CF00023692A4639463046C0470130AAD0236896
:103D00009B0713D4E068039B9842B8BF1846A3E70B
:103D100001234A4639463046C04701309AD0013522
:103D2000E368039A9B1AAB42F2DCEBE7002504F14F
:103D30001909F5E7002BACD1037884F8423004F17F
:103D400042056CE7B1400008C240000838B5064C97
:103D50000023054608462360FEF746F9431C02D1BE
:103D6000236803B12B6038BDB400002010B50C46A9
:103D7000B1F90E1000F096F80028ABBF636DA3896F
:103D80001B1823F48053ACBF6365A38110BD2DE9DC
:103D9000F0411F468B89DB0505460C46164605D5C6
:103DA00002230022B1F90E1000F068F8A389B4F9DB
:103DB0000E1023F48053A38132463B462846BDE8CB
:103DC000F04100F017B810B50C46B1F90E1000F034
:103DD00055F8431CA38915BF606523F4805343F451
:103DE0008053A38118BFA38110BDB1F90E1000F05C
:103DF00013B8000038B5074C0546084611460022A6
:103E000022601A46FEF7C6F8431C02D1236803B1AC
:103E10002B6038BDB400002038B5064C00230546A1
:103E200008462360FEF7F2F8431C02D1236803B171
:103E30002B6038BDB400002038B5074C0023054680
:103E4000084611462360FEF7E9F8431C02D12368B7
:103E500003B12B6038BD00BFB400002038B5064C5C
:103E60000023054608462360FEF7E0F8431C02D114
:103E7000236803B12B6038BDB400002038B5074C6F
:103E8000054608461146002222601A46FEF7D6F87B
:103E9000431C02D1236803B12B6038BDB40000205D
:103EA0007047704738B5074C054608461146002252
:103EB00022601A46FEF7CAF8431C02D1236803B1F8
:103EC0002B6038BDB4000020F8B500BFF8BC08BCBA
:103ED0009E467047F8B500BFF8BC08BC9E467047C8
:103EE00048656C6C6F2068756D616E2E204920618D
:103EF0006D20416E616C6F67206D6F64756C652E0F
:103F00000D00000053746172742073657475702025
:103F10007065726970686572792053544D33324C04
:103F20003435322E2E2E2E2E0D00000046696E697D
:103F30007368207365747570207065726970686548
:103F400072792E205375636365737321200D000011
:103F500044656661756C742073657474696E67730B
:103F60002E205375636365737321200D00000000DC
:103F70005372632F6D61696E2E6300005372632F5D
:103F800053657475705065726970682E6300000027
:103F900057726F6E6720706172616D6574657273C0
:103FA0002076616C75653A2066696C652025732002
:103FB0006F6E206C696E652025640D0A000000009C
:103FC0005372632F636F6E665F615F6D6F64756CB4
:103FD000652E63005372632F7370695F6164632E93
:103FE000630000005372632F756172745F636F6DBD
:103FF0006D2E6300000000000000000001020304B9
:10400000060708090000000001020304A086010061
:10401000400D0300801A060000350C0040420F00DE
:1040200080841E0000093D0000127A000024F40084
:1040300000366E010048E801006CDC02140000202C
:104040000000000000000000000000000000000070
:104050000000000000000000000000000000000060
:104060000000000000000000000000000000000050
:104070000000000000000000000000000000000040
:104080000000000000000000000000000000000030
:104090000000000000000000000000000000000020
:1040A000232D302B2000686C4C0065666745464721
:1040B00000303132333435363738394142434445A4
:1040C0004600303132333435363738396162636413
:0440D0006566000021
:0440D400C50100081A
:0440D800A10100083A
:1040DC009C000020A0000020AC00002000093D0046
:1040EC001400002000000000604000088040000820
:1040FC00404000080000000000000000000000002C
:10410C0000000000000000000000000000000000A3
:10411C000000000000000000000000000000000093
:10412C000000000000000000000000000000000083
:10413C000000000000000000000000000000000073
:04414C00000000006F
:0400000508002F8D33
:00000001FF
