:020000040800F2
:1000000000800220F1290008711400087314000810
:100010007514000877140008791400080000000027
:100020000000000000000000000000007B14000839
:100030007D140008000000007F14000881140008EF
:10004000412A0008412A0008412A0008412A0008E4
:10005000412A0008412A0008412A0008412A0008D4
:10006000412A0008412A0008412A0008412A0008C4
:10007000412A0008412A0008412A0008412A0008B4
:10008000412A0008412A0008412A0008412A0008A4
:10009000412A0008412A0008412A00085515000895
:1000A000412A0008412A0008412A0008412A000884
:1000B000412A0008412A000800000000412A0008E7
:1000C000412A0008412A0008412A0008412A000864
:1000D000412A000885140008412A0008412A000826
:1000E00015150008412A000800000000000000006B
:1000F0000000000000000000000000000000000000
:1001000000000000412A000800000000412A000809
:10011000412A000800000000412A000800000000F9
:10012000412A0008412A0008412A0008412A000803
:10013000412A0008412A0008412A00080000000066
:10014000412A0008412A0008412A0008412A0008E3
:10015000412A0008412A0008412A0008412A0008D3
:10016000412A0008412A0008412A00080000000036
:1001700000000000412A000800000000000000000C
:10018000412A0008412A0008412A0008412A0008A3
:04019000412A0008F8
:1001A00010B5054C237833B9044B13B10448AFF3B1
:1001B00000800123237010BD7400002000000000A7
:1001C0002C39000808B5034B1BB103490348AFF3B2
:1001D000008008BD00000000780000202C390008D5
:1001E00001F0FF01102A2BDB10F0070F08D010F8E8
:1001F000013B013A8B422DD010F0070F42B3F6D1EC
:10020000F0B441EA012141EA014122F007047FF004
:1002100000070023F0E80256083C85EA010586EA5B
:10022000010685FA47F5A3FA87F586FA47F6A5FA97
:1002300087F68EB9EED1F0BC01F0FF0102F00702A3
:1002400032B110F8013B013A83EA010313B1F8D14E
:100250000020704701387047002D06BF354603382F
:10026000073815F0010F07D1013015F4807F02BF68
:10027000013015F4C03F0130F0BC0138704700BFB9
:1002800081F0004102E000BF83F0004330B54FEA47
:1002900041044FEA430594EA050F08BF90EA020FB4
:1002A0001FBF54EA000C55EA020C7FEA645C7FEA47
:1002B000655C00F0E2804FEA5454D4EB5555B8BF6A
:1002C0006D420CDD2C4480EA020281EA030382EADB
:1002D000000083EA010180EA020281EA0303362D6D
:1002E00088BF30BD11F0004F4FEA01314FF4801C40
:1002F0004CEA113102D0404261EB410113F0004F52
:100300004FEA03334CEA133302D0524263EB430308
:1003100094EA050F00F0A780A4F10104D5F1200EA6
:100320000DDB02FA0EFC22FA05F2801841F1000101
:1003300003FA0EF2801843FA05F359410EE0A5F1D5
:1003400020050EF1200E012A03FA0EFC28BF4CF006
:10035000020C43FA05F3C01851EBE37101F00045BC
:1003600007D54FF0000EDCF1000C7EEB00006EEBC9
:100370000101B1F5801F1BD3B1F5001F0CD3490853
:100380005FEA30004FEA3C0C04F101044FEA4452AA
:1003900012F5800F80F09A80BCF1004F08BF5FEA31
:1003A000500C50F1000041EB045141EA050130BD11
:1003B0005FEA4C0C404141EB010111F4801FA4F1B4
:1003C0000104E9D191F0000F04BF01460020B1FA09
:1003D00081F308BF2033A3F10B03B3F120020CDA41
:1003E0000C3208DD02F1140CC2F10C0201FA0CF01F
:1003F00021FA02F10CE002F11402D8BFC2F1200C84
:1004000001FA02F120FA0CFCDCBF41EA0C01904039
:10041000E41AA2BF01EB0451294330BD6FEA040482
:100420001F3C1CDA0C340EDC04F11404C4F120026D
:1004300020FA04F001FA02F340EA030021FA04F37F
:1004400045EA030130BDC4F10C04C4F1200220FAD6
:1004500002F001FA04F340EA0300294630BD21FA14
:1004600004F0294630BD94F0000F83F4801306BFDA
:1004700081F480110134013D4EE77FEA645C18BFCE
:100480007FEA655C29D094EA050F08BF90EA020F65
:1004900005D054EA000C04BF1946104630BD91EA5D
:1004A000030F1EBF0021002030BD5FEA545C05D160
:1004B0004000494128BF41F0004130BD14F580049F
:1004C0003CBF01F5801130BD01F0004545F0FE4113
:1004D00041F470014FF0000030BD7FEA645C1ABF48
:1004E000194610467FEA655C1CBF0B46024650EA7F
:1004F000013406BF52EA033591EA030F41F40021AB
:1005000030BD00BF90F0000F04BF0021704730B530
:100510004FF4806404F132044FF000054FF0000105
:1005200050E700BF90F0000F04BF0021704730B5C6
:100530004FF4806404F1320410F0004548BF40429B
:100540004FF000013EE700BF42004FEAE2014FEAF0
:1005500031014FEA02701FBF12F07F4393F07F4FCB
:1005600081F06051704732F07F4208BF704793F0CE
:100570007F4F04BF41F40021704730B54FF46074E1
:1005800001F0004521F000411CE700BF50EA0102E4
:1005900008BF704730B54FF000050AE050EA01028D
:1005A00008BF704730B511F0004502D5404261EBFD
:1005B00041014FF4806404F132045FEA915C3FF43E
:1005C000D8AE4FF003025FEADC0C18BF03325FEADB
:1005D000DC0C18BF033202EBDC02C2F1200300FA8C
:1005E00003FC20FA02F001FA03FE40EA0E0021FAB1
:1005F00002F11444BDE600BF4FEA4102B2F1E0430C
:1006000024BFB3F5001CDCF1FE5C0DD901F0004CF9
:100610004FEAC0024CEA5070B2F1004F40EB830049
:1006200008BF20F00100704711F0804F21D113F175
:100630003872BCBF01F00040704741F480114FEAAE
:100640005252C2F11802C2F1200C10FA0CF320FA37
:1006500002F018BF40F001004FEAC1234FEAD32354
:1006600003FA0CFC40EA0C0023FA02F34FEA4303BE
:10067000CCE77FEA625307D150EA01331EBF4FF047
:10068000FE4040F44000704701F0004040F0FE4062
:1006900040F40000704700BF10B584B000F020F9AE
:1006A00000F020FD814802F06DFA814802F06AFAFC
:1006B00000F04AF900F06AF900F010FA00F070FA60
:1006C00000F0DCFA002000F02FFB00F0CDFB7948B1
:1006D00002F058FA784B4FF480429A61774C8023AD
:1006E000A362774A116800230B7011684B70116880
:1006F0008B701268D370734802F044FA4FF4806331
:10070000A3624FF40063A3626F4B1C6820216F4803
:1007100000F064FE20706E4B1B6913F0040F08D1CB
:10072000694C23680021187801F09AF923680122A6
:100730001A70654A11680B78DB0043F001034B70B7
:10074000136801229A716BE0052100F0CDFD5B4B2F
:100750001B6913F0010F12D1584B1B6913F0020FE4
:100760000DD04FF090431B6913F0040F07D1042301
:100770008DF80C30544B1B6815229A7124E04F4BB6
:100780001B6913F0010F12D04C4B1B6913F0020FC1
:100790000DD14FF090431B6913F0040F07D10223D2
:1007A0008DF80C30484B1B6815229A710CE04FF005
:1007B00090431B6913F0040F55D006238DF80C30BD
:1007C000414B1B6815229A713D4B1A685378012BD7
:1007D0000FD09378012BFCD03B4B1B6815219971EE
:1007E000D178082943D09DF80C3003F0F8038DF838
:1007F0000C309DF90C30344A1268127843EAC20377
:100800008DF80C3000238DF80D30C0F307238DF8E0
:100810000E308DF80F002F4B19688B79012B2BD0E0
:10082000264B4FF480529A62274B1B689B78022B11
:10083000F1D1234B1B681A78012AECD100221A70DF
:10084000254800F0FDFCB0F1FF3F7FF47DAF9DF83F
:100850000C3003F0F8038DF80C301B4B1B6805229D
:100860009A710020C5E701238DF80C30ACE71D21FB
:1008700099710020D070B6E7CB79012B0ED0002003
:10088000887108710E4B1B680F4A1268134C019453
:1008900000900868496801F099F9C1E70023CB711D
:1008A0000E4903A801F054F9BAE700BF4439000823
:1008B0006839000890390008000400480008004822
:1008C00000000020B439000804000020005400405B
:1008D000000C0048080000200038004000380140AB
:1008E00082B0164B1A6E42F001021A661A6E02F0BE
:1008F00001020192019A9A6D42F080529A659B6DB5
:1009000003F080530093009B0D4BD96821F4E06104
:100910000904090C0B4A0A43DA60DA6800221A76E5
:10092000D9685A76D9689A76D968DA77D96883F817
:100930002020D96883F8222002B0704700100240BE
:1009400000ED00E00003FA0530B589B00D4BDA6C1C
:1009500042F00402DA64DB6C03F004030193019BB0
:100960004FF4E0550295012303930022049205926F
:100970000693054C02A9204601F0BCFAA56109B016
:1009800030BD00BF00100240000800482DE9F043D0
:100990008BB04E4BDA6C42F00102DA64DA6C02F092
:1009A00001020392039ADA6C42F00402DA64DA6C10
:1009B00002F004020292029ADA6C42F00202DA6455
:1009C000DA6C02F002020192019ADA6C42F008023B
:1009D000DA64DB6C03F008030093009B382704976C
:1009E00001250595002406940794089504A94FF065
:1009F000904001F07FFA4FF09046B76103230493D3
:100A000005940894324F04A9384601F073FA05237F
:100A100004930594089404A9304601F06BFA4FF44E
:100A20004079CDF81090059506940794089504A98F
:100A3000384601F05FFA4FF48078CDF810800595C4
:100A400006940794089504A9304601F053FAC7F8B4
:100A50002890C6F8188040F60749CDF81090059503
:100A6000069407940894DFF8708004A9404601F0CA
:100A700041FAC8F828904FF00409CDF81090059479
:100A8000089404A9304601F035FACDF81090059489
:100A9000089504A90F4801F02DFA4FF48043049300
:100AA0000595022606960794089404A9404601F08D
:100AB00021FA80230493059506960794089404A9C7
:100AC000384601F017FA0BB0BDE8F0830010024081
:100AD00000080048000C00480004004870B590B0C1
:100AE0002C4B1A6E42F480421A661A6E02F480424F
:100AF0000292029ADA6C42F00102DA64DB6C03F0D3
:100B000001030193019B4FF4C063039302230493F9
:100B1000032305930025069507950723089303A94A
:100B20004FF0904001F0E6F91B4B09934FF48056CB
:100B30000A960B950C950C230D930E950F95174C5B
:100B400009A9204601F09AFE636843F400436360FC
:100B5000636823F490436360A36823F02A03A360CF
:100B6000236843F0010323604FF4C0530393012330
:100B7000049305950695079303A94FF0904001F063
:100B8000B9F94FF090434FF400629A629E6110B041
:100B900070BD00BF00100240404B4C0000380140C7
:100BA0002DE9F04194B0314D2B6823F040032B60C8
:100BB0002F4B9A6D42F480429A659A6D02F48042FE
:100BC0000392039ADA6C42F00402DA64DA6C02F0FF
:100BD00004020292029ADA6C42F00202DA64DB6CDE
:100BE00003F002030193019B0C2304934FF00208CE
:100BF000CDF814800327069700240794089405264F
:100C0000099604A91B4801F075F94FF44053049369
:100C1000CDF81480069707940894099604A91648FD
:100C200001F068F90A944FF482730B934FF4E06378
:100C30000C930D9401230E934FF480230F93109483
:100C40001194129413940AA9284601F007FC6B68CA
:100C500023F010036B606B6843F008036B602B6834
:100C600043F040032B6014B0BDE8F0810038004031
:100C700000100240000800480004004810B590B081
:100C8000254B9A6D42F400129A659A6D02F4001297
:100C90000292029ADA6C42F00202DA64DB6C03F030
:100CA00002030193019BC0230393022304930323B4
:100CB00005930123069307930423089303A9174878
:100CC00001F018F9164C636843F000736360E36841
:100CD00023F40043E360236823F4002323602368A4
:100CE00023F400332360002309930E4A0A920B93E6
:100CF0000C930D930E930F9309A9204601F093F9DD
:100D0000E36823F4FF6323F00603E360236843F002
:100D10000103236010B010BD001002400004004821
:100D200000540040EC9C901070B596B04C4BDA6CBF
:100D300042F00102DA64DB6C03F001030093009BD4
:100D400018B1012846D016B070BD02230393049356
:100D500000240594069407940126089603A94FF0F1
:100D6000904001F0C7F83E4B9A6D32439A659B6DF7
:100D700033400193019B11A801F000FDADF8444000
:100D800012944FF261031393149411A94FF0804011
:100D900001F0FEFC4FF08045AB6823F4A03323F054
:100DA0000703AB60AB6943F40063AB6109A801F0D2
:100DB0002FFD602309930A960B9447F630030C939A
:100DC0000D9409AA1021284601F02CFD2B6833430D
:100DD0002B60B8E740230393022304930025059575
:100DE00006950795089303A94FF0904001F082F80B
:100DF0001B4B9A6D42F002029A659B6D03F0020351
:100E00000293029B11A801F0B9FCADF84450129571
:100E10004FF2610313931495124C11A9204601F06F
:100E2000B7FCA36823F4A03323F00703A360A369EE
:100E300043F00803A36109A801F0EAFC60230993C9
:100E400001210A910B9547F630030C930D9509AAE1
:100E5000204601F0E7FC236843F00103236072E7BA
:100E600000100240000400402DE9F04784B0924B8E
:100E7000DA68C2F30222C2F10703042B28BF04235D
:100E80001946131D062B40F21181033A4FF0FF3330
:100E90008B40DB4303F0010393401B01DBB2874A25
:100EA00082F8253386490B6843F020030B6020232A
:100EB00053608448426922F470424FF4704393FABD
:100EC000A3F3B3FA83F3012101FA03F3134343615C
:100ED0004FF400440194002302938DF80C108DF818
:100EE0000D3002238DF80E3001A800F03BFF764A4A
:100EF000D06894FAA4F3B3FA83F35B00032101FAF8
:100F000003F320EA030394FAA4F0D360106894FA80
:100F1000A4F3B3FA83F35B0001FA03F320EA0303BB
:100F200094FAA4F41360644BDA68C2F30222C2F1AB
:100F30000703042B28BF04231946131D062B40F278
:100F4000B780033A4FF0FF338B40DB4303F00203DB
:100F500093401B01DBB2594A82F828334FF4807466
:100F6000546002F1C04202F50C52136823F40043AE
:100F70001360DFF85081D8F80C2022F0F002F02343
:100F800093FAA3F3B3FA83F34FF0020909FA03F3D8
:100F90001343C8F80C304FF0200ACDF804A0002607
:100FA000029601278DF80C708DF80D608DF80E708B
:100FB00001A800F0D7FE454AD1689AFAAAF3B3FA1D
:100FC00083F3BB40032505FA03F321EA03039AFAEE
:100FD000AAF1D36011689AFAAAF3B3FA83F3BB407B
:100FE00005FA03F321EA03039AFAAAFA1360D8F880
:100FF000102022F00F020F2393FAA3F3B3FA83F326
:1010000007FA03F31343C8F81030019402968DF8E1
:101010000C708DF80D608DF80E9001A800F0A2FE06
:10102000294AD16894FAA4F3B3FA83F3BB4005FAD2
:1010300003F321EA030394FAA4F1D360116894FA4C
:10104000A4F3B3FA83F3BB409D4021EA050594FA6B
:10105000A4F41560184BDA68C2F30222C2F1070348
:10106000042B28BF04231946131D062B22D9033A4B
:101070004FF0FF338B40DB4303F0030393401B012E
:10108000DBB20E4A82F817334FF40003136003F10A
:101090007E5303F582331A6822F020021A601A6820
:1010A00022F480721A6004B0BDE8F0870022EDE6F9
:1010B000002247E70022DBE700ED00E000E100E06E
:1010C00000380140000001400004004800080048CA
:1010D00008B50A460146024801F0E0FC08BD00BF21
:1010E000E839000838B54D4A136823F0070343F088
:1010F00004031360136803F00703042B40F0868099
:10110000474A136823F4C06343F400731360454BEC
:101110001A6842F480221A601A6842F480321A6017
:10112000404B1B6813F4003FFAD03E4AD2F894308B
:1011300043F00103C2F894303A4BD3F8943013F0E3
:10114000020FF9D0374AD168374B0B4043F4206384
:1011500043F00303D360136843F080731360D368D4
:1011600043F08073D3602F4B1B6813F0007FFAD0DD
:101170002C4A936843F0030393602A4B9B6803F067
:101180000C030C2BF9D1274CA36823F0F003A360C8
:10119000A36823F4E063A360A36823F46053A3600F
:1011A000224D284601F0D4FB214A136843F0040382
:1011B0001360284601F0F2FBD4F8883023F00303D3
:1011C00043F00103C4F888301A4A136823F44053EB
:1011D00043F480531360184BDA68C2F30222C2F161
:1011E0000703042B28BF04231946131D062B12D90D
:1011F000033A4FF0FF338B40DB4303F00F03934080
:101200001B01DBB20C4A82F8233038BD46210B4863
:10121000FFF75EFF74E70022EBE700BF002002400B
:1012200000700040001002408C80FFF900B4C4043C
:1012300010E000E08810024000ED00E0D439000822
:1012400010B582B00023ADF804308DF80630836805
:1012500013F0800FFBD1002114E00023826812F00C
:10126000010F08D101331B4A9342F7D12C211A48B0
:10127000FFF72EFF16E0C26802AB0B4403F8042C04
:101280000131C9B2022913D800230373826812F016
:10129000020FE2D101330F4A9342F7D123210E48C6
:1012A000FFF716FF0D4801F06DFC4FF0FF340DE025
:1012B0009DF804309DF80540240244EA03449DF85B
:1012C00006301C432146064801F0E8FB204602B0E8
:1012D00010BD00BF80969800183A0008403A0008F8
:1012E000283A000800000000D0B52DED028B84B034
:1012F00007EE901A10F4000F03D06FEA40206FEA57
:10130000502007EE100AB8EEC78A9FED2F7A28EE1C
:10131000078AF8EEE77A28EE278A9FED2C7A28EEE6
:10132000077AC7EE278AF5EEC08AF1EE10FA2FD4BD
:10133000DFED277AF4EEE78AF1EE10FA0CD518EE1D
:10134000900AFFF701F91EA3D3E90023FEF79EFFE1
:10135000FFF752F908EE900AFDEEE87A17EE903AA0
:101360001CB218EE100AFFF7EFF806460F4602947B
:1013700018EE900AFFF7E8F8CDE9000132463B4647
:10138000144801F08BFB204604B0BDEC028BD0BDAD
:10139000DFED117AF4EEE78AF1EE10FADCDD18EEFB
:1013A000900AFFF7D1F806A3D3E90023FEF76CFFFC
:1013B000FFF722F908EE900ACEE700BFAFF30080F6
:1013C0009A9999999999E13F0000803300008047EC
:1013D00000FEFF465C3A0008000000C710B5490057
:1013E000836913F4004FFBD1436823F07F7323F428
:1013F0005F3323F47F7323F0030341F0004242F490
:10140000903213434360836913F0010FFBD0002334
:101410008362836913F0010FFBD0836913F0400FDF
:10142000FBD0436823F07F7323F45F3323F47F738F
:1014300023F0030341F0024141F49231194341602A
:10144000836913F0200FFBD0836913F0040FFBD0E6
:10145000446A04F01F04C36943F02003C3612146BA
:10146000024801F01BFB204610BD00BF983A00085F
:101470007047FEE7FEE7FEE7FEE7704770477047FC
:1014800070470000204BDB6913F0200F2CD01E4B5F
:101490009B8C9BB2C3F3080213F4807F1FD0D3B29E
:1014A0001A4A12685178994210D01BB11278B2EBE7
:1014B000D30F19D1164A1268917901290CD01370F3
:1014C000134B1B6801221A715A717047104B1B682D
:1014D0000122DA719A71704700219171EFE70C4B8C
:1014E0001B685979012900D0704719795A54084B63
:1014F0001A6813790133DBB21371042BF4D1012381
:10150000937100235371EFE700380140040000207D
:10151000080000200D4B5B6913F4004F14D00B4BF7
:101520004FF400425A610A4A11680120087010689D
:1015300000214170126891701A6842F020021A600E
:101540001A6842F480721A60704700BF00040140BC
:10155000000000201C4B5B6913F0200F13D01A4BC6
:1015600020225A61194A116801204870196821F037
:1015700020011960196821F4807119601168002335
:10158000CB7012689370104B5B6913F4807F1AD094
:101590000D4B4FF480725A610C4802680121917022
:1015A0001A6822F480721A601A6822F020021A6007
:1015B000074A802191610068C3780133C37000BF7E
:1015C00000BF00BF9162704700040140000000208E
:1015D000000800480023934223DA10B40CE000BF57
:1015E0004FF0604109680029F9D04FF06041087060
:1015F00001332146934210DA4C1C08784FF06041C9
:10160000D1F8801E11F0010FF2D04FF06041D1F8F7
:10161000001E11F0010FEBD0E2E710465DF8044B1D
:1016200070471046704700000346064A126822B110
:10163000044A1068034413607047024A024911606B
:10164000F6E700BF90000020B4000020024B5822B3
:101650001A604FF0FF307047B0000020024B582254
:101660001A604FF0FF307047B0000020024B582244
:101670001A600020704700BFB0000020024B5822C3
:101680001A604FF0FF307047B0000020024B582224
:101690001A604FF0FF307047B000002038B500EB03
:1016A000800253001A460A2B14D040F2F544A3429C
:1016B00036D83C4CA4FB03542409322505FB1434D2
:1016C00024B95A1D642303FB02F305E0642404FBE0
:1016D00003F301E040F21453334C2468B4FBF3F4F9
:1016E00001BB4FF080410D6825F001050D6000251C
:1016F0004D62651ECD626408013C8C630C6844F049
:1017000001040C600A2A26D0142A24D0A2F1150163
:10171000B1F59A7F2CD9B2F5A57F36D2012026E00B
:10172000224BD9E7012910D121490D6825F0010587
:101730000D6000254D62651ECD626408013C4C635E
:101740000C6844F001040C60DCE73B211948FFF70A
:10175000BFFC00200BE018494FF480748C624FF4FA
:1017600000748C620146154801F098F9012038BDDB
:1017700011494FF480748C614FF400748C620146FF
:101780000F4801F08BF90120F1E70B494FF4807409
:101790008C624FF400748C6101460A4801F07EF9B6
:1017A0000120E4E71F85EB510C000020D0FB010075
:1017B00000040040F83A0008000800480C3B00080C
:1017C000483B0008843B000808B5032830D8DFE810
:1017D00000F002101A244FF0904308229A61102260
:1017E0009A6120229A610121144801F057F90120E1
:1017F00008BD4FF0904308229A6210229A6120227D
:101800009A610A21F0E74FF0904308229A61102272
:101810009A6220229A616421E6E74FF09043082201
:101820009A6110229A6120229A624FF47A71DBE762
:101830007F210348FFF74CFC0020D9E7E03A00087D
:10184000F83A000808B50B2800F2FD80DFE810F038
:101850000C002300360049005D00710085009900EE
:10186000AD00C000D500E8007A4B01219962022248
:101870009A6204229A624FF480629A624FF4006284
:101880009A624FF090434FF480729A62724801F06E
:1018900005F9012008BD6F4B01229A61022199626E
:1018A00004229A624FF480629A624FF400629A6254
:1018B0004FF090434FF480729A62E7E7654B012244
:1018C0009A6202229A61042199624FF480629A62BC
:1018D0004FF400629A624FF090434FF480729A6224
:1018E000D4E75C4B01229A6102229A6104229A6237
:1018F0004FF480629A624FF400629A624FF0904314
:101900004FF480729A620821C0E7524B01229A621A
:1019100002229A6204229A614FF480629A624FF422
:1019200000629A624FF090434FF480729A621021E5
:10193000ACE7484B01229A6102229A6204229A6122
:101940004FF480629A624FF400629A624FF09043C3
:101950004FF480729A62202198E73E4B01229A62EE
:1019600002229A6104229A614FF480629A624FF4D3
:1019700000629A624FF090434FF480729A62402165
:1019800084E7344B01229A6102229A6104229A610F
:101990004FF480629A624FF400629A624FF0904373
:1019A0004FF480729A62802170E72A4B01229A627A
:1019B00002229A6204229A624FF480629A614FF482
:1019C00000629A624FF480714FF0904399625DE734
:1019D000204B01229A6102229A6204229A624FF4F9
:1019E00080629A614FF400629A624FF090434FF424
:1019F00080729A624FF4007148E7164B01229A6296
:101A000002229A6104229A624FF4806199614FF434
:101A100000629A624FF090434FF480729A6235E709
:101A20000C4B01229A6202229A6104229A624FF4BC
:101A300080629A614FF4006199624FF090434FF4D5
:101A400080729A6122E74FF482710448FFF740FBED
:101A500000201FE700040048EC3A0008F83A0008AC
:101A600070B50E4600F00705C408374801F08AF843
:101A7000072D42D8DFE805F00410171E252C333A55
:101A80000020FFF7A1FE0020FFF7DCFE032C53D857
:101A9000DFE804F03A40464C0120FFF795FE0020B5
:101AA000FFF7D0FEF2E70120FFF78EFE0120FFF7DF
:101AB000C9FEEBE70120FFF787FE0220FFF7C2FE19
:101AC000E4E70220FFF780FE0020FFF7BBFEDDE722
:101AD0000220FFF779FE0120FFF7B4FED6E70220CF
:101AE000FFF772FE0220FFF7ADFECFE70320FFF7FE
:101AF0006BFE0B20FFF7A6FEC8E740F24D1113481E
:101B0000FFF7E6FA002004E031460120FFF7C6FDAA
:101B1000012070BD31461E20FFF7C0FD0120F8E70F
:101B200031464620FFF7BAFD0120F2E73146642036
:101B3000FFF7B4FD0120ECE74FF4B2710348FFF763
:101B4000C7FA0020E5E700BFB03A0008F83A0008FD
:101B500010B5002407E0D4B130F81430C3F3080303
:101B60000B850134E4B2032C19D80023CA6912F0A2
:101B7000800FF0D10133124A9342F7D1232111484B
:101B8000FFF7A6FA104800F089FF002016E030F8B1
:101B90001430C3F3080343F480730B85E1E700239B
:101BA000CA6912F0400F08D10133054A9342F7D1B8
:101BB00035210448FFF78CFAE4E7012010BD00BF8F
:101BC00000E1F505C03B0008D03B000830B585B00A
:101BD0006C4684E8030014469DF800208DF80C2024
:101BE00000218DF80E108DF80F1012F0070248D169
:101BF0009DF80120FF2A05D082B1012A25D00223B9
:101C0000A37150E00222A270197001F1804202F526
:101C10008232136843F40043136044E00021A17052
:101C200002F1804202F58232106820F40040106018
:101C3000106820F020001060106820F480701060A0
:101C4000197059709970D9702DE00120A070434A25
:101C5000116821F400411160116821F02001116028
:101C6000116821F48071116000221A705A709A7004
:101C7000DA703B4C4FF48045A56200F079FEA56117
:101C800011E0022A11D0032A2AD0042A43D0052ABF
:101C90005ED000238DF80D30FF238DF80F300999A9
:101CA00003A8FFF755FF05B030BD9DF8010080285F
:101CB00003D1E3788DF80D30F1E700F003052846F5
:101CC000FFF782FD012806D000238DF80D30FF2399
:101CD0008DF80F30E3E7E57001238DF80D30DEE776
:101CE0009DF80100802803D123798DF80D30D6E7C7
:101CF00000F00F052846FFF7A5FD012806D00023B8
:101D00008DF80D30FF238DF80F30C8E725710123C2
:101D10008DF80D30C3E79DF80130802B03D1637936
:101D20008DF80D30BBE703F07F059DF820102846A5
:101D3000FFF7B4FC012806D000238DF80D30FF23F7
:101D40008DF80F30ABE7657101238DF80D30A6E7F4
:101D5000A3798DF80D300123A371A0E700040140A1
:101D6000000400480346027A002A00F0A98010B45B
:101D70000268002A51D0417A012919D019B10229EB
:101D800021D0002009E05A49486820EA02024A604E
:101D90001A68086802430A6001209A7A002A3DD036
:101DA000022A25D0032A2ED0012A16D0002035E0A1
:101DB0004F49086820EA02020A601A68486802432C
:101DC0004A600120E9E74A49086802430A601A6844
:101DD000486802434A600120DFE71C68444AD16832
:101DE00021EA0401D160196894682143916015E0EB
:101DF0001C683F4A916821EA040191601968D4681F
:101E00002143D1600AE01968394A946821439160FE
:101E10001968D4682143D16000E001205A68CAB132
:101E2000597A012919D019B1022920D0002008E0DF
:101E30002F494C6A24EA02024A625A680C6A224319
:101E40000A629A7A32B1022A25D0032A2ED0012AB8
:101E500016D000205DF8044B704725490C6A24EA2F
:101E600002020A625A684C6A22434A62E9E7204940
:101E70000C6A22430A625A684C6A22434A62E0E7CB
:101E80005C681B4AD16A21EA0401D1625B68916AED
:101E90000B439362DEE75C68154A916A21EA04010C
:101EA00091625B68D16A0B43D362D3E75968104AE9
:101EB000946A214391625B68D16A0B43D362C9E79C
:101EC00000680B4A116821EA000111601868516826
:101ED00021EA000151605868116A21EA000111628B
:101EE0005968536A23EA010353620120704700BF17
:101EF00000040140F0B40A6892FAA2F2B2FA82F247
:101F000018E00E69C46893FAA3F5B5FA85F56D007B
:101F1000032707FA05F524EA050493FAA3F5B5FAB1
:101F200085F56D0006FA05F52C43C4604C68022C5B
:101F300036D001320B6833FA02F464D001249440A5
:101F40002340F6D04E68046893FAA3F5B5FA85F5F8
:101F50006D00032707FA05F524EA050493FAA3F5B3
:101F6000B5FA85F56D0006FA05F52C4304604C685A
:101F7000013C012CC5D88E68846893FAA3F5B5FAA4
:101F800085F56D0007FA05F524EA050493FAA3F533
:101F9000B5FA85F56D0006FA05F52C438460B0E7C7
:101FA00093FAA3F4B4FA84F4072C15D84D69046AA3
:101FB00093FAA3F6B6FA86F6B6000F2707FA06F6E6
:101FC00024EA060493FAA3F3B3FA83F39B0005FA19
:101FD00003F323430362ACE74C69456A1B0A93FA97
:101FE000A3F6B6FA86F6B6000F2707FA06F625EA34
:101FF000060593FAA3F3B3FA83F39B0004FA03F301
:102000002B43436295E74A68013A012A02D901202D
:10201000F0BC7047C968426822EA030201FB03F37F
:1020200013434360F3E710B4036823F00103036034
:102030008A68CC68036823F4F85342EA0422134305
:1020400003604B680361036843F001030360836826
:1020500023F4004383600A698C69836823F4FF6377
:1020600023F007032243134383600B691BB183688A
:1020700043F4004383600B68026822F44012134368
:1020800003604B69426822F400421343436001201D
:102090005DF8044B70470000034B9B68C3F30313C8
:1020A000024AD35CD840704700100240F83B000859
:1020B000034B9B68C3F30223024AD35CD8407047AA
:1020C00000100240083C0008034B9B68C3F3C22386
:1020D000024AD35CD840704700100240083C000818
:1020E000394BDB6803F00303012B16D0002B3FD0E4
:1020F000364A354BD868C0F302100130B2FBF0F21B
:10210000D868C0F3062000FB02F0DB68C3F341632C
:1021100001335B00B0FBF3F070472B4B1B6813F0EF
:10212000080F11D1284B1B6813F0080F06D0264B5F
:102130001B680023264A52F82320DAE7224BD3F803
:102140009430C3F30323F5E71F4B1B6813F0080F0C
:1021500007D01D4B1B68C3F303131D4A52F82320FD
:10216000C7E7194BD3F894301B0903F0F003F4E7E9
:10217000154B1B6813F0080F11D1134B1B6813F09C
:10218000080F06D0104B1B680023114A52F8232079
:10219000AFE70D4BD3F89430C3F30323F5E70A4BB5
:1021A0001B6813F0080F07D0074B1B68C3F303131A
:1021B000074A52F823209CE7034BD3F894301B09BD
:1021C00003F0F003F4E700BF001002400024F40025
:1021D000103C000808B5354B9B6803F00C030C2B32
:1021E00036D8DFE803F007353535603535356035ED
:1021F000353532002D4B1B6813F0080F11D12B4BD6
:102200001B6813F0080F06D0284B1B680023284AD0
:1022100052F8230048E0254BD3F89430C3F303234E
:10222000F5E7224B1B6813F0080F07D01F4B1B6804
:10223000C3F303131E4A52F8230035E01B4BD3F8B7
:1022400094301B0903F0F003F4E7FFF749FF2BE09C
:10225000164B1B6813F0080F11D1144B1B6813F0B9
:10226000080F06D0114B1B680023114A52F82300B7
:102270001AE00E4BD3F89430C3F30323F5E70B4B6E
:102280001B6813F0080F07D0084B1B68C3F3031338
:10229000074A52F8230007E0044BD3F894301B0997
:1022A00003F0F003F4E7034808BD00BF001002404C
:1022B000103C00080024F40008B5032805D00C28C1
:1022C0002BD0302851D0002008BD434BD3F88830A4
:1022D000034043EA0040414B98420FD0B0F1031F46
:1022E00013D0013B984206D0FFF774FFFFF7D4FEEE
:1022F000FFF7EAFEE8E7FFF76DFFE5E7364B1B68FF
:1023000013F4806F59D10020DEE7334BD3F89030BF
:1023100013F0020F53D10020D6E72F4BD3F88830AB
:10232000034043EA00402E4B98420FD0B0F10C1FFF
:1023300013D0043B984206D0FFF74CFFFFF7ACFEEA
:10234000FFF7B6FEC0E7FFF745FFBDE7224B1B686E
:1023500013F4806F36D10020B6E71F4BD3F89030CE
:1023600013F0020F30D10020AEE71B4BD3F88830BA
:10237000034043EA00401B4B98420FD0B0F1301F9E
:1023800013D0103B984206D0FFF724FFFFF784FEDE
:10239000FFF78EFE98E7FFF71DFF95E70E4B1B68D2
:1023A00013F4806F13D100208EE70B4BD3F89030DD
:1023B00013F0020F0DD1002086E70B4884E74FF49D
:1023C000004081E708487FE74FF400407CE706487B
:1023D0007AE74FF4004077E7001002400200030064
:1023E00008000C00200030000024F400C02801D0B8
:1023F0000020704708B5164BD3F88830034043EAF5
:102400000040144B98420FD0B0F1C01F13D0403B96
:10241000984206D0FFF7DEFEFFF73EFEFFF748FECC
:1024200001E0FFF7D7FE08BD094B1B6813F4806F6E
:1024300009D10020F7E7064BD3F8903013F0020FD4
:1024400003D10020EFE70448EDE74FF40040EAE74E
:10245000001002408000C0000024F400036813F064
:10246000400F2CD110B4026822F47F4222F0BF0248
:102470000B684C682343CC6823430C6923434C69A5
:1024800023438C692343CC6923430C6A23431343BE
:102490000360436823F4706323F004038A68CC8AE2
:1024A0002243134343600B6AB3F5005F03D001205E
:1024B0005DF8044B70478B8C03610120F8E7002026
:1024C0007047000030B4036A23F001030362036A1B
:1024D0004268846924F4803424F073040D682C432A
:1024E00023F002030D692B4323F001034D682B43B6
:1024F000124DA84207D005F5A055A84203D005F516
:102500008065A84212D123F008034D6943EA850390
:1025100023F004038D6843EA850322F480728D69F9
:102520002A4322F40072CD6942EA45024260846186
:10253000CA6842630362012030BC7047002C01402E
:1025400030B4036A23F010030362036A42688469AB
:1025500024F0807424F4E6440D6844EA052423F052
:1025600020030D6943EA051323F010034D6843EA85
:102570000513134DA84207D005F5A055A84203D076
:1025800005F58065A84213D123F080034D6943EA25
:10259000851323F040038D6843EA851322F480629B
:1025A0008D6942EA850222F40062CD6942EAC502E1
:1025B00042608461CA6882630362012030BC704754
:1025C000002C014030B4036A23F480730362036A71
:1025D0004268C46924F4803424F073040D682C43E9
:1025E00023F400730D6943EA052323F480734D68D7
:1025F00043EA0523134DA84207D005F5A055A8428C
:1026000003D005F58065A84213D123F400634D691A
:1026100043EA852323F480638D6843EA852322F40B
:1026200080528D6942EA051222F40052CD6942EAD5
:1026300045124260C461CA68C2630362012030BCB3
:10264000704700BF002C014030B4036A23F480536C
:102650000362036A4468C26922F0807222F4E6428F
:102660000D6842EA052223F400530D6943EA05335D
:1026700023F480534D6843EA05330C4DA84207D03C
:1026800005F5A055A84203D005F58065A84204D100
:1026900024F480448D6944EA85144460C261CA68A8
:1026A00002640362012030BC704700BF002C01406F
:1026B00030B4036A23F480330362036A426D22F468
:1026C000803222F070020C68224323F400330C693C
:1026D00043EA044323F480334C6843EA04430C4C3C
:1026E000A04207D004F5A054A04203D004F58064B2
:1026F000A04206D1446824F480348D6944EA05245C
:1027000044604265CA6882650362012030BC70473C
:10271000002C014030B4036A23F480130362036A7F
:10272000426D22F0807222F4E0420C6842EA0422F8
:1027300023F400130C6943EA045323F480134C6818
:1027400043EA04530C4CA04207D004F5A054A04225
:1027500003D004F58064A04206D1446824F48024A8
:102760008D6944EA852444604265CA68C265036293
:10277000012030BC704700BF002C014000230380C3
:1027800043604FF0FF328260C36003747047000003
:1027900003681E4A904206D0B0F1804F03D0A2F5E4
:1027A0009432904203D123F070034A681343174ACE
:1027B00090420ED0B0F1804F0BD0A2F594329042EF
:1027C00007D002F59E32904203D002F5806290421B
:1027D00003D123F44073CA68134303608B68C36258
:1027E0000B888362094B984207D003F5A0539842A7
:1027F00003D003F58063984201D10B7C03634369E6
:1028000043F0010343610120704700BF002C0140E9
:102810000023036043608360C3600361436183619D
:10282000C361704708B5B1F5807F17D00AD9B1F5FB
:10283000803F1BD0B1F5801F1CD0B1F5805F11D057
:1028400000200AE0012905D01029F9D11146FFF72F
:1028500077FE02E01146FFF735FE08BD1146FFF78F
:10286000B1FEFAE71146FFF7EFFEF6E71146FFF774
:102870001FFFF2E71146FFF74DFFEEE738B503689B
:1028800013F0010F53D10D46044603682B4A1A403A
:102890004B68C9680B4329690B43A9690B43134370
:1028A0000360AB68426822F44052134343606B6993
:1028B000826822F4407213438360214B98420AD00D
:1028C000204B984219D0204B98421AD01F4B984267
:1028D0001BD000202CE00320FFF7EEFC48B32A6851
:1028E0004AB3AB69B3F5004F13D000EB5203B3FB0F
:1028F000F2F39BB2E36001201AE00C20FFF7DCFC4E
:10290000ECE73020FFF7D8FCE8E7C020FFF76EFDCA
:10291000E4E7530803EB4003B3FBF2F34FF6F07226
:102920001A40C3F342031343E360012000E0002098
:1029300038BD0020FCE70020FAE700BFF369FFEF95
:10294000003801400044004000480040004C004076
:10295000054BA3FB003080090138044B586000226E
:102960009A6005221A607047D34D621010E000E0B3
:1029700082B0094B1B680193019BB0F1FF3F00D06F
:10298000013030B1044B1B6813F4803FF9D001389B
:10299000F7E702B0704700BF10E000E0014B18609D
:1029A000704700BF0C0000200F49D1F8883043F475
:1029B0007003C1F888300D4B1A6842F001021A60AA
:1029C000002098601A6822F0A85222F410221A609F
:1029D0004FF48052DA601A6822F480221A609861FB
:1029E0004FF000638B60704700ED00E00010024084
:1029F000DFF834D0002103E00C4B5B584350043126
:102A00000B480C4B42189A42F6D30B4A02E00023C3
:102A100042F8043B094B9A42F9D3FFF7C5FF00F097
:102A200011F8FDF739FEFEE700800220E03C0008C7
:102A3000000000207400002074000020B40000207A
:102A4000FEE7000070B50D4E0D4CA41BA410002530
:102A5000A54209D10B4E0C4C00F068FFA41BA4103A
:102A60000025A54205D170BD56F82530984701359F
:102A7000EEE756F8253098470135F2E7D83C0008D4
:102A8000D83C0008D83C0008DC3C0008024403465F
:102A9000934200D1704703F8011BF9E70FB40A4BCA
:102AA00013B51C6824B1A36913B9204600F022FABB
:102AB00005AB049AA1680193204600F0DBFB02B04D
:102AC000BDE8104004B070471000002070B50E46FD
:102AD000054618B183690BB900F00CFAAB69AC6814
:102AE00013B9284600F006FA234B9C4217D16C68B4
:102AF000A3891B071DD52369DBB1013EA36816F826
:102B0000011F013BA360E9B9002B2EDA22460A21FE
:102B1000284600F03FF8013011D00A2011E0174B91
:102B20009C4201D1AC68E3E7154B9C4208BFEC68BE
:102B3000DEE72146284600F07FF80028DDD04FF080
:102B4000FF3070BD002B04DAA2699A4206DC0A2924
:102B500004D023685A1C22601970CFE72246284609
:102B600000F018F80130C9D1E9E723680A205A1C9F
:102B700022601870E5E700BF643C0008843C000850
:102B8000443C0008024B01461868FFF79FBF00BF96
:102B900010000020F8B50E461446054618B18369AA
:102BA0000BB900F0A7F9214B9C422AD16C68A369AC
:102BB000A360A3891A072ED5236963B3236920680C
:102BC000C01A6369F6B28342374604DC21462846C0
:102BD00000F026F928BBA368013BA36023685A1CB8
:102BE00022601E7063690130834204D0A389DB0731
:102BF00019D50A2E17D12146284600F011F990B1B7
:102C00000FE00B4B9C4201D1AC68D0E7094B9C42D2
:102C100008BFEC68CBE72146284600F00DF80028F5
:102C2000CCD04FF0FF373846F8BD00BF643C0008F9
:102C3000843C0008443C0008324B70B51D680646D1
:102C40000C4625B1AB6913B9284600F053F92E4B59
:102C50009C420FD16C68B4F90C309AB215072CD491
:102C6000D00611D40922326043F04003A3814FF013
:102C7000FF303EE0254B9C4201D1AC68EBE7244B92
:102C80009C4208BFEC68E6E7510712D5616B41B181
:102C900004F14403994202D0304600F019FA0023AF
:102CA0006363A38923F02403A38100236360236962
:102CB0002360A38943F00803A38123694BB9A38947
:102CC00003F42073B3F5007F03D02146304600F0B3
:102CD000BFF9A28912F001030CD00023A36063693D
:102CE0005B42A361236953B9B4F90C3013F080003F
:102CF000BAD170BD920758BF6369A360F2E70020A4
:102D0000F7E700BF10000020643C0008843C000886
:102D1000443C00088A892DE9F041054610070C461D
:102D200058D44B68002B05DC0B6C002B02DC002018
:102D3000BDE8F081E66A002EF9D0002312F480523B
:102D40002F68216A2B6032D0606DA3895A0705D5A0
:102D50006368C01A636B0BB1236CC01A0023024670
:102D6000E66A216A2846B047431CA38906D1296830
:102D70001D2948D8294ACA40D60744D50022626096
:102D8000D9042269226004D5421C01D12B6803B901
:102D90006065616B2F600029C9D004F1440399423A
:102DA00002D0284600F094F900206063C0E70123B8
:102DB0002846B047411CC8D12B68002BC5D01D2B1D
:102DC00001D0162B01D12F60B1E7A38943F0400356
:102DD000A381ADE70F69002FA9D093070E6808BF44
:102DE0004B690F6018BF0023A6EB07088B60B8F192
:102DF000000F9CDD43463A46216AA66A2846B04742
:102E0000002806DCA38943F04003A3814FF0FF3084
:102E10008EE70744A8EB0008E9E700BF0100402067
:102E200038B50B6905460C46DBB118B183690BB99F
:102E300000F060F80C4B9C4209D16C68B4F90C307E
:102E40007BB121462846BDE83840FFF763BF074BFA
:102E50009C4201D1AC68F1E7054B9C4208BFEC688D
:102E6000ECE7002038BD00BF643C0008843C00084B
:102E7000443C0008002310B50446C0E900338360D9
:102E800081814366C281C0E9043383611946082207
:102E90005C30FFF7FBFD054B6362054BA362054BFE
:102EA000E362054B2462236310BD00BFD1370008E5
:102EB000F33700082B3800084F380008014900F0AC
:102EC00085B800BF212E000870B54A1E68255543FD
:102ED0000E4605F1740100F049F9044640B10021A5
:102EE000C0E900160C30A06005F16802FFF7CEFDC6
:102EF000204670BD836910B5044633BBC0E9123368
:102F00000365124B124A1B688262984204BF012378
:102F1000836100F01FF86060204600F01BF8A0609D
:102F2000204600F017F80022E06004216068FFF7F7
:102F3000A1FF01220921A068FFF79CFF02221221B4
:102F4000E068FFF797FF0123A36110BD403C000834
:102F5000BD2E0008F8B51B4B1E68B369074613B9B0
:102F60003046FFF7C7FF4836D6E90134013B03D5A9
:102F7000336833B13668F7E7B4F90C506DB1683493
:102F8000F4E704213846FFF79FFF30600028F1D1B5
:102F90000C233B6004462046F8BD0B4B6566C4E934
:102FA0000055A560C4E90335C4E905550822294642
:102FB00004F15C00FFF76AFDC4E90D55C4E9125540
:102FC000E9E700BF403C00080100FFFF2DE9F8439E
:102FD0008046894600F14804002614B93046BDE811
:102FE000F883D4E90175013F01D52468F5E7AB8981
:102FF000012B07D9B5F90E30013303D029464046DD
:10300000C84706436835EEE770B50E46B1F90E10B5
:10301000002996B014461D4607DA00232B60B389B9
:103020001A0610D44FF480630EE06A4600F036FCB6
:103030000028F2DB019A02F47042A2F500535A42D2
:103040005A412A60EEE740230020236016B070BD8D
:103050008B8973B59D0706460C4607D504F14703D7
:10306000236023610123636102B070BD01AB6A4636
:10307000FFF7CAFF00990546304600F077F848B9D7
:10308000B4F90C309A05EFD423F0030343F00203A4
:10309000A381E3E70D4BB362A389206043F0800373
:1030A000A381009B6361019B20615BB1B4F90E10A9
:1030B000304600F005FC28B1A38923F0030343F058
:1030C0000103A381A3891D43A581CDE7BD2E00087F
:1030D00038B50546002945D051F8043C0C1F002B9B
:1030E000B8BFE41800F00EFC1F4A1368104633B94D
:1030F000636014602846BDE8384000F004BCA34279
:103100000CD921686218934204BF1A685B68636037
:1031100004BF521822600460ECE713465A680AB1F3
:10312000A242FAD919685818A0420BD1206801446C
:10313000581882421960DDD1106852685A60014403
:103140001960D7E702D90C232B60D3E72068211838
:103150008A4204BF11685268626004BF0918216086
:103160005C60C7E738BD00BF9400002070B5CD1C7F
:1031700025F0030508350C2D38BF0C25002D06461B
:1031800001DBA94203D90C233360002070BD00F09D
:10319000B9FB214A1468214691B9204C23681BB918
:1031A000304600F005FB20602946304600F000FB69
:1031B000431C24D10C233360304600F0A4FBE4E729
:1031C0000B685B1B18D40B2B0FD90B60CD50CC18A0
:1031D000304600F098FB04F10B00231D20F007009F
:1031E000C31AD3D05A42E250D0E78C424B6816BF84
:1031F000636013600C46EBE70C464968CCE7C41CDF
:1032000024F00304A04205D0211A304600F0D0FA81
:103210000130CFD02560DBE794000020980000202B
:103220009368013B002B10B4936008DA9469A342C1
:1032300001DB0A2903D15DF8044BFFF7ABBC13682F
:10324000581C1060197008465DF8044B7047F8B5BB
:1032500006460F461446D518AC4201D1002007E0BF
:103260003A4614F8011B3046FFF7DAFF431CF3D14E
:10327000F8BD00002DE9F04F0C469DB017461D46E5
:10328000064618B183690BB9FFF734FE7C4B9C42AC
:1032900058D17468A38918075ED52369002B5BD0C9
:1032A0000023099320238DF8293030238DF82A300C
:1032B00003954FF0010BB846454615F8013B0BB19D
:1032C000252B54D1B8EB070A0BD053463A4621467A
:1032D0003046FFF7BCFF013000F0C280099B534429
:1032E000099398F80030002B00F0BA8000234FF0CB
:1032F000FF32CDE90523049307938DF853301A93D9
:10330000A846052218F8011B5E48FCF769FF049BDC
:1033100078BBD90644BF20228DF853201A0744BF3A
:103320002B228DF853202A782A2A2AD0079AA846D9
:1033300000200A25414611F8013B303B092B69D991
:1033400060B324E0504B9C4201D1B468A2E74F4BDC
:103350009C4208BFF4689DE721463046FFF76CFCAD
:1033600000289DD04FF0FF301DB0BDE8F08FA8467B
:10337000A2E7444A801A0BFA00F01843049045462D
:10338000BEE7039A111D12680391002A01DB079220
:1033900004E0524243F002030792049398F800308D
:1033A0002E2B0ED198F801302A2B38D1039B1A1DF1
:1033B0001B680392002BB8BF4FF0FF3308F10208DF
:1033C0000593334D98F8001003222846FCF708FFB8
:1033D00040B14023401B03FA00F0049B034308F173
:1033E0000108049398F800102A488DF82810062246
:1033F00008F10107FCF7F4FE002837D0264B1BBB71
:10340000039B073323F0070308330393099B4B44C3
:10341000099350E705FB0232012088468AE7002322
:1034200008F10108059319460A25404610F8012BBA
:10343000303A092A03D9002BC3D00591C1E705FB17
:10344000012101238046F0E703AB00932246134B92
:1034500004A93046AFF30080B0F1FF3F8146D5D1DB
:10346000A3895B063FF57EAF09987DE703AB009328
:1034700022460A4B04A9304600F088F8ECE700BF6A
:10348000643C0008A43C0008843C0008443C00085C
:10349000AA3C0008AE3C0008000000004F320008C3
:1034A0002DE9F04791461F468A680B69DDF82080B8
:1034B0009342B8BF1346C9F8003091F8432006463E
:1034C0000C4612B10133C9F800302368990642BF97
:1034D000D9F800300233C9F80030256815F0060528
:1034E00007D104F1190AE368D9F800209B1AAB420E
:1034F00028DC94F843302268003318BF0123920679
:103500002DD404F1430239463046C047013020D063
:103510002368E568D9F8002003F00603042B08BFF0
:10352000AD1AA36822690CBF25EAE5750025934210
:10353000C4BF9B1AED184FF000091A344D451AD13B
:10354000002008E00123524639463046C04701308A
:1035500003D14FF0FF30BDE8F0870135C3E7E11834
:103560005A1C302081F84300224494F8451082F818
:1035700043100233C5E70123224639463046C0478F
:103580000130E6D009F10109D8E700002DE9F04348
:1035900001F1430C0C46097E85B06E29174606469C
:1035A00098460C9A00F0B38022D8632936D00AD806
:1035B000002900F0B980582900F0838004F1420509
:1035C00084F8421032E0642901D06929F6D12068DC
:1035D0001368050603F104012AD51B681160002B4E
:1035E00003DA2D225B4284F843206F480A2239E037
:1035F000732900F09D8008D86F2920D07029DDD173
:10360000236843F02003236003E0752917D078294D
:10361000D4D1782384F84530644855E01368191DE7
:103620001B68116004F1420584F8423001238CE0EC
:103630001B68116010F0400F18BF1BB2CFE7136872
:103640002568181D1060280601D51B6802E0680671
:10365000FBD51B8854486F2914BF0A220822002179
:1036600084F843106568A560002DC0F2958021683C
:1036700021F004012160002B3DD1002D40F08E800F
:103680006546082A0BD12368DB0708D523696268E1
:103690009A42DEBF302305F8013C05F1FF35ACEB63
:1036A00005032361CDF800803B4603AA214630463E
:1036B000FFF7F6FE01304DD14FF0FF3005B0BDE809
:1036C000F083394884F84510136821681D1D1B6874
:1036D00015600A060BD5CA0744BF41F020012160DE
:1036E0001BB9226822F0200222601022B7E74D06A3
:1036F00048BF9BB2EFE76546B3FBF2F102FB113323
:10370000C35C05F8013D0B460029F5D1B9E7136804
:1037100025686169181D106028061B6801D51960AD
:1037200002E06A06FBD51980002323616546B9E7EC
:103730001368191D11601D68626800212846FCF796
:103740004FFD08B1401B606063682361002384F86B
:103750004330A7E723692A4639463046C04701303F
:10376000AAD023689B0713D4E068039B9842B8BF94
:103770001846A3E701234A4639463046C047013080
:103780009AD00135E368039A9B1AAB42F2DCEBE76F
:10379000002504F11909F5E7002BACD1037884F872
:1037A000423004F142056CE7B53C0008C63C000815
:1037B00038B5064C0023054608462360FDF734FF64
:1037C000431C02D1236803B12B6038BDB000002038
:1037D00010B50C46B1F90E1000F096F80028ABBFFA
:1037E000636DA3891B1823F48053ACBF6365A38169
:1037F00010BD2DE9F0411F468B89DB0505460C46BF
:10380000164605D502230022B1F90E1000F068F823
:10381000A389B4F90E1023F48053A38132463B46AA
:103820002846BDE8F04100F017B810B50C46B1F9D4
:103830000E1000F055F8431CA38915BF606523F4F2
:10384000805343F48053A38118BFA38110BDB1F905
:103850000E1000F013B8000038B5074C05460846B6
:103860001146002222601A46FDF7B4FE431C02D125
:10387000236803B12B6038BDB000002038B5064C7A
:103880000023054608462360FDF7E0FE431C02D1F5
:10389000236803B12B6038BDB000002038B5074C59
:1038A00000230546084611462360FDF7D7FE431C5A
:1038B00002D1236803B12B6038BD00BFB0000020E7
:1038C00038B5064C0023054608462360FDF7CEFEBA
:1038D000431C02D1236803B12B6038BDB000002027
:1038E00038B5074C054608461146002222601A46A4
:1038F000FDF7C4FE431C02D1236803B12B6038BD21
:10390000B00000207047704738B5074C05460846A0
:103910001146002222601A46FDF7B8FE431C02D170
:10392000236803B12B6038BDB0000020F8B500BF9C
:10393000F8BC08BC9E467047F8B500BFF8BC08BC90
:043940009E467047E8
:1039440048656C6C6F2068756D616E2E204920612E
:103954006D20416E616C6F67206D6F64756C652EB0
:103964000D000000537461727420736574757020C7
:103974007065726970686572792053544D33324CA6
:103984003435322E2E2E2E2E0D00000046696E691F
:1039940073682073657475702070657269706865EA
:1039A40072792E205375636365737321200D0000B3
:1039B40044656661756C742073657474696E6773AD
:1039C4002E205375636365737321200D000000007E
:1039D4005372632F53657475705065726970682EE5
:1039E4006300000057726F6E6720706172616D65CD
:1039F400746572732076616C75653A2066696C65CE
:103A0400202573206F6E206C696E652025640D0A75
:103A1400000000005372632F7370695F6164632E4A
:103A2400630000005241575F446174615F41443751
:103A34003736373D256C75200D0A00004552524F2C
:103A440052215265616420414443207468726F7549
:103A54006768205350490D00444154415F41444339
:103A64005F3234623D2566200D0A20444154415F93
:103A740031365F414443203D2566200D0A204441F0
:103A840054415F31365F414443203D20256C75200D
:103A94000D0A000041646472657373204D6F647590
:103AA4006C653D2564200D0A000000000D0A4D617F
:103AB4006E75616C20636F6E666967757261746997
:103AC4006F6E206F662074686520616E616C6F672D
:103AD400206D6F64756C653A0D0000004B31203D1C
:103AE400202564200D0A00004B32203D202564204F
:103AF4000D0A00005372632F636F6E665F615F6D22
:103B04006F64756C652E6300506172616D5F7661E0
:103B14006C75653D25642020466375743D256C7580
:103B2400487A20204669636C6B3D256C75487A2081
:103B340020465F5341303D3020465F5341313D3094
:103B44000D0A0000506172616D5F76616C75653DB0
:103B540025642020466375743D256C75487A2020C1
:103B64004669636C6B3D256C75487A2020465F532B
:103B740041303D3120465F5341313D300D0A000054
:103B8400506172616D5F76616C75653D25642020BE
:103B9400466375743D256C75487A20204669636CCC
:103BA4006B3D256C75487A2020465F5341303D308B
:103BB40020465F5341313D310D0A00005372632F9B
:103BC400756172745F636F6D6D2E63004552524F61
:103BD40052207472616E736D697474696E672064C7
:103BE400617461207468726F75676820554152541E
:103BF4003100000000000000000000000102030486
:103C0400060708090000000001020304A086010061
:103C1400400D0300801A060000350C0040420F00DE
:103C240080841E0000093D0000127A000024F40084
:103C340000366E010048E801006CDC02140000202C
:103C44000000000000000000000000000000000070
:103C54000000000000000000000000000000000060
:103C64000000000000000000000000000000000050
:103C74000000000000000000000000000000000040
:103C84000000000000000000000000000000000030
:103C94000000000000000000000000000000000020
:103CA400232D302B2000686C4C0065666745464721
:103CB40000303132333435363738394142434445A4
:103CC4004600303132333435363738396162636413
:043CD4006566000021
:043CD800C50100081A
:043CDC00A10100083A
:103CE0009C000020A0000020A800002000093D004A
:103CF0001400002000000000643C0008843C000820
:103D0000443C00080000000000000000000000002B
:103D100000000000000000000000000000000000A3
:103D20000000000000000000000000000000000093
:103D30000000000000000000000000000000000083
:103D40000000000000000000000000000000000073
:043D5000000000006F
:04000005080029F1D5
:00000001FF
